{
	"data": {
		"bytecode": {
			"linkReferences": {},
			"object": "60806040526040518060e00160405280735b38da6a701c568545dcfcb03fcb875f56beddc473ffffffffffffffffffffffffffffffffffffffff1673ffffffffffffffffffffffffffffffffffffffff16815260200173ab8483f64d9c6d1ecf9b849ae677dd3315835cb273ffffffffffffffffffffffffffffffffffffffff1673ffffffffffffffffffffffffffffffffffffffff168152602001734b20993bc481177ec7e8f571cecae8a9e22c02db73ffffffffffffffffffffffffffffffffffffffff1673ffffffffffffffffffffffffffffffffffffffff1681526020017378731d3ca6b7e34ac0f824c42a7cc18a495cabab73ffffffffffffffffffffffffffffffffffffffff1673ffffffffffffffffffffffffffffffffffffffff16815260200173617f2e2fd72fd9d5503197092ac168c91465e7f273ffffffffffffffffffffffffffffffffffffffff1673ffffffffffffffffffffffffffffffffffffffff1681526020017317f6ad8ef982297579c203069c1dbffe4348c37273ffffffffffffffffffffffffffffffffffffffff1673ffffffffffffffffffffffffffffffffffffffff168152602001735c6b0f7bf3e7ce046039bd8fabdfd3f9f502167873ffffffffffffffffffffffffffffffffffffffff1673ffffffffffffffffffffffffffffffffffffffff16815250600c9060076102079291906104b5565b50348015610213575f80fd5b506040518060400160405280600d81526020017f41756374696f6e455243373231000000000000000000000000000000000000008152506040518060400160405280600481526020017f414e465400000000000000000000000000000000000000000000000000000000815250815f908161028e9190610786565b50806001908161029e9190610786565b505050600760ff166007146102b1575f80fd5b5f5b600760ff168160ff1610156103c9575f73ffffffffffffffffffffffffffffffffffffffff16600c8260ff16600781106102f0576102ef610855565b5b015f9054906101000a900473ffffffffffffffffffffffffffffffffffffffff1673ffffffffffffffffffffffffffffffffffffffff1603610330575f80fd5b6001600a5f600c8460ff166007811061034c5761034b610855565b5b015f9054906101000a900473ffffffffffffffffffffffffffffffffffffffff1673ffffffffffffffffffffffffffffffffffffffff1673ffffffffffffffffffffffffffffffffffffffff1681526020019081526020015f205f6101000a81548160ff02191690831515021790555080806001019150506102b3565b506103d9336103de60201b60201c565b610882565b5f6103ed61048d60201b60201c565b90508160135f6101000a81548173ffffffffffffffffffffffffffffffffffffffff021916908373ffffffffffffffffffffffffffffffffffffffff1602179055508173ffffffffffffffffffffffffffffffffffffffff168173ffffffffffffffffffffffffffffffffffffffff167fe9a5158ac7353c7c7322ececc080bc8e89334efa5795b6e21e40eb266b0003d660405160405180910390a35050565b5f60135f9054906101000a900473ffffffffffffffffffffffffffffffffffffffff16905090565b8260078101928215610520579160200282015b8281111561051f578251825f6101000a81548173ffffffffffffffffffffffffffffffffffffffff021916908373ffffffffffffffffffffffffffffffffffffffff160217905550916020019190600101906104c8565b5b50905061052d9190610531565b5090565b5b80821115610548575f815f905550600101610532565b5090565b5f81519050919050565b7f4e487b71000000000000000000000000000000000000000000000000000000005f52604160045260245ffd5b7f4e487b71000000000000000000000000000000000000000000000000000000005f52602260045260245ffd5b5f60028204905060018216806105c757607f821691505b6020821081036105da576105d9610583565b5b50919050565b5f819050815f5260205f209050919050565b5f6020601f8301049050919050565b5f82821b905092915050565b5f6008830261063c7fffffffffffffffffffffffffffffffffffffffffffffffffffffffffffffffff82610601565b6106468683610601565b95508019841693508086168417925050509392505050565b5f819050919050565b5f819050919050565b5f61068a6106856106808461065e565b610667565b61065e565b9050919050565b5f819050919050565b6106a383610670565b6106b76106af82610691565b84845461060d565b825550505050565b5f90565b6106cb6106bf565b6106d681848461069a565b505050565b5b818110156106f9576106ee5f826106c3565b6001810190506106dc565b5050565b601f82111561073e5761070f816105e0565b610718846105f2565b81016020851015610727578190505b61073b610733856105f2565b8301826106db565b50505b505050565b5f82821c905092915050565b5f61075e5f1984600802610743565b1980831691505092915050565b5f610776838361074f565b9150826002028217905092915050565b61078f8261054c565b67ffffffffffffffff8111156107a8576107a7610556565b5b6107b282546105b0565b6107bd8282856106fd565b5f60209050601f8311600181146107ee575f84156107dc578287015190505b6107e6858261076b565b86555061084d565b601f1984166107fc866105e0565b5f5b82811015610823578489015182556001820191506020850194506020810190506107fe565b86831015610840578489015161083c601f89168261074f565b8355505b6001600288020188555050505b505050505050565b7f4e487b71000000000000000000000000000000000000000000000000000000005f52603260045260245ffd5b613c188061088f5f395ff3fe608060405234801561000f575f80fd5b50600436106101ee575f3560e01c806379ba50971161010d578063b88d4fde116100a0578063e30c39781161006f578063e30c3978146105bc578063e985e9c5146105da578063ea31876a1461060a578063f2fde38b14610628576101ee565b8063b88d4fde14610524578063bf6a141314610540578063c87b56dd14610570578063d204c45e146105a0576101ee565b80638e4e210c116100dc5780638e4e210c146104ae57806395d89b41146104cc578063a22cb465146104ea578063a5875cab14610506576101ee565b806379ba5097146104245780637df73e27146104425780637e9e7959146104725780638da5cb5b14610490576101ee565b806342842e0e11610185578063652a60ed11610154578063652a60ed1461039a57806370a08231146103b8578063715018a6146103e857806375782ab614610406576101ee565b806342842e0e1461031457806342966c68146103305780634698b5e21461034c5780636352211e1461036a576101ee565b80630da55161116101c15780630da551611461028c57806323b872dd146102aa5780632bb401d4146102c6578063352a939f146102e4576101ee565b806301ffc9a7146101f257806306fdde0314610222578063081812fc14610240578063095ea7b314610270575b5f80fd5b61020c60048036038101906102079190612d57565b610658565b6040516102199190612d9c565b60405180910390f35b61022a610669565b6040516102379190612e25565b60405180910390f35b61025a60048036038101906102559190612e78565b6106f8565b6040516102679190612ee2565b60405180910390f35b61028a60048036038101906102859190612f25565b610713565b005b610294610729565b6040516102a19190612d9c565b60405180910390f35b6102c460048036038101906102bf9190612f63565b6109cf565b005b6102ce610ace565b6040516102db9190612d9c565b60405180910390f35b6102fe60048036038101906102f99190612fb3565b610ae2565b60405161030b9190612d9c565b60405180910390f35b61032e60048036038101906103299190612f63565b610d25565b005b61034a60048036038101906103459190612e78565b610d44565b005b610354610d5a565b6040516103619190612d9c565b60405180910390f35b610384600480360381019061037f9190612e78565b610e82565b6040516103919190612ee2565b60405180910390f35b6103a2610e93565b6040516103af9190612fed565b60405180910390f35b6103d260048036038101906103cd9190612fb3565b610e9c565b6040516103df9190612fed565b60405180910390f35b6103f0610f52565b6040516103fd9190612d9c565b60405180910390f35b61040e610ff0565b60405161041b9190613021565b60405180910390f35b61042c611005565b6040516104399190612d9c565b60405180910390f35b61045c60048036038101906104579190612fb3565b611061565b6040516104699190612d9c565b60405180910390f35b61047a6110b3565b6040516104879190612d9c565b60405180910390f35b6104986112ae565b6040516104a59190612ee2565b60405180910390f35b6104b66112d6565b6040516104c39190612fed565b60405180910390f35b6104d46112df565b6040516104e19190612e25565b60405180910390f35b61050460048036038101906104ff9190613064565b61136f565b005b61050e611385565b60405161051b9190612d9c565b60405180910390f35b61053e600480360381019061053991906131ce565b611475565b005b61055a60048036038101906105559190612fb3565b611492565b6040516105679190612d9c565b60405180910390f35b61058a60048036038101906105859190612e78565b6114e4565b6040516105979190612e25565b60405180910390f35b6105ba60048036038101906105b591906132ec565b6114f6565b005b6105c461159d565b6040516105d19190612ee2565b60405180910390f35b6105f460048036038101906105ef9190613346565b6115c5565b6040516106019190612d9c565b60405180910390f35b610612611653565b60405161061f9190612d9c565b60405180910390f35b610642600480360381019061063d9190612fb3565b6116f4565b60405161064f9190612d9c565b60405180910390f35b5f61066282611a44565b9050919050565b60605f8054610677906133b1565b80601f01602080910402602001604051908101604052809291908181526020018280546106a3906133b1565b80156106ee5780601f106106c5576101008083540402835291602001916106ee565b820191905f5260205f20905b8154815290600101906020018083116106d157829003601f168201915b5050505050905090565b5f61070282611aa4565b5061070c82611b2a565b9050919050565b6107258282610720611b63565b611b6a565b5050565b5f6107326112ae565b73ffffffffffffffffffffffffffffffffffffffff163373ffffffffffffffffffffffffffffffffffffffff161461079f576040517f08c379a00000000000000000000000000000000000000000000000000000000081526004016107969061342b565b60405180910390fd5b425f6107a9610e93565b116107e9576040517f08c379a00000000000000000000000000000000000000000000000000000000081526004016107e090613493565b60405180910390fd5b620d2f006107f5610e93565b6107ff91906134de565b811015610841576040517f08c379a00000000000000000000000000000000000000000000000000000000081526004016108389061355b565b60405180910390fd5b62015180620d2f00610851610e93565b61085b91906134de565b61086591906134de565b8111156108a7576040517f08c379a000000000000000000000000000000000000000000000000000000000815260040161089e906135c3565b60405180910390fd5b600560ff166108b4610ff0565b60ff1610156108f8576040517f08c379a00000000000000000000000000000000000000000000000000000000081526004016108ef9061362b565b60405180910390fd5b6109006112d6565b421115610942576040517f08c379a000000000000000000000000000000000000000000000000000000000815260040161093990613693565b60405180910390fd5b61094a610ace565b15610953575f80fd5b60016014806101000a81548160ff0219169083151502179055506109756112ae565b73ffffffffffffffffffffffffffffffffffffffff167f77019a1c4957e53fa06c71f760438f9267f6840293cddac381ccb7931e3c4a6260405160405180910390a2600191506109c3611b7c565b6109cb611c65565b5090565b5f73ffffffffffffffffffffffffffffffffffffffff168273ffffffffffffffffffffffffffffffffffffffff1603610a3f575f6040517f64a0ae92000000000000000000000000000000000000000000000000000000008152600401610a369190612ee2565b60405180910390fd5b5f610a528383610a4d611b63565b611c98565b90508373ffffffffffffffffffffffffffffffffffffffff168173ffffffffffffffffffffffffffffffffffffffff1614610ac8578382826040517f64283d7b000000000000000000000000000000000000000000000000000000008152600401610abf939291906136b1565b60405180910390fd5b50505050565b5f60148054906101000a900460ff16905090565b5f610aec33611061565b610b2b576040517f08c379a0000000000000000000000000000000000000000000000000000000008152600401610b2290613730565b60405180910390fd5b425f610b35610e93565b11610b75576040517f08c379a0000000000000000000000000000000000000000000000000000000008152600401610b6c90613493565b60405180910390fd5b620d2f00610b81610e93565b610b8b91906134de565b811015610bcd576040517f08c379a0000000000000000000000000000000000000000000000000000000008152600401610bc49061355b565b60405180910390fd5b62015180620d2f00610bdd610e93565b610be791906134de565b610bf191906134de565b811115610c33576040517f08c379a0000000000000000000000000000000000000000000000000000000008152600401610c2a906135c3565b60405180910390fd5b600560ff16610c40610ff0565b60ff161015610c84576040517f08c379a0000000000000000000000000000000000000000000000000000000008152600401610c7b9061362b565b60405180910390fd5b610c8c6112d6565b421115610cce576040517f08c379a0000000000000000000000000000000000000000000000000000000008152600401610cc590613693565b60405180910390fd5b610cd783611ea3565b610cdf611f4c565b7f0cf1811e93419ac2d91eb469e1bd91a130ab86e4fabfb4984a940f3e1d2bd6a260405160405180910390a160019150610d17611b7c565b610d1f611c65565b50919050565b610d3f83838360405180602001604052805f815250611475565b505050565b610d565f82610d51611b63565b611c98565b5050565b5f610d636112ae565b73ffffffffffffffffffffffffffffffffffffffff163373ffffffffffffffffffffffffffffffffffffffff1614610dd0576040517f08c379a0000000000000000000000000000000000000000000000000000000008152600401610dc79061342b565b60405180910390fd5b600560ff16610ddd610ff0565b60ff161015610e21576040517f08c379a0000000000000000000000000000000000000000000000000000000008152600401610e189061362b565b60405180910390fd5b610e296112d6565b421115610e6b576040517f08c379a0000000000000000000000000000000000000000000000000000000008152600401610e6290613693565b60405180910390fd5b610e73611f72565b60019050610e7f611b7c565b90565b5f610e8c82611aa4565b9050919050565b5f600754905090565b5f8073ffffffffffffffffffffffffffffffffffffffff168273ffffffffffffffffffffffffffffffffffffffff1603610f0d575f6040517f89c62b64000000000000000000000000000000000000000000000000000000008152600401610f049190612ee2565b60405180910390fd5b60035f8373ffffffffffffffffffffffffffffffffffffffff1673ffffffffffffffffffffffffffffffffffffffff1681526020019081526020015f20549050919050565b5f610f5b6112ae565b73ffffffffffffffffffffffffffffffffffffffff163373ffffffffffffffffffffffffffffffffffffffff1614610fc8576040517f08c379a0000000000000000000000000000000000000000000000000000000008152600401610fbf9061342b565b60405180910390fd5b610fd0610ace565b610fd8575f80fd5b610fe15f611ea3565b610fe9611f4c565b6001905090565b5f60095f9054906101000a900460ff16905090565b5f61100e61159d565b73ffffffffffffffffffffffffffffffffffffffff163373ffffffffffffffffffffffffffffffffffffffff1614611044575f80fd5b5f33905061105181611ea3565b611059611f4c565b600191505090565b5f600a5f8373ffffffffffffffffffffffffffffffffffffffff1673ffffffffffffffffffffffffffffffffffffffff1681526020019081526020015f205f9054906101000a900460ff169050919050565b5f6110bd33611061565b6110fc576040517f08c379a00000000000000000000000000000000000000000000000000000000081526004016110f390613730565b60405180910390fd5b5f611105610ff0565b60ff160361114e576103844261111b91906134de565b6008819055507f7bb44a6efdad870f652b2266a57e13683a9959d8f6208ec491b76f3b3e30ca8560405160405180910390a15b6111566112d6565b4211156111d257611165611b7c565b7fa700eb5f46aa32bbe59bb5588095453766771b449f12098230e7711c2cc1373e60405160405180910390a16103844261119f91906134de565b6008819055507f7bb44a6efdad870f652b2266a57e13683a9959d8f6208ec491b76f3b3e30ca8560405160405180910390a15b6111db33611492565b156111e4575f80fd5b6001600b5f3373ffffffffffffffffffffffffffffffffffffffff1673ffffffffffffffffffffffffffffffffffffffff1681526020019081526020015f205f6101000a81548160ff02191690831515021790555060095f81819054906101000a900460ff16809291906112579061374e565b91906101000a81548160ff021916908360ff160217905550507fc803a19e7438fff95a91e23440dc06b415144c5e9fe746580b03219adbd15e513360405161129f9190612ee2565b60405180910390a16001905090565b5f60135f9054906101000a900473ffffffffffffffffffffffffffffffffffffffff16905090565b5f600854905090565b6060600180546112ee906133b1565b80601f016020809104026020016040519081016040528092919081815260200182805461131a906133b1565b80156113655780601f1061133c57610100808354040283529160200191611365565b820191905f5260205f20905b81548152906001019060200180831161134857829003601f168201915b5050505050905090565b61138161137a611b63565b8383611fa7565b5050565b5f61138e6112ae565b73ffffffffffffffffffffffffffffffffffffffff163373ffffffffffffffffffffffffffffffffffffffff16146113fb576040517f08c379a00000000000000000000000000000000000000000000000000000000081526004016113f29061342b565b60405180910390fd5b611403610ace565b61140b575f80fd5b5f6014806101000a81548160ff02191690831515021790555061142c6112ae565b73ffffffffffffffffffffffffffffffffffffffff167fb189a5a6b382e921df5a6b8a09a433564e15ec5f6625faa18b989fa671ee6bfc60405160405180910390a26001905090565b6114808484846109cf565b61148c84848484612110565b50505050565b5f600b5f8373ffffffffffffffffffffffffffffffffffffffff1673ffffffffffffffffffffffffffffffffffffffff1681526020019081526020015f205f9054906101000a900460ff169050919050565b60606114ef826122c2565b9050919050565b6114fe6112ae565b73ffffffffffffffffffffffffffffffffffffffff163373ffffffffffffffffffffffffffffffffffffffff161461156b576040517f08c379a00000000000000000000000000000000000000000000000000000000081526004016115629061342b565b60405180910390fd5b5f60155f81548092919061157e90613776565b91905055905061158e83826123cd565b61159881836123ea565b505050565b5f60145f9054906101000a900473ffffffffffffffffffffffffffffffffffffffff16905090565b5f60055f8473ffffffffffffffffffffffffffffffffffffffff1673ffffffffffffffffffffffffffffffffffffffff1681526020019081526020015f205f8373ffffffffffffffffffffffffffffffffffffffff1673ffffffffffffffffffffffffffffffffffffffff1681526020019081526020015f205f9054906101000a900460ff16905092915050565b5f61165c6112ae565b73ffffffffffffffffffffffffffffffffffffffff163373ffffffffffffffffffffffffffffffffffffffff16146116c9576040517f08c379a00000000000000000000000000000000000000000000000000000000081526004016116c09061342b565b60405180910390fd5b60145f6101000a81549073ffffffffffffffffffffffffffffffffffffffff02191690556001905090565b5f6116fd6112ae565b73ffffffffffffffffffffffffffffffffffffffff163373ffffffffffffffffffffffffffffffffffffffff161461176a576040517f08c379a00000000000000000000000000000000000000000000000000000000081526004016117619061342b565b60405180910390fd5b425f611774610e93565b116117b4576040517f08c379a00000000000000000000000000000000000000000000000000000000081526004016117ab90613493565b60405180910390fd5b620d2f006117c0610e93565b6117ca91906134de565b81101561180c576040517f08c379a00000000000000000000000000000000000000000000000000000000081526004016118039061355b565b60405180910390fd5b62015180620d2f0061181c610e93565b61182691906134de565b61183091906134de565b811115611872576040517f08c379a0000000000000000000000000000000000000000000000000000000008152600401611869906135c3565b60405180910390fd5b600560ff1661187f610ff0565b60ff1610156118c3576040517f08c379a00000000000000000000000000000000000000000000000000000000081526004016118ba9061362b565b60405180910390fd5b6118cb6112d6565b42111561190d576040517f08c379a000000000000000000000000000000000000000000000000000000000815260040161190490613693565b60405180910390fd5b5f73ffffffffffffffffffffffffffffffffffffffff168373ffffffffffffffffffffffffffffffffffffffff1603611944575f80fd5b61194c6112ae565b73ffffffffffffffffffffffffffffffffffffffff168373ffffffffffffffffffffffffffffffffffffffff1603611982575f80fd5b61198a61159d565b73ffffffffffffffffffffffffffffffffffffffff168373ffffffffffffffffffffffffffffffffffffffff16036119c0575f80fd5b6119c983612444565b8273ffffffffffffffffffffffffffffffffffffffff166119e86112ae565b73ffffffffffffffffffffffffffffffffffffffff167fb150023a879fd806e3599b6ca8ee3b60f0e360ab3846d128d67ebce1a391639a60405160405180910390a360019150611a36611b7c565b611a3e611c65565b50919050565b5f634906490660e01b7bffffffffffffffffffffffffffffffffffffffffffffffffffffffff1916827bffffffffffffffffffffffffffffffffffffffffffffffffffffffff19161480611a9d5750611a9c82612487565b5b9050919050565b5f80611aaf83612568565b90505f73ffffffffffffffffffffffffffffffffffffffff168173ffffffffffffffffffffffffffffffffffffffff1603611b2157826040517f7e273289000000000000000000000000000000000000000000000000000000008152600401611b189190612fed565b60405180910390fd5b80915050919050565b5f60045f8381526020019081526020015f205f9054906101000a900473ffffffffffffffffffffffffffffffffffffffff169050919050565b5f33905090565b611b7783838360016125a1565b505050565b60095f6101000a81549060ff02191690555f5b600760ff168160ff161015611c36575f600b5f600c8460ff1660078110611bb957611bb86137bd565b5b015f9054906101000a900473ffffffffffffffffffffffffffffffffffffffff1673ffffffffffffffffffffffffffffffffffffffff1673ffffffffffffffffffffffffffffffffffffffff1681526020019081526020015f205f6101000a81548160ff0219169083151502179055508080600101915050611b8f565b507f4bd70d790e1606677e1c786e3ae5eea8fc03f909f5d3529d068651521d0f7eb760405160405180910390a1565b60075f90557fadf19d4a72f18d860d362776ef575352c10e595e76cb22f26d8527acb3eeecae60405160405180910390a1565b5f80611ca384612568565b90505f73ffffffffffffffffffffffffffffffffffffffff168373ffffffffffffffffffffffffffffffffffffffff1614611ce457611ce3818486612760565b5b5f73ffffffffffffffffffffffffffffffffffffffff168173ffffffffffffffffffffffffffffffffffffffff1614611d6f57611d235f855f806125a1565b600160035f8373ffffffffffffffffffffffffffffffffffffffff1673ffffffffffffffffffffffffffffffffffffffff1681526020019081526020015f205f82825403925050819055505b5f73ffffffffffffffffffffffffffffffffffffffff168573ffffffffffffffffffffffffffffffffffffffff1614611dee57600160035f8773ffffffffffffffffffffffffffffffffffffffff1673ffffffffffffffffffffffffffffffffffffffff1681526020019081526020015f205f82825401925050819055505b8460025f8681526020019081526020015f205f6101000a81548173ffffffffffffffffffffffffffffffffffffffff021916908373ffffffffffffffffffffffffffffffffffffffff160217905550838573ffffffffffffffffffffffffffffffffffffffff168273ffffffffffffffffffffffffffffffffffffffff167fddf252ad1be2c89b69c2b068fc378daa952ba7f163c4a11628f55a4df523b3ef60405160405180910390a4809150509392505050565b5f611eac6112ae565b90508160135f6101000a81548173ffffffffffffffffffffffffffffffffffffffff021916908373ffffffffffffffffffffffffffffffffffffffff1602179055508173ffffffffffffffffffffffffffffffffffffffff168173ffffffffffffffffffffffffffffffffffffffff167fe9a5158ac7353c7c7322ececc080bc8e89334efa5795b6e21e40eb266b0003d660405160405180910390a35050565b60145f6101000a81549073ffffffffffffffffffffffffffffffffffffffff0219169055565b426007819055507f43fb7dacf03276426ab20dc791b3be8cb2100531bac85d7c616e08af7bf3592260405160405180910390a1565b5f73ffffffffffffffffffffffffffffffffffffffff168273ffffffffffffffffffffffffffffffffffffffff160361201757816040517f5b08ba1800000000000000000000000000000000000000000000000000000000815260040161200e9190612ee2565b60405180910390fd5b8060055f8573ffffffffffffffffffffffffffffffffffffffff1673ffffffffffffffffffffffffffffffffffffffff1681526020019081526020015f205f8473ffffffffffffffffffffffffffffffffffffffff1673ffffffffffffffffffffffffffffffffffffffff1681526020019081526020015f205f6101000a81548160ff0219169083151502179055508173ffffffffffffffffffffffffffffffffffffffff168373ffffffffffffffffffffffffffffffffffffffff167f17307eab39ab6107e8899845ad3d59bd9653f200f220920489ca2b5937696c31836040516121039190612d9c565b60405180910390a3505050565b5f8373ffffffffffffffffffffffffffffffffffffffff163b11156122bc578273ffffffffffffffffffffffffffffffffffffffff1663150b7a02612153611b63565b8685856040518563ffffffff1660e01b8152600401612175949392919061383c565b6020604051808303815f875af19250505080156121b057506040513d601f19601f820116820180604052508101906121ad919061389a565b60015b612231573d805f81146121de576040519150601f19603f3d011682016040523d82523d5f602084013e6121e3565b606091505b505f81510361222957836040517f64a0ae920000000000000000000000000000000000000000000000000000000081526004016122209190612ee2565b60405180910390fd5b805181602001fd5b63150b7a0260e01b7bffffffffffffffffffffffffffffffffffffffffffffffffffffffff1916817bffffffffffffffffffffffffffffffffffffffffffffffffffffffff1916146122ba57836040517f64a0ae920000000000000000000000000000000000000000000000000000000081526004016122b19190612ee2565b60405180910390fd5b505b50505050565b60606122cd82611aa4565b505f60065f8481526020019081526020015f2080546122eb906133b1565b80601f0160208091040260200160405190810160405280929190818152602001828054612317906133b1565b80156123625780601f1061233957610100808354040283529160200191612362565b820191905f5260205f20905b81548152906001019060200180831161234557829003601f168201915b505050505090505f612372612823565b90505f8151036123865781925050506123c8565b5f825111156123ba5780826040516020016123a29291906138ff565b604051602081830303815290604052925050506123c8565b6123c384612839565b925050505b919050565b6123e6828260405180602001604052805f81525061289f565b5050565b8060065f8481526020019081526020015f2090816124089190613abf565b507ff8e1a15aba9398e019f0b49df1a4fde98ee17ae345cb5f6b5e2c27f5033e8ce7826040516124389190612fed565b60405180910390a15050565b8060145f6101000a81548173ffffffffffffffffffffffffffffffffffffffff021916908373ffffffffffffffffffffffffffffffffffffffff16021790555050565b5f7f80ac58cd000000000000000000000000000000000000000000000000000000007bffffffffffffffffffffffffffffffffffffffffffffffffffffffff1916827bffffffffffffffffffffffffffffffffffffffffffffffffffffffff1916148061255157507f5b5e139f000000000000000000000000000000000000000000000000000000007bffffffffffffffffffffffffffffffffffffffffffffffffffffffff1916827bffffffffffffffffffffffffffffffffffffffffffffffffffffffff1916145b806125615750612560826128ba565b5b9050919050565b5f60025f8381526020019081526020015f205f9054906101000a900473ffffffffffffffffffffffffffffffffffffffff169050919050565b80806125d957505f73ffffffffffffffffffffffffffffffffffffffff168273ffffffffffffffffffffffffffffffffffffffff1614155b1561270b575f6125e884611aa4565b90505f73ffffffffffffffffffffffffffffffffffffffff168373ffffffffffffffffffffffffffffffffffffffff161415801561265257508273ffffffffffffffffffffffffffffffffffffffff168173ffffffffffffffffffffffffffffffffffffffff1614155b8015612665575061266381846115c5565b155b156126a757826040517fa9fbf51f00000000000000000000000000000000000000000000000000000000815260040161269e9190612ee2565b60405180910390fd5b811561270957838573ffffffffffffffffffffffffffffffffffffffff168273ffffffffffffffffffffffffffffffffffffffff167f8c5be1e5ebec7d5bd14f71427d1e84f3dd0314c0f7b2291e5b200ac8c7c3b92560405160405180910390a45b505b8360045f8581526020019081526020015f205f6101000a81548173ffffffffffffffffffffffffffffffffffffffff021916908373ffffffffffffffffffffffffffffffffffffffff16021790555050505050565b61276b838383612923565b61281e575f73ffffffffffffffffffffffffffffffffffffffff168373ffffffffffffffffffffffffffffffffffffffff16036127df57806040517f7e2732890000000000000000000000000000000000000000000000000000000081526004016127d69190612fed565b60405180910390fd5b81816040517f177e802f000000000000000000000000000000000000000000000000000000008152600401612815929190613b8e565b60405180910390fd5b505050565b606060405180602001604052805f815250905090565b606061284482611aa4565b505f61284e612823565b90505f81511161286c5760405180602001604052805f815250612897565b80612876846129e3565b6040516020016128879291906138ff565b6040516020818303038152906040525b915050919050565b6128a98383612aad565b6128b55f848484612110565b505050565b5f7f01ffc9a7000000000000000000000000000000000000000000000000000000007bffffffffffffffffffffffffffffffffffffffffffffffffffffffff1916827bffffffffffffffffffffffffffffffffffffffffffffffffffffffff1916149050919050565b5f8073ffffffffffffffffffffffffffffffffffffffff168373ffffffffffffffffffffffffffffffffffffffff16141580156129da57508273ffffffffffffffffffffffffffffffffffffffff168473ffffffffffffffffffffffffffffffffffffffff16148061299b575061299a84846115c5565b5b806129d957508273ffffffffffffffffffffffffffffffffffffffff166129c183611b2a565b73ffffffffffffffffffffffffffffffffffffffff16145b5b90509392505050565b60605f60016129f184612ba0565b0190505f8167ffffffffffffffff811115612a0f57612a0e6130aa565b5b6040519080825280601f01601f191660200182016040528015612a415781602001600182028036833780820191505090505b5090505f82602001820190505b600115612aa2578080600190039150507f3031323334353637383961626364656600000000000000000000000000000000600a86061a8153600a8581612a9757612a96613bb5565b5b0494505f8503612a4e575b819350505050919050565b5f73ffffffffffffffffffffffffffffffffffffffff168273ffffffffffffffffffffffffffffffffffffffff1603612b1d575f6040517f64a0ae92000000000000000000000000000000000000000000000000000000008152600401612b149190612ee2565b60405180910390fd5b5f612b2983835f611c98565b90505f73ffffffffffffffffffffffffffffffffffffffff168173ffffffffffffffffffffffffffffffffffffffff1614612b9b575f6040517f73c6ac6e000000000000000000000000000000000000000000000000000000008152600401612b929190612ee2565b60405180910390fd5b505050565b5f805f90507a184f03e93ff9f4daa797ed6e38ed64bf6a1f0100000000000000008310612bfc577a184f03e93ff9f4daa797ed6e38ed64bf6a1f0100000000000000008381612bf257612bf1613bb5565b5b0492506040810190505b6d04ee2d6d415b85acef81000000008310612c39576d04ee2d6d415b85acef81000000008381612c2f57612c2e613bb5565b5b0492506020810190505b662386f26fc100008310612c6857662386f26fc100008381612c5e57612c5d613bb5565b5b0492506010810190505b6305f5e1008310612c91576305f5e1008381612c8757612c86613bb5565b5b0492506008810190505b6127108310612cb6576127108381612cac57612cab613bb5565b5b0492506004810190505b60648310612cd95760648381612ccf57612cce613bb5565b5b0492506002810190505b600a8310612ce8576001810190505b80915050919050565b5f604051905090565b5f80fd5b5f80fd5b5f7fffffffff0000000000000000000000000000000000000000000000000000000082169050919050565b612d3681612d02565b8114612d40575f80fd5b50565b5f81359050612d5181612d2d565b92915050565b5f60208284031215612d6c57612d6b612cfa565b5b5f612d7984828501612d43565b91505092915050565b5f8115159050919050565b612d9681612d82565b82525050565b5f602082019050612daf5f830184612d8d565b92915050565b5f81519050919050565b5f82825260208201905092915050565b8281835e5f83830152505050565b5f601f19601f8301169050919050565b5f612df782612db5565b612e018185612dbf565b9350612e11818560208601612dcf565b612e1a81612ddd565b840191505092915050565b5f6020820190508181035f830152612e3d8184612ded565b905092915050565b5f819050919050565b612e5781612e45565b8114612e61575f80fd5b50565b5f81359050612e7281612e4e565b92915050565b5f60208284031215612e8d57612e8c612cfa565b5b5f612e9a84828501612e64565b91505092915050565b5f73ffffffffffffffffffffffffffffffffffffffff82169050919050565b5f612ecc82612ea3565b9050919050565b612edc81612ec2565b82525050565b5f602082019050612ef55f830184612ed3565b92915050565b612f0481612ec2565b8114612f0e575f80fd5b50565b5f81359050612f1f81612efb565b92915050565b5f8060408385031215612f3b57612f3a612cfa565b5b5f612f4885828601612f11565b9250506020612f5985828601612e64565b9150509250929050565b5f805f60608486031215612f7a57612f79612cfa565b5b5f612f8786828701612f11565b9350506020612f9886828701612f11565b9250506040612fa986828701612e64565b9150509250925092565b5f60208284031215612fc857612fc7612cfa565b5b5f612fd584828501612f11565b91505092915050565b612fe781612e45565b82525050565b5f6020820190506130005f830184612fde565b92915050565b5f60ff82169050919050565b61301b81613006565b82525050565b5f6020820190506130345f830184613012565b92915050565b61304381612d82565b811461304d575f80fd5b50565b5f8135905061305e8161303a565b92915050565b5f806040838503121561307a57613079612cfa565b5b5f61308785828601612f11565b925050602061309885828601613050565b9150509250929050565b5f80fd5b5f80fd5b7f4e487b71000000000000000000000000000000000000000000000000000000005f52604160045260245ffd5b6130e082612ddd565b810181811067ffffffffffffffff821117156130ff576130fe6130aa565b5b80604052505050565b5f613111612cf1565b905061311d82826130d7565b919050565b5f67ffffffffffffffff82111561313c5761313b6130aa565b5b61314582612ddd565b9050602081019050919050565b828183375f83830152505050565b5f61317261316d84613122565b613108565b90508281526020810184848401111561318e5761318d6130a6565b5b613199848285613152565b509392505050565b5f82601f8301126131b5576131b46130a2565b5b81356131c5848260208601613160565b91505092915050565b5f805f80608085870312156131e6576131e5612cfa565b5b5f6131f387828801612f11565b945050602061320487828801612f11565b935050604061321587828801612e64565b925050606085013567ffffffffffffffff81111561323657613235612cfe565b5b613242878288016131a1565b91505092959194509250565b5f67ffffffffffffffff821115613268576132676130aa565b5b61327182612ddd565b9050602081019050919050565b5f61329061328b8461324e565b613108565b9050828152602081018484840111156132ac576132ab6130a6565b5b6132b7848285613152565b509392505050565b5f82601f8301126132d3576132d26130a2565b5b81356132e384826020860161327e565b91505092915050565b5f806040838503121561330257613301612cfa565b5b5f61330f85828601612f11565b925050602083013567ffffffffffffffff8111156133305761332f612cfe565b5b61333c858286016132bf565b9150509250929050565b5f806040838503121561335c5761335b612cfa565b5b5f61336985828601612f11565b925050602061337a85828601612f11565b9150509250929050565b7f4e487b71000000000000000000000000000000000000000000000000000000005f52602260045260245ffd5b5f60028204905060018216806133c857607f821691505b6020821081036133db576133da613384565b5b50919050565b7f4f6e6c79206f776e6572210000000000000000000000000000000000000000005f82015250565b5f613415600b83612dbf565b9150613420826133e1565b602082019050919050565b5f6020820190508181035f83015261344281613409565b9050919050565b7f5175657565206e6f7420696e69746961746564210000000000000000000000005f82015250565b5f61347d601483612dbf565b915061348882613449565b602082019050919050565b5f6020820190508181035f8301526134aa81613471565b9050919050565b7f4e487b71000000000000000000000000000000000000000000000000000000005f52601160045260245ffd5b5f6134e882612e45565b91506134f383612e45565b925082820190508082111561350b5761350a6134b1565b5b92915050565b7f54696d656c6f636b65642c2077616974210000000000000000000000000000005f82015250565b5f613545601183612dbf565b915061355082613511565b602082019050919050565b5f6020820190508181035f83015261357281613539565b9050919050565b7f477261646520706572696f6420657870697265642100000000000000000000005f82015250565b5f6135ad601583612dbf565b91506135b882613579565b602082019050919050565b5f6020820190508181035f8301526135da816135a1565b9050919050565b7f4e6f7420656e6f756768207369676e61747572657321000000000000000000005f82015250565b5f613615601683612dbf565b9150613620826135e1565b602082019050919050565b5f6020820190508181035f83015261364281613609565b9050919050565b7f5369676e617475726573206861766520657870697265642100000000000000005f82015250565b5f61367d601883612dbf565b915061368882613649565b602082019050919050565b5f6020820190508181035f8301526136aa81613671565b9050919050565b5f6060820190506136c45f830186612ed3565b6136d16020830185612fde565b6136de6040830184612ed3565b949350505050565b7f4e6f742061207369676e657221000000000000000000000000000000000000005f82015250565b5f61371a600d83612dbf565b9150613725826136e6565b602082019050919050565b5f6020820190508181035f8301526137478161370e565b9050919050565b5f61375882613006565b915060ff820361376b5761376a6134b1565b5b600182019050919050565b5f61378082612e45565b91507fffffffffffffffffffffffffffffffffffffffffffffffffffffffffffffffff82036137b2576137b16134b1565b5b600182019050919050565b7f4e487b71000000000000000000000000000000000000000000000000000000005f52603260045260245ffd5b5f81519050919050565b5f82825260208201905092915050565b5f61380e826137ea565b61381881856137f4565b9350613828818560208601612dcf565b61383181612ddd565b840191505092915050565b5f60808201905061384f5f830187612ed3565b61385c6020830186612ed3565b6138696040830185612fde565b818103606083015261387b8184613804565b905095945050505050565b5f8151905061389481612d2d565b92915050565b5f602082840312156138af576138ae612cfa565b5b5f6138bc84828501613886565b91505092915050565b5f81905092915050565b5f6138d982612db5565b6138e381856138c5565b93506138f3818560208601612dcf565b80840191505092915050565b5f61390a82856138cf565b915061391682846138cf565b91508190509392505050565b5f819050815f5260205f209050919050565b5f6020601f8301049050919050565b5f82821b905092915050565b5f6008830261397e7fffffffffffffffffffffffffffffffffffffffffffffffffffffffffffffffff82613943565b6139888683613943565b95508019841693508086168417925050509392505050565b5f819050919050565b5f6139c36139be6139b984612e45565b6139a0565b612e45565b9050919050565b5f819050919050565b6139dc836139a9565b6139f06139e8826139ca565b84845461394f565b825550505050565b5f90565b613a046139f8565b613a0f8184846139d3565b505050565b5b81811015613a3257613a275f826139fc565b600181019050613a15565b5050565b601f821115613a7757613a4881613922565b613a5184613934565b81016020851015613a60578190505b613a74613a6c85613934565b830182613a14565b50505b505050565b5f82821c905092915050565b5f613a975f1984600802613a7c565b1980831691505092915050565b5f613aaf8383613a88565b9150826002028217905092915050565b613ac882612db5565b67ffffffffffffffff811115613ae157613ae06130aa565b5b613aeb82546133b1565b613af6828285613a36565b5f60209050601f831160018114613b27575f8415613b15578287015190505b613b1f8582613aa4565b865550613b86565b601f198416613b3586613922565b5f5b82811015613b5c57848901518255600182019150602085019450602081019050613b37565b86831015613b795784890151613b75601f891682613a88565b8355505b6001600288020188555050505b505050505050565b5f604082019050613ba15f830185612ed3565b613bae6020830184612fde565b9392505050565b7f4e487b71000000000000000000000000000000000000000000000000000000005f52601260045260245ffdfea2646970667358221220c8ca196a13359ae6e9d9c703bb69b87034a627a086ac44996280a0bf6c1be4f864736f6c634300081a0033",
			"opcodes": "PUSH1 0x80 PUSH1 0x40 MSTORE PUSH1 0x40 MLOAD DUP1 PUSH1 0xE0 ADD PUSH1 0x40 MSTORE DUP1 PUSH20 0x5B38DA6A701C568545DCFCB03FCB875F56BEDDC4 PUSH20 0xFFFFFFFFFFFFFFFFFFFFFFFFFFFFFFFFFFFFFFFF AND PUSH20 0xFFFFFFFFFFFFFFFFFFFFFFFFFFFFFFFFFFFFFFFF AND DUP2 MSTORE PUSH1 0x20 ADD PUSH20 0xAB8483F64D9C6D1ECF9B849AE677DD3315835CB2 PUSH20 0xFFFFFFFFFFFFFFFFFFFFFFFFFFFFFFFFFFFFFFFF AND PUSH20 0xFFFFFFFFFFFFFFFFFFFFFFFFFFFFFFFFFFFFFFFF AND DUP2 MSTORE PUSH1 0x20 ADD PUSH20 0x4B20993BC481177EC7E8F571CECAE8A9E22C02DB PUSH20 0xFFFFFFFFFFFFFFFFFFFFFFFFFFFFFFFFFFFFFFFF AND PUSH20 0xFFFFFFFFFFFFFFFFFFFFFFFFFFFFFFFFFFFFFFFF AND DUP2 MSTORE PUSH1 0x20 ADD PUSH20 0x78731D3CA6B7E34AC0F824C42A7CC18A495CABAB PUSH20 0xFFFFFFFFFFFFFFFFFFFFFFFFFFFFFFFFFFFFFFFF AND PUSH20 0xFFFFFFFFFFFFFFFFFFFFFFFFFFFFFFFFFFFFFFFF AND DUP2 MSTORE PUSH1 0x20 ADD PUSH20 0x617F2E2FD72FD9D5503197092AC168C91465E7F2 PUSH20 0xFFFFFFFFFFFFFFFFFFFFFFFFFFFFFFFFFFFFFFFF AND PUSH20 0xFFFFFFFFFFFFFFFFFFFFFFFFFFFFFFFFFFFFFFFF AND DUP2 MSTORE PUSH1 0x20 ADD PUSH20 0x17F6AD8EF982297579C203069C1DBFFE4348C372 PUSH20 0xFFFFFFFFFFFFFFFFFFFFFFFFFFFFFFFFFFFFFFFF AND PUSH20 0xFFFFFFFFFFFFFFFFFFFFFFFFFFFFFFFFFFFFFFFF AND DUP2 MSTORE PUSH1 0x20 ADD PUSH20 0x5C6B0F7BF3E7CE046039BD8FABDFD3F9F5021678 PUSH20 0xFFFFFFFFFFFFFFFFFFFFFFFFFFFFFFFFFFFFFFFF AND PUSH20 0xFFFFFFFFFFFFFFFFFFFFFFFFFFFFFFFFFFFFFFFF AND DUP2 MSTORE POP PUSH1 0xC SWAP1 PUSH1 0x7 PUSH2 0x207 SWAP3 SWAP2 SWAP1 PUSH2 0x4B5 JUMP JUMPDEST POP CALLVALUE DUP1 ISZERO PUSH2 0x213 JUMPI PUSH0 DUP1 REVERT JUMPDEST POP PUSH1 0x40 MLOAD DUP1 PUSH1 0x40 ADD PUSH1 0x40 MSTORE DUP1 PUSH1 0xD DUP2 MSTORE PUSH1 0x20 ADD PUSH32 0x41756374696F6E45524337323100000000000000000000000000000000000000 DUP2 MSTORE POP PUSH1 0x40 MLOAD DUP1 PUSH1 0x40 ADD PUSH1 0x40 MSTORE DUP1 PUSH1 0x4 DUP2 MSTORE PUSH1 0x20 ADD PUSH32 0x414E465400000000000000000000000000000000000000000000000000000000 DUP2 MSTORE POP DUP2 PUSH0 SWAP1 DUP2 PUSH2 0x28E SWAP2 SWAP1 PUSH2 0x786 JUMP JUMPDEST POP DUP1 PUSH1 0x1 SWAP1 DUP2 PUSH2 0x29E SWAP2 SWAP1 PUSH2 0x786 JUMP JUMPDEST POP POP POP PUSH1 0x7 PUSH1 0xFF AND PUSH1 0x7 EQ PUSH2 0x2B1 JUMPI PUSH0 DUP1 REVERT JUMPDEST PUSH0 JUMPDEST PUSH1 0x7 PUSH1 0xFF AND DUP2 PUSH1 0xFF AND LT ISZERO PUSH2 0x3C9 JUMPI PUSH0 PUSH20 0xFFFFFFFFFFFFFFFFFFFFFFFFFFFFFFFFFFFFFFFF AND PUSH1 0xC DUP3 PUSH1 0xFF AND PUSH1 0x7 DUP2 LT PUSH2 0x2F0 JUMPI PUSH2 0x2EF PUSH2 0x855 JUMP JUMPDEST JUMPDEST ADD PUSH0 SWAP1 SLOAD SWAP1 PUSH2 0x100 EXP SWAP1 DIV PUSH20 0xFFFFFFFFFFFFFFFFFFFFFFFFFFFFFFFFFFFFFFFF AND PUSH20 0xFFFFFFFFFFFFFFFFFFFFFFFFFFFFFFFFFFFFFFFF AND SUB PUSH2 0x330 JUMPI PUSH0 DUP1 REVERT JUMPDEST PUSH1 0x1 PUSH1 0xA PUSH0 PUSH1 0xC DUP5 PUSH1 0xFF AND PUSH1 0x7 DUP2 LT PUSH2 0x34C JUMPI PUSH2 0x34B PUSH2 0x855 JUMP JUMPDEST JUMPDEST ADD PUSH0 SWAP1 SLOAD SWAP1 PUSH2 0x100 EXP SWAP1 DIV PUSH20 0xFFFFFFFFFFFFFFFFFFFFFFFFFFFFFFFFFFFFFFFF AND PUSH20 0xFFFFFFFFFFFFFFFFFFFFFFFFFFFFFFFFFFFFFFFF AND PUSH20 0xFFFFFFFFFFFFFFFFFFFFFFFFFFFFFFFFFFFFFFFF AND DUP2 MSTORE PUSH1 0x20 ADD SWAP1 DUP2 MSTORE PUSH1 0x20 ADD PUSH0 KECCAK256 PUSH0 PUSH2 0x100 EXP DUP2 SLOAD DUP2 PUSH1 0xFF MUL NOT AND SWAP1 DUP4 ISZERO ISZERO MUL OR SWAP1 SSTORE POP DUP1 DUP1 PUSH1 0x1 ADD SWAP2 POP POP PUSH2 0x2B3 JUMP JUMPDEST POP PUSH2 0x3D9 CALLER PUSH2 0x3DE PUSH1 0x20 SHL PUSH1 0x20 SHR JUMP JUMPDEST PUSH2 0x882 JUMP JUMPDEST PUSH0 PUSH2 0x3ED PUSH2 0x48D PUSH1 0x20 SHL PUSH1 0x20 SHR JUMP JUMPDEST SWAP1 POP DUP2 PUSH1 0x13 PUSH0 PUSH2 0x100 EXP DUP2 SLOAD DUP2 PUSH20 0xFFFFFFFFFFFFFFFFFFFFFFFFFFFFFFFFFFFFFFFF MUL NOT AND SWAP1 DUP4 PUSH20 0xFFFFFFFFFFFFFFFFFFFFFFFFFFFFFFFFFFFFFFFF AND MUL OR SWAP1 SSTORE POP DUP2 PUSH20 0xFFFFFFFFFFFFFFFFFFFFFFFFFFFFFFFFFFFFFFFF AND DUP2 PUSH20 0xFFFFFFFFFFFFFFFFFFFFFFFFFFFFFFFFFFFFFFFF AND PUSH32 0xE9A5158AC7353C7C7322ECECC080BC8E89334EFA5795B6E21E40EB266B0003D6 PUSH1 0x40 MLOAD PUSH1 0x40 MLOAD DUP1 SWAP2 SUB SWAP1 LOG3 POP POP JUMP JUMPDEST PUSH0 PUSH1 0x13 PUSH0 SWAP1 SLOAD SWAP1 PUSH2 0x100 EXP SWAP1 DIV PUSH20 0xFFFFFFFFFFFFFFFFFFFFFFFFFFFFFFFFFFFFFFFF AND SWAP1 POP SWAP1 JUMP JUMPDEST DUP3 PUSH1 0x7 DUP2 ADD SWAP3 DUP3 ISZERO PUSH2 0x520 JUMPI SWAP2 PUSH1 0x20 MUL DUP3 ADD JUMPDEST DUP3 DUP2 GT ISZERO PUSH2 0x51F JUMPI DUP3 MLOAD DUP3 PUSH0 PUSH2 0x100 EXP DUP2 SLOAD DUP2 PUSH20 0xFFFFFFFFFFFFFFFFFFFFFFFFFFFFFFFFFFFFFFFF MUL NOT AND SWAP1 DUP4 PUSH20 0xFFFFFFFFFFFFFFFFFFFFFFFFFFFFFFFFFFFFFFFF AND MUL OR SWAP1 SSTORE POP SWAP2 PUSH1 0x20 ADD SWAP2 SWAP1 PUSH1 0x1 ADD SWAP1 PUSH2 0x4C8 JUMP JUMPDEST JUMPDEST POP SWAP1 POP PUSH2 0x52D SWAP2 SWAP1 PUSH2 0x531 JUMP JUMPDEST POP SWAP1 JUMP JUMPDEST JUMPDEST DUP1 DUP3 GT ISZERO PUSH2 0x548 JUMPI PUSH0 DUP2 PUSH0 SWAP1 SSTORE POP PUSH1 0x1 ADD PUSH2 0x532 JUMP JUMPDEST POP SWAP1 JUMP JUMPDEST PUSH0 DUP2 MLOAD SWAP1 POP SWAP2 SWAP1 POP JUMP JUMPDEST PUSH32 0x4E487B7100000000000000000000000000000000000000000000000000000000 PUSH0 MSTORE PUSH1 0x41 PUSH1 0x4 MSTORE PUSH1 0x24 PUSH0 REVERT JUMPDEST PUSH32 0x4E487B7100000000000000000000000000000000000000000000000000000000 PUSH0 MSTORE PUSH1 0x22 PUSH1 0x4 MSTORE PUSH1 0x24 PUSH0 REVERT JUMPDEST PUSH0 PUSH1 0x2 DUP3 DIV SWAP1 POP PUSH1 0x1 DUP3 AND DUP1 PUSH2 0x5C7 JUMPI PUSH1 0x7F DUP3 AND SWAP2 POP JUMPDEST PUSH1 0x20 DUP3 LT DUP2 SUB PUSH2 0x5DA JUMPI PUSH2 0x5D9 PUSH2 0x583 JUMP JUMPDEST JUMPDEST POP SWAP2 SWAP1 POP JUMP JUMPDEST PUSH0 DUP2 SWAP1 POP DUP2 PUSH0 MSTORE PUSH1 0x20 PUSH0 KECCAK256 SWAP1 POP SWAP2 SWAP1 POP JUMP JUMPDEST PUSH0 PUSH1 0x20 PUSH1 0x1F DUP4 ADD DIV SWAP1 POP SWAP2 SWAP1 POP JUMP JUMPDEST PUSH0 DUP3 DUP3 SHL SWAP1 POP SWAP3 SWAP2 POP POP JUMP JUMPDEST PUSH0 PUSH1 0x8 DUP4 MUL PUSH2 0x63C PUSH32 0xFFFFFFFFFFFFFFFFFFFFFFFFFFFFFFFFFFFFFFFFFFFFFFFFFFFFFFFFFFFFFFFF DUP3 PUSH2 0x601 JUMP JUMPDEST PUSH2 0x646 DUP7 DUP4 PUSH2 0x601 JUMP JUMPDEST SWAP6 POP DUP1 NOT DUP5 AND SWAP4 POP DUP1 DUP7 AND DUP5 OR SWAP3 POP POP POP SWAP4 SWAP3 POP POP POP JUMP JUMPDEST PUSH0 DUP2 SWAP1 POP SWAP2 SWAP1 POP JUMP JUMPDEST PUSH0 DUP2 SWAP1 POP SWAP2 SWAP1 POP JUMP JUMPDEST PUSH0 PUSH2 0x68A PUSH2 0x685 PUSH2 0x680 DUP5 PUSH2 0x65E JUMP JUMPDEST PUSH2 0x667 JUMP JUMPDEST PUSH2 0x65E JUMP JUMPDEST SWAP1 POP SWAP2 SWAP1 POP JUMP JUMPDEST PUSH0 DUP2 SWAP1 POP SWAP2 SWAP1 POP JUMP JUMPDEST PUSH2 0x6A3 DUP4 PUSH2 0x670 JUMP JUMPDEST PUSH2 0x6B7 PUSH2 0x6AF DUP3 PUSH2 0x691 JUMP JUMPDEST DUP5 DUP5 SLOAD PUSH2 0x60D JUMP JUMPDEST DUP3 SSTORE POP POP POP POP JUMP JUMPDEST PUSH0 SWAP1 JUMP JUMPDEST PUSH2 0x6CB PUSH2 0x6BF JUMP JUMPDEST PUSH2 0x6D6 DUP2 DUP5 DUP5 PUSH2 0x69A JUMP JUMPDEST POP POP POP JUMP JUMPDEST JUMPDEST DUP2 DUP2 LT ISZERO PUSH2 0x6F9 JUMPI PUSH2 0x6EE PUSH0 DUP3 PUSH2 0x6C3 JUMP JUMPDEST PUSH1 0x1 DUP2 ADD SWAP1 POP PUSH2 0x6DC JUMP JUMPDEST POP POP JUMP JUMPDEST PUSH1 0x1F DUP3 GT ISZERO PUSH2 0x73E JUMPI PUSH2 0x70F DUP2 PUSH2 0x5E0 JUMP JUMPDEST PUSH2 0x718 DUP5 PUSH2 0x5F2 JUMP JUMPDEST DUP2 ADD PUSH1 0x20 DUP6 LT ISZERO PUSH2 0x727 JUMPI DUP2 SWAP1 POP JUMPDEST PUSH2 0x73B PUSH2 0x733 DUP6 PUSH2 0x5F2 JUMP JUMPDEST DUP4 ADD DUP3 PUSH2 0x6DB JUMP JUMPDEST POP POP JUMPDEST POP POP POP JUMP JUMPDEST PUSH0 DUP3 DUP3 SHR SWAP1 POP SWAP3 SWAP2 POP POP JUMP JUMPDEST PUSH0 PUSH2 0x75E PUSH0 NOT DUP5 PUSH1 0x8 MUL PUSH2 0x743 JUMP JUMPDEST NOT DUP1 DUP4 AND SWAP2 POP POP SWAP3 SWAP2 POP POP JUMP JUMPDEST PUSH0 PUSH2 0x776 DUP4 DUP4 PUSH2 0x74F JUMP JUMPDEST SWAP2 POP DUP3 PUSH1 0x2 MUL DUP3 OR SWAP1 POP SWAP3 SWAP2 POP POP JUMP JUMPDEST PUSH2 0x78F DUP3 PUSH2 0x54C JUMP JUMPDEST PUSH8 0xFFFFFFFFFFFFFFFF DUP2 GT ISZERO PUSH2 0x7A8 JUMPI PUSH2 0x7A7 PUSH2 0x556 JUMP JUMPDEST JUMPDEST PUSH2 0x7B2 DUP3 SLOAD PUSH2 0x5B0 JUMP JUMPDEST PUSH2 0x7BD DUP3 DUP3 DUP6 PUSH2 0x6FD JUMP JUMPDEST PUSH0 PUSH1 0x20 SWAP1 POP PUSH1 0x1F DUP4 GT PUSH1 0x1 DUP2 EQ PUSH2 0x7EE JUMPI PUSH0 DUP5 ISZERO PUSH2 0x7DC JUMPI DUP3 DUP8 ADD MLOAD SWAP1 POP JUMPDEST PUSH2 0x7E6 DUP6 DUP3 PUSH2 0x76B JUMP JUMPDEST DUP7 SSTORE POP PUSH2 0x84D JUMP JUMPDEST PUSH1 0x1F NOT DUP5 AND PUSH2 0x7FC DUP7 PUSH2 0x5E0 JUMP JUMPDEST PUSH0 JUMPDEST DUP3 DUP2 LT ISZERO PUSH2 0x823 JUMPI DUP5 DUP10 ADD MLOAD DUP3 SSTORE PUSH1 0x1 DUP3 ADD SWAP2 POP PUSH1 0x20 DUP6 ADD SWAP5 POP PUSH1 0x20 DUP2 ADD SWAP1 POP PUSH2 0x7FE JUMP JUMPDEST DUP7 DUP4 LT ISZERO PUSH2 0x840 JUMPI DUP5 DUP10 ADD MLOAD PUSH2 0x83C PUSH1 0x1F DUP10 AND DUP3 PUSH2 0x74F JUMP JUMPDEST DUP4 SSTORE POP JUMPDEST PUSH1 0x1 PUSH1 0x2 DUP9 MUL ADD DUP9 SSTORE POP POP POP JUMPDEST POP POP POP POP POP POP JUMP JUMPDEST PUSH32 0x4E487B7100000000000000000000000000000000000000000000000000000000 PUSH0 MSTORE PUSH1 0x32 PUSH1 0x4 MSTORE PUSH1 0x24 PUSH0 REVERT JUMPDEST PUSH2 0x3C18 DUP1 PUSH2 0x88F PUSH0 CODECOPY PUSH0 RETURN INVALID PUSH1 0x80 PUSH1 0x40 MSTORE CALLVALUE DUP1 ISZERO PUSH2 0xF JUMPI PUSH0 DUP1 REVERT JUMPDEST POP PUSH1 0x4 CALLDATASIZE LT PUSH2 0x1EE JUMPI PUSH0 CALLDATALOAD PUSH1 0xE0 SHR DUP1 PUSH4 0x79BA5097 GT PUSH2 0x10D JUMPI DUP1 PUSH4 0xB88D4FDE GT PUSH2 0xA0 JUMPI DUP1 PUSH4 0xE30C3978 GT PUSH2 0x6F JUMPI DUP1 PUSH4 0xE30C3978 EQ PUSH2 0x5BC JUMPI DUP1 PUSH4 0xE985E9C5 EQ PUSH2 0x5DA JUMPI DUP1 PUSH4 0xEA31876A EQ PUSH2 0x60A JUMPI DUP1 PUSH4 0xF2FDE38B EQ PUSH2 0x628 JUMPI PUSH2 0x1EE JUMP JUMPDEST DUP1 PUSH4 0xB88D4FDE EQ PUSH2 0x524 JUMPI DUP1 PUSH4 0xBF6A1413 EQ PUSH2 0x540 JUMPI DUP1 PUSH4 0xC87B56DD EQ PUSH2 0x570 JUMPI DUP1 PUSH4 0xD204C45E EQ PUSH2 0x5A0 JUMPI PUSH2 0x1EE JUMP JUMPDEST DUP1 PUSH4 0x8E4E210C GT PUSH2 0xDC JUMPI DUP1 PUSH4 0x8E4E210C EQ PUSH2 0x4AE JUMPI DUP1 PUSH4 0x95D89B41 EQ PUSH2 0x4CC JUMPI DUP1 PUSH4 0xA22CB465 EQ PUSH2 0x4EA JUMPI DUP1 PUSH4 0xA5875CAB EQ PUSH2 0x506 JUMPI PUSH2 0x1EE JUMP JUMPDEST DUP1 PUSH4 0x79BA5097 EQ PUSH2 0x424 JUMPI DUP1 PUSH4 0x7DF73E27 EQ PUSH2 0x442 JUMPI DUP1 PUSH4 0x7E9E7959 EQ PUSH2 0x472 JUMPI DUP1 PUSH4 0x8DA5CB5B EQ PUSH2 0x490 JUMPI PUSH2 0x1EE JUMP JUMPDEST DUP1 PUSH4 0x42842E0E GT PUSH2 0x185 JUMPI DUP1 PUSH4 0x652A60ED GT PUSH2 0x154 JUMPI DUP1 PUSH4 0x652A60ED EQ PUSH2 0x39A JUMPI DUP1 PUSH4 0x70A08231 EQ PUSH2 0x3B8 JUMPI DUP1 PUSH4 0x715018A6 EQ PUSH2 0x3E8 JUMPI DUP1 PUSH4 0x75782AB6 EQ PUSH2 0x406 JUMPI PUSH2 0x1EE JUMP JUMPDEST DUP1 PUSH4 0x42842E0E EQ PUSH2 0x314 JUMPI DUP1 PUSH4 0x42966C68 EQ PUSH2 0x330 JUMPI DUP1 PUSH4 0x4698B5E2 EQ PUSH2 0x34C JUMPI DUP1 PUSH4 0x6352211E EQ PUSH2 0x36A JUMPI PUSH2 0x1EE JUMP JUMPDEST DUP1 PUSH4 0xDA55161 GT PUSH2 0x1C1 JUMPI DUP1 PUSH4 0xDA55161 EQ PUSH2 0x28C JUMPI DUP1 PUSH4 0x23B872DD EQ PUSH2 0x2AA JUMPI DUP1 PUSH4 0x2BB401D4 EQ PUSH2 0x2C6 JUMPI DUP1 PUSH4 0x352A939F EQ PUSH2 0x2E4 JUMPI PUSH2 0x1EE JUMP JUMPDEST DUP1 PUSH4 0x1FFC9A7 EQ PUSH2 0x1F2 JUMPI DUP1 PUSH4 0x6FDDE03 EQ PUSH2 0x222 JUMPI DUP1 PUSH4 0x81812FC EQ PUSH2 0x240 JUMPI DUP1 PUSH4 0x95EA7B3 EQ PUSH2 0x270 JUMPI JUMPDEST PUSH0 DUP1 REVERT JUMPDEST PUSH2 0x20C PUSH1 0x4 DUP1 CALLDATASIZE SUB DUP2 ADD SWAP1 PUSH2 0x207 SWAP2 SWAP1 PUSH2 0x2D57 JUMP JUMPDEST PUSH2 0x658 JUMP JUMPDEST PUSH1 0x40 MLOAD PUSH2 0x219 SWAP2 SWAP1 PUSH2 0x2D9C JUMP JUMPDEST PUSH1 0x40 MLOAD DUP1 SWAP2 SUB SWAP1 RETURN JUMPDEST PUSH2 0x22A PUSH2 0x669 JUMP JUMPDEST PUSH1 0x40 MLOAD PUSH2 0x237 SWAP2 SWAP1 PUSH2 0x2E25 JUMP JUMPDEST PUSH1 0x40 MLOAD DUP1 SWAP2 SUB SWAP1 RETURN JUMPDEST PUSH2 0x25A PUSH1 0x4 DUP1 CALLDATASIZE SUB DUP2 ADD SWAP1 PUSH2 0x255 SWAP2 SWAP1 PUSH2 0x2E78 JUMP JUMPDEST PUSH2 0x6F8 JUMP JUMPDEST PUSH1 0x40 MLOAD PUSH2 0x267 SWAP2 SWAP1 PUSH2 0x2EE2 JUMP JUMPDEST PUSH1 0x40 MLOAD DUP1 SWAP2 SUB SWAP1 RETURN JUMPDEST PUSH2 0x28A PUSH1 0x4 DUP1 CALLDATASIZE SUB DUP2 ADD SWAP1 PUSH2 0x285 SWAP2 SWAP1 PUSH2 0x2F25 JUMP JUMPDEST PUSH2 0x713 JUMP JUMPDEST STOP JUMPDEST PUSH2 0x294 PUSH2 0x729 JUMP JUMPDEST PUSH1 0x40 MLOAD PUSH2 0x2A1 SWAP2 SWAP1 PUSH2 0x2D9C JUMP JUMPDEST PUSH1 0x40 MLOAD DUP1 SWAP2 SUB SWAP1 RETURN JUMPDEST PUSH2 0x2C4 PUSH1 0x4 DUP1 CALLDATASIZE SUB DUP2 ADD SWAP1 PUSH2 0x2BF SWAP2 SWAP1 PUSH2 0x2F63 JUMP JUMPDEST PUSH2 0x9CF JUMP JUMPDEST STOP JUMPDEST PUSH2 0x2CE PUSH2 0xACE JUMP JUMPDEST PUSH1 0x40 MLOAD PUSH2 0x2DB SWAP2 SWAP1 PUSH2 0x2D9C JUMP JUMPDEST PUSH1 0x40 MLOAD DUP1 SWAP2 SUB SWAP1 RETURN JUMPDEST PUSH2 0x2FE PUSH1 0x4 DUP1 CALLDATASIZE SUB DUP2 ADD SWAP1 PUSH2 0x2F9 SWAP2 SWAP1 PUSH2 0x2FB3 JUMP JUMPDEST PUSH2 0xAE2 JUMP JUMPDEST PUSH1 0x40 MLOAD PUSH2 0x30B SWAP2 SWAP1 PUSH2 0x2D9C JUMP JUMPDEST PUSH1 0x40 MLOAD DUP1 SWAP2 SUB SWAP1 RETURN JUMPDEST PUSH2 0x32E PUSH1 0x4 DUP1 CALLDATASIZE SUB DUP2 ADD SWAP1 PUSH2 0x329 SWAP2 SWAP1 PUSH2 0x2F63 JUMP JUMPDEST PUSH2 0xD25 JUMP JUMPDEST STOP JUMPDEST PUSH2 0x34A PUSH1 0x4 DUP1 CALLDATASIZE SUB DUP2 ADD SWAP1 PUSH2 0x345 SWAP2 SWAP1 PUSH2 0x2E78 JUMP JUMPDEST PUSH2 0xD44 JUMP JUMPDEST STOP JUMPDEST PUSH2 0x354 PUSH2 0xD5A JUMP JUMPDEST PUSH1 0x40 MLOAD PUSH2 0x361 SWAP2 SWAP1 PUSH2 0x2D9C JUMP JUMPDEST PUSH1 0x40 MLOAD DUP1 SWAP2 SUB SWAP1 RETURN JUMPDEST PUSH2 0x384 PUSH1 0x4 DUP1 CALLDATASIZE SUB DUP2 ADD SWAP1 PUSH2 0x37F SWAP2 SWAP1 PUSH2 0x2E78 JUMP JUMPDEST PUSH2 0xE82 JUMP JUMPDEST PUSH1 0x40 MLOAD PUSH2 0x391 SWAP2 SWAP1 PUSH2 0x2EE2 JUMP JUMPDEST PUSH1 0x40 MLOAD DUP1 SWAP2 SUB SWAP1 RETURN JUMPDEST PUSH2 0x3A2 PUSH2 0xE93 JUMP JUMPDEST PUSH1 0x40 MLOAD PUSH2 0x3AF SWAP2 SWAP1 PUSH2 0x2FED JUMP JUMPDEST PUSH1 0x40 MLOAD DUP1 SWAP2 SUB SWAP1 RETURN JUMPDEST PUSH2 0x3D2 PUSH1 0x4 DUP1 CALLDATASIZE SUB DUP2 ADD SWAP1 PUSH2 0x3CD SWAP2 SWAP1 PUSH2 0x2FB3 JUMP JUMPDEST PUSH2 0xE9C JUMP JUMPDEST PUSH1 0x40 MLOAD PUSH2 0x3DF SWAP2 SWAP1 PUSH2 0x2FED JUMP JUMPDEST PUSH1 0x40 MLOAD DUP1 SWAP2 SUB SWAP1 RETURN JUMPDEST PUSH2 0x3F0 PUSH2 0xF52 JUMP JUMPDEST PUSH1 0x40 MLOAD PUSH2 0x3FD SWAP2 SWAP1 PUSH2 0x2D9C JUMP JUMPDEST PUSH1 0x40 MLOAD DUP1 SWAP2 SUB SWAP1 RETURN JUMPDEST PUSH2 0x40E PUSH2 0xFF0 JUMP JUMPDEST PUSH1 0x40 MLOAD PUSH2 0x41B SWAP2 SWAP1 PUSH2 0x3021 JUMP JUMPDEST PUSH1 0x40 MLOAD DUP1 SWAP2 SUB SWAP1 RETURN JUMPDEST PUSH2 0x42C PUSH2 0x1005 JUMP JUMPDEST PUSH1 0x40 MLOAD PUSH2 0x439 SWAP2 SWAP1 PUSH2 0x2D9C JUMP JUMPDEST PUSH1 0x40 MLOAD DUP1 SWAP2 SUB SWAP1 RETURN JUMPDEST PUSH2 0x45C PUSH1 0x4 DUP1 CALLDATASIZE SUB DUP2 ADD SWAP1 PUSH2 0x457 SWAP2 SWAP1 PUSH2 0x2FB3 JUMP JUMPDEST PUSH2 0x1061 JUMP JUMPDEST PUSH1 0x40 MLOAD PUSH2 0x469 SWAP2 SWAP1 PUSH2 0x2D9C JUMP JUMPDEST PUSH1 0x40 MLOAD DUP1 SWAP2 SUB SWAP1 RETURN JUMPDEST PUSH2 0x47A PUSH2 0x10B3 JUMP JUMPDEST PUSH1 0x40 MLOAD PUSH2 0x487 SWAP2 SWAP1 PUSH2 0x2D9C JUMP JUMPDEST PUSH1 0x40 MLOAD DUP1 SWAP2 SUB SWAP1 RETURN JUMPDEST PUSH2 0x498 PUSH2 0x12AE JUMP JUMPDEST PUSH1 0x40 MLOAD PUSH2 0x4A5 SWAP2 SWAP1 PUSH2 0x2EE2 JUMP JUMPDEST PUSH1 0x40 MLOAD DUP1 SWAP2 SUB SWAP1 RETURN JUMPDEST PUSH2 0x4B6 PUSH2 0x12D6 JUMP JUMPDEST PUSH1 0x40 MLOAD PUSH2 0x4C3 SWAP2 SWAP1 PUSH2 0x2FED JUMP JUMPDEST PUSH1 0x40 MLOAD DUP1 SWAP2 SUB SWAP1 RETURN JUMPDEST PUSH2 0x4D4 PUSH2 0x12DF JUMP JUMPDEST PUSH1 0x40 MLOAD PUSH2 0x4E1 SWAP2 SWAP1 PUSH2 0x2E25 JUMP JUMPDEST PUSH1 0x40 MLOAD DUP1 SWAP2 SUB SWAP1 RETURN JUMPDEST PUSH2 0x504 PUSH1 0x4 DUP1 CALLDATASIZE SUB DUP2 ADD SWAP1 PUSH2 0x4FF SWAP2 SWAP1 PUSH2 0x3064 JUMP JUMPDEST PUSH2 0x136F JUMP JUMPDEST STOP JUMPDEST PUSH2 0x50E PUSH2 0x1385 JUMP JUMPDEST PUSH1 0x40 MLOAD PUSH2 0x51B SWAP2 SWAP1 PUSH2 0x2D9C JUMP JUMPDEST PUSH1 0x40 MLOAD DUP1 SWAP2 SUB SWAP1 RETURN JUMPDEST PUSH2 0x53E PUSH1 0x4 DUP1 CALLDATASIZE SUB DUP2 ADD SWAP1 PUSH2 0x539 SWAP2 SWAP1 PUSH2 0x31CE JUMP JUMPDEST PUSH2 0x1475 JUMP JUMPDEST STOP JUMPDEST PUSH2 0x55A PUSH1 0x4 DUP1 CALLDATASIZE SUB DUP2 ADD SWAP1 PUSH2 0x555 SWAP2 SWAP1 PUSH2 0x2FB3 JUMP JUMPDEST PUSH2 0x1492 JUMP JUMPDEST PUSH1 0x40 MLOAD PUSH2 0x567 SWAP2 SWAP1 PUSH2 0x2D9C JUMP JUMPDEST PUSH1 0x40 MLOAD DUP1 SWAP2 SUB SWAP1 RETURN JUMPDEST PUSH2 0x58A PUSH1 0x4 DUP1 CALLDATASIZE SUB DUP2 ADD SWAP1 PUSH2 0x585 SWAP2 SWAP1 PUSH2 0x2E78 JUMP JUMPDEST PUSH2 0x14E4 JUMP JUMPDEST PUSH1 0x40 MLOAD PUSH2 0x597 SWAP2 SWAP1 PUSH2 0x2E25 JUMP JUMPDEST PUSH1 0x40 MLOAD DUP1 SWAP2 SUB SWAP1 RETURN JUMPDEST PUSH2 0x5BA PUSH1 0x4 DUP1 CALLDATASIZE SUB DUP2 ADD SWAP1 PUSH2 0x5B5 SWAP2 SWAP1 PUSH2 0x32EC JUMP JUMPDEST PUSH2 0x14F6 JUMP JUMPDEST STOP JUMPDEST PUSH2 0x5C4 PUSH2 0x159D JUMP JUMPDEST PUSH1 0x40 MLOAD PUSH2 0x5D1 SWAP2 SWAP1 PUSH2 0x2EE2 JUMP JUMPDEST PUSH1 0x40 MLOAD DUP1 SWAP2 SUB SWAP1 RETURN JUMPDEST PUSH2 0x5F4 PUSH1 0x4 DUP1 CALLDATASIZE SUB DUP2 ADD SWAP1 PUSH2 0x5EF SWAP2 SWAP1 PUSH2 0x3346 JUMP JUMPDEST PUSH2 0x15C5 JUMP JUMPDEST PUSH1 0x40 MLOAD PUSH2 0x601 SWAP2 SWAP1 PUSH2 0x2D9C JUMP JUMPDEST PUSH1 0x40 MLOAD DUP1 SWAP2 SUB SWAP1 RETURN JUMPDEST PUSH2 0x612 PUSH2 0x1653 JUMP JUMPDEST PUSH1 0x40 MLOAD PUSH2 0x61F SWAP2 SWAP1 PUSH2 0x2D9C JUMP JUMPDEST PUSH1 0x40 MLOAD DUP1 SWAP2 SUB SWAP1 RETURN JUMPDEST PUSH2 0x642 PUSH1 0x4 DUP1 CALLDATASIZE SUB DUP2 ADD SWAP1 PUSH2 0x63D SWAP2 SWAP1 PUSH2 0x2FB3 JUMP JUMPDEST PUSH2 0x16F4 JUMP JUMPDEST PUSH1 0x40 MLOAD PUSH2 0x64F SWAP2 SWAP1 PUSH2 0x2D9C JUMP JUMPDEST PUSH1 0x40 MLOAD DUP1 SWAP2 SUB SWAP1 RETURN JUMPDEST PUSH0 PUSH2 0x662 DUP3 PUSH2 0x1A44 JUMP JUMPDEST SWAP1 POP SWAP2 SWAP1 POP JUMP JUMPDEST PUSH1 0x60 PUSH0 DUP1 SLOAD PUSH2 0x677 SWAP1 PUSH2 0x33B1 JUMP JUMPDEST DUP1 PUSH1 0x1F ADD PUSH1 0x20 DUP1 SWAP2 DIV MUL PUSH1 0x20 ADD PUSH1 0x40 MLOAD SWAP1 DUP2 ADD PUSH1 0x40 MSTORE DUP1 SWAP3 SWAP2 SWAP1 DUP2 DUP2 MSTORE PUSH1 0x20 ADD DUP3 DUP1 SLOAD PUSH2 0x6A3 SWAP1 PUSH2 0x33B1 JUMP JUMPDEST DUP1 ISZERO PUSH2 0x6EE JUMPI DUP1 PUSH1 0x1F LT PUSH2 0x6C5 JUMPI PUSH2 0x100 DUP1 DUP4 SLOAD DIV MUL DUP4 MSTORE SWAP2 PUSH1 0x20 ADD SWAP2 PUSH2 0x6EE JUMP JUMPDEST DUP3 ADD SWAP2 SWAP1 PUSH0 MSTORE PUSH1 0x20 PUSH0 KECCAK256 SWAP1 JUMPDEST DUP2 SLOAD DUP2 MSTORE SWAP1 PUSH1 0x1 ADD SWAP1 PUSH1 0x20 ADD DUP1 DUP4 GT PUSH2 0x6D1 JUMPI DUP3 SWAP1 SUB PUSH1 0x1F AND DUP3 ADD SWAP2 JUMPDEST POP POP POP POP POP SWAP1 POP SWAP1 JUMP JUMPDEST PUSH0 PUSH2 0x702 DUP3 PUSH2 0x1AA4 JUMP JUMPDEST POP PUSH2 0x70C DUP3 PUSH2 0x1B2A JUMP JUMPDEST SWAP1 POP SWAP2 SWAP1 POP JUMP JUMPDEST PUSH2 0x725 DUP3 DUP3 PUSH2 0x720 PUSH2 0x1B63 JUMP JUMPDEST PUSH2 0x1B6A JUMP JUMPDEST POP POP JUMP JUMPDEST PUSH0 PUSH2 0x732 PUSH2 0x12AE JUMP JUMPDEST PUSH20 0xFFFFFFFFFFFFFFFFFFFFFFFFFFFFFFFFFFFFFFFF AND CALLER PUSH20 0xFFFFFFFFFFFFFFFFFFFFFFFFFFFFFFFFFFFFFFFF AND EQ PUSH2 0x79F JUMPI PUSH1 0x40 MLOAD PUSH32 0x8C379A000000000000000000000000000000000000000000000000000000000 DUP2 MSTORE PUSH1 0x4 ADD PUSH2 0x796 SWAP1 PUSH2 0x342B JUMP JUMPDEST PUSH1 0x40 MLOAD DUP1 SWAP2 SUB SWAP1 REVERT JUMPDEST TIMESTAMP PUSH0 PUSH2 0x7A9 PUSH2 0xE93 JUMP JUMPDEST GT PUSH2 0x7E9 JUMPI PUSH1 0x40 MLOAD PUSH32 0x8C379A000000000000000000000000000000000000000000000000000000000 DUP2 MSTORE PUSH1 0x4 ADD PUSH2 0x7E0 SWAP1 PUSH2 0x3493 JUMP JUMPDEST PUSH1 0x40 MLOAD DUP1 SWAP2 SUB SWAP1 REVERT JUMPDEST PUSH3 0xD2F00 PUSH2 0x7F5 PUSH2 0xE93 JUMP JUMPDEST PUSH2 0x7FF SWAP2 SWAP1 PUSH2 0x34DE JUMP JUMPDEST DUP2 LT ISZERO PUSH2 0x841 JUMPI PUSH1 0x40 MLOAD PUSH32 0x8C379A000000000000000000000000000000000000000000000000000000000 DUP2 MSTORE PUSH1 0x4 ADD PUSH2 0x838 SWAP1 PUSH2 0x355B JUMP JUMPDEST PUSH1 0x40 MLOAD DUP1 SWAP2 SUB SWAP1 REVERT JUMPDEST PUSH3 0x15180 PUSH3 0xD2F00 PUSH2 0x851 PUSH2 0xE93 JUMP JUMPDEST PUSH2 0x85B SWAP2 SWAP1 PUSH2 0x34DE JUMP JUMPDEST PUSH2 0x865 SWAP2 SWAP1 PUSH2 0x34DE JUMP JUMPDEST DUP2 GT ISZERO PUSH2 0x8A7 JUMPI PUSH1 0x40 MLOAD PUSH32 0x8C379A000000000000000000000000000000000000000000000000000000000 DUP2 MSTORE PUSH1 0x4 ADD PUSH2 0x89E SWAP1 PUSH2 0x35C3 JUMP JUMPDEST PUSH1 0x40 MLOAD DUP1 SWAP2 SUB SWAP1 REVERT JUMPDEST PUSH1 0x5 PUSH1 0xFF AND PUSH2 0x8B4 PUSH2 0xFF0 JUMP JUMPDEST PUSH1 0xFF AND LT ISZERO PUSH2 0x8F8 JUMPI PUSH1 0x40 MLOAD PUSH32 0x8C379A000000000000000000000000000000000000000000000000000000000 DUP2 MSTORE PUSH1 0x4 ADD PUSH2 0x8EF SWAP1 PUSH2 0x362B JUMP JUMPDEST PUSH1 0x40 MLOAD DUP1 SWAP2 SUB SWAP1 REVERT JUMPDEST PUSH2 0x900 PUSH2 0x12D6 JUMP JUMPDEST TIMESTAMP GT ISZERO PUSH2 0x942 JUMPI PUSH1 0x40 MLOAD PUSH32 0x8C379A000000000000000000000000000000000000000000000000000000000 DUP2 MSTORE PUSH1 0x4 ADD PUSH2 0x939 SWAP1 PUSH2 0x3693 JUMP JUMPDEST PUSH1 0x40 MLOAD DUP1 SWAP2 SUB SWAP1 REVERT JUMPDEST PUSH2 0x94A PUSH2 0xACE JUMP JUMPDEST ISZERO PUSH2 0x953 JUMPI PUSH0 DUP1 REVERT JUMPDEST PUSH1 0x1 PUSH1 0x14 DUP1 PUSH2 0x100 EXP DUP2 SLOAD DUP2 PUSH1 0xFF MUL NOT AND SWAP1 DUP4 ISZERO ISZERO MUL OR SWAP1 SSTORE POP PUSH2 0x975 PUSH2 0x12AE JUMP JUMPDEST PUSH20 0xFFFFFFFFFFFFFFFFFFFFFFFFFFFFFFFFFFFFFFFF AND PUSH32 0x77019A1C4957E53FA06C71F760438F9267F6840293CDDAC381CCB7931E3C4A62 PUSH1 0x40 MLOAD PUSH1 0x40 MLOAD DUP1 SWAP2 SUB SWAP1 LOG2 PUSH1 0x1 SWAP2 POP PUSH2 0x9C3 PUSH2 0x1B7C JUMP JUMPDEST PUSH2 0x9CB PUSH2 0x1C65 JUMP JUMPDEST POP SWAP1 JUMP JUMPDEST PUSH0 PUSH20 0xFFFFFFFFFFFFFFFFFFFFFFFFFFFFFFFFFFFFFFFF AND DUP3 PUSH20 0xFFFFFFFFFFFFFFFFFFFFFFFFFFFFFFFFFFFFFFFF AND SUB PUSH2 0xA3F JUMPI PUSH0 PUSH1 0x40 MLOAD PUSH32 0x64A0AE9200000000000000000000000000000000000000000000000000000000 DUP2 MSTORE PUSH1 0x4 ADD PUSH2 0xA36 SWAP2 SWAP1 PUSH2 0x2EE2 JUMP JUMPDEST PUSH1 0x40 MLOAD DUP1 SWAP2 SUB SWAP1 REVERT JUMPDEST PUSH0 PUSH2 0xA52 DUP4 DUP4 PUSH2 0xA4D PUSH2 0x1B63 JUMP JUMPDEST PUSH2 0x1C98 JUMP JUMPDEST SWAP1 POP DUP4 PUSH20 0xFFFFFFFFFFFFFFFFFFFFFFFFFFFFFFFFFFFFFFFF AND DUP2 PUSH20 0xFFFFFFFFFFFFFFFFFFFFFFFFFFFFFFFFFFFFFFFF AND EQ PUSH2 0xAC8 JUMPI DUP4 DUP3 DUP3 PUSH1 0x40 MLOAD PUSH32 0x64283D7B00000000000000000000000000000000000000000000000000000000 DUP2 MSTORE PUSH1 0x4 ADD PUSH2 0xABF SWAP4 SWAP3 SWAP2 SWAP1 PUSH2 0x36B1 JUMP JUMPDEST PUSH1 0x40 MLOAD DUP1 SWAP2 SUB SWAP1 REVERT JUMPDEST POP POP POP POP JUMP JUMPDEST PUSH0 PUSH1 0x14 DUP1 SLOAD SWAP1 PUSH2 0x100 EXP SWAP1 DIV PUSH1 0xFF AND SWAP1 POP SWAP1 JUMP JUMPDEST PUSH0 PUSH2 0xAEC CALLER PUSH2 0x1061 JUMP JUMPDEST PUSH2 0xB2B JUMPI PUSH1 0x40 MLOAD PUSH32 0x8C379A000000000000000000000000000000000000000000000000000000000 DUP2 MSTORE PUSH1 0x4 ADD PUSH2 0xB22 SWAP1 PUSH2 0x3730 JUMP JUMPDEST PUSH1 0x40 MLOAD DUP1 SWAP2 SUB SWAP1 REVERT JUMPDEST TIMESTAMP PUSH0 PUSH2 0xB35 PUSH2 0xE93 JUMP JUMPDEST GT PUSH2 0xB75 JUMPI PUSH1 0x40 MLOAD PUSH32 0x8C379A000000000000000000000000000000000000000000000000000000000 DUP2 MSTORE PUSH1 0x4 ADD PUSH2 0xB6C SWAP1 PUSH2 0x3493 JUMP JUMPDEST PUSH1 0x40 MLOAD DUP1 SWAP2 SUB SWAP1 REVERT JUMPDEST PUSH3 0xD2F00 PUSH2 0xB81 PUSH2 0xE93 JUMP JUMPDEST PUSH2 0xB8B SWAP2 SWAP1 PUSH2 0x34DE JUMP JUMPDEST DUP2 LT ISZERO PUSH2 0xBCD JUMPI PUSH1 0x40 MLOAD PUSH32 0x8C379A000000000000000000000000000000000000000000000000000000000 DUP2 MSTORE PUSH1 0x4 ADD PUSH2 0xBC4 SWAP1 PUSH2 0x355B JUMP JUMPDEST PUSH1 0x40 MLOAD DUP1 SWAP2 SUB SWAP1 REVERT JUMPDEST PUSH3 0x15180 PUSH3 0xD2F00 PUSH2 0xBDD PUSH2 0xE93 JUMP JUMPDEST PUSH2 0xBE7 SWAP2 SWAP1 PUSH2 0x34DE JUMP JUMPDEST PUSH2 0xBF1 SWAP2 SWAP1 PUSH2 0x34DE JUMP JUMPDEST DUP2 GT ISZERO PUSH2 0xC33 JUMPI PUSH1 0x40 MLOAD PUSH32 0x8C379A000000000000000000000000000000000000000000000000000000000 DUP2 MSTORE PUSH1 0x4 ADD PUSH2 0xC2A SWAP1 PUSH2 0x35C3 JUMP JUMPDEST PUSH1 0x40 MLOAD DUP1 SWAP2 SUB SWAP1 REVERT JUMPDEST PUSH1 0x5 PUSH1 0xFF AND PUSH2 0xC40 PUSH2 0xFF0 JUMP JUMPDEST PUSH1 0xFF AND LT ISZERO PUSH2 0xC84 JUMPI PUSH1 0x40 MLOAD PUSH32 0x8C379A000000000000000000000000000000000000000000000000000000000 DUP2 MSTORE PUSH1 0x4 ADD PUSH2 0xC7B SWAP1 PUSH2 0x362B JUMP JUMPDEST PUSH1 0x40 MLOAD DUP1 SWAP2 SUB SWAP1 REVERT JUMPDEST PUSH2 0xC8C PUSH2 0x12D6 JUMP JUMPDEST TIMESTAMP GT ISZERO PUSH2 0xCCE JUMPI PUSH1 0x40 MLOAD PUSH32 0x8C379A000000000000000000000000000000000000000000000000000000000 DUP2 MSTORE PUSH1 0x4 ADD PUSH2 0xCC5 SWAP1 PUSH2 0x3693 JUMP JUMPDEST PUSH1 0x40 MLOAD DUP1 SWAP2 SUB SWAP1 REVERT JUMPDEST PUSH2 0xCD7 DUP4 PUSH2 0x1EA3 JUMP JUMPDEST PUSH2 0xCDF PUSH2 0x1F4C JUMP JUMPDEST PUSH32 0xCF1811E93419AC2D91EB469E1BD91A130AB86E4FABFB4984A940F3E1D2BD6A2 PUSH1 0x40 MLOAD PUSH1 0x40 MLOAD DUP1 SWAP2 SUB SWAP1 LOG1 PUSH1 0x1 SWAP2 POP PUSH2 0xD17 PUSH2 0x1B7C JUMP JUMPDEST PUSH2 0xD1F PUSH2 0x1C65 JUMP JUMPDEST POP SWAP2 SWAP1 POP JUMP JUMPDEST PUSH2 0xD3F DUP4 DUP4 DUP4 PUSH1 0x40 MLOAD DUP1 PUSH1 0x20 ADD PUSH1 0x40 MSTORE DUP1 PUSH0 DUP2 MSTORE POP PUSH2 0x1475 JUMP JUMPDEST POP POP POP JUMP JUMPDEST PUSH2 0xD56 PUSH0 DUP3 PUSH2 0xD51 PUSH2 0x1B63 JUMP JUMPDEST PUSH2 0x1C98 JUMP JUMPDEST POP POP JUMP JUMPDEST PUSH0 PUSH2 0xD63 PUSH2 0x12AE JUMP JUMPDEST PUSH20 0xFFFFFFFFFFFFFFFFFFFFFFFFFFFFFFFFFFFFFFFF AND CALLER PUSH20 0xFFFFFFFFFFFFFFFFFFFFFFFFFFFFFFFFFFFFFFFF AND EQ PUSH2 0xDD0 JUMPI PUSH1 0x40 MLOAD PUSH32 0x8C379A000000000000000000000000000000000000000000000000000000000 DUP2 MSTORE PUSH1 0x4 ADD PUSH2 0xDC7 SWAP1 PUSH2 0x342B JUMP JUMPDEST PUSH1 0x40 MLOAD DUP1 SWAP2 SUB SWAP1 REVERT JUMPDEST PUSH1 0x5 PUSH1 0xFF AND PUSH2 0xDDD PUSH2 0xFF0 JUMP JUMPDEST PUSH1 0xFF AND LT ISZERO PUSH2 0xE21 JUMPI PUSH1 0x40 MLOAD PUSH32 0x8C379A000000000000000000000000000000000000000000000000000000000 DUP2 MSTORE PUSH1 0x4 ADD PUSH2 0xE18 SWAP1 PUSH2 0x362B JUMP JUMPDEST PUSH1 0x40 MLOAD DUP1 SWAP2 SUB SWAP1 REVERT JUMPDEST PUSH2 0xE29 PUSH2 0x12D6 JUMP JUMPDEST TIMESTAMP GT ISZERO PUSH2 0xE6B JUMPI PUSH1 0x40 MLOAD PUSH32 0x8C379A000000000000000000000000000000000000000000000000000000000 DUP2 MSTORE PUSH1 0x4 ADD PUSH2 0xE62 SWAP1 PUSH2 0x3693 JUMP JUMPDEST PUSH1 0x40 MLOAD DUP1 SWAP2 SUB SWAP1 REVERT JUMPDEST PUSH2 0xE73 PUSH2 0x1F72 JUMP JUMPDEST PUSH1 0x1 SWAP1 POP PUSH2 0xE7F PUSH2 0x1B7C JUMP JUMPDEST SWAP1 JUMP JUMPDEST PUSH0 PUSH2 0xE8C DUP3 PUSH2 0x1AA4 JUMP JUMPDEST SWAP1 POP SWAP2 SWAP1 POP JUMP JUMPDEST PUSH0 PUSH1 0x7 SLOAD SWAP1 POP SWAP1 JUMP JUMPDEST PUSH0 DUP1 PUSH20 0xFFFFFFFFFFFFFFFFFFFFFFFFFFFFFFFFFFFFFFFF AND DUP3 PUSH20 0xFFFFFFFFFFFFFFFFFFFFFFFFFFFFFFFFFFFFFFFF AND SUB PUSH2 0xF0D JUMPI PUSH0 PUSH1 0x40 MLOAD PUSH32 0x89C62B6400000000000000000000000000000000000000000000000000000000 DUP2 MSTORE PUSH1 0x4 ADD PUSH2 0xF04 SWAP2 SWAP1 PUSH2 0x2EE2 JUMP JUMPDEST PUSH1 0x40 MLOAD DUP1 SWAP2 SUB SWAP1 REVERT JUMPDEST PUSH1 0x3 PUSH0 DUP4 PUSH20 0xFFFFFFFFFFFFFFFFFFFFFFFFFFFFFFFFFFFFFFFF AND PUSH20 0xFFFFFFFFFFFFFFFFFFFFFFFFFFFFFFFFFFFFFFFF AND DUP2 MSTORE PUSH1 0x20 ADD SWAP1 DUP2 MSTORE PUSH1 0x20 ADD PUSH0 KECCAK256 SLOAD SWAP1 POP SWAP2 SWAP1 POP JUMP JUMPDEST PUSH0 PUSH2 0xF5B PUSH2 0x12AE JUMP JUMPDEST PUSH20 0xFFFFFFFFFFFFFFFFFFFFFFFFFFFFFFFFFFFFFFFF AND CALLER PUSH20 0xFFFFFFFFFFFFFFFFFFFFFFFFFFFFFFFFFFFFFFFF AND EQ PUSH2 0xFC8 JUMPI PUSH1 0x40 MLOAD PUSH32 0x8C379A000000000000000000000000000000000000000000000000000000000 DUP2 MSTORE PUSH1 0x4 ADD PUSH2 0xFBF SWAP1 PUSH2 0x342B JUMP JUMPDEST PUSH1 0x40 MLOAD DUP1 SWAP2 SUB SWAP1 REVERT JUMPDEST PUSH2 0xFD0 PUSH2 0xACE JUMP JUMPDEST PUSH2 0xFD8 JUMPI PUSH0 DUP1 REVERT JUMPDEST PUSH2 0xFE1 PUSH0 PUSH2 0x1EA3 JUMP JUMPDEST PUSH2 0xFE9 PUSH2 0x1F4C JUMP JUMPDEST PUSH1 0x1 SWAP1 POP SWAP1 JUMP JUMPDEST PUSH0 PUSH1 0x9 PUSH0 SWAP1 SLOAD SWAP1 PUSH2 0x100 EXP SWAP1 DIV PUSH1 0xFF AND SWAP1 POP SWAP1 JUMP JUMPDEST PUSH0 PUSH2 0x100E PUSH2 0x159D JUMP JUMPDEST PUSH20 0xFFFFFFFFFFFFFFFFFFFFFFFFFFFFFFFFFFFFFFFF AND CALLER PUSH20 0xFFFFFFFFFFFFFFFFFFFFFFFFFFFFFFFFFFFFFFFF AND EQ PUSH2 0x1044 JUMPI PUSH0 DUP1 REVERT JUMPDEST PUSH0 CALLER SWAP1 POP PUSH2 0x1051 DUP2 PUSH2 0x1EA3 JUMP JUMPDEST PUSH2 0x1059 PUSH2 0x1F4C JUMP JUMPDEST PUSH1 0x1 SWAP2 POP POP SWAP1 JUMP JUMPDEST PUSH0 PUSH1 0xA PUSH0 DUP4 PUSH20 0xFFFFFFFFFFFFFFFFFFFFFFFFFFFFFFFFFFFFFFFF AND PUSH20 0xFFFFFFFFFFFFFFFFFFFFFFFFFFFFFFFFFFFFFFFF AND DUP2 MSTORE PUSH1 0x20 ADD SWAP1 DUP2 MSTORE PUSH1 0x20 ADD PUSH0 KECCAK256 PUSH0 SWAP1 SLOAD SWAP1 PUSH2 0x100 EXP SWAP1 DIV PUSH1 0xFF AND SWAP1 POP SWAP2 SWAP1 POP JUMP JUMPDEST PUSH0 PUSH2 0x10BD CALLER PUSH2 0x1061 JUMP JUMPDEST PUSH2 0x10FC JUMPI PUSH1 0x40 MLOAD PUSH32 0x8C379A000000000000000000000000000000000000000000000000000000000 DUP2 MSTORE PUSH1 0x4 ADD PUSH2 0x10F3 SWAP1 PUSH2 0x3730 JUMP JUMPDEST PUSH1 0x40 MLOAD DUP1 SWAP2 SUB SWAP1 REVERT JUMPDEST PUSH0 PUSH2 0x1105 PUSH2 0xFF0 JUMP JUMPDEST PUSH1 0xFF AND SUB PUSH2 0x114E JUMPI PUSH2 0x384 TIMESTAMP PUSH2 0x111B SWAP2 SWAP1 PUSH2 0x34DE JUMP JUMPDEST PUSH1 0x8 DUP2 SWAP1 SSTORE POP PUSH32 0x7BB44A6EFDAD870F652B2266A57E13683A9959D8F6208EC491B76F3B3E30CA85 PUSH1 0x40 MLOAD PUSH1 0x40 MLOAD DUP1 SWAP2 SUB SWAP1 LOG1 JUMPDEST PUSH2 0x1156 PUSH2 0x12D6 JUMP JUMPDEST TIMESTAMP GT ISZERO PUSH2 0x11D2 JUMPI PUSH2 0x1165 PUSH2 0x1B7C JUMP JUMPDEST PUSH32 0xA700EB5F46AA32BBE59BB5588095453766771B449F12098230E7711C2CC1373E PUSH1 0x40 MLOAD PUSH1 0x40 MLOAD DUP1 SWAP2 SUB SWAP1 LOG1 PUSH2 0x384 TIMESTAMP PUSH2 0x119F SWAP2 SWAP1 PUSH2 0x34DE JUMP JUMPDEST PUSH1 0x8 DUP2 SWAP1 SSTORE POP PUSH32 0x7BB44A6EFDAD870F652B2266A57E13683A9959D8F6208EC491B76F3B3E30CA85 PUSH1 0x40 MLOAD PUSH1 0x40 MLOAD DUP1 SWAP2 SUB SWAP1 LOG1 JUMPDEST PUSH2 0x11DB CALLER PUSH2 0x1492 JUMP JUMPDEST ISZERO PUSH2 0x11E4 JUMPI PUSH0 DUP1 REVERT JUMPDEST PUSH1 0x1 PUSH1 0xB PUSH0 CALLER PUSH20 0xFFFFFFFFFFFFFFFFFFFFFFFFFFFFFFFFFFFFFFFF AND PUSH20 0xFFFFFFFFFFFFFFFFFFFFFFFFFFFFFFFFFFFFFFFF AND DUP2 MSTORE PUSH1 0x20 ADD SWAP1 DUP2 MSTORE PUSH1 0x20 ADD PUSH0 KECCAK256 PUSH0 PUSH2 0x100 EXP DUP2 SLOAD DUP2 PUSH1 0xFF MUL NOT AND SWAP1 DUP4 ISZERO ISZERO MUL OR SWAP1 SSTORE POP PUSH1 0x9 PUSH0 DUP2 DUP2 SWAP1 SLOAD SWAP1 PUSH2 0x100 EXP SWAP1 DIV PUSH1 0xFF AND DUP1 SWAP3 SWAP2 SWAP1 PUSH2 0x1257 SWAP1 PUSH2 0x374E JUMP JUMPDEST SWAP2 SWAP1 PUSH2 0x100 EXP DUP2 SLOAD DUP2 PUSH1 0xFF MUL NOT AND SWAP1 DUP4 PUSH1 0xFF AND MUL OR SWAP1 SSTORE POP POP PUSH32 0xC803A19E7438FFF95A91E23440DC06B415144C5E9FE746580B03219ADBD15E51 CALLER PUSH1 0x40 MLOAD PUSH2 0x129F SWAP2 SWAP1 PUSH2 0x2EE2 JUMP JUMPDEST PUSH1 0x40 MLOAD DUP1 SWAP2 SUB SWAP1 LOG1 PUSH1 0x1 SWAP1 POP SWAP1 JUMP JUMPDEST PUSH0 PUSH1 0x13 PUSH0 SWAP1 SLOAD SWAP1 PUSH2 0x100 EXP SWAP1 DIV PUSH20 0xFFFFFFFFFFFFFFFFFFFFFFFFFFFFFFFFFFFFFFFF AND SWAP1 POP SWAP1 JUMP JUMPDEST PUSH0 PUSH1 0x8 SLOAD SWAP1 POP SWAP1 JUMP JUMPDEST PUSH1 0x60 PUSH1 0x1 DUP1 SLOAD PUSH2 0x12EE SWAP1 PUSH2 0x33B1 JUMP JUMPDEST DUP1 PUSH1 0x1F ADD PUSH1 0x20 DUP1 SWAP2 DIV MUL PUSH1 0x20 ADD PUSH1 0x40 MLOAD SWAP1 DUP2 ADD PUSH1 0x40 MSTORE DUP1 SWAP3 SWAP2 SWAP1 DUP2 DUP2 MSTORE PUSH1 0x20 ADD DUP3 DUP1 SLOAD PUSH2 0x131A SWAP1 PUSH2 0x33B1 JUMP JUMPDEST DUP1 ISZERO PUSH2 0x1365 JUMPI DUP1 PUSH1 0x1F LT PUSH2 0x133C JUMPI PUSH2 0x100 DUP1 DUP4 SLOAD DIV MUL DUP4 MSTORE SWAP2 PUSH1 0x20 ADD SWAP2 PUSH2 0x1365 JUMP JUMPDEST DUP3 ADD SWAP2 SWAP1 PUSH0 MSTORE PUSH1 0x20 PUSH0 KECCAK256 SWAP1 JUMPDEST DUP2 SLOAD DUP2 MSTORE SWAP1 PUSH1 0x1 ADD SWAP1 PUSH1 0x20 ADD DUP1 DUP4 GT PUSH2 0x1348 JUMPI DUP3 SWAP1 SUB PUSH1 0x1F AND DUP3 ADD SWAP2 JUMPDEST POP POP POP POP POP SWAP1 POP SWAP1 JUMP JUMPDEST PUSH2 0x1381 PUSH2 0x137A PUSH2 0x1B63 JUMP JUMPDEST DUP4 DUP4 PUSH2 0x1FA7 JUMP JUMPDEST POP POP JUMP JUMPDEST PUSH0 PUSH2 0x138E PUSH2 0x12AE JUMP JUMPDEST PUSH20 0xFFFFFFFFFFFFFFFFFFFFFFFFFFFFFFFFFFFFFFFF AND CALLER PUSH20 0xFFFFFFFFFFFFFFFFFFFFFFFFFFFFFFFFFFFFFFFF AND EQ PUSH2 0x13FB JUMPI PUSH1 0x40 MLOAD PUSH32 0x8C379A000000000000000000000000000000000000000000000000000000000 DUP2 MSTORE PUSH1 0x4 ADD PUSH2 0x13F2 SWAP1 PUSH2 0x342B JUMP JUMPDEST PUSH1 0x40 MLOAD DUP1 SWAP2 SUB SWAP1 REVERT JUMPDEST PUSH2 0x1403 PUSH2 0xACE JUMP JUMPDEST PUSH2 0x140B JUMPI PUSH0 DUP1 REVERT JUMPDEST PUSH0 PUSH1 0x14 DUP1 PUSH2 0x100 EXP DUP2 SLOAD DUP2 PUSH1 0xFF MUL NOT AND SWAP1 DUP4 ISZERO ISZERO MUL OR SWAP1 SSTORE POP PUSH2 0x142C PUSH2 0x12AE JUMP JUMPDEST PUSH20 0xFFFFFFFFFFFFFFFFFFFFFFFFFFFFFFFFFFFFFFFF AND PUSH32 0xB189A5A6B382E921DF5A6B8A09A433564E15EC5F6625FAA18B989FA671EE6BFC PUSH1 0x40 MLOAD PUSH1 0x40 MLOAD DUP1 SWAP2 SUB SWAP1 LOG2 PUSH1 0x1 SWAP1 POP SWAP1 JUMP JUMPDEST PUSH2 0x1480 DUP5 DUP5 DUP5 PUSH2 0x9CF JUMP JUMPDEST PUSH2 0x148C DUP5 DUP5 DUP5 DUP5 PUSH2 0x2110 JUMP JUMPDEST POP POP POP POP JUMP JUMPDEST PUSH0 PUSH1 0xB PUSH0 DUP4 PUSH20 0xFFFFFFFFFFFFFFFFFFFFFFFFFFFFFFFFFFFFFFFF AND PUSH20 0xFFFFFFFFFFFFFFFFFFFFFFFFFFFFFFFFFFFFFFFF AND DUP2 MSTORE PUSH1 0x20 ADD SWAP1 DUP2 MSTORE PUSH1 0x20 ADD PUSH0 KECCAK256 PUSH0 SWAP1 SLOAD SWAP1 PUSH2 0x100 EXP SWAP1 DIV PUSH1 0xFF AND SWAP1 POP SWAP2 SWAP1 POP JUMP JUMPDEST PUSH1 0x60 PUSH2 0x14EF DUP3 PUSH2 0x22C2 JUMP JUMPDEST SWAP1 POP SWAP2 SWAP1 POP JUMP JUMPDEST PUSH2 0x14FE PUSH2 0x12AE JUMP JUMPDEST PUSH20 0xFFFFFFFFFFFFFFFFFFFFFFFFFFFFFFFFFFFFFFFF AND CALLER PUSH20 0xFFFFFFFFFFFFFFFFFFFFFFFFFFFFFFFFFFFFFFFF AND EQ PUSH2 0x156B JUMPI PUSH1 0x40 MLOAD PUSH32 0x8C379A000000000000000000000000000000000000000000000000000000000 DUP2 MSTORE PUSH1 0x4 ADD PUSH2 0x1562 SWAP1 PUSH2 0x342B JUMP JUMPDEST PUSH1 0x40 MLOAD DUP1 SWAP2 SUB SWAP1 REVERT JUMPDEST PUSH0 PUSH1 0x15 PUSH0 DUP2 SLOAD DUP1 SWAP3 SWAP2 SWAP1 PUSH2 0x157E SWAP1 PUSH2 0x3776 JUMP JUMPDEST SWAP2 SWAP1 POP SSTORE SWAP1 POP PUSH2 0x158E DUP4 DUP3 PUSH2 0x23CD JUMP JUMPDEST PUSH2 0x1598 DUP2 DUP4 PUSH2 0x23EA JUMP JUMPDEST POP POP POP JUMP JUMPDEST PUSH0 PUSH1 0x14 PUSH0 SWAP1 SLOAD SWAP1 PUSH2 0x100 EXP SWAP1 DIV PUSH20 0xFFFFFFFFFFFFFFFFFFFFFFFFFFFFFFFFFFFFFFFF AND SWAP1 POP SWAP1 JUMP JUMPDEST PUSH0 PUSH1 0x5 PUSH0 DUP5 PUSH20 0xFFFFFFFFFFFFFFFFFFFFFFFFFFFFFFFFFFFFFFFF AND PUSH20 0xFFFFFFFFFFFFFFFFFFFFFFFFFFFFFFFFFFFFFFFF AND DUP2 MSTORE PUSH1 0x20 ADD SWAP1 DUP2 MSTORE PUSH1 0x20 ADD PUSH0 KECCAK256 PUSH0 DUP4 PUSH20 0xFFFFFFFFFFFFFFFFFFFFFFFFFFFFFFFFFFFFFFFF AND PUSH20 0xFFFFFFFFFFFFFFFFFFFFFFFFFFFFFFFFFFFFFFFF AND DUP2 MSTORE PUSH1 0x20 ADD SWAP1 DUP2 MSTORE PUSH1 0x20 ADD PUSH0 KECCAK256 PUSH0 SWAP1 SLOAD SWAP1 PUSH2 0x100 EXP SWAP1 DIV PUSH1 0xFF AND SWAP1 POP SWAP3 SWAP2 POP POP JUMP JUMPDEST PUSH0 PUSH2 0x165C PUSH2 0x12AE JUMP JUMPDEST PUSH20 0xFFFFFFFFFFFFFFFFFFFFFFFFFFFFFFFFFFFFFFFF AND CALLER PUSH20 0xFFFFFFFFFFFFFFFFFFFFFFFFFFFFFFFFFFFFFFFF AND EQ PUSH2 0x16C9 JUMPI PUSH1 0x40 MLOAD PUSH32 0x8C379A000000000000000000000000000000000000000000000000000000000 DUP2 MSTORE PUSH1 0x4 ADD PUSH2 0x16C0 SWAP1 PUSH2 0x342B JUMP JUMPDEST PUSH1 0x40 MLOAD DUP1 SWAP2 SUB SWAP1 REVERT JUMPDEST PUSH1 0x14 PUSH0 PUSH2 0x100 EXP DUP2 SLOAD SWAP1 PUSH20 0xFFFFFFFFFFFFFFFFFFFFFFFFFFFFFFFFFFFFFFFF MUL NOT AND SWAP1 SSTORE PUSH1 0x1 SWAP1 POP SWAP1 JUMP JUMPDEST PUSH0 PUSH2 0x16FD PUSH2 0x12AE JUMP JUMPDEST PUSH20 0xFFFFFFFFFFFFFFFFFFFFFFFFFFFFFFFFFFFFFFFF AND CALLER PUSH20 0xFFFFFFFFFFFFFFFFFFFFFFFFFFFFFFFFFFFFFFFF AND EQ PUSH2 0x176A JUMPI PUSH1 0x40 MLOAD PUSH32 0x8C379A000000000000000000000000000000000000000000000000000000000 DUP2 MSTORE PUSH1 0x4 ADD PUSH2 0x1761 SWAP1 PUSH2 0x342B JUMP JUMPDEST PUSH1 0x40 MLOAD DUP1 SWAP2 SUB SWAP1 REVERT JUMPDEST TIMESTAMP PUSH0 PUSH2 0x1774 PUSH2 0xE93 JUMP JUMPDEST GT PUSH2 0x17B4 JUMPI PUSH1 0x40 MLOAD PUSH32 0x8C379A000000000000000000000000000000000000000000000000000000000 DUP2 MSTORE PUSH1 0x4 ADD PUSH2 0x17AB SWAP1 PUSH2 0x3493 JUMP JUMPDEST PUSH1 0x40 MLOAD DUP1 SWAP2 SUB SWAP1 REVERT JUMPDEST PUSH3 0xD2F00 PUSH2 0x17C0 PUSH2 0xE93 JUMP JUMPDEST PUSH2 0x17CA SWAP2 SWAP1 PUSH2 0x34DE JUMP JUMPDEST DUP2 LT ISZERO PUSH2 0x180C JUMPI PUSH1 0x40 MLOAD PUSH32 0x8C379A000000000000000000000000000000000000000000000000000000000 DUP2 MSTORE PUSH1 0x4 ADD PUSH2 0x1803 SWAP1 PUSH2 0x355B JUMP JUMPDEST PUSH1 0x40 MLOAD DUP1 SWAP2 SUB SWAP1 REVERT JUMPDEST PUSH3 0x15180 PUSH3 0xD2F00 PUSH2 0x181C PUSH2 0xE93 JUMP JUMPDEST PUSH2 0x1826 SWAP2 SWAP1 PUSH2 0x34DE JUMP JUMPDEST PUSH2 0x1830 SWAP2 SWAP1 PUSH2 0x34DE JUMP JUMPDEST DUP2 GT ISZERO PUSH2 0x1872 JUMPI PUSH1 0x40 MLOAD PUSH32 0x8C379A000000000000000000000000000000000000000000000000000000000 DUP2 MSTORE PUSH1 0x4 ADD PUSH2 0x1869 SWAP1 PUSH2 0x35C3 JUMP JUMPDEST PUSH1 0x40 MLOAD DUP1 SWAP2 SUB SWAP1 REVERT JUMPDEST PUSH1 0x5 PUSH1 0xFF AND PUSH2 0x187F PUSH2 0xFF0 JUMP JUMPDEST PUSH1 0xFF AND LT ISZERO PUSH2 0x18C3 JUMPI PUSH1 0x40 MLOAD PUSH32 0x8C379A000000000000000000000000000000000000000000000000000000000 DUP2 MSTORE PUSH1 0x4 ADD PUSH2 0x18BA SWAP1 PUSH2 0x362B JUMP JUMPDEST PUSH1 0x40 MLOAD DUP1 SWAP2 SUB SWAP1 REVERT JUMPDEST PUSH2 0x18CB PUSH2 0x12D6 JUMP JUMPDEST TIMESTAMP GT ISZERO PUSH2 0x190D JUMPI PUSH1 0x40 MLOAD PUSH32 0x8C379A000000000000000000000000000000000000000000000000000000000 DUP2 MSTORE PUSH1 0x4 ADD PUSH2 0x1904 SWAP1 PUSH2 0x3693 JUMP JUMPDEST PUSH1 0x40 MLOAD DUP1 SWAP2 SUB SWAP1 REVERT JUMPDEST PUSH0 PUSH20 0xFFFFFFFFFFFFFFFFFFFFFFFFFFFFFFFFFFFFFFFF AND DUP4 PUSH20 0xFFFFFFFFFFFFFFFFFFFFFFFFFFFFFFFFFFFFFFFF AND SUB PUSH2 0x1944 JUMPI PUSH0 DUP1 REVERT JUMPDEST PUSH2 0x194C PUSH2 0x12AE JUMP JUMPDEST PUSH20 0xFFFFFFFFFFFFFFFFFFFFFFFFFFFFFFFFFFFFFFFF AND DUP4 PUSH20 0xFFFFFFFFFFFFFFFFFFFFFFFFFFFFFFFFFFFFFFFF AND SUB PUSH2 0x1982 JUMPI PUSH0 DUP1 REVERT JUMPDEST PUSH2 0x198A PUSH2 0x159D JUMP JUMPDEST PUSH20 0xFFFFFFFFFFFFFFFFFFFFFFFFFFFFFFFFFFFFFFFF AND DUP4 PUSH20 0xFFFFFFFFFFFFFFFFFFFFFFFFFFFFFFFFFFFFFFFF AND SUB PUSH2 0x19C0 JUMPI PUSH0 DUP1 REVERT JUMPDEST PUSH2 0x19C9 DUP4 PUSH2 0x2444 JUMP JUMPDEST DUP3 PUSH20 0xFFFFFFFFFFFFFFFFFFFFFFFFFFFFFFFFFFFFFFFF AND PUSH2 0x19E8 PUSH2 0x12AE JUMP JUMPDEST PUSH20 0xFFFFFFFFFFFFFFFFFFFFFFFFFFFFFFFFFFFFFFFF AND PUSH32 0xB150023A879FD806E3599B6CA8EE3B60F0E360AB3846D128D67EBCE1A391639A PUSH1 0x40 MLOAD PUSH1 0x40 MLOAD DUP1 SWAP2 SUB SWAP1 LOG3 PUSH1 0x1 SWAP2 POP PUSH2 0x1A36 PUSH2 0x1B7C JUMP JUMPDEST PUSH2 0x1A3E PUSH2 0x1C65 JUMP JUMPDEST POP SWAP2 SWAP1 POP JUMP JUMPDEST PUSH0 PUSH4 0x49064906 PUSH1 0xE0 SHL PUSH28 0xFFFFFFFFFFFFFFFFFFFFFFFFFFFFFFFFFFFFFFFFFFFFFFFFFFFFFFFF NOT AND DUP3 PUSH28 0xFFFFFFFFFFFFFFFFFFFFFFFFFFFFFFFFFFFFFFFFFFFFFFFFFFFFFFFF NOT AND EQ DUP1 PUSH2 0x1A9D JUMPI POP PUSH2 0x1A9C DUP3 PUSH2 0x2487 JUMP JUMPDEST JUMPDEST SWAP1 POP SWAP2 SWAP1 POP JUMP JUMPDEST PUSH0 DUP1 PUSH2 0x1AAF DUP4 PUSH2 0x2568 JUMP JUMPDEST SWAP1 POP PUSH0 PUSH20 0xFFFFFFFFFFFFFFFFFFFFFFFFFFFFFFFFFFFFFFFF AND DUP2 PUSH20 0xFFFFFFFFFFFFFFFFFFFFFFFFFFFFFFFFFFFFFFFF AND SUB PUSH2 0x1B21 JUMPI DUP3 PUSH1 0x40 MLOAD PUSH32 0x7E27328900000000000000000000000000000000000000000000000000000000 DUP2 MSTORE PUSH1 0x4 ADD PUSH2 0x1B18 SWAP2 SWAP1 PUSH2 0x2FED JUMP JUMPDEST PUSH1 0x40 MLOAD DUP1 SWAP2 SUB SWAP1 REVERT JUMPDEST DUP1 SWAP2 POP POP SWAP2 SWAP1 POP JUMP JUMPDEST PUSH0 PUSH1 0x4 PUSH0 DUP4 DUP2 MSTORE PUSH1 0x20 ADD SWAP1 DUP2 MSTORE PUSH1 0x20 ADD PUSH0 KECCAK256 PUSH0 SWAP1 SLOAD SWAP1 PUSH2 0x100 EXP SWAP1 DIV PUSH20 0xFFFFFFFFFFFFFFFFFFFFFFFFFFFFFFFFFFFFFFFF AND SWAP1 POP SWAP2 SWAP1 POP JUMP JUMPDEST PUSH0 CALLER SWAP1 POP SWAP1 JUMP JUMPDEST PUSH2 0x1B77 DUP4 DUP4 DUP4 PUSH1 0x1 PUSH2 0x25A1 JUMP JUMPDEST POP POP POP JUMP JUMPDEST PUSH1 0x9 PUSH0 PUSH2 0x100 EXP DUP2 SLOAD SWAP1 PUSH1 0xFF MUL NOT AND SWAP1 SSTORE PUSH0 JUMPDEST PUSH1 0x7 PUSH1 0xFF AND DUP2 PUSH1 0xFF AND LT ISZERO PUSH2 0x1C36 JUMPI PUSH0 PUSH1 0xB PUSH0 PUSH1 0xC DUP5 PUSH1 0xFF AND PUSH1 0x7 DUP2 LT PUSH2 0x1BB9 JUMPI PUSH2 0x1BB8 PUSH2 0x37BD JUMP JUMPDEST JUMPDEST ADD PUSH0 SWAP1 SLOAD SWAP1 PUSH2 0x100 EXP SWAP1 DIV PUSH20 0xFFFFFFFFFFFFFFFFFFFFFFFFFFFFFFFFFFFFFFFF AND PUSH20 0xFFFFFFFFFFFFFFFFFFFFFFFFFFFFFFFFFFFFFFFF AND PUSH20 0xFFFFFFFFFFFFFFFFFFFFFFFFFFFFFFFFFFFFFFFF AND DUP2 MSTORE PUSH1 0x20 ADD SWAP1 DUP2 MSTORE PUSH1 0x20 ADD PUSH0 KECCAK256 PUSH0 PUSH2 0x100 EXP DUP2 SLOAD DUP2 PUSH1 0xFF MUL NOT AND SWAP1 DUP4 ISZERO ISZERO MUL OR SWAP1 SSTORE POP DUP1 DUP1 PUSH1 0x1 ADD SWAP2 POP POP PUSH2 0x1B8F JUMP JUMPDEST POP PUSH32 0x4BD70D790E1606677E1C786E3AE5EEA8FC03F909F5D3529D068651521D0F7EB7 PUSH1 0x40 MLOAD PUSH1 0x40 MLOAD DUP1 SWAP2 SUB SWAP1 LOG1 JUMP JUMPDEST PUSH1 0x7 PUSH0 SWAP1 SSTORE PUSH32 0xADF19D4A72F18D860D362776EF575352C10E595E76CB22F26D8527ACB3EEECAE PUSH1 0x40 MLOAD PUSH1 0x40 MLOAD DUP1 SWAP2 SUB SWAP1 LOG1 JUMP JUMPDEST PUSH0 DUP1 PUSH2 0x1CA3 DUP5 PUSH2 0x2568 JUMP JUMPDEST SWAP1 POP PUSH0 PUSH20 0xFFFFFFFFFFFFFFFFFFFFFFFFFFFFFFFFFFFFFFFF AND DUP4 PUSH20 0xFFFFFFFFFFFFFFFFFFFFFFFFFFFFFFFFFFFFFFFF AND EQ PUSH2 0x1CE4 JUMPI PUSH2 0x1CE3 DUP2 DUP5 DUP7 PUSH2 0x2760 JUMP JUMPDEST JUMPDEST PUSH0 PUSH20 0xFFFFFFFFFFFFFFFFFFFFFFFFFFFFFFFFFFFFFFFF AND DUP2 PUSH20 0xFFFFFFFFFFFFFFFFFFFFFFFFFFFFFFFFFFFFFFFF AND EQ PUSH2 0x1D6F JUMPI PUSH2 0x1D23 PUSH0 DUP6 PUSH0 DUP1 PUSH2 0x25A1 JUMP JUMPDEST PUSH1 0x1 PUSH1 0x3 PUSH0 DUP4 PUSH20 0xFFFFFFFFFFFFFFFFFFFFFFFFFFFFFFFFFFFFFFFF AND PUSH20 0xFFFFFFFFFFFFFFFFFFFFFFFFFFFFFFFFFFFFFFFF AND DUP2 MSTORE PUSH1 0x20 ADD SWAP1 DUP2 MSTORE PUSH1 0x20 ADD PUSH0 KECCAK256 PUSH0 DUP3 DUP3 SLOAD SUB SWAP3 POP POP DUP2 SWAP1 SSTORE POP JUMPDEST PUSH0 PUSH20 0xFFFFFFFFFFFFFFFFFFFFFFFFFFFFFFFFFFFFFFFF AND DUP6 PUSH20 0xFFFFFFFFFFFFFFFFFFFFFFFFFFFFFFFFFFFFFFFF AND EQ PUSH2 0x1DEE JUMPI PUSH1 0x1 PUSH1 0x3 PUSH0 DUP8 PUSH20 0xFFFFFFFFFFFFFFFFFFFFFFFFFFFFFFFFFFFFFFFF AND PUSH20 0xFFFFFFFFFFFFFFFFFFFFFFFFFFFFFFFFFFFFFFFF AND DUP2 MSTORE PUSH1 0x20 ADD SWAP1 DUP2 MSTORE PUSH1 0x20 ADD PUSH0 KECCAK256 PUSH0 DUP3 DUP3 SLOAD ADD SWAP3 POP POP DUP2 SWAP1 SSTORE POP JUMPDEST DUP5 PUSH1 0x2 PUSH0 DUP7 DUP2 MSTORE PUSH1 0x20 ADD SWAP1 DUP2 MSTORE PUSH1 0x20 ADD PUSH0 KECCAK256 PUSH0 PUSH2 0x100 EXP DUP2 SLOAD DUP2 PUSH20 0xFFFFFFFFFFFFFFFFFFFFFFFFFFFFFFFFFFFFFFFF MUL NOT AND SWAP1 DUP4 PUSH20 0xFFFFFFFFFFFFFFFFFFFFFFFFFFFFFFFFFFFFFFFF AND MUL OR SWAP1 SSTORE POP DUP4 DUP6 PUSH20 0xFFFFFFFFFFFFFFFFFFFFFFFFFFFFFFFFFFFFFFFF AND DUP3 PUSH20 0xFFFFFFFFFFFFFFFFFFFFFFFFFFFFFFFFFFFFFFFF AND PUSH32 0xDDF252AD1BE2C89B69C2B068FC378DAA952BA7F163C4A11628F55A4DF523B3EF PUSH1 0x40 MLOAD PUSH1 0x40 MLOAD DUP1 SWAP2 SUB SWAP1 LOG4 DUP1 SWAP2 POP POP SWAP4 SWAP3 POP POP POP JUMP JUMPDEST PUSH0 PUSH2 0x1EAC PUSH2 0x12AE JUMP JUMPDEST SWAP1 POP DUP2 PUSH1 0x13 PUSH0 PUSH2 0x100 EXP DUP2 SLOAD DUP2 PUSH20 0xFFFFFFFFFFFFFFFFFFFFFFFFFFFFFFFFFFFFFFFF MUL NOT AND SWAP1 DUP4 PUSH20 0xFFFFFFFFFFFFFFFFFFFFFFFFFFFFFFFFFFFFFFFF AND MUL OR SWAP1 SSTORE POP DUP2 PUSH20 0xFFFFFFFFFFFFFFFFFFFFFFFFFFFFFFFFFFFFFFFF AND DUP2 PUSH20 0xFFFFFFFFFFFFFFFFFFFFFFFFFFFFFFFFFFFFFFFF AND PUSH32 0xE9A5158AC7353C7C7322ECECC080BC8E89334EFA5795B6E21E40EB266B0003D6 PUSH1 0x40 MLOAD PUSH1 0x40 MLOAD DUP1 SWAP2 SUB SWAP1 LOG3 POP POP JUMP JUMPDEST PUSH1 0x14 PUSH0 PUSH2 0x100 EXP DUP2 SLOAD SWAP1 PUSH20 0xFFFFFFFFFFFFFFFFFFFFFFFFFFFFFFFFFFFFFFFF MUL NOT AND SWAP1 SSTORE JUMP JUMPDEST TIMESTAMP PUSH1 0x7 DUP2 SWAP1 SSTORE POP PUSH32 0x43FB7DACF03276426AB20DC791B3BE8CB2100531BAC85D7C616E08AF7BF35922 PUSH1 0x40 MLOAD PUSH1 0x40 MLOAD DUP1 SWAP2 SUB SWAP1 LOG1 JUMP JUMPDEST PUSH0 PUSH20 0xFFFFFFFFFFFFFFFFFFFFFFFFFFFFFFFFFFFFFFFF AND DUP3 PUSH20 0xFFFFFFFFFFFFFFFFFFFFFFFFFFFFFFFFFFFFFFFF AND SUB PUSH2 0x2017 JUMPI DUP2 PUSH1 0x40 MLOAD PUSH32 0x5B08BA1800000000000000000000000000000000000000000000000000000000 DUP2 MSTORE PUSH1 0x4 ADD PUSH2 0x200E SWAP2 SWAP1 PUSH2 0x2EE2 JUMP JUMPDEST PUSH1 0x40 MLOAD DUP1 SWAP2 SUB SWAP1 REVERT JUMPDEST DUP1 PUSH1 0x5 PUSH0 DUP6 PUSH20 0xFFFFFFFFFFFFFFFFFFFFFFFFFFFFFFFFFFFFFFFF AND PUSH20 0xFFFFFFFFFFFFFFFFFFFFFFFFFFFFFFFFFFFFFFFF AND DUP2 MSTORE PUSH1 0x20 ADD SWAP1 DUP2 MSTORE PUSH1 0x20 ADD PUSH0 KECCAK256 PUSH0 DUP5 PUSH20 0xFFFFFFFFFFFFFFFFFFFFFFFFFFFFFFFFFFFFFFFF AND PUSH20 0xFFFFFFFFFFFFFFFFFFFFFFFFFFFFFFFFFFFFFFFF AND DUP2 MSTORE PUSH1 0x20 ADD SWAP1 DUP2 MSTORE PUSH1 0x20 ADD PUSH0 KECCAK256 PUSH0 PUSH2 0x100 EXP DUP2 SLOAD DUP2 PUSH1 0xFF MUL NOT AND SWAP1 DUP4 ISZERO ISZERO MUL OR SWAP1 SSTORE POP DUP2 PUSH20 0xFFFFFFFFFFFFFFFFFFFFFFFFFFFFFFFFFFFFFFFF AND DUP4 PUSH20 0xFFFFFFFFFFFFFFFFFFFFFFFFFFFFFFFFFFFFFFFF AND PUSH32 0x17307EAB39AB6107E8899845AD3D59BD9653F200F220920489CA2B5937696C31 DUP4 PUSH1 0x40 MLOAD PUSH2 0x2103 SWAP2 SWAP1 PUSH2 0x2D9C JUMP JUMPDEST PUSH1 0x40 MLOAD DUP1 SWAP2 SUB SWAP1 LOG3 POP POP POP JUMP JUMPDEST PUSH0 DUP4 PUSH20 0xFFFFFFFFFFFFFFFFFFFFFFFFFFFFFFFFFFFFFFFF AND EXTCODESIZE GT ISZERO PUSH2 0x22BC JUMPI DUP3 PUSH20 0xFFFFFFFFFFFFFFFFFFFFFFFFFFFFFFFFFFFFFFFF AND PUSH4 0x150B7A02 PUSH2 0x2153 PUSH2 0x1B63 JUMP JUMPDEST DUP7 DUP6 DUP6 PUSH1 0x40 MLOAD DUP6 PUSH4 0xFFFFFFFF AND PUSH1 0xE0 SHL DUP2 MSTORE PUSH1 0x4 ADD PUSH2 0x2175 SWAP5 SWAP4 SWAP3 SWAP2 SWAP1 PUSH2 0x383C JUMP JUMPDEST PUSH1 0x20 PUSH1 0x40 MLOAD DUP1 DUP4 SUB DUP2 PUSH0 DUP8 GAS CALL SWAP3 POP POP POP DUP1 ISZERO PUSH2 0x21B0 JUMPI POP PUSH1 0x40 MLOAD RETURNDATASIZE PUSH1 0x1F NOT PUSH1 0x1F DUP3 ADD AND DUP3 ADD DUP1 PUSH1 0x40 MSTORE POP DUP2 ADD SWAP1 PUSH2 0x21AD SWAP2 SWAP1 PUSH2 0x389A JUMP JUMPDEST PUSH1 0x1 JUMPDEST PUSH2 0x2231 JUMPI RETURNDATASIZE DUP1 PUSH0 DUP2 EQ PUSH2 0x21DE JUMPI PUSH1 0x40 MLOAD SWAP2 POP PUSH1 0x1F NOT PUSH1 0x3F RETURNDATASIZE ADD AND DUP3 ADD PUSH1 0x40 MSTORE RETURNDATASIZE DUP3 MSTORE RETURNDATASIZE PUSH0 PUSH1 0x20 DUP5 ADD RETURNDATACOPY PUSH2 0x21E3 JUMP JUMPDEST PUSH1 0x60 SWAP2 POP JUMPDEST POP PUSH0 DUP2 MLOAD SUB PUSH2 0x2229 JUMPI DUP4 PUSH1 0x40 MLOAD PUSH32 0x64A0AE9200000000000000000000000000000000000000000000000000000000 DUP2 MSTORE PUSH1 0x4 ADD PUSH2 0x2220 SWAP2 SWAP1 PUSH2 0x2EE2 JUMP JUMPDEST PUSH1 0x40 MLOAD DUP1 SWAP2 SUB SWAP1 REVERT JUMPDEST DUP1 MLOAD DUP2 PUSH1 0x20 ADD REVERT JUMPDEST PUSH4 0x150B7A02 PUSH1 0xE0 SHL PUSH28 0xFFFFFFFFFFFFFFFFFFFFFFFFFFFFFFFFFFFFFFFFFFFFFFFFFFFFFFFF NOT AND DUP2 PUSH28 0xFFFFFFFFFFFFFFFFFFFFFFFFFFFFFFFFFFFFFFFFFFFFFFFFFFFFFFFF NOT AND EQ PUSH2 0x22BA JUMPI DUP4 PUSH1 0x40 MLOAD PUSH32 0x64A0AE9200000000000000000000000000000000000000000000000000000000 DUP2 MSTORE PUSH1 0x4 ADD PUSH2 0x22B1 SWAP2 SWAP1 PUSH2 0x2EE2 JUMP JUMPDEST PUSH1 0x40 MLOAD DUP1 SWAP2 SUB SWAP1 REVERT JUMPDEST POP JUMPDEST POP POP POP POP JUMP JUMPDEST PUSH1 0x60 PUSH2 0x22CD DUP3 PUSH2 0x1AA4 JUMP JUMPDEST POP PUSH0 PUSH1 0x6 PUSH0 DUP5 DUP2 MSTORE PUSH1 0x20 ADD SWAP1 DUP2 MSTORE PUSH1 0x20 ADD PUSH0 KECCAK256 DUP1 SLOAD PUSH2 0x22EB SWAP1 PUSH2 0x33B1 JUMP JUMPDEST DUP1 PUSH1 0x1F ADD PUSH1 0x20 DUP1 SWAP2 DIV MUL PUSH1 0x20 ADD PUSH1 0x40 MLOAD SWAP1 DUP2 ADD PUSH1 0x40 MSTORE DUP1 SWAP3 SWAP2 SWAP1 DUP2 DUP2 MSTORE PUSH1 0x20 ADD DUP3 DUP1 SLOAD PUSH2 0x2317 SWAP1 PUSH2 0x33B1 JUMP JUMPDEST DUP1 ISZERO PUSH2 0x2362 JUMPI DUP1 PUSH1 0x1F LT PUSH2 0x2339 JUMPI PUSH2 0x100 DUP1 DUP4 SLOAD DIV MUL DUP4 MSTORE SWAP2 PUSH1 0x20 ADD SWAP2 PUSH2 0x2362 JUMP JUMPDEST DUP3 ADD SWAP2 SWAP1 PUSH0 MSTORE PUSH1 0x20 PUSH0 KECCAK256 SWAP1 JUMPDEST DUP2 SLOAD DUP2 MSTORE SWAP1 PUSH1 0x1 ADD SWAP1 PUSH1 0x20 ADD DUP1 DUP4 GT PUSH2 0x2345 JUMPI DUP3 SWAP1 SUB PUSH1 0x1F AND DUP3 ADD SWAP2 JUMPDEST POP POP POP POP POP SWAP1 POP PUSH0 PUSH2 0x2372 PUSH2 0x2823 JUMP JUMPDEST SWAP1 POP PUSH0 DUP2 MLOAD SUB PUSH2 0x2386 JUMPI DUP2 SWAP3 POP POP POP PUSH2 0x23C8 JUMP JUMPDEST PUSH0 DUP3 MLOAD GT ISZERO PUSH2 0x23BA JUMPI DUP1 DUP3 PUSH1 0x40 MLOAD PUSH1 0x20 ADD PUSH2 0x23A2 SWAP3 SWAP2 SWAP1 PUSH2 0x38FF JUMP JUMPDEST PUSH1 0x40 MLOAD PUSH1 0x20 DUP2 DUP4 SUB SUB DUP2 MSTORE SWAP1 PUSH1 0x40 MSTORE SWAP3 POP POP POP PUSH2 0x23C8 JUMP JUMPDEST PUSH2 0x23C3 DUP5 PUSH2 0x2839 JUMP JUMPDEST SWAP3 POP POP POP JUMPDEST SWAP2 SWAP1 POP JUMP JUMPDEST PUSH2 0x23E6 DUP3 DUP3 PUSH1 0x40 MLOAD DUP1 PUSH1 0x20 ADD PUSH1 0x40 MSTORE DUP1 PUSH0 DUP2 MSTORE POP PUSH2 0x289F JUMP JUMPDEST POP POP JUMP JUMPDEST DUP1 PUSH1 0x6 PUSH0 DUP5 DUP2 MSTORE PUSH1 0x20 ADD SWAP1 DUP2 MSTORE PUSH1 0x20 ADD PUSH0 KECCAK256 SWAP1 DUP2 PUSH2 0x2408 SWAP2 SWAP1 PUSH2 0x3ABF JUMP JUMPDEST POP PUSH32 0xF8E1A15ABA9398E019F0B49DF1A4FDE98EE17AE345CB5F6B5E2C27F5033E8CE7 DUP3 PUSH1 0x40 MLOAD PUSH2 0x2438 SWAP2 SWAP1 PUSH2 0x2FED JUMP JUMPDEST PUSH1 0x40 MLOAD DUP1 SWAP2 SUB SWAP1 LOG1 POP POP JUMP JUMPDEST DUP1 PUSH1 0x14 PUSH0 PUSH2 0x100 EXP DUP2 SLOAD DUP2 PUSH20 0xFFFFFFFFFFFFFFFFFFFFFFFFFFFFFFFFFFFFFFFF MUL NOT AND SWAP1 DUP4 PUSH20 0xFFFFFFFFFFFFFFFFFFFFFFFFFFFFFFFFFFFFFFFF AND MUL OR SWAP1 SSTORE POP POP JUMP JUMPDEST PUSH0 PUSH32 0x80AC58CD00000000000000000000000000000000000000000000000000000000 PUSH28 0xFFFFFFFFFFFFFFFFFFFFFFFFFFFFFFFFFFFFFFFFFFFFFFFFFFFFFFFF NOT AND DUP3 PUSH28 0xFFFFFFFFFFFFFFFFFFFFFFFFFFFFFFFFFFFFFFFFFFFFFFFFFFFFFFFF NOT AND EQ DUP1 PUSH2 0x2551 JUMPI POP PUSH32 0x5B5E139F00000000000000000000000000000000000000000000000000000000 PUSH28 0xFFFFFFFFFFFFFFFFFFFFFFFFFFFFFFFFFFFFFFFFFFFFFFFFFFFFFFFF NOT AND DUP3 PUSH28 0xFFFFFFFFFFFFFFFFFFFFFFFFFFFFFFFFFFFFFFFFFFFFFFFFFFFFFFFF NOT AND EQ JUMPDEST DUP1 PUSH2 0x2561 JUMPI POP PUSH2 0x2560 DUP3 PUSH2 0x28BA JUMP JUMPDEST JUMPDEST SWAP1 POP SWAP2 SWAP1 POP JUMP JUMPDEST PUSH0 PUSH1 0x2 PUSH0 DUP4 DUP2 MSTORE PUSH1 0x20 ADD SWAP1 DUP2 MSTORE PUSH1 0x20 ADD PUSH0 KECCAK256 PUSH0 SWAP1 SLOAD SWAP1 PUSH2 0x100 EXP SWAP1 DIV PUSH20 0xFFFFFFFFFFFFFFFFFFFFFFFFFFFFFFFFFFFFFFFF AND SWAP1 POP SWAP2 SWAP1 POP JUMP JUMPDEST DUP1 DUP1 PUSH2 0x25D9 JUMPI POP PUSH0 PUSH20 0xFFFFFFFFFFFFFFFFFFFFFFFFFFFFFFFFFFFFFFFF AND DUP3 PUSH20 0xFFFFFFFFFFFFFFFFFFFFFFFFFFFFFFFFFFFFFFFF AND EQ ISZERO JUMPDEST ISZERO PUSH2 0x270B JUMPI PUSH0 PUSH2 0x25E8 DUP5 PUSH2 0x1AA4 JUMP JUMPDEST SWAP1 POP PUSH0 PUSH20 0xFFFFFFFFFFFFFFFFFFFFFFFFFFFFFFFFFFFFFFFF AND DUP4 PUSH20 0xFFFFFFFFFFFFFFFFFFFFFFFFFFFFFFFFFFFFFFFF AND EQ ISZERO DUP1 ISZERO PUSH2 0x2652 JUMPI POP DUP3 PUSH20 0xFFFFFFFFFFFFFFFFFFFFFFFFFFFFFFFFFFFFFFFF AND DUP2 PUSH20 0xFFFFFFFFFFFFFFFFFFFFFFFFFFFFFFFFFFFFFFFF AND EQ ISZERO JUMPDEST DUP1 ISZERO PUSH2 0x2665 JUMPI POP PUSH2 0x2663 DUP2 DUP5 PUSH2 0x15C5 JUMP JUMPDEST ISZERO JUMPDEST ISZERO PUSH2 0x26A7 JUMPI DUP3 PUSH1 0x40 MLOAD PUSH32 0xA9FBF51F00000000000000000000000000000000000000000000000000000000 DUP2 MSTORE PUSH1 0x4 ADD PUSH2 0x269E SWAP2 SWAP1 PUSH2 0x2EE2 JUMP JUMPDEST PUSH1 0x40 MLOAD DUP1 SWAP2 SUB SWAP1 REVERT JUMPDEST DUP2 ISZERO PUSH2 0x2709 JUMPI DUP4 DUP6 PUSH20 0xFFFFFFFFFFFFFFFFFFFFFFFFFFFFFFFFFFFFFFFF AND DUP3 PUSH20 0xFFFFFFFFFFFFFFFFFFFFFFFFFFFFFFFFFFFFFFFF AND PUSH32 0x8C5BE1E5EBEC7D5BD14F71427D1E84F3DD0314C0F7B2291E5B200AC8C7C3B925 PUSH1 0x40 MLOAD PUSH1 0x40 MLOAD DUP1 SWAP2 SUB SWAP1 LOG4 JUMPDEST POP JUMPDEST DUP4 PUSH1 0x4 PUSH0 DUP6 DUP2 MSTORE PUSH1 0x20 ADD SWAP1 DUP2 MSTORE PUSH1 0x20 ADD PUSH0 KECCAK256 PUSH0 PUSH2 0x100 EXP DUP2 SLOAD DUP2 PUSH20 0xFFFFFFFFFFFFFFFFFFFFFFFFFFFFFFFFFFFFFFFF MUL NOT AND SWAP1 DUP4 PUSH20 0xFFFFFFFFFFFFFFFFFFFFFFFFFFFFFFFFFFFFFFFF AND MUL OR SWAP1 SSTORE POP POP POP POP POP JUMP JUMPDEST PUSH2 0x276B DUP4 DUP4 DUP4 PUSH2 0x2923 JUMP JUMPDEST PUSH2 0x281E JUMPI PUSH0 PUSH20 0xFFFFFFFFFFFFFFFFFFFFFFFFFFFFFFFFFFFFFFFF AND DUP4 PUSH20 0xFFFFFFFFFFFFFFFFFFFFFFFFFFFFFFFFFFFFFFFF AND SUB PUSH2 0x27DF JUMPI DUP1 PUSH1 0x40 MLOAD PUSH32 0x7E27328900000000000000000000000000000000000000000000000000000000 DUP2 MSTORE PUSH1 0x4 ADD PUSH2 0x27D6 SWAP2 SWAP1 PUSH2 0x2FED JUMP JUMPDEST PUSH1 0x40 MLOAD DUP1 SWAP2 SUB SWAP1 REVERT JUMPDEST DUP2 DUP2 PUSH1 0x40 MLOAD PUSH32 0x177E802F00000000000000000000000000000000000000000000000000000000 DUP2 MSTORE PUSH1 0x4 ADD PUSH2 0x2815 SWAP3 SWAP2 SWAP1 PUSH2 0x3B8E JUMP JUMPDEST PUSH1 0x40 MLOAD DUP1 SWAP2 SUB SWAP1 REVERT JUMPDEST POP POP POP JUMP JUMPDEST PUSH1 0x60 PUSH1 0x40 MLOAD DUP1 PUSH1 0x20 ADD PUSH1 0x40 MSTORE DUP1 PUSH0 DUP2 MSTORE POP SWAP1 POP SWAP1 JUMP JUMPDEST PUSH1 0x60 PUSH2 0x2844 DUP3 PUSH2 0x1AA4 JUMP JUMPDEST POP PUSH0 PUSH2 0x284E PUSH2 0x2823 JUMP JUMPDEST SWAP1 POP PUSH0 DUP2 MLOAD GT PUSH2 0x286C JUMPI PUSH1 0x40 MLOAD DUP1 PUSH1 0x20 ADD PUSH1 0x40 MSTORE DUP1 PUSH0 DUP2 MSTORE POP PUSH2 0x2897 JUMP JUMPDEST DUP1 PUSH2 0x2876 DUP5 PUSH2 0x29E3 JUMP JUMPDEST PUSH1 0x40 MLOAD PUSH1 0x20 ADD PUSH2 0x2887 SWAP3 SWAP2 SWAP1 PUSH2 0x38FF JUMP JUMPDEST PUSH1 0x40 MLOAD PUSH1 0x20 DUP2 DUP4 SUB SUB DUP2 MSTORE SWAP1 PUSH1 0x40 MSTORE JUMPDEST SWAP2 POP POP SWAP2 SWAP1 POP JUMP JUMPDEST PUSH2 0x28A9 DUP4 DUP4 PUSH2 0x2AAD JUMP JUMPDEST PUSH2 0x28B5 PUSH0 DUP5 DUP5 DUP5 PUSH2 0x2110 JUMP JUMPDEST POP POP POP JUMP JUMPDEST PUSH0 PUSH32 0x1FFC9A700000000000000000000000000000000000000000000000000000000 PUSH28 0xFFFFFFFFFFFFFFFFFFFFFFFFFFFFFFFFFFFFFFFFFFFFFFFFFFFFFFFF NOT AND DUP3 PUSH28 0xFFFFFFFFFFFFFFFFFFFFFFFFFFFFFFFFFFFFFFFFFFFFFFFFFFFFFFFF NOT AND EQ SWAP1 POP SWAP2 SWAP1 POP JUMP JUMPDEST PUSH0 DUP1 PUSH20 0xFFFFFFFFFFFFFFFFFFFFFFFFFFFFFFFFFFFFFFFF AND DUP4 PUSH20 0xFFFFFFFFFFFFFFFFFFFFFFFFFFFFFFFFFFFFFFFF AND EQ ISZERO DUP1 ISZERO PUSH2 0x29DA JUMPI POP DUP3 PUSH20 0xFFFFFFFFFFFFFFFFFFFFFFFFFFFFFFFFFFFFFFFF AND DUP5 PUSH20 0xFFFFFFFFFFFFFFFFFFFFFFFFFFFFFFFFFFFFFFFF AND EQ DUP1 PUSH2 0x299B JUMPI POP PUSH2 0x299A DUP5 DUP5 PUSH2 0x15C5 JUMP JUMPDEST JUMPDEST DUP1 PUSH2 0x29D9 JUMPI POP DUP3 PUSH20 0xFFFFFFFFFFFFFFFFFFFFFFFFFFFFFFFFFFFFFFFF AND PUSH2 0x29C1 DUP4 PUSH2 0x1B2A JUMP JUMPDEST PUSH20 0xFFFFFFFFFFFFFFFFFFFFFFFFFFFFFFFFFFFFFFFF AND EQ JUMPDEST JUMPDEST SWAP1 POP SWAP4 SWAP3 POP POP POP JUMP JUMPDEST PUSH1 0x60 PUSH0 PUSH1 0x1 PUSH2 0x29F1 DUP5 PUSH2 0x2BA0 JUMP JUMPDEST ADD SWAP1 POP PUSH0 DUP2 PUSH8 0xFFFFFFFFFFFFFFFF DUP2 GT ISZERO PUSH2 0x2A0F JUMPI PUSH2 0x2A0E PUSH2 0x30AA JUMP JUMPDEST JUMPDEST PUSH1 0x40 MLOAD SWAP1 DUP1 DUP3 MSTORE DUP1 PUSH1 0x1F ADD PUSH1 0x1F NOT AND PUSH1 0x20 ADD DUP3 ADD PUSH1 0x40 MSTORE DUP1 ISZERO PUSH2 0x2A41 JUMPI DUP2 PUSH1 0x20 ADD PUSH1 0x1 DUP3 MUL DUP1 CALLDATASIZE DUP4 CALLDATACOPY DUP1 DUP3 ADD SWAP2 POP POP SWAP1 POP JUMPDEST POP SWAP1 POP PUSH0 DUP3 PUSH1 0x20 ADD DUP3 ADD SWAP1 POP JUMPDEST PUSH1 0x1 ISZERO PUSH2 0x2AA2 JUMPI DUP1 DUP1 PUSH1 0x1 SWAP1 SUB SWAP2 POP POP PUSH32 0x3031323334353637383961626364656600000000000000000000000000000000 PUSH1 0xA DUP7 MOD BYTE DUP2 MSTORE8 PUSH1 0xA DUP6 DUP2 PUSH2 0x2A97 JUMPI PUSH2 0x2A96 PUSH2 0x3BB5 JUMP JUMPDEST JUMPDEST DIV SWAP5 POP PUSH0 DUP6 SUB PUSH2 0x2A4E JUMPI JUMPDEST DUP2 SWAP4 POP POP POP POP SWAP2 SWAP1 POP JUMP JUMPDEST PUSH0 PUSH20 0xFFFFFFFFFFFFFFFFFFFFFFFFFFFFFFFFFFFFFFFF AND DUP3 PUSH20 0xFFFFFFFFFFFFFFFFFFFFFFFFFFFFFFFFFFFFFFFF AND SUB PUSH2 0x2B1D JUMPI PUSH0 PUSH1 0x40 MLOAD PUSH32 0x64A0AE9200000000000000000000000000000000000000000000000000000000 DUP2 MSTORE PUSH1 0x4 ADD PUSH2 0x2B14 SWAP2 SWAP1 PUSH2 0x2EE2 JUMP JUMPDEST PUSH1 0x40 MLOAD DUP1 SWAP2 SUB SWAP1 REVERT JUMPDEST PUSH0 PUSH2 0x2B29 DUP4 DUP4 PUSH0 PUSH2 0x1C98 JUMP JUMPDEST SWAP1 POP PUSH0 PUSH20 0xFFFFFFFFFFFFFFFFFFFFFFFFFFFFFFFFFFFFFFFF AND DUP2 PUSH20 0xFFFFFFFFFFFFFFFFFFFFFFFFFFFFFFFFFFFFFFFF AND EQ PUSH2 0x2B9B JUMPI PUSH0 PUSH1 0x40 MLOAD PUSH32 0x73C6AC6E00000000000000000000000000000000000000000000000000000000 DUP2 MSTORE PUSH1 0x4 ADD PUSH2 0x2B92 SWAP2 SWAP1 PUSH2 0x2EE2 JUMP JUMPDEST PUSH1 0x40 MLOAD DUP1 SWAP2 SUB SWAP1 REVERT JUMPDEST POP POP POP JUMP JUMPDEST PUSH0 DUP1 PUSH0 SWAP1 POP PUSH27 0x184F03E93FF9F4DAA797ED6E38ED64BF6A1F010000000000000000 DUP4 LT PUSH2 0x2BFC JUMPI PUSH27 0x184F03E93FF9F4DAA797ED6E38ED64BF6A1F010000000000000000 DUP4 DUP2 PUSH2 0x2BF2 JUMPI PUSH2 0x2BF1 PUSH2 0x3BB5 JUMP JUMPDEST JUMPDEST DIV SWAP3 POP PUSH1 0x40 DUP2 ADD SWAP1 POP JUMPDEST PUSH14 0x4EE2D6D415B85ACEF8100000000 DUP4 LT PUSH2 0x2C39 JUMPI PUSH14 0x4EE2D6D415B85ACEF8100000000 DUP4 DUP2 PUSH2 0x2C2F JUMPI PUSH2 0x2C2E PUSH2 0x3BB5 JUMP JUMPDEST JUMPDEST DIV SWAP3 POP PUSH1 0x20 DUP2 ADD SWAP1 POP JUMPDEST PUSH7 0x2386F26FC10000 DUP4 LT PUSH2 0x2C68 JUMPI PUSH7 0x2386F26FC10000 DUP4 DUP2 PUSH2 0x2C5E JUMPI PUSH2 0x2C5D PUSH2 0x3BB5 JUMP JUMPDEST JUMPDEST DIV SWAP3 POP PUSH1 0x10 DUP2 ADD SWAP1 POP JUMPDEST PUSH4 0x5F5E100 DUP4 LT PUSH2 0x2C91 JUMPI PUSH4 0x5F5E100 DUP4 DUP2 PUSH2 0x2C87 JUMPI PUSH2 0x2C86 PUSH2 0x3BB5 JUMP JUMPDEST JUMPDEST DIV SWAP3 POP PUSH1 0x8 DUP2 ADD SWAP1 POP JUMPDEST PUSH2 0x2710 DUP4 LT PUSH2 0x2CB6 JUMPI PUSH2 0x2710 DUP4 DUP2 PUSH2 0x2CAC JUMPI PUSH2 0x2CAB PUSH2 0x3BB5 JUMP JUMPDEST JUMPDEST DIV SWAP3 POP PUSH1 0x4 DUP2 ADD SWAP1 POP JUMPDEST PUSH1 0x64 DUP4 LT PUSH2 0x2CD9 JUMPI PUSH1 0x64 DUP4 DUP2 PUSH2 0x2CCF JUMPI PUSH2 0x2CCE PUSH2 0x3BB5 JUMP JUMPDEST JUMPDEST DIV SWAP3 POP PUSH1 0x2 DUP2 ADD SWAP1 POP JUMPDEST PUSH1 0xA DUP4 LT PUSH2 0x2CE8 JUMPI PUSH1 0x1 DUP2 ADD SWAP1 POP JUMPDEST DUP1 SWAP2 POP POP SWAP2 SWAP1 POP JUMP JUMPDEST PUSH0 PUSH1 0x40 MLOAD SWAP1 POP SWAP1 JUMP JUMPDEST PUSH0 DUP1 REVERT JUMPDEST PUSH0 DUP1 REVERT JUMPDEST PUSH0 PUSH32 0xFFFFFFFF00000000000000000000000000000000000000000000000000000000 DUP3 AND SWAP1 POP SWAP2 SWAP1 POP JUMP JUMPDEST PUSH2 0x2D36 DUP2 PUSH2 0x2D02 JUMP JUMPDEST DUP2 EQ PUSH2 0x2D40 JUMPI PUSH0 DUP1 REVERT JUMPDEST POP JUMP JUMPDEST PUSH0 DUP2 CALLDATALOAD SWAP1 POP PUSH2 0x2D51 DUP2 PUSH2 0x2D2D JUMP JUMPDEST SWAP3 SWAP2 POP POP JUMP JUMPDEST PUSH0 PUSH1 0x20 DUP3 DUP5 SUB SLT ISZERO PUSH2 0x2D6C JUMPI PUSH2 0x2D6B PUSH2 0x2CFA JUMP JUMPDEST JUMPDEST PUSH0 PUSH2 0x2D79 DUP5 DUP3 DUP6 ADD PUSH2 0x2D43 JUMP JUMPDEST SWAP2 POP POP SWAP3 SWAP2 POP POP JUMP JUMPDEST PUSH0 DUP2 ISZERO ISZERO SWAP1 POP SWAP2 SWAP1 POP JUMP JUMPDEST PUSH2 0x2D96 DUP2 PUSH2 0x2D82 JUMP JUMPDEST DUP3 MSTORE POP POP JUMP JUMPDEST PUSH0 PUSH1 0x20 DUP3 ADD SWAP1 POP PUSH2 0x2DAF PUSH0 DUP4 ADD DUP5 PUSH2 0x2D8D JUMP JUMPDEST SWAP3 SWAP2 POP POP JUMP JUMPDEST PUSH0 DUP2 MLOAD SWAP1 POP SWAP2 SWAP1 POP JUMP JUMPDEST PUSH0 DUP3 DUP3 MSTORE PUSH1 0x20 DUP3 ADD SWAP1 POP SWAP3 SWAP2 POP POP JUMP JUMPDEST DUP3 DUP2 DUP4 MCOPY PUSH0 DUP4 DUP4 ADD MSTORE POP POP POP JUMP JUMPDEST PUSH0 PUSH1 0x1F NOT PUSH1 0x1F DUP4 ADD AND SWAP1 POP SWAP2 SWAP1 POP JUMP JUMPDEST PUSH0 PUSH2 0x2DF7 DUP3 PUSH2 0x2DB5 JUMP JUMPDEST PUSH2 0x2E01 DUP2 DUP6 PUSH2 0x2DBF JUMP JUMPDEST SWAP4 POP PUSH2 0x2E11 DUP2 DUP6 PUSH1 0x20 DUP7 ADD PUSH2 0x2DCF JUMP JUMPDEST PUSH2 0x2E1A DUP2 PUSH2 0x2DDD JUMP JUMPDEST DUP5 ADD SWAP2 POP POP SWAP3 SWAP2 POP POP JUMP JUMPDEST PUSH0 PUSH1 0x20 DUP3 ADD SWAP1 POP DUP2 DUP2 SUB PUSH0 DUP4 ADD MSTORE PUSH2 0x2E3D DUP2 DUP5 PUSH2 0x2DED JUMP JUMPDEST SWAP1 POP SWAP3 SWAP2 POP POP JUMP JUMPDEST PUSH0 DUP2 SWAP1 POP SWAP2 SWAP1 POP JUMP JUMPDEST PUSH2 0x2E57 DUP2 PUSH2 0x2E45 JUMP JUMPDEST DUP2 EQ PUSH2 0x2E61 JUMPI PUSH0 DUP1 REVERT JUMPDEST POP JUMP JUMPDEST PUSH0 DUP2 CALLDATALOAD SWAP1 POP PUSH2 0x2E72 DUP2 PUSH2 0x2E4E JUMP JUMPDEST SWAP3 SWAP2 POP POP JUMP JUMPDEST PUSH0 PUSH1 0x20 DUP3 DUP5 SUB SLT ISZERO PUSH2 0x2E8D JUMPI PUSH2 0x2E8C PUSH2 0x2CFA JUMP JUMPDEST JUMPDEST PUSH0 PUSH2 0x2E9A DUP5 DUP3 DUP6 ADD PUSH2 0x2E64 JUMP JUMPDEST SWAP2 POP POP SWAP3 SWAP2 POP POP JUMP JUMPDEST PUSH0 PUSH20 0xFFFFFFFFFFFFFFFFFFFFFFFFFFFFFFFFFFFFFFFF DUP3 AND SWAP1 POP SWAP2 SWAP1 POP JUMP JUMPDEST PUSH0 PUSH2 0x2ECC DUP3 PUSH2 0x2EA3 JUMP JUMPDEST SWAP1 POP SWAP2 SWAP1 POP JUMP JUMPDEST PUSH2 0x2EDC DUP2 PUSH2 0x2EC2 JUMP JUMPDEST DUP3 MSTORE POP POP JUMP JUMPDEST PUSH0 PUSH1 0x20 DUP3 ADD SWAP1 POP PUSH2 0x2EF5 PUSH0 DUP4 ADD DUP5 PUSH2 0x2ED3 JUMP JUMPDEST SWAP3 SWAP2 POP POP JUMP JUMPDEST PUSH2 0x2F04 DUP2 PUSH2 0x2EC2 JUMP JUMPDEST DUP2 EQ PUSH2 0x2F0E JUMPI PUSH0 DUP1 REVERT JUMPDEST POP JUMP JUMPDEST PUSH0 DUP2 CALLDATALOAD SWAP1 POP PUSH2 0x2F1F DUP2 PUSH2 0x2EFB JUMP JUMPDEST SWAP3 SWAP2 POP POP JUMP JUMPDEST PUSH0 DUP1 PUSH1 0x40 DUP4 DUP6 SUB SLT ISZERO PUSH2 0x2F3B JUMPI PUSH2 0x2F3A PUSH2 0x2CFA JUMP JUMPDEST JUMPDEST PUSH0 PUSH2 0x2F48 DUP6 DUP3 DUP7 ADD PUSH2 0x2F11 JUMP JUMPDEST SWAP3 POP POP PUSH1 0x20 PUSH2 0x2F59 DUP6 DUP3 DUP7 ADD PUSH2 0x2E64 JUMP JUMPDEST SWAP2 POP POP SWAP3 POP SWAP3 SWAP1 POP JUMP JUMPDEST PUSH0 DUP1 PUSH0 PUSH1 0x60 DUP5 DUP7 SUB SLT ISZERO PUSH2 0x2F7A JUMPI PUSH2 0x2F79 PUSH2 0x2CFA JUMP JUMPDEST JUMPDEST PUSH0 PUSH2 0x2F87 DUP7 DUP3 DUP8 ADD PUSH2 0x2F11 JUMP JUMPDEST SWAP4 POP POP PUSH1 0x20 PUSH2 0x2F98 DUP7 DUP3 DUP8 ADD PUSH2 0x2F11 JUMP JUMPDEST SWAP3 POP POP PUSH1 0x40 PUSH2 0x2FA9 DUP7 DUP3 DUP8 ADD PUSH2 0x2E64 JUMP JUMPDEST SWAP2 POP POP SWAP3 POP SWAP3 POP SWAP3 JUMP JUMPDEST PUSH0 PUSH1 0x20 DUP3 DUP5 SUB SLT ISZERO PUSH2 0x2FC8 JUMPI PUSH2 0x2FC7 PUSH2 0x2CFA JUMP JUMPDEST JUMPDEST PUSH0 PUSH2 0x2FD5 DUP5 DUP3 DUP6 ADD PUSH2 0x2F11 JUMP JUMPDEST SWAP2 POP POP SWAP3 SWAP2 POP POP JUMP JUMPDEST PUSH2 0x2FE7 DUP2 PUSH2 0x2E45 JUMP JUMPDEST DUP3 MSTORE POP POP JUMP JUMPDEST PUSH0 PUSH1 0x20 DUP3 ADD SWAP1 POP PUSH2 0x3000 PUSH0 DUP4 ADD DUP5 PUSH2 0x2FDE JUMP JUMPDEST SWAP3 SWAP2 POP POP JUMP JUMPDEST PUSH0 PUSH1 0xFF DUP3 AND SWAP1 POP SWAP2 SWAP1 POP JUMP JUMPDEST PUSH2 0x301B DUP2 PUSH2 0x3006 JUMP JUMPDEST DUP3 MSTORE POP POP JUMP JUMPDEST PUSH0 PUSH1 0x20 DUP3 ADD SWAP1 POP PUSH2 0x3034 PUSH0 DUP4 ADD DUP5 PUSH2 0x3012 JUMP JUMPDEST SWAP3 SWAP2 POP POP JUMP JUMPDEST PUSH2 0x3043 DUP2 PUSH2 0x2D82 JUMP JUMPDEST DUP2 EQ PUSH2 0x304D JUMPI PUSH0 DUP1 REVERT JUMPDEST POP JUMP JUMPDEST PUSH0 DUP2 CALLDATALOAD SWAP1 POP PUSH2 0x305E DUP2 PUSH2 0x303A JUMP JUMPDEST SWAP3 SWAP2 POP POP JUMP JUMPDEST PUSH0 DUP1 PUSH1 0x40 DUP4 DUP6 SUB SLT ISZERO PUSH2 0x307A JUMPI PUSH2 0x3079 PUSH2 0x2CFA JUMP JUMPDEST JUMPDEST PUSH0 PUSH2 0x3087 DUP6 DUP3 DUP7 ADD PUSH2 0x2F11 JUMP JUMPDEST SWAP3 POP POP PUSH1 0x20 PUSH2 0x3098 DUP6 DUP3 DUP7 ADD PUSH2 0x3050 JUMP JUMPDEST SWAP2 POP POP SWAP3 POP SWAP3 SWAP1 POP JUMP JUMPDEST PUSH0 DUP1 REVERT JUMPDEST PUSH0 DUP1 REVERT JUMPDEST PUSH32 0x4E487B7100000000000000000000000000000000000000000000000000000000 PUSH0 MSTORE PUSH1 0x41 PUSH1 0x4 MSTORE PUSH1 0x24 PUSH0 REVERT JUMPDEST PUSH2 0x30E0 DUP3 PUSH2 0x2DDD JUMP JUMPDEST DUP2 ADD DUP2 DUP2 LT PUSH8 0xFFFFFFFFFFFFFFFF DUP3 GT OR ISZERO PUSH2 0x30FF JUMPI PUSH2 0x30FE PUSH2 0x30AA JUMP JUMPDEST JUMPDEST DUP1 PUSH1 0x40 MSTORE POP POP POP JUMP JUMPDEST PUSH0 PUSH2 0x3111 PUSH2 0x2CF1 JUMP JUMPDEST SWAP1 POP PUSH2 0x311D DUP3 DUP3 PUSH2 0x30D7 JUMP JUMPDEST SWAP2 SWAP1 POP JUMP JUMPDEST PUSH0 PUSH8 0xFFFFFFFFFFFFFFFF DUP3 GT ISZERO PUSH2 0x313C JUMPI PUSH2 0x313B PUSH2 0x30AA JUMP JUMPDEST JUMPDEST PUSH2 0x3145 DUP3 PUSH2 0x2DDD JUMP JUMPDEST SWAP1 POP PUSH1 0x20 DUP2 ADD SWAP1 POP SWAP2 SWAP1 POP JUMP JUMPDEST DUP3 DUP2 DUP4 CALLDATACOPY PUSH0 DUP4 DUP4 ADD MSTORE POP POP POP JUMP JUMPDEST PUSH0 PUSH2 0x3172 PUSH2 0x316D DUP5 PUSH2 0x3122 JUMP JUMPDEST PUSH2 0x3108 JUMP JUMPDEST SWAP1 POP DUP3 DUP2 MSTORE PUSH1 0x20 DUP2 ADD DUP5 DUP5 DUP5 ADD GT ISZERO PUSH2 0x318E JUMPI PUSH2 0x318D PUSH2 0x30A6 JUMP JUMPDEST JUMPDEST PUSH2 0x3199 DUP5 DUP3 DUP6 PUSH2 0x3152 JUMP JUMPDEST POP SWAP4 SWAP3 POP POP POP JUMP JUMPDEST PUSH0 DUP3 PUSH1 0x1F DUP4 ADD SLT PUSH2 0x31B5 JUMPI PUSH2 0x31B4 PUSH2 0x30A2 JUMP JUMPDEST JUMPDEST DUP2 CALLDATALOAD PUSH2 0x31C5 DUP5 DUP3 PUSH1 0x20 DUP7 ADD PUSH2 0x3160 JUMP JUMPDEST SWAP2 POP POP SWAP3 SWAP2 POP POP JUMP JUMPDEST PUSH0 DUP1 PUSH0 DUP1 PUSH1 0x80 DUP6 DUP8 SUB SLT ISZERO PUSH2 0x31E6 JUMPI PUSH2 0x31E5 PUSH2 0x2CFA JUMP JUMPDEST JUMPDEST PUSH0 PUSH2 0x31F3 DUP8 DUP3 DUP9 ADD PUSH2 0x2F11 JUMP JUMPDEST SWAP5 POP POP PUSH1 0x20 PUSH2 0x3204 DUP8 DUP3 DUP9 ADD PUSH2 0x2F11 JUMP JUMPDEST SWAP4 POP POP PUSH1 0x40 PUSH2 0x3215 DUP8 DUP3 DUP9 ADD PUSH2 0x2E64 JUMP JUMPDEST SWAP3 POP POP PUSH1 0x60 DUP6 ADD CALLDATALOAD PUSH8 0xFFFFFFFFFFFFFFFF DUP2 GT ISZERO PUSH2 0x3236 JUMPI PUSH2 0x3235 PUSH2 0x2CFE JUMP JUMPDEST JUMPDEST PUSH2 0x3242 DUP8 DUP3 DUP9 ADD PUSH2 0x31A1 JUMP JUMPDEST SWAP2 POP POP SWAP3 SWAP6 SWAP2 SWAP5 POP SWAP3 POP JUMP JUMPDEST PUSH0 PUSH8 0xFFFFFFFFFFFFFFFF DUP3 GT ISZERO PUSH2 0x3268 JUMPI PUSH2 0x3267 PUSH2 0x30AA JUMP JUMPDEST JUMPDEST PUSH2 0x3271 DUP3 PUSH2 0x2DDD JUMP JUMPDEST SWAP1 POP PUSH1 0x20 DUP2 ADD SWAP1 POP SWAP2 SWAP1 POP JUMP JUMPDEST PUSH0 PUSH2 0x3290 PUSH2 0x328B DUP5 PUSH2 0x324E JUMP JUMPDEST PUSH2 0x3108 JUMP JUMPDEST SWAP1 POP DUP3 DUP2 MSTORE PUSH1 0x20 DUP2 ADD DUP5 DUP5 DUP5 ADD GT ISZERO PUSH2 0x32AC JUMPI PUSH2 0x32AB PUSH2 0x30A6 JUMP JUMPDEST JUMPDEST PUSH2 0x32B7 DUP5 DUP3 DUP6 PUSH2 0x3152 JUMP JUMPDEST POP SWAP4 SWAP3 POP POP POP JUMP JUMPDEST PUSH0 DUP3 PUSH1 0x1F DUP4 ADD SLT PUSH2 0x32D3 JUMPI PUSH2 0x32D2 PUSH2 0x30A2 JUMP JUMPDEST JUMPDEST DUP2 CALLDATALOAD PUSH2 0x32E3 DUP5 DUP3 PUSH1 0x20 DUP7 ADD PUSH2 0x327E JUMP JUMPDEST SWAP2 POP POP SWAP3 SWAP2 POP POP JUMP JUMPDEST PUSH0 DUP1 PUSH1 0x40 DUP4 DUP6 SUB SLT ISZERO PUSH2 0x3302 JUMPI PUSH2 0x3301 PUSH2 0x2CFA JUMP JUMPDEST JUMPDEST PUSH0 PUSH2 0x330F DUP6 DUP3 DUP7 ADD PUSH2 0x2F11 JUMP JUMPDEST SWAP3 POP POP PUSH1 0x20 DUP4 ADD CALLDATALOAD PUSH8 0xFFFFFFFFFFFFFFFF DUP2 GT ISZERO PUSH2 0x3330 JUMPI PUSH2 0x332F PUSH2 0x2CFE JUMP JUMPDEST JUMPDEST PUSH2 0x333C DUP6 DUP3 DUP7 ADD PUSH2 0x32BF JUMP JUMPDEST SWAP2 POP POP SWAP3 POP SWAP3 SWAP1 POP JUMP JUMPDEST PUSH0 DUP1 PUSH1 0x40 DUP4 DUP6 SUB SLT ISZERO PUSH2 0x335C JUMPI PUSH2 0x335B PUSH2 0x2CFA JUMP JUMPDEST JUMPDEST PUSH0 PUSH2 0x3369 DUP6 DUP3 DUP7 ADD PUSH2 0x2F11 JUMP JUMPDEST SWAP3 POP POP PUSH1 0x20 PUSH2 0x337A DUP6 DUP3 DUP7 ADD PUSH2 0x2F11 JUMP JUMPDEST SWAP2 POP POP SWAP3 POP SWAP3 SWAP1 POP JUMP JUMPDEST PUSH32 0x4E487B7100000000000000000000000000000000000000000000000000000000 PUSH0 MSTORE PUSH1 0x22 PUSH1 0x4 MSTORE PUSH1 0x24 PUSH0 REVERT JUMPDEST PUSH0 PUSH1 0x2 DUP3 DIV SWAP1 POP PUSH1 0x1 DUP3 AND DUP1 PUSH2 0x33C8 JUMPI PUSH1 0x7F DUP3 AND SWAP2 POP JUMPDEST PUSH1 0x20 DUP3 LT DUP2 SUB PUSH2 0x33DB JUMPI PUSH2 0x33DA PUSH2 0x3384 JUMP JUMPDEST JUMPDEST POP SWAP2 SWAP1 POP JUMP JUMPDEST PUSH32 0x4F6E6C79206F776E657221000000000000000000000000000000000000000000 PUSH0 DUP3 ADD MSTORE POP JUMP JUMPDEST PUSH0 PUSH2 0x3415 PUSH1 0xB DUP4 PUSH2 0x2DBF JUMP JUMPDEST SWAP2 POP PUSH2 0x3420 DUP3 PUSH2 0x33E1 JUMP JUMPDEST PUSH1 0x20 DUP3 ADD SWAP1 POP SWAP2 SWAP1 POP JUMP JUMPDEST PUSH0 PUSH1 0x20 DUP3 ADD SWAP1 POP DUP2 DUP2 SUB PUSH0 DUP4 ADD MSTORE PUSH2 0x3442 DUP2 PUSH2 0x3409 JUMP JUMPDEST SWAP1 POP SWAP2 SWAP1 POP JUMP JUMPDEST PUSH32 0x5175657565206E6F7420696E6974696174656421000000000000000000000000 PUSH0 DUP3 ADD MSTORE POP JUMP JUMPDEST PUSH0 PUSH2 0x347D PUSH1 0x14 DUP4 PUSH2 0x2DBF JUMP JUMPDEST SWAP2 POP PUSH2 0x3488 DUP3 PUSH2 0x3449 JUMP JUMPDEST PUSH1 0x20 DUP3 ADD SWAP1 POP SWAP2 SWAP1 POP JUMP JUMPDEST PUSH0 PUSH1 0x20 DUP3 ADD SWAP1 POP DUP2 DUP2 SUB PUSH0 DUP4 ADD MSTORE PUSH2 0x34AA DUP2 PUSH2 0x3471 JUMP JUMPDEST SWAP1 POP SWAP2 SWAP1 POP JUMP JUMPDEST PUSH32 0x4E487B7100000000000000000000000000000000000000000000000000000000 PUSH0 MSTORE PUSH1 0x11 PUSH1 0x4 MSTORE PUSH1 0x24 PUSH0 REVERT JUMPDEST PUSH0 PUSH2 0x34E8 DUP3 PUSH2 0x2E45 JUMP JUMPDEST SWAP2 POP PUSH2 0x34F3 DUP4 PUSH2 0x2E45 JUMP JUMPDEST SWAP3 POP DUP3 DUP3 ADD SWAP1 POP DUP1 DUP3 GT ISZERO PUSH2 0x350B JUMPI PUSH2 0x350A PUSH2 0x34B1 JUMP JUMPDEST JUMPDEST SWAP3 SWAP2 POP POP JUMP JUMPDEST PUSH32 0x54696D656C6F636B65642C207761697421000000000000000000000000000000 PUSH0 DUP3 ADD MSTORE POP JUMP JUMPDEST PUSH0 PUSH2 0x3545 PUSH1 0x11 DUP4 PUSH2 0x2DBF JUMP JUMPDEST SWAP2 POP PUSH2 0x3550 DUP3 PUSH2 0x3511 JUMP JUMPDEST PUSH1 0x20 DUP3 ADD SWAP1 POP SWAP2 SWAP1 POP JUMP JUMPDEST PUSH0 PUSH1 0x20 DUP3 ADD SWAP1 POP DUP2 DUP2 SUB PUSH0 DUP4 ADD MSTORE PUSH2 0x3572 DUP2 PUSH2 0x3539 JUMP JUMPDEST SWAP1 POP SWAP2 SWAP1 POP JUMP JUMPDEST PUSH32 0x477261646520706572696F642065787069726564210000000000000000000000 PUSH0 DUP3 ADD MSTORE POP JUMP JUMPDEST PUSH0 PUSH2 0x35AD PUSH1 0x15 DUP4 PUSH2 0x2DBF JUMP JUMPDEST SWAP2 POP PUSH2 0x35B8 DUP3 PUSH2 0x3579 JUMP JUMPDEST PUSH1 0x20 DUP3 ADD SWAP1 POP SWAP2 SWAP1 POP JUMP JUMPDEST PUSH0 PUSH1 0x20 DUP3 ADD SWAP1 POP DUP2 DUP2 SUB PUSH0 DUP4 ADD MSTORE PUSH2 0x35DA DUP2 PUSH2 0x35A1 JUMP JUMPDEST SWAP1 POP SWAP2 SWAP1 POP JUMP JUMPDEST PUSH32 0x4E6F7420656E6F756768207369676E6174757265732100000000000000000000 PUSH0 DUP3 ADD MSTORE POP JUMP JUMPDEST PUSH0 PUSH2 0x3615 PUSH1 0x16 DUP4 PUSH2 0x2DBF JUMP JUMPDEST SWAP2 POP PUSH2 0x3620 DUP3 PUSH2 0x35E1 JUMP JUMPDEST PUSH1 0x20 DUP3 ADD SWAP1 POP SWAP2 SWAP1 POP JUMP JUMPDEST PUSH0 PUSH1 0x20 DUP3 ADD SWAP1 POP DUP2 DUP2 SUB PUSH0 DUP4 ADD MSTORE PUSH2 0x3642 DUP2 PUSH2 0x3609 JUMP JUMPDEST SWAP1 POP SWAP2 SWAP1 POP JUMP JUMPDEST PUSH32 0x5369676E61747572657320686176652065787069726564210000000000000000 PUSH0 DUP3 ADD MSTORE POP JUMP JUMPDEST PUSH0 PUSH2 0x367D PUSH1 0x18 DUP4 PUSH2 0x2DBF JUMP JUMPDEST SWAP2 POP PUSH2 0x3688 DUP3 PUSH2 0x3649 JUMP JUMPDEST PUSH1 0x20 DUP3 ADD SWAP1 POP SWAP2 SWAP1 POP JUMP JUMPDEST PUSH0 PUSH1 0x20 DUP3 ADD SWAP1 POP DUP2 DUP2 SUB PUSH0 DUP4 ADD MSTORE PUSH2 0x36AA DUP2 PUSH2 0x3671 JUMP JUMPDEST SWAP1 POP SWAP2 SWAP1 POP JUMP JUMPDEST PUSH0 PUSH1 0x60 DUP3 ADD SWAP1 POP PUSH2 0x36C4 PUSH0 DUP4 ADD DUP7 PUSH2 0x2ED3 JUMP JUMPDEST PUSH2 0x36D1 PUSH1 0x20 DUP4 ADD DUP6 PUSH2 0x2FDE JUMP JUMPDEST PUSH2 0x36DE PUSH1 0x40 DUP4 ADD DUP5 PUSH2 0x2ED3 JUMP JUMPDEST SWAP5 SWAP4 POP POP POP POP JUMP JUMPDEST PUSH32 0x4E6F742061207369676E65722100000000000000000000000000000000000000 PUSH0 DUP3 ADD MSTORE POP JUMP JUMPDEST PUSH0 PUSH2 0x371A PUSH1 0xD DUP4 PUSH2 0x2DBF JUMP JUMPDEST SWAP2 POP PUSH2 0x3725 DUP3 PUSH2 0x36E6 JUMP JUMPDEST PUSH1 0x20 DUP3 ADD SWAP1 POP SWAP2 SWAP1 POP JUMP JUMPDEST PUSH0 PUSH1 0x20 DUP3 ADD SWAP1 POP DUP2 DUP2 SUB PUSH0 DUP4 ADD MSTORE PUSH2 0x3747 DUP2 PUSH2 0x370E JUMP JUMPDEST SWAP1 POP SWAP2 SWAP1 POP JUMP JUMPDEST PUSH0 PUSH2 0x3758 DUP3 PUSH2 0x3006 JUMP JUMPDEST SWAP2 POP PUSH1 0xFF DUP3 SUB PUSH2 0x376B JUMPI PUSH2 0x376A PUSH2 0x34B1 JUMP JUMPDEST JUMPDEST PUSH1 0x1 DUP3 ADD SWAP1 POP SWAP2 SWAP1 POP JUMP JUMPDEST PUSH0 PUSH2 0x3780 DUP3 PUSH2 0x2E45 JUMP JUMPDEST SWAP2 POP PUSH32 0xFFFFFFFFFFFFFFFFFFFFFFFFFFFFFFFFFFFFFFFFFFFFFFFFFFFFFFFFFFFFFFFF DUP3 SUB PUSH2 0x37B2 JUMPI PUSH2 0x37B1 PUSH2 0x34B1 JUMP JUMPDEST JUMPDEST PUSH1 0x1 DUP3 ADD SWAP1 POP SWAP2 SWAP1 POP JUMP JUMPDEST PUSH32 0x4E487B7100000000000000000000000000000000000000000000000000000000 PUSH0 MSTORE PUSH1 0x32 PUSH1 0x4 MSTORE PUSH1 0x24 PUSH0 REVERT JUMPDEST PUSH0 DUP2 MLOAD SWAP1 POP SWAP2 SWAP1 POP JUMP JUMPDEST PUSH0 DUP3 DUP3 MSTORE PUSH1 0x20 DUP3 ADD SWAP1 POP SWAP3 SWAP2 POP POP JUMP JUMPDEST PUSH0 PUSH2 0x380E DUP3 PUSH2 0x37EA JUMP JUMPDEST PUSH2 0x3818 DUP2 DUP6 PUSH2 0x37F4 JUMP JUMPDEST SWAP4 POP PUSH2 0x3828 DUP2 DUP6 PUSH1 0x20 DUP7 ADD PUSH2 0x2DCF JUMP JUMPDEST PUSH2 0x3831 DUP2 PUSH2 0x2DDD JUMP JUMPDEST DUP5 ADD SWAP2 POP POP SWAP3 SWAP2 POP POP JUMP JUMPDEST PUSH0 PUSH1 0x80 DUP3 ADD SWAP1 POP PUSH2 0x384F PUSH0 DUP4 ADD DUP8 PUSH2 0x2ED3 JUMP JUMPDEST PUSH2 0x385C PUSH1 0x20 DUP4 ADD DUP7 PUSH2 0x2ED3 JUMP JUMPDEST PUSH2 0x3869 PUSH1 0x40 DUP4 ADD DUP6 PUSH2 0x2FDE JUMP JUMPDEST DUP2 DUP2 SUB PUSH1 0x60 DUP4 ADD MSTORE PUSH2 0x387B DUP2 DUP5 PUSH2 0x3804 JUMP JUMPDEST SWAP1 POP SWAP6 SWAP5 POP POP POP POP POP JUMP JUMPDEST PUSH0 DUP2 MLOAD SWAP1 POP PUSH2 0x3894 DUP2 PUSH2 0x2D2D JUMP JUMPDEST SWAP3 SWAP2 POP POP JUMP JUMPDEST PUSH0 PUSH1 0x20 DUP3 DUP5 SUB SLT ISZERO PUSH2 0x38AF JUMPI PUSH2 0x38AE PUSH2 0x2CFA JUMP JUMPDEST JUMPDEST PUSH0 PUSH2 0x38BC DUP5 DUP3 DUP6 ADD PUSH2 0x3886 JUMP JUMPDEST SWAP2 POP POP SWAP3 SWAP2 POP POP JUMP JUMPDEST PUSH0 DUP2 SWAP1 POP SWAP3 SWAP2 POP POP JUMP JUMPDEST PUSH0 PUSH2 0x38D9 DUP3 PUSH2 0x2DB5 JUMP JUMPDEST PUSH2 0x38E3 DUP2 DUP6 PUSH2 0x38C5 JUMP JUMPDEST SWAP4 POP PUSH2 0x38F3 DUP2 DUP6 PUSH1 0x20 DUP7 ADD PUSH2 0x2DCF JUMP JUMPDEST DUP1 DUP5 ADD SWAP2 POP POP SWAP3 SWAP2 POP POP JUMP JUMPDEST PUSH0 PUSH2 0x390A DUP3 DUP6 PUSH2 0x38CF JUMP JUMPDEST SWAP2 POP PUSH2 0x3916 DUP3 DUP5 PUSH2 0x38CF JUMP JUMPDEST SWAP2 POP DUP2 SWAP1 POP SWAP4 SWAP3 POP POP POP JUMP JUMPDEST PUSH0 DUP2 SWAP1 POP DUP2 PUSH0 MSTORE PUSH1 0x20 PUSH0 KECCAK256 SWAP1 POP SWAP2 SWAP1 POP JUMP JUMPDEST PUSH0 PUSH1 0x20 PUSH1 0x1F DUP4 ADD DIV SWAP1 POP SWAP2 SWAP1 POP JUMP JUMPDEST PUSH0 DUP3 DUP3 SHL SWAP1 POP SWAP3 SWAP2 POP POP JUMP JUMPDEST PUSH0 PUSH1 0x8 DUP4 MUL PUSH2 0x397E PUSH32 0xFFFFFFFFFFFFFFFFFFFFFFFFFFFFFFFFFFFFFFFFFFFFFFFFFFFFFFFFFFFFFFFF DUP3 PUSH2 0x3943 JUMP JUMPDEST PUSH2 0x3988 DUP7 DUP4 PUSH2 0x3943 JUMP JUMPDEST SWAP6 POP DUP1 NOT DUP5 AND SWAP4 POP DUP1 DUP7 AND DUP5 OR SWAP3 POP POP POP SWAP4 SWAP3 POP POP POP JUMP JUMPDEST PUSH0 DUP2 SWAP1 POP SWAP2 SWAP1 POP JUMP JUMPDEST PUSH0 PUSH2 0x39C3 PUSH2 0x39BE PUSH2 0x39B9 DUP5 PUSH2 0x2E45 JUMP JUMPDEST PUSH2 0x39A0 JUMP JUMPDEST PUSH2 0x2E45 JUMP JUMPDEST SWAP1 POP SWAP2 SWAP1 POP JUMP JUMPDEST PUSH0 DUP2 SWAP1 POP SWAP2 SWAP1 POP JUMP JUMPDEST PUSH2 0x39DC DUP4 PUSH2 0x39A9 JUMP JUMPDEST PUSH2 0x39F0 PUSH2 0x39E8 DUP3 PUSH2 0x39CA JUMP JUMPDEST DUP5 DUP5 SLOAD PUSH2 0x394F JUMP JUMPDEST DUP3 SSTORE POP POP POP POP JUMP JUMPDEST PUSH0 SWAP1 JUMP JUMPDEST PUSH2 0x3A04 PUSH2 0x39F8 JUMP JUMPDEST PUSH2 0x3A0F DUP2 DUP5 DUP5 PUSH2 0x39D3 JUMP JUMPDEST POP POP POP JUMP JUMPDEST JUMPDEST DUP2 DUP2 LT ISZERO PUSH2 0x3A32 JUMPI PUSH2 0x3A27 PUSH0 DUP3 PUSH2 0x39FC JUMP JUMPDEST PUSH1 0x1 DUP2 ADD SWAP1 POP PUSH2 0x3A15 JUMP JUMPDEST POP POP JUMP JUMPDEST PUSH1 0x1F DUP3 GT ISZERO PUSH2 0x3A77 JUMPI PUSH2 0x3A48 DUP2 PUSH2 0x3922 JUMP JUMPDEST PUSH2 0x3A51 DUP5 PUSH2 0x3934 JUMP JUMPDEST DUP2 ADD PUSH1 0x20 DUP6 LT ISZERO PUSH2 0x3A60 JUMPI DUP2 SWAP1 POP JUMPDEST PUSH2 0x3A74 PUSH2 0x3A6C DUP6 PUSH2 0x3934 JUMP JUMPDEST DUP4 ADD DUP3 PUSH2 0x3A14 JUMP JUMPDEST POP POP JUMPDEST POP POP POP JUMP JUMPDEST PUSH0 DUP3 DUP3 SHR SWAP1 POP SWAP3 SWAP2 POP POP JUMP JUMPDEST PUSH0 PUSH2 0x3A97 PUSH0 NOT DUP5 PUSH1 0x8 MUL PUSH2 0x3A7C JUMP JUMPDEST NOT DUP1 DUP4 AND SWAP2 POP POP SWAP3 SWAP2 POP POP JUMP JUMPDEST PUSH0 PUSH2 0x3AAF DUP4 DUP4 PUSH2 0x3A88 JUMP JUMPDEST SWAP2 POP DUP3 PUSH1 0x2 MUL DUP3 OR SWAP1 POP SWAP3 SWAP2 POP POP JUMP JUMPDEST PUSH2 0x3AC8 DUP3 PUSH2 0x2DB5 JUMP JUMPDEST PUSH8 0xFFFFFFFFFFFFFFFF DUP2 GT ISZERO PUSH2 0x3AE1 JUMPI PUSH2 0x3AE0 PUSH2 0x30AA JUMP JUMPDEST JUMPDEST PUSH2 0x3AEB DUP3 SLOAD PUSH2 0x33B1 JUMP JUMPDEST PUSH2 0x3AF6 DUP3 DUP3 DUP6 PUSH2 0x3A36 JUMP JUMPDEST PUSH0 PUSH1 0x20 SWAP1 POP PUSH1 0x1F DUP4 GT PUSH1 0x1 DUP2 EQ PUSH2 0x3B27 JUMPI PUSH0 DUP5 ISZERO PUSH2 0x3B15 JUMPI DUP3 DUP8 ADD MLOAD SWAP1 POP JUMPDEST PUSH2 0x3B1F DUP6 DUP3 PUSH2 0x3AA4 JUMP JUMPDEST DUP7 SSTORE POP PUSH2 0x3B86 JUMP JUMPDEST PUSH1 0x1F NOT DUP5 AND PUSH2 0x3B35 DUP7 PUSH2 0x3922 JUMP JUMPDEST PUSH0 JUMPDEST DUP3 DUP2 LT ISZERO PUSH2 0x3B5C JUMPI DUP5 DUP10 ADD MLOAD DUP3 SSTORE PUSH1 0x1 DUP3 ADD SWAP2 POP PUSH1 0x20 DUP6 ADD SWAP5 POP PUSH1 0x20 DUP2 ADD SWAP1 POP PUSH2 0x3B37 JUMP JUMPDEST DUP7 DUP4 LT ISZERO PUSH2 0x3B79 JUMPI DUP5 DUP10 ADD MLOAD PUSH2 0x3B75 PUSH1 0x1F DUP10 AND DUP3 PUSH2 0x3A88 JUMP JUMPDEST DUP4 SSTORE POP JUMPDEST PUSH1 0x1 PUSH1 0x2 DUP9 MUL ADD DUP9 SSTORE POP POP POP JUMPDEST POP POP POP POP POP POP JUMP JUMPDEST PUSH0 PUSH1 0x40 DUP3 ADD SWAP1 POP PUSH2 0x3BA1 PUSH0 DUP4 ADD DUP6 PUSH2 0x2ED3 JUMP JUMPDEST PUSH2 0x3BAE PUSH1 0x20 DUP4 ADD DUP5 PUSH2 0x2FDE JUMP JUMPDEST SWAP4 SWAP3 POP POP POP JUMP JUMPDEST PUSH32 0x4E487B7100000000000000000000000000000000000000000000000000000000 PUSH0 MSTORE PUSH1 0x12 PUSH1 0x4 MSTORE PUSH1 0x24 PUSH0 REVERT INVALID LOG2 PUSH5 0x6970667358 0x22 SLT KECCAK256 0xC8 0xCA NOT PUSH11 0x13359AE6E9D9C703BB69B8 PUSH17 0x34A627A086AC44996280A0BF6C1BE4F864 PUSH20 0x6F6C634300081A00330000000000000000000000 "
		},
		"gasEstimates": {
			"creation": {
				"codeDepositCost": "3076800",
				"executionCost": "infinite",
				"totalCost": "infinite"
			},
			"external": {
				"acceptOwnership()": "54884",
				"approve(address,uint256)": "infinite",
				"balanceOf(address)": "infinite",
				"burn(uint256)": "infinite",
				"currentSignatureCount()": "2584",
				"getApproved(uint256)": "infinite",
				"getQueueTime()": "2477",
				"getSignatureExpiryTime()": "2477",
				"hasSigned(address)": "2937",
				"isApprovedForAll(address,address)": "infinite",
				"isSigner(address)": "2938",
				"name()": "infinite",
				"owner()": "2627",
				"ownerOf(uint256)": "infinite",
				"pendingOwner()": "2559",
				"registerSignature()": "infinite",
				"renounceOwnership()": "infinite",
				"renounceUnlocked()": "2611",
				"resetPendingOwner()": "26870",
				"safeMint(address,string)": "infinite",
				"safeTransferFrom(address,address,uint256)": "infinite",
				"safeTransferFrom(address,address,uint256,bytes)": "infinite",
				"setApprovalForAll(address,bool)": "infinite",
				"socialGuardianRecovery(address)": "infinite",
				"startQueue()": "infinite",
				"startRenounceProcess()": "infinite",
				"supportsInterface(bytes4)": "946",
				"symbol()": "infinite",
				"terminateRenounceProcess()": "infinite",
				"tokenURI(uint256)": "infinite",
				"transferFrom(address,address,uint256)": "infinite",
				"transferOwnership(address)": "infinite"
			}
		},
		"methodIdentifiers": {
			"acceptOwnership()": "79ba5097",
			"approve(address,uint256)": "095ea7b3",
			"balanceOf(address)": "70a08231",
			"burn(uint256)": "42966c68",
			"currentSignatureCount()": "75782ab6",
			"getApproved(uint256)": "081812fc",
			"getQueueTime()": "652a60ed",
			"getSignatureExpiryTime()": "8e4e210c",
			"hasSigned(address)": "bf6a1413",
			"isApprovedForAll(address,address)": "e985e9c5",
			"isSigner(address)": "7df73e27",
			"name()": "06fdde03",
			"owner()": "8da5cb5b",
			"ownerOf(uint256)": "6352211e",
			"pendingOwner()": "e30c3978",
			"registerSignature()": "7e9e7959",
			"renounceOwnership()": "715018a6",
			"renounceUnlocked()": "2bb401d4",
			"resetPendingOwner()": "ea31876a",
			"safeMint(address,string)": "d204c45e",
			"safeTransferFrom(address,address,uint256)": "42842e0e",
			"safeTransferFrom(address,address,uint256,bytes)": "b88d4fde",
			"setApprovalForAll(address,bool)": "a22cb465",
			"socialGuardianRecovery(address)": "352a939f",
			"startQueue()": "4698b5e2",
			"startRenounceProcess()": "0da55161",
			"supportsInterface(bytes4)": "01ffc9a7",
			"symbol()": "95d89b41",
			"terminateRenounceProcess()": "a5875cab",
			"tokenURI(uint256)": "c87b56dd",
			"transferFrom(address,address,uint256)": "23b872dd",
			"transferOwnership(address)": "f2fde38b"
		}
	},
	"abi": [
		{
			"inputs": [],
			"stateMutability": "nonpayable",
			"type": "constructor"
		},
		{
			"inputs": [
				{
					"internalType": "address",
					"name": "sender",
					"type": "address"
				},
				{
					"internalType": "uint256",
					"name": "tokenId",
					"type": "uint256"
				},
				{
					"internalType": "address",
					"name": "owner",
					"type": "address"
				}
			],
			"name": "ERC721IncorrectOwner",
			"type": "error"
		},
		{
			"inputs": [
				{
					"internalType": "address",
					"name": "operator",
					"type": "address"
				},
				{
					"internalType": "uint256",
					"name": "tokenId",
					"type": "uint256"
				}
			],
			"name": "ERC721InsufficientApproval",
			"type": "error"
		},
		{
			"inputs": [
				{
					"internalType": "address",
					"name": "approver",
					"type": "address"
				}
			],
			"name": "ERC721InvalidApprover",
			"type": "error"
		},
		{
			"inputs": [
				{
					"internalType": "address",
					"name": "operator",
					"type": "address"
				}
			],
			"name": "ERC721InvalidOperator",
			"type": "error"
		},
		{
			"inputs": [
				{
					"internalType": "address",
					"name": "owner",
					"type": "address"
				}
			],
			"name": "ERC721InvalidOwner",
			"type": "error"
		},
		{
			"inputs": [
				{
					"internalType": "address",
					"name": "receiver",
					"type": "address"
				}
			],
			"name": "ERC721InvalidReceiver",
			"type": "error"
		},
		{
			"inputs": [
				{
					"internalType": "address",
					"name": "sender",
					"type": "address"
				}
			],
			"name": "ERC721InvalidSender",
			"type": "error"
		},
		{
			"inputs": [
				{
					"internalType": "uint256",
					"name": "tokenId",
					"type": "uint256"
				}
			],
			"name": "ERC721NonexistentToken",
			"type": "error"
		},
		{
			"anonymous": false,
			"inputs": [
				{
					"indexed": true,
					"internalType": "address",
					"name": "owner",
					"type": "address"
				},
				{
					"indexed": true,
					"internalType": "address",
					"name": "approved",
					"type": "address"
				},
				{
					"indexed": true,
					"internalType": "uint256",
					"name": "tokenId",
					"type": "uint256"
				}
			],
			"name": "Approval",
			"type": "event"
		},
		{
			"anonymous": false,
			"inputs": [
				{
					"indexed": true,
					"internalType": "address",
					"name": "owner",
					"type": "address"
				},
				{
					"indexed": true,
					"internalType": "address",
					"name": "operator",
					"type": "address"
				},
				{
					"indexed": false,
					"internalType": "bool",
					"name": "approved",
					"type": "bool"
				}
			],
			"name": "ApprovalForAll",
			"type": "event"
		},
		{
			"anonymous": false,
			"inputs": [
				{
					"indexed": false,
					"internalType": "uint256",
					"name": "_fromTokenId",
					"type": "uint256"
				},
				{
					"indexed": false,
					"internalType": "uint256",
					"name": "_toTokenId",
					"type": "uint256"
				}
			],
			"name": "BatchMetadataUpdate",
			"type": "event"
		},
		{
			"anonymous": false,
			"inputs": [
				{
					"indexed": false,
					"internalType": "uint256",
					"name": "_tokenId",
					"type": "uint256"
				}
			],
			"name": "MetadataUpdate",
			"type": "event"
		},
		{
			"anonymous": false,
			"inputs": [
				{
					"indexed": true,
					"internalType": "address",
					"name": "previousOwner_",
					"type": "address"
				},
				{
					"indexed": true,
					"internalType": "address",
					"name": "newOwner_",
					"type": "address"
				}
			],
			"name": "OwnershipTransferCompleted",
			"type": "event"
		},
		{
			"anonymous": false,
			"inputs": [
				{
					"indexed": true,
					"internalType": "address",
					"name": "owner_",
					"type": "address"
				},
				{
					"indexed": true,
					"internalType": "address",
					"name": "pendingOwner_",
					"type": "address"
				}
			],
			"name": "OwnershipTransferInitiated",
			"type": "event"
		},
		{
			"anonymous": false,
			"inputs": [
				{
					"indexed": true,
					"internalType": "address",
					"name": "owner_",
					"type": "address"
				}
			],
			"name": "RenounceProcessInitiated",
			"type": "event"
		},
		{
			"anonymous": false,
			"inputs": [
				{
					"indexed": true,
					"internalType": "address",
					"name": "owner_",
					"type": "address"
				}
			],
			"name": "RenounceProcessTerminated",
			"type": "event"
		},
		{
			"anonymous": false,
			"inputs": [
				{
					"indexed": false,
					"internalType": "address",
					"name": "signer_",
					"type": "address"
				}
			],
			"name": "SignatureRegistered",
			"type": "event"
		},
		{
			"anonymous": false,
			"inputs": [],
			"name": "SignatureValidityTimeCountdownStarted",
			"type": "event"
		},
		{
			"anonymous": false,
			"inputs": [],
			"name": "SignaturesExpiredAndReset",
			"type": "event"
		},
		{
			"anonymous": false,
			"inputs": [],
			"name": "SignaturesReset",
			"type": "event"
		},
		{
			"anonymous": false,
			"inputs": [],
			"name": "SocialGuardianRecoveryCompleted",
			"type": "event"
		},
		{
			"anonymous": false,
			"inputs": [],
			"name": "TimeLockQueueReset",
			"type": "event"
		},
		{
			"anonymous": false,
			"inputs": [],
			"name": "TimelockQueueStarted",
			"type": "event"
		},
		{
			"anonymous": false,
			"inputs": [
				{
					"indexed": true,
					"internalType": "address",
					"name": "from",
					"type": "address"
				},
				{
					"indexed": true,
					"internalType": "address",
					"name": "to",
					"type": "address"
				},
				{
					"indexed": true,
					"internalType": "uint256",
					"name": "tokenId",
					"type": "uint256"
				}
			],
			"name": "Transfer",
			"type": "event"
		},
		{
			"inputs": [],
			"name": "acceptOwnership",
			"outputs": [
				{
					"internalType": "bool",
					"name": "",
					"type": "bool"
				}
			],
			"stateMutability": "nonpayable",
			"type": "function"
		},
		{
			"inputs": [
				{
					"internalType": "address",
					"name": "to",
					"type": "address"
				},
				{
					"internalType": "uint256",
					"name": "tokenId",
					"type": "uint256"
				}
			],
			"name": "approve",
			"outputs": [],
			"stateMutability": "nonpayable",
			"type": "function"
		},
		{
			"inputs": [
				{
					"internalType": "address",
					"name": "owner",
					"type": "address"
				}
			],
			"name": "balanceOf",
			"outputs": [
				{
					"internalType": "uint256",
					"name": "",
					"type": "uint256"
				}
			],
			"stateMutability": "view",
			"type": "function"
		},
		{
			"inputs": [
				{
					"internalType": "uint256",
					"name": "tokenId",
					"type": "uint256"
				}
			],
			"name": "burn",
			"outputs": [],
			"stateMutability": "nonpayable",
			"type": "function"
		},
		{
			"inputs": [],
			"name": "currentSignatureCount",
			"outputs": [
				{
					"internalType": "uint8",
					"name": "",
					"type": "uint8"
				}
			],
			"stateMutability": "view",
			"type": "function"
		},
		{
			"inputs": [
				{
					"internalType": "uint256",
					"name": "tokenId",
					"type": "uint256"
				}
			],
			"name": "getApproved",
			"outputs": [
				{
					"internalType": "address",
					"name": "",
					"type": "address"
				}
			],
			"stateMutability": "view",
			"type": "function"
		},
		{
			"inputs": [],
			"name": "getQueueTime",
			"outputs": [
				{
					"internalType": "uint256",
					"name": "",
					"type": "uint256"
				}
			],
			"stateMutability": "view",
			"type": "function"
		},
		{
			"inputs": [],
			"name": "getSignatureExpiryTime",
			"outputs": [
				{
					"internalType": "uint256",
					"name": "",
					"type": "uint256"
				}
			],
			"stateMutability": "view",
			"type": "function"
		},
		{
			"inputs": [
				{
					"internalType": "address",
					"name": "signer_",
					"type": "address"
				}
			],
			"name": "hasSigned",
			"outputs": [
				{
					"internalType": "bool",
					"name": "",
					"type": "bool"
				}
			],
			"stateMutability": "view",
			"type": "function"
		},
		{
			"inputs": [
				{
					"internalType": "address",
					"name": "owner",
					"type": "address"
				},
				{
					"internalType": "address",
					"name": "operator",
					"type": "address"
				}
			],
			"name": "isApprovedForAll",
			"outputs": [
				{
					"internalType": "bool",
					"name": "",
					"type": "bool"
				}
			],
			"stateMutability": "view",
			"type": "function"
		},
		{
			"inputs": [
				{
					"internalType": "address",
					"name": "signer_",
					"type": "address"
				}
			],
			"name": "isSigner",
			"outputs": [
				{
					"internalType": "bool",
					"name": "",
					"type": "bool"
				}
			],
			"stateMutability": "view",
			"type": "function"
		},
		{
			"inputs": [],
			"name": "name",
			"outputs": [
				{
					"internalType": "string",
					"name": "",
					"type": "string"
				}
			],
			"stateMutability": "view",
			"type": "function"
		},
		{
			"inputs": [],
			"name": "owner",
			"outputs": [
				{
					"internalType": "address",
					"name": "",
					"type": "address"
				}
			],
			"stateMutability": "view",
			"type": "function"
		},
		{
			"inputs": [
				{
					"internalType": "uint256",
					"name": "tokenId",
					"type": "uint256"
				}
			],
			"name": "ownerOf",
			"outputs": [
				{
					"internalType": "address",
					"name": "",
					"type": "address"
				}
			],
			"stateMutability": "view",
			"type": "function"
		},
		{
			"inputs": [],
			"name": "pendingOwner",
			"outputs": [
				{
					"internalType": "address",
					"name": "",
					"type": "address"
				}
			],
			"stateMutability": "view",
			"type": "function"
		},
		{
			"inputs": [],
			"name": "registerSignature",
			"outputs": [
				{
					"internalType": "bool",
					"name": "",
					"type": "bool"
				}
			],
			"stateMutability": "nonpayable",
			"type": "function"
		},
		{
			"inputs": [],
			"name": "renounceOwnership",
			"outputs": [
				{
					"internalType": "bool",
					"name": "",
					"type": "bool"
				}
			],
			"stateMutability": "nonpayable",
			"type": "function"
		},
		{
			"inputs": [],
			"name": "renounceUnlocked",
			"outputs": [
				{
					"internalType": "bool",
					"name": "",
					"type": "bool"
				}
			],
			"stateMutability": "view",
			"type": "function"
		},
		{
			"inputs": [],
			"name": "resetPendingOwner",
			"outputs": [
				{
					"internalType": "bool",
					"name": "",
					"type": "bool"
				}
			],
			"stateMutability": "nonpayable",
			"type": "function"
		},
		{
			"inputs": [
				{
					"internalType": "address",
					"name": "to_",
					"type": "address"
				},
				{
					"internalType": "string",
					"name": "uri_",
					"type": "string"
				}
			],
			"name": "safeMint",
			"outputs": [],
			"stateMutability": "nonpayable",
			"type": "function"
		},
		{
			"inputs": [
				{
					"internalType": "address",
					"name": "from",
					"type": "address"
				},
				{
					"internalType": "address",
					"name": "to",
					"type": "address"
				},
				{
					"internalType": "uint256",
					"name": "tokenId",
					"type": "uint256"
				}
			],
			"name": "safeTransferFrom",
			"outputs": [],
			"stateMutability": "nonpayable",
			"type": "function"
		},
		{
			"inputs": [
				{
					"internalType": "address",
					"name": "from",
					"type": "address"
				},
				{
					"internalType": "address",
					"name": "to",
					"type": "address"
				},
				{
					"internalType": "uint256",
					"name": "tokenId",
					"type": "uint256"
				},
				{
					"internalType": "bytes",
					"name": "data",
					"type": "bytes"
				}
			],
			"name": "safeTransferFrom",
			"outputs": [],
			"stateMutability": "nonpayable",
			"type": "function"
		},
		{
			"inputs": [
				{
					"internalType": "address",
					"name": "operator",
					"type": "address"
				},
				{
					"internalType": "bool",
					"name": "approved",
					"type": "bool"
				}
			],
			"name": "setApprovalForAll",
			"outputs": [],
			"stateMutability": "nonpayable",
			"type": "function"
		},
		{
			"inputs": [
				{
					"internalType": "address",
					"name": "newOwner_",
					"type": "address"
				}
			],
			"name": "socialGuardianRecovery",
			"outputs": [
				{
					"internalType": "bool",
					"name": "",
					"type": "bool"
				}
			],
			"stateMutability": "nonpayable",
			"type": "function"
		},
		{
			"inputs": [],
			"name": "startQueue",
			"outputs": [
				{
					"internalType": "bool",
					"name": "",
					"type": "bool"
				}
			],
			"stateMutability": "nonpayable",
			"type": "function"
		},
		{
			"inputs": [],
			"name": "startRenounceProcess",
			"outputs": [
				{
					"internalType": "bool",
					"name": "",
					"type": "bool"
				}
			],
			"stateMutability": "nonpayable",
			"type": "function"
		},
		{
			"inputs": [
				{
					"internalType": "bytes4",
					"name": "interfaceID_",
					"type": "bytes4"
				}
			],
			"name": "supportsInterface",
			"outputs": [
				{
					"internalType": "bool",
					"name": "",
					"type": "bool"
				}
			],
			"stateMutability": "view",
			"type": "function"
		},
		{
			"inputs": [],
			"name": "symbol",
			"outputs": [
				{
					"internalType": "string",
					"name": "",
					"type": "string"
				}
			],
			"stateMutability": "view",
			"type": "function"
		},
		{
			"inputs": [],
			"name": "terminateRenounceProcess",
			"outputs": [
				{
					"internalType": "bool",
					"name": "",
					"type": "bool"
				}
			],
			"stateMutability": "nonpayable",
			"type": "function"
		},
		{
			"inputs": [
				{
					"internalType": "uint256",
					"name": "tokenID_",
					"type": "uint256"
				}
			],
			"name": "tokenURI",
			"outputs": [
				{
					"internalType": "string",
					"name": "",
					"type": "string"
				}
			],
			"stateMutability": "view",
			"type": "function"
		},
		{
			"inputs": [
				{
					"internalType": "address",
					"name": "from",
					"type": "address"
				},
				{
					"internalType": "address",
					"name": "to",
					"type": "address"
				},
				{
					"internalType": "uint256",
					"name": "tokenId",
					"type": "uint256"
				}
			],
			"name": "transferFrom",
			"outputs": [],
			"stateMutability": "nonpayable",
			"type": "function"
		},
		{
			"inputs": [
				{
					"internalType": "address",
					"name": "newOwner_",
					"type": "address"
				}
			],
			"name": "transferOwnership",
			"outputs": [
				{
					"internalType": "bool",
					"name": "",
					"type": "bool"
				}
			],
			"stateMutability": "nonpayable",
			"type": "function"
		}
	]
}