{
	"data": {
		"bytecode": {
			"linkReferences": {},
			"object": "60806040526040518060e00160405280735b38da6a701c568545dcfcb03fcb875f56beddc473ffffffffffffffffffffffffffffffffffffffff1673ffffffffffffffffffffffffffffffffffffffff16815260200173ab8483f64d9c6d1ecf9b849ae677dd3315835cb273ffffffffffffffffffffffffffffffffffffffff1673ffffffffffffffffffffffffffffffffffffffff168152602001734b20993bc481177ec7e8f571cecae8a9e22c02db73ffffffffffffffffffffffffffffffffffffffff1673ffffffffffffffffffffffffffffffffffffffff1681526020017378731d3ca6b7e34ac0f824c42a7cc18a495cabab73ffffffffffffffffffffffffffffffffffffffff1673ffffffffffffffffffffffffffffffffffffffff16815260200173617f2e2fd72fd9d5503197092ac168c91465e7f273ffffffffffffffffffffffffffffffffffffffff1673ffffffffffffffffffffffffffffffffffffffff1681526020017317f6ad8ef982297579c203069c1dbffe4348c37273ffffffffffffffffffffffffffffffffffffffff1673ffffffffffffffffffffffffffffffffffffffff168152602001735c6b0f7bf3e7ce046039bd8fabdfd3f9f502167873ffffffffffffffffffffffffffffffffffffffff1673ffffffffffffffffffffffffffffffffffffffff168152506005906007610207929190610428565b50348015610213575f80fd5b50600760ff16600714610224575f80fd5b5f5b600760ff168160ff16101561033c575f73ffffffffffffffffffffffffffffffffffffffff1660058260ff1660078110610263576102626104bf565b5b015f9054906101000a900473ffffffffffffffffffffffffffffffffffffffff1673ffffffffffffffffffffffffffffffffffffffff16036102a3575f80fd5b600160035f60058460ff16600781106102bf576102be6104bf565b5b015f9054906101000a900473ffffffffffffffffffffffffffffffffffffffff1673ffffffffffffffffffffffffffffffffffffffff1673ffffffffffffffffffffffffffffffffffffffff1681526020019081526020015f205f6101000a81548160ff0219169083151502179055508080600101915050610226565b5061034c3361035160201b60201c565b6104ec565b5f61036061040060201b60201c565b905081600c5f6101000a81548173ffffffffffffffffffffffffffffffffffffffff021916908373ffffffffffffffffffffffffffffffffffffffff1602179055508173ffffffffffffffffffffffffffffffffffffffff168173ffffffffffffffffffffffffffffffffffffffff167fe9a5158ac7353c7c7322ececc080bc8e89334efa5795b6e21e40eb266b0003d660405160405180910390a35050565b5f600c5f9054906101000a900473ffffffffffffffffffffffffffffffffffffffff16905090565b8260078101928215610493579160200282015b82811115610492578251825f6101000a81548173ffffffffffffffffffffffffffffffffffffffff021916908373ffffffffffffffffffffffffffffffffffffffff1602179055509160200191906001019061043b565b5b5090506104a091906104a4565b5090565b5b808211156104bb575f815f9055506001016104a5565b5090565b7f4e487b71000000000000000000000000000000000000000000000000000000005f52603260045260245ffd5b615fc4806104f95f395ff3fe608060405260043610610380575f3560e01c80637a5a69e3116101d0578063afba68e311610101578063c35006391161009f578063ea31876a1161006e578063ea31876a14610ef4578063f2fde38b14610f1e578063f409981114610f5a578063f7fd24c714610f9657610380565b8063c350063914610e34578063d3f0b50e14610e5e578063e30c397814610e9a578063e6b65a2214610ec457610380565b8063b78f0478116100db578063b78f047814610d44578063b86052f914610d80578063bd9f86df14610dbc578063bf6a141314610df857610380565b8063afba68e314610ca2578063b187bd2614610cde578063b653988114610d0857610380565b80639109ea8a1161016e5780639a5d4407116101485780639a5d440714610bd6578063a5875cab14610c12578063a59758c014610c3c578063a60ac48014610c7857610380565b80639109ea8a14610b2e578063957bb1e014610b6a578063958476d014610b9a57610380565b806388021e53116101aa57806388021e5314610a6257806388d06aa114610a9e5780638da5cb5b14610ada5780638e4e210c14610b0457610380565b80637a5a69e3146109c05780637df73e27146109fc5780637e9e795914610a3857610380565b8063352a939f116102b5578063553138d4116102535780636f89b7db116102225780636f89b7db14610906578063715018a61461094257806375782ab61461096c57806379ba50971461099657610380565b8063553138d4146108285780635b6b12a1146108645780635e5e52a4146108a0578063652a60ed146108dc57610380565b80634698b5e21161028f5780634698b5e21461074a5780634817f4c6146107745780634c224a22146107b0578063529f7ff1146107ec57610380565b8063352a939f146106965780633a65477f146106d25780633ef4d1301461070e57610380565b806318820d53116103225780632c7b7f74116102fc5780632c7b7f74146105a65780632f5a3f99146105e2578063309676021461061e57806332890c161461065a57610380565b806318820d531461050457806329b02663146105405780632bb401d41461057c57610380565b806311841c411161035e57806311841c411461042657806311c3f58614610450578063150b7a021461048c57806317ac6e44146104c857610380565b80630a8874a5146103845780630da55161146103c05780630f76fa07146103ea575b5f80fd5b34801561038f575f80fd5b506103aa60048036038101906103a59190614b93565b610fd2565b6040516103b79190614beb565b60405180910390f35b3480156103cb575f80fd5b506103d4611034565b6040516103e19190614beb565b60405180910390f35b3480156103f5575f80fd5b50610410600480360381019061040b9190614b93565b6112db565b60405161041d9190614beb565b60405180910390f35b348015610431575f80fd5b5061043a61133d565b6040516104479190614c1c565b60405180910390f35b34801561045b575f80fd5b5061047660048036038101906104719190614c35565b611344565b6040516104839190614beb565b60405180910390f35b348015610497575f80fd5b506104b260048036038101906104ad9190614ceb565b611484565b6040516104bf9190614da9565b60405180910390f35b3480156104d3575f80fd5b506104ee60048036038101906104e99190614f0a565b6114b1565b6040516104fb9190614beb565b60405180910390f35b34801561050f575f80fd5b5061052a60048036038101906105259190614c35565b61162a565b6040516105379190614fbf565b60405180910390f35b34801561054b575f80fd5b5061056660048036038101906105619190614c35565b611663565b6040516105739190614c1c565b60405180910390f35b348015610587575f80fd5b5061059061167d565b60405161059d9190614beb565b60405180910390f35b3480156105b1575f80fd5b506105cc60048036038101906105c79190614c35565b611693565b6040516105d99190614c1c565b60405180910390f35b3480156105ed575f80fd5b5061060860048036038101906106039190614c35565b6116ad565b6040516106159190614c1c565b60405180910390f35b348015610629575f80fd5b50610644600480360381019061063f9190614c35565b6116c7565b6040516106519190614beb565b60405180910390f35b348015610665575f80fd5b50610680600480360381019061067b9190614c35565b6116ed565b60405161068d9190614c1c565b60405180910390f35b3480156106a1575f80fd5b506106bc60048036038101906106b79190614fd8565b611707565b6040516106c99190614beb565b60405180910390f35b3480156106dd575f80fd5b506106f860048036038101906106f39190614c35565b61194a565b6040516107059190614beb565b60405180910390f35b348015610719575f80fd5b50610734600480360381019061072f9190614c35565b611ac2565b6040516107419190614beb565b60405180910390f35b348015610755575f80fd5b5061075e611cfd565b60405161076b9190614beb565b60405180910390f35b34801561077f575f80fd5b5061079a60048036038101906107959190614b93565b611e25565b6040516107a79190614c1c565b60405180910390f35b3480156107bb575f80fd5b506107d660048036038101906107d19190614c35565b611e7b565b6040516107e39190614c1c565b60405180910390f35b3480156107f7575f80fd5b50610812600480360381019061080d9190614c35565b611e95565b60405161081f9190614beb565b60405180910390f35b348015610833575f80fd5b5061084e60048036038101906108499190614f0a565b611ebb565b60405161085b9190614beb565b60405180910390f35b34801561086f575f80fd5b5061088a60048036038101906108859190614c35565b612034565b6040516108979190614beb565b60405180910390f35b3480156108ab575f80fd5b506108c660048036038101906108c19190615003565b6121ac565b6040516108d39190614beb565b60405180910390f35b3480156108e7575f80fd5b506108f061231f565b6040516108fd9190614c1c565b60405180910390f35b348015610911575f80fd5b5061092c60048036038101906109279190614c35565b612327565b6040516109399190614c1c565b60405180910390f35b34801561094d575f80fd5b50610956612341565b6040516109639190614beb565b60405180910390f35b348015610977575f80fd5b506109806123df565b60405161098d919061505c565b60405180910390f35b3480156109a1575f80fd5b506109aa6123f4565b6040516109b79190614beb565b60405180910390f35b3480156109cb575f80fd5b506109e660048036038101906109e19190614c35565b612450565b6040516109f39190614beb565b60405180910390f35b348015610a07575f80fd5b50610a226004803603810190610a1d9190614fd8565b612476565b604051610a2f9190614beb565b60405180910390f35b348015610a43575f80fd5b50610a4c6124c8565b604051610a599190614beb565b60405180910390f35b348015610a6d575f80fd5b50610a886004803603810190610a839190615125565b6126c3565b604051610a959190614beb565b60405180910390f35b348015610aa9575f80fd5b50610ac46004803603810190610abf9190614c35565b612b1b565b604051610ad19190614c1c565b60405180910390f35b348015610ae5575f80fd5b50610aee612b35565b604051610afb919061523d565b60405180910390f35b348015610b0f575f80fd5b50610b18612b5d565b604051610b259190614c1c565b60405180910390f35b348015610b39575f80fd5b50610b546004803603810190610b4f9190614c35565b612b66565b604051610b619190614beb565b60405180910390f35b610b846004803603810190610b7f9190614c35565b612b8c565b604051610b919190614beb565b60405180910390f35b348015610ba5575f80fd5b50610bc06004803603810190610bbb9190614c35565b61310c565b604051610bcd9190614beb565b60405180910390f35b348015610be1575f80fd5b50610bfc6004803603810190610bf79190614c35565b613132565b604051610c099190614beb565b60405180910390f35b348015610c1d575f80fd5b50610c26613158565b604051610c339190614beb565b60405180910390f35b348015610c47575f80fd5b50610c626004803603810190610c5d9190614c35565b613249565b604051610c6f9190614c1c565b60405180910390f35b348015610c83575f80fd5b50610c8c613263565b604051610c999190614beb565b60405180910390f35b348015610cad575f80fd5b50610cc86004803603810190610cc39190614c35565b613330565b604051610cd5919061523d565b60405180910390f35b348015610ce9575f80fd5b50610cf2613369565b604051610cff9190614beb565b60405180910390f35b348015610d13575f80fd5b50610d2e6004803603810190610d299190614c35565b61337e565b604051610d3b9190614c1c565b60405180910390f35b348015610d4f575f80fd5b50610d6a6004803603810190610d659190614b93565b613398565b604051610d779190614beb565b60405180910390f35b348015610d8b575f80fd5b50610da66004803603810190610da19190614c35565b6133fa565b604051610db391906152b6565b60405180910390f35b348015610dc7575f80fd5b50610de26004803603810190610ddd9190614c35565b61349b565b604051610def9190614c1c565b60405180910390f35b348015610e03575f80fd5b50610e1e6004803603810190610e199190614fd8565b6134b5565b604051610e2b9190614beb565b60405180910390f35b348015610e3f575f80fd5b50610e48613507565b604051610e559190614beb565b60405180910390f35b348015610e69575f80fd5b50610e846004803603810190610e7f9190614c35565b6135d3565b604051610e919190614beb565b60405180910390f35b348015610ea5575f80fd5b50610eae61374b565b604051610ebb919061523d565b60405180910390f35b610ede6004803603810190610ed99190614c35565b613773565b604051610eeb9190614beb565b60405180910390f35b348015610eff575f80fd5b50610f086138db565b604051610f159190614beb565b60405180910390f35b348015610f29575f80fd5b50610f446004803603810190610f3f9190614fd8565b61397c565b604051610f519190614beb565b60405180910390f35b348015610f65575f80fd5b50610f806004803603810190610f7b9190614b93565b613ccc565b604051610f8d9190614beb565b60405180910390f35b348015610fa1575f80fd5b50610fbc6004803603810190610fb79190614c35565b613d2e565b604051610fc99190614beb565b60405180910390f35b5f60165f8481526020019081526020015f205f8373ffffffffffffffffffffffffffffffffffffffff1673ffffffffffffffffffffffffffffffffffffffff1681526020019081526020015f205f9054906101000a900460ff16905092915050565b5f61103d612b35565b73ffffffffffffffffffffffffffffffffffffffff163373ffffffffffffffffffffffffffffffffffffffff16146110aa576040517f08c379a00000000000000000000000000000000000000000000000000000000081526004016110a190615320565b60405180910390fd5b425f6110b461231f565b116110f4576040517f08c379a00000000000000000000000000000000000000000000000000000000081526004016110eb90615388565b60405180910390fd5b620d2f0061110061231f565b61110a91906153d3565b81101561114c576040517f08c379a000000000000000000000000000000000000000000000000000000000815260040161114390615450565b60405180910390fd5b62015180620d2f0061115c61231f565b61116691906153d3565b61117091906153d3565b8111156111b2576040517f08c379a00000000000000000000000000000000000000000000000000000000081526004016111a9906154b8565b60405180910390fd5b600560ff166111bf6123df565b60ff161015611203576040517f08c379a00000000000000000000000000000000000000000000000000000000081526004016111fa90615520565b60405180910390fd5b61120b612b5d565b42111561124d576040517f08c379a000000000000000000000000000000000000000000000000000000000815260040161124490615588565b60405180910390fd5b61125561167d565b1561125e575f80fd5b6001600d60146101000a81548160ff021916908315150217905550611281612b35565b73ffffffffffffffffffffffffffffffffffffffff167f77019a1c4957e53fa06c71f760438f9267f6840293cddac381ccb7931e3c4a6260405160405180910390a2600191506112cf6142d0565b6112d76143b9565b5090565b5f60135f8481526020019081526020015f205f8373ffffffffffffffffffffffffffffffffffffffff1673ffffffffffffffffffffffffffffffffffffffff1681526020019081526020015f205f9054906101000a900460ff16905092915050565b5f47905090565b5f61134d612b35565b73ffffffffffffffffffffffffffffffffffffffff163373ffffffffffffffffffffffffffffffffffffffff1603611383575f80fd5b8161138d81612450565b6113cc576040517f08c379a00000000000000000000000000000000000000000000000000000000081526004016113c3906155f0565b60405180910390fd5b6113d583613132565b806113e757506113e4836116ad565b43115b6113ef575f80fd5b5f6113f9846116ed565b11611402575f80fd5b61140c8333613398565b611414575f80fd5b61141e8333610fd2565b15611427575f80fd5b3373ffffffffffffffffffffffffffffffffffffffff166108fc61144a856116ed565b90811502906040515f60405180830381858888f193505050501561147a57611471836143ea565b6001915061147e565b5f80fd5b50919050565b5f7f150b7a023d4804d13e8c85fb27262cb750cf6ba9f9dd3bb30d90f482ceeb4b1f905095945050505050565b5f6114ba612b35565b73ffffffffffffffffffffffffffffffffffffffff163373ffffffffffffffffffffffffffffffffffffffff1614611527576040517f08c379a000000000000000000000000000000000000000000000000000000000815260040161151e90615320565b60405180910390fd5b61152f613369565b1561156f576040517f08c379a000000000000000000000000000000000000000000000000000000000815260040161156690615658565b60405180910390fd5b8261157981612450565b6115b8576040517f08c379a00000000000000000000000000000000000000000000000000000000081526004016115af906155f0565b60405180910390fd5b836115c281611693565b4310611603576040517f08c379a00000000000000000000000000000000000000000000000000000000081526004016115fa906156c0565b60405180910390fd5b61160c856116c7565b611614575f80fd5b61161e8585614493565b60019250505092915050565b5f60245f8381526020019081526020015f205f9054906101000a900473ffffffffffffffffffffffffffffffffffffffff169050919050565b5f60225f8381526020019081526020015f20549050919050565b5f600d60149054906101000a900460ff16905090565b5f601c5f8381526020019081526020015f20549050919050565b5f601d5f8381526020019081526020015f20549050919050565b5f60125f8381526020019081526020015f205f9054906101000a900460ff169050919050565b5f60145f8381526020019081526020015f20549050919050565b5f61171133612476565b611750576040517f08c379a000000000000000000000000000000000000000000000000000000000815260040161174790615728565b60405180910390fd5b425f61175a61231f565b1161179a576040517f08c379a000000000000000000000000000000000000000000000000000000000815260040161179190615388565b60405180910390fd5b620d2f006117a661231f565b6117b091906153d3565b8110156117f2576040517f08c379a00000000000000000000000000000000000000000000000000000000081526004016117e990615450565b60405180910390fd5b62015180620d2f0061180261231f565b61180c91906153d3565b61181691906153d3565b811115611858576040517f08c379a000000000000000000000000000000000000000000000000000000000815260040161184f906154b8565b60405180910390fd5b600560ff166118656123df565b60ff1610156118a9576040517f08c379a00000000000000000000000000000000000000000000000000000000081526004016118a090615520565b60405180910390fd5b6118b1612b5d565b4211156118f3576040517f08c379a00000000000000000000000000000000000000000000000000000000081526004016118ea90615588565b60405180910390fd5b6118fc8361455b565b611904614604565b7f0cf1811e93419ac2d91eb469e1bd91a130ab86e4fabfb4984a940f3e1d2bd6a260405160405180910390a16001915061193c6142d0565b6119446143b9565b50919050565b5f611953612b35565b73ffffffffffffffffffffffffffffffffffffffff163373ffffffffffffffffffffffffffffffffffffffff16146119c0576040517f08c379a00000000000000000000000000000000000000000000000000000000081526004016119b790615320565b60405180910390fd5b6119c8613369565b15611a08576040517f08c379a00000000000000000000000000000000000000000000000000000000081526004016119ff90615658565b60405180910390fd5b81611a1281612450565b611a51576040517f08c379a0000000000000000000000000000000000000000000000000000000008152600401611a48906155f0565b60405180910390fd5b82611a5b81611693565b4310611a9c576040517f08c379a0000000000000000000000000000000000000000000000000000000008152600401611a93906156c0565b60405180910390fd5b611aa584611e95565b15611aae575f80fd5b611ab78461462a565b600192505050919050565b5f611acb612b35565b73ffffffffffffffffffffffffffffffffffffffff163373ffffffffffffffffffffffffffffffffffffffff1614611b38576040517f08c379a0000000000000000000000000000000000000000000000000000000008152600401611b2f90615320565b60405180910390fd5b611b40613369565b15611b80576040517f08c379a0000000000000000000000000000000000000000000000000000000008152600401611b7790615658565b60405180910390fd5b81611b8a81612450565b611bc9576040517f08c379a0000000000000000000000000000000000000000000000000000000008152600401611bc0906155f0565b60405180910390fd5b8243611bd482611693565b1115611c15576040517f08c379a0000000000000000000000000000000000000000000000000000000008152600401611c0c90615790565b60405180910390fd5b83611c1f816116ad565b431115611c61576040517f08c379a0000000000000000000000000000000000000000000000000000000008152600401611c58906157f8565b60405180910390fd5b611c6a8561310c565b611c72575f80fd5b611c7b85614683565b611c848561162a565b73ffffffffffffffffffffffffffffffffffffffff166342966c68611ca88761349b565b6040518263ffffffff1660e01b8152600401611cc49190614c1c565b5f604051808303815f87803b158015611cdb575f80fd5b505af1158015611ced573d5f803e3d5ffd5b5050505060019350505050919050565b5f611d06612b35565b73ffffffffffffffffffffffffffffffffffffffff163373ffffffffffffffffffffffffffffffffffffffff1614611d73576040517f08c379a0000000000000000000000000000000000000000000000000000000008152600401611d6a90615320565b60405180910390fd5b600560ff16611d806123df565b60ff161015611dc4576040517f08c379a0000000000000000000000000000000000000000000000000000000008152600401611dbb90615520565b60405180910390fd5b611dcc612b5d565b421115611e0e576040517f08c379a0000000000000000000000000000000000000000000000000000000008152600401611e0590615588565b60405180910390fd5b611e166146dc565b60019050611e226142d0565b90565b5f60195f8481526020019081526020015f205f8373ffffffffffffffffffffffffffffffffffffffff1673ffffffffffffffffffffffffffffffffffffffff1681526020019081526020015f2054905092915050565b5f601a5f8381526020019081526020015f20549050919050565b5f60105f8381526020019081526020015f205f9054906101000a900460ff169050919050565b5f611ec4612b35565b73ffffffffffffffffffffffffffffffffffffffff163373ffffffffffffffffffffffffffffffffffffffff1614611f31576040517f08c379a0000000000000000000000000000000000000000000000000000000008152600401611f2890615320565b60405180910390fd5b611f39613369565b15611f79576040517f08c379a0000000000000000000000000000000000000000000000000000000008152600401611f7090615658565b60405180910390fd5b82611f8381612450565b611fc2576040517f08c379a0000000000000000000000000000000000000000000000000000000008152600401611fb9906155f0565b60405180910390fd5b83611fcc81611693565b431061200d576040517f08c379a0000000000000000000000000000000000000000000000000000000008152600401612004906156c0565b60405180910390fd5b61201685611e95565b61201e575f80fd5b6120288585614710565b60019250505092915050565b5f61203d612b35565b73ffffffffffffffffffffffffffffffffffffffff163373ffffffffffffffffffffffffffffffffffffffff16146120aa576040517f08c379a00000000000000000000000000000000000000000000000000000000081526004016120a190615320565b60405180910390fd5b6120b2613369565b156120f2576040517f08c379a00000000000000000000000000000000000000000000000000000000081526004016120e990615658565b60405180910390fd5b816120fc81612450565b61213b576040517f08c379a0000000000000000000000000000000000000000000000000000000008152600401612132906155f0565b60405180910390fd5b8261214581611693565b4310612186576040517f08c379a000000000000000000000000000000000000000000000000000000000815260040161217d906156c0565b60405180910390fd5b61218f846116c7565b15612198575f80fd5b6121a1846147d8565b600192505050919050565b5f6121b5612b35565b73ffffffffffffffffffffffffffffffffffffffff163373ffffffffffffffffffffffffffffffffffffffff1614612222576040517f08c379a000000000000000000000000000000000000000000000000000000000815260040161221990615320565b60405180910390fd5b61222a613369565b1561226a576040517f08c379a000000000000000000000000000000000000000000000000000000000815260040161226190615658565b60405180910390fd5b8261227481612450565b6122b3576040517f08c379a00000000000000000000000000000000000000000000000000000000081526004016122aa906155f0565b60405180910390fd5b836122bd81611693565b43106122fe576040517f08c379a00000000000000000000000000000000000000000000000000000000081526004016122f5906156c0565b60405180910390fd5b5f8411612309575f80fd5b6123138585614831565b60019250505092915050565b5f8054905090565b5f601e5f8381526020019081526020015f20549050919050565b5f61234a612b35565b73ffffffffffffffffffffffffffffffffffffffff163373ffffffffffffffffffffffffffffffffffffffff16146123b7576040517f08c379a00000000000000000000000000000000000000000000000000000000081526004016123ae90615320565b60405180910390fd5b6123bf61167d565b6123c7575f80fd5b6123d05f61455b565b6123d8614604565b6001905090565b5f60025f9054906101000a900460ff16905090565b5f6123fd61374b565b73ffffffffffffffffffffffffffffffffffffffff163373ffffffffffffffffffffffffffffffffffffffff1614612433575f80fd5b5f3390506124408161455b565b612448614604565b600191505090565b5f60185f8381526020019081526020015f205f9054906101000a900460ff169050919050565b5f60035f8373ffffffffffffffffffffffffffffffffffffffff1673ffffffffffffffffffffffffffffffffffffffff1681526020019081526020015f205f9054906101000a900460ff169050919050565b5f6124d233612476565b612511576040517f08c379a000000000000000000000000000000000000000000000000000000000815260040161250890615728565b60405180910390fd5b5f61251a6123df565b60ff1603612563576103844261253091906153d3565b6001819055507f7bb44a6efdad870f652b2266a57e13683a9959d8f6208ec491b76f3b3e30ca8560405160405180910390a15b61256b612b5d565b4211156125e75761257a6142d0565b7fa700eb5f46aa32bbe59bb5588095453766771b449f12098230e7711c2cc1373e60405160405180910390a1610384426125b491906153d3565b6001819055507f7bb44a6efdad870f652b2266a57e13683a9959d8f6208ec491b76f3b3e30ca8560405160405180910390a15b6125f0336134b5565b156125f9575f80fd5b600160045f3373ffffffffffffffffffffffffffffffffffffffff1673ffffffffffffffffffffffffffffffffffffffff1681526020019081526020015f205f6101000a81548160ff02191690831515021790555060025f81819054906101000a900460ff168092919061266c90615816565b91906101000a81548160ff021916908360ff160217905550507fc803a19e7438fff95a91e23440dc06b415144c5e9fe746580b03219adbd15e51336040516126b4919061523d565b60405180910390a16001905090565b5f6126cc612b35565b73ffffffffffffffffffffffffffffffffffffffff163373ffffffffffffffffffffffffffffffffffffffff1614612739576040517f08c379a000000000000000000000000000000000000000000000000000000000815260040161273090615320565b60405180910390fd5b612741613369565b15612781576040517f08c379a000000000000000000000000000000000000000000000000000000000815260040161277890615658565b60405180910390fd5b8b61278b81612450565b156127cb576040517f08c379a00000000000000000000000000000000000000000000000000000000081526004016127c290615888565b60405180910390fd5b8a8c106127d6575f80fd5b438c10156127e2575f80fd5b5f8a10156127ee575f80fd5b5f8910156127fa575f80fd5b5f881015612806575f80fd5b5f871015612812575f80fd5b8b8b61281e91906158a6565b8710612828575f80fd5b5f861015612834575f80fd5b61283d85614883565b612845575f80fd5b8473ffffffffffffffffffffffffffffffffffffffff166301ffc9a77f80ac58cd000000000000000000000000000000000000000000000000000000006040518263ffffffff1660e01b815260040161289e9190614da9565b602060405180830381865afa1580156128b9573d5f803e3d5ffd5b505050506040513d601f19601f820116820180604052508101906128dd9190615903565b6128e5575f80fd5b3073ffffffffffffffffffffffffffffffffffffffff168573ffffffffffffffffffffffffffffffffffffffff16636352211e866040518263ffffffff1660e01b81526004016129359190614c1c565b602060405180830381865afa158015612950573d5f803e3d5ffd5b505050506040513d601f19601f820116820180604052508101906129749190615942565b73ffffffffffffffffffffffffffffffffffffffff1614612993575f80fd5b600160185f8f81526020019081526020015f205f6101000a81548160ff0219169083151502179055508b601c5f8f81526020019081526020015f20819055508a601d5f8f81526020019081526020015f208190555089601e5f8f81526020019081526020015f208190555088601f5f8f81526020019081526020015f20819055508760205f8f81526020019081526020015f20819055508660225f8f81526020019081526020015f20819055508560235f8f81526020019081526020015f20819055508460245f8f81526020019081526020015f205f6101000a81548173ffffffffffffffffffffffffffffffffffffffff021916908373ffffffffffffffffffffffffffffffffffffffff1602179055508360255f8f81526020019081526020015f20819055508260265f8f81526020019081526020015f209081612ad99190615b5e565b508c7f137ced8b5ceaeabcacbca57cf1af33fb4e393c4fbddc75034233cbc43162751f60405160405180910390a260019150509b9a5050505050505050505050565b5f601f5f8381526020019081526020015f20549050919050565b5f600c5f9054906101000a900473ffffffffffffffffffffffffffffffffffffffff16905090565b5f600154905090565b5f60215f8381526020019081526020015f205f9054906101000a900460ff169050919050565b5f612b95612b35565b73ffffffffffffffffffffffffffffffffffffffff163373ffffffffffffffffffffffffffffffffffffffff1603612bcb575f80fd5b612bd3613369565b15612c13576040517f08c379a0000000000000000000000000000000000000000000000000000000008152600401612c0a90615658565b60405180910390fd5b81612c1d81612450565b612c5c576040517f08c379a0000000000000000000000000000000000000000000000000000000008152600401612c53906155f0565b60405180910390fd5b82612c6681613132565b15612ca6576040517f08c379a0000000000000000000000000000000000000000000000000000000008152600401612c9d90615c77565b60405180910390fd5b8343612cb182611693565b1115612cf2576040517f08c379a0000000000000000000000000000000000000000000000000000000008152600401612ce990615790565b60405180910390fd5b84612cfc816116ad565b431115612d3e576040517f08c379a0000000000000000000000000000000000000000000000000000000008152600401612d35906157f8565b60405180910390fd5b5f3411612d49575f80fd5b5f612d53876116ed565b14612da257612d628633613398565b612da1576040517f08c379a0000000000000000000000000000000000000000000000000000000008152600401612d9890615cdf565b60405180910390fd5b5b612dab866116c7565b15612dfb57612dba86336112db565b15612dfa576040517f08c379a0000000000000000000000000000000000000000000000000000000008152600401612df190615d47565b60405180910390fd5b5b612e0486611e95565b15612e5357612e138633613ccc565b612e52576040517f08c379a0000000000000000000000000000000000000000000000000000000008152600401612e4990615daf565b60405180910390fd5b5b5f612e5e8733611e25565b34612e6991906153d3565b9050612e7487612327565b811015612eb6576040517f08c379a0000000000000000000000000000000000000000000000000000000008152600401612ead90615e17565b60405180910390fd5b5f612ec088611e7b565b14612f2457612ece87612b1b565b612ed788611e7b565b612ee191906153d3565b811015612f23576040517f08c379a0000000000000000000000000000000000000000000000000000000008152600401612f1a90615e7f565b60405180910390fd5b5b8060195f8981526020019081526020015f205f3373ffffffffffffffffffffffffffffffffffffffff1673ffffffffffffffffffffffffffffffffffffffff1681526020019081526020015f208190555080601a5f8981526020019081526020015f2081905550612f9487613330565b73ffffffffffffffffffffffffffffffffffffffff163373ffffffffffffffffffffffffffffffffffffffff16146130165733601b5f8981526020019081526020015f205f6101000a81548173ffffffffffffffffffffffffffffffffffffffff021916908373ffffffffffffffffffffffffffffffffffffffff1602179055505b5f61302088611663565b11801561303457505f6130328861337e565b115b156130c45761304287611663565b4361304c896116ad565b61305691906158a6565b116130c3576130648761337e565b601d5f8981526020019081526020015f205f82825461308391906153d3565b92505081905550867fe6895f5e0e1b2ef4e40d860903d535f7e836fecee2eb3312561c2d4753cfe354336040516130ba919061523d565b60405180910390a25b5b867f96d59693caec7bfbd896ccf6bb677a3b2230fec3c76d4b1b482a8670996c7c6633836040516130f6929190615e9d565b60405180910390a2600195505050505050919050565b5f600e5f8381526020019081526020015f205f9054906101000a900460ff169050919050565b5f600f5f8381526020019081526020015f205f9054906101000a900460ff169050919050565b5f613161612b35565b73ffffffffffffffffffffffffffffffffffffffff163373ffffffffffffffffffffffffffffffffffffffff16146131ce576040517f08c379a00000000000000000000000000000000000000000000000000000000081526004016131c590615320565b60405180910390fd5b6131d661167d565b6131de575f80fd5b5f600d60146101000a81548160ff021916908315150217905550613200612b35565b73ffffffffffffffffffffffffffffffffffffffff167fb189a5a6b382e921df5a6b8a09a433564e15ec5f6625faa18b989fa671ee6bfc60405160405180910390a26001905090565b5f60205f8381526020019081526020015f20549050919050565b5f61326c612b35565b73ffffffffffffffffffffffffffffffffffffffff163373ffffffffffffffffffffffffffffffffffffffff16146132d9576040517f08c379a00000000000000000000000000000000000000000000000000000000081526004016132d090615320565b60405180910390fd5b6132e1613369565b15613321576040517f08c379a000000000000000000000000000000000000000000000000000000000815260040161331890615658565b60405180910390fd5b61332961489a565b6001905090565b5f601b5f8381526020019081526020015f205f9054906101000a900473ffffffffffffffffffffffffffffffffffffffff169050919050565b5f60175f9054906101000a900460ff16905090565b5f60235f8381526020019081526020015f20549050919050565b5f60155f8481526020019081526020015f205f8373ffffffffffffffffffffffffffffffffffffffff1673ffffffffffffffffffffffffffffffffffffffff1681526020019081526020015f205f9054906101000a900460ff16905092915050565b606060265f8381526020019081526020015f2080546134189061599a565b80601f01602080910402602001604051908101604052809291908181526020018280546134449061599a565b801561348f5780601f106134665761010080835404028352916020019161348f565b820191905f5260205f20905b81548152906001019060200180831161347257829003601f168201915b50505050509050919050565b5f60255f8381526020019081526020015f20549050919050565b5f60045f8373ffffffffffffffffffffffffffffffffffffffff1673ffffffffffffffffffffffffffffffffffffffff1681526020019081526020015f205f9054906101000a900460ff169050919050565b5f613510612b35565b73ffffffffffffffffffffffffffffffffffffffff163373ffffffffffffffffffffffffffffffffffffffff161461357d576040517f08c379a000000000000000000000000000000000000000000000000000000000815260040161357490615320565b60405180910390fd5b613585613369565b6135c4576040517f08c379a00000000000000000000000000000000000000000000000000000000081526004016135bb90615f0e565b60405180910390fd5b6135cc61492a565b6001905090565b5f6135dc612b35565b73ffffffffffffffffffffffffffffffffffffffff163373ffffffffffffffffffffffffffffffffffffffff1614613649576040517f08c379a000000000000000000000000000000000000000000000000000000000815260040161364090615320565b60405180910390fd5b613651613369565b15613691576040517f08c379a000000000000000000000000000000000000000000000000000000000815260040161368890615658565b60405180910390fd5b8161369b81612450565b6136da576040517f08c379a00000000000000000000000000000000000000000000000000000000081526004016136d1906155f0565b60405180910390fd5b826136e481611693565b4310613725576040517f08c379a000000000000000000000000000000000000000000000000000000000815260040161371c906156c0565b60405180910390fd5b61372e8461310c565b15613737575f80fd5b613740846149b8565b600192505050919050565b5f600d5f9054906101000a900473ffffffffffffffffffffffffffffffffffffffff16905090565b5f61377c612b35565b73ffffffffffffffffffffffffffffffffffffffff163373ffffffffffffffffffffffffffffffffffffffff16036137b2575f80fd5b6137ba613369565b156137fa576040517f08c379a00000000000000000000000000000000000000000000000000000000081526004016137f190615658565b60405180910390fd5b8161380481612450565b613843576040517f08c379a000000000000000000000000000000000000000000000000000000000815260040161383a906155f0565b60405180910390fd5b8261384d81611693565b431061388e576040517f08c379a0000000000000000000000000000000000000000000000000000000008152600401613885906156c0565b60405180910390fd5b5f613898856116ed565b116138a1575f80fd5b6138aa846116ed565b34146138b4575f80fd5b6138be8433613398565b156138c7575f80fd5b6138d084614a11565b600192505050919050565b5f6138e4612b35565b73ffffffffffffffffffffffffffffffffffffffff163373ffffffffffffffffffffffffffffffffffffffff1614613951576040517f08c379a000000000000000000000000000000000000000000000000000000000815260040161394890615320565b60405180910390fd5b600d5f6101000a81549073ffffffffffffffffffffffffffffffffffffffff02191690556001905090565b5f613985612b35565b73ffffffffffffffffffffffffffffffffffffffff163373ffffffffffffffffffffffffffffffffffffffff16146139f2576040517f08c379a00000000000000000000000000000000000000000000000000000000081526004016139e990615320565b60405180910390fd5b425f6139fc61231f565b11613a3c576040517f08c379a0000000000000000000000000000000000000000000000000000000008152600401613a3390615388565b60405180910390fd5b620d2f00613a4861231f565b613a5291906153d3565b811015613a94576040517f08c379a0000000000000000000000000000000000000000000000000000000008152600401613a8b90615450565b60405180910390fd5b62015180620d2f00613aa461231f565b613aae91906153d3565b613ab891906153d3565b811115613afa576040517f08c379a0000000000000000000000000000000000000000000000000000000008152600401613af1906154b8565b60405180910390fd5b600560ff16613b076123df565b60ff161015613b4b576040517f08c379a0000000000000000000000000000000000000000000000000000000008152600401613b4290615520565b60405180910390fd5b613b53612b5d565b421115613b95576040517f08c379a0000000000000000000000000000000000000000000000000000000008152600401613b8c90615588565b60405180910390fd5b5f73ffffffffffffffffffffffffffffffffffffffff168373ffffffffffffffffffffffffffffffffffffffff1603613bcc575f80fd5b613bd4612b35565b73ffffffffffffffffffffffffffffffffffffffff168373ffffffffffffffffffffffffffffffffffffffff1603613c0a575f80fd5b613c1261374b565b73ffffffffffffffffffffffffffffffffffffffff168373ffffffffffffffffffffffffffffffffffffffff1603613c48575f80fd5b613c5183614ab2565b8273ffffffffffffffffffffffffffffffffffffffff16613c70612b35565b73ffffffffffffffffffffffffffffffffffffffff167fb150023a879fd806e3599b6ca8ee3b60f0e360ab3846d128d67ebce1a391639a60405160405180910390a360019150613cbe6142d0565b613cc66143b9565b50919050565b5f60115f8481526020019081526020015f205f8373ffffffffffffffffffffffffffffffffffffffff1673ffffffffffffffffffffffffffffffffffffffff1681526020019081526020015f205f9054906101000a900460ff16905092915050565b5f81613d3981612450565b613d78576040517f08c379a0000000000000000000000000000000000000000000000000000000008152600401613d6f906155f0565b60405180910390fd5b613d8183613132565b80613d935750613d90836116ad565b43115b613dd2576040517f08c379a0000000000000000000000000000000000000000000000000000000008152600401613dc9906156c0565b60405180910390fd5b613ddb83613132565b80613df55750613dea83613249565b613df384611e7b565b105b15613eea575f613e058433611e25565b90508060195f8681526020019081526020015f205f3373ffffffffffffffffffffffffffffffffffffffff1673ffffffffffffffffffffffffffffffffffffffff1681526020019081526020015f205f828254613e6291906158a6565b925050819055503373ffffffffffffffffffffffffffffffffffffffff166108fc8290811502906040515f60405180830381858888f1935050505015613ee657837f51b609054f8fc45f9301a4694e88581e53061f6b13c19862e81555826fa9b8883383604051613ed4929190615e9d565b60405180910390a260019250506142ca565b5f80fd5b613ef2612b35565b73ffffffffffffffffffffffffffffffffffffffff163373ffffffffffffffffffffffffffffffffffffffff160361405657613f2d83612b66565b15613f36575f80fd5b5f613f4084611e7b565b90508060195f8681526020019081526020015f205f613f5e87613330565b73ffffffffffffffffffffffffffffffffffffffff1673ffffffffffffffffffffffffffffffffffffffff1681526020019081526020015f205f828254613fa591906158a6565b92505081905550600160215f8681526020019081526020015f205f6101000a81548160ff0219169083151502179055503373ffffffffffffffffffffffffffffffffffffffff166108fc8290811502906040515f60405180830381858888f193505050501561405257837f51b609054f8fc45f9301a4694e88581e53061f6b13c19862e81555826fa9b8883383604051614040929190615e9d565b60405180910390a260019250506142ca565b5f80fd5b61405f83613330565b73ffffffffffffffffffffffffffffffffffffffff163373ffffffffffffffffffffffffffffffffffffffff16036141da573073ffffffffffffffffffffffffffffffffffffffff166140b18461162a565b73ffffffffffffffffffffffffffffffffffffffff16636352211e6140d58661349b565b6040518263ffffffff1660e01b81526004016140f19190614c1c565b602060405180830381865afa15801561410c573d5f803e3d5ffd5b505050506040513d601f19601f820116820180604052508101906141309190615942565b73ffffffffffffffffffffffffffffffffffffffff161461414f575f80fd5b6141588361162a565b73ffffffffffffffffffffffffffffffffffffffff166342842e0e3061417d86613330565b6141868761349b565b6040518463ffffffff1660e01b81526004016141a493929190615f2c565b5f604051808303815f87803b1580156141bb575f80fd5b505af11580156141cd573d5f803e3d5ffd5b50505050600191506142ca565b5f6141e58433611e25565b90508060195f8681526020019081526020015f205f3373ffffffffffffffffffffffffffffffffffffffff1673ffffffffffffffffffffffffffffffffffffffff1681526020019081526020015f205f82825461424291906158a6565b925050819055503373ffffffffffffffffffffffffffffffffffffffff166108fc8290811502906040515f60405180830381858888f19350505050156142c657837f51b609054f8fc45f9301a4694e88581e53061f6b13c19862e81555826fa9b88833836040516142b4929190615e9d565b60405180910390a260019250506142ca565b5f80fd5b50919050565b60025f6101000a81549060ff02191690555f5b600760ff168160ff16101561438a575f60045f60058460ff166007811061430d5761430c615f61565b5b015f9054906101000a900473ffffffffffffffffffffffffffffffffffffffff1673ffffffffffffffffffffffffffffffffffffffff1673ffffffffffffffffffffffffffffffffffffffff1681526020019081526020015f205f6101000a81548160ff02191690831515021790555080806001019150506142e3565b507f4bd70d790e1606677e1c786e3ae5eea8fc03f909f5d3529d068651521d0f7eb760405160405180910390a1565b5f80557fadf19d4a72f18d860d362776ef575352c10e595e76cb22f26d8527acb3eeecae60405160405180910390a1565b600160165f8381526020019081526020015f205f3373ffffffffffffffffffffffffffffffffffffffff1673ffffffffffffffffffffffffffffffffffffffff1681526020019081526020015f205f6101000a81548160ff021916908315150217905550807fdd34237c6d19f446f8f5f7eb3fa5fc9a63399fb90fe93435e85812a1ada825943361447a846116ed565b604051614488929190615e9d565b60405180910390a250565b5f5b815181101561452957600160135f8581526020019081526020015f205f8484815181106144c5576144c4615f61565b5b602002602001015173ffffffffffffffffffffffffffffffffffffffff1673ffffffffffffffffffffffffffffffffffffffff1681526020019081526020015f205f6101000a81548160ff0219169083151502179055508080600101915050614495565b50817f573c4d3ab22ab768d7696aa2260634575e2670b8b3d5a14f317b0b160acacc1860405160405180910390a25050565b5f614564612b35565b905081600c5f6101000a81548173ffffffffffffffffffffffffffffffffffffffff021916908373ffffffffffffffffffffffffffffffffffffffff1602179055508173ffffffffffffffffffffffffffffffffffffffff168173ffffffffffffffffffffffffffffffffffffffff167fe9a5158ac7353c7c7322ececc080bc8e89334efa5795b6e21e40eb266b0003d660405160405180910390a35050565b600d5f6101000a81549073ffffffffffffffffffffffffffffffffffffffff0219169055565b600160105f8381526020019081526020015f205f6101000a81548160ff021916908315150217905550807f52f0758bea1ac90bc036e9da083f2cec9b2ab24d6ae9faf7b06048f45f6d457460405160405180910390a250565b6001600f5f8381526020019081526020015f205f6101000a81548160ff021916908315150217905550807fd88fab4b08bf76f15cf2d6e03e382acf1edd6790ab82967e406abac37db2028860405160405180910390a250565b425f819055507f43fb7dacf03276426ab20dc791b3be8cb2100531bac85d7c616e08af7bf3592260405160405180910390a1565b5f5b81518110156147a657600160115f8581526020019081526020015f205f84848151811061474257614741615f61565b5b602002602001015173ffffffffffffffffffffffffffffffffffffffff1673ffffffffffffffffffffffffffffffffffffffff1681526020019081526020015f205f6101000a81548160ff0219169083151502179055508080600101915050614712565b50817fb30540f764cd2a7396432457325f08f61f23bbe3d4c2cef382baf5f75af540d260405160405180910390a25050565b600160125f8381526020019081526020015f205f6101000a81548160ff021916908315150217905550807fbc7cf0291d500d4a02456f98be9191b5deddbe85d572ddc5de848905eb91541060405160405180910390a250565b8060145f8481526020019081526020015f2081905550817fadd1018e53e580702f301f34d7a13c0df5367943d68ffe5d49389792dce47ad3826040516148779190614c1c565b60405180910390a25050565b5f80823b90505f8163ffffffff1611915050919050565b6148a2613369565b156148e2576040517f08c379a00000000000000000000000000000000000000000000000000000000081526004016148d990615658565b60405180910390fd5b600160175f6101000a81548160ff0219169083151502179055507ff9fc7e681c820cfd75b573974fc3fe590495ce5346b9877e696791ad9fae81a060405160405180910390a1565b614932613369565b614971576040517f08c379a000000000000000000000000000000000000000000000000000000000815260040161496890615f0e565b60405180910390fd5b5f60175f6101000a81548160ff0219169083151502179055507f4f29b9e8cae9b5313eed7b2bc2e90099c915402e77e261d37dba82eb34a1651060405160405180910390a1565b6001600e5f8381526020019081526020015f205f6101000a81548160ff021916908315150217905550807f833e6492e73e54a5d3bb22cc90431f9c4f0e8ba9933ab71ddec925390a9bb03b60405160405180910390a250565b600160155f8381526020019081526020015f205f3373ffffffffffffffffffffffffffffffffffffffff1673ffffffffffffffffffffffffffffffffffffffff1681526020019081526020015f205f6101000a81548160ff021916908315150217905550807fcd2088ffeb057e96f56fe608a2f8588c7c8dddddd6a60000d39f7b3b2527246b3334604051614aa7929190615e9d565b60405180910390a250565b80600d5f6101000a81548173ffffffffffffffffffffffffffffffffffffffff021916908373ffffffffffffffffffffffffffffffffffffffff16021790555050565b5f604051905090565b5f80fd5b5f80fd5b5f819050919050565b614b1881614b06565b8114614b22575f80fd5b50565b5f81359050614b3381614b0f565b92915050565b5f73ffffffffffffffffffffffffffffffffffffffff82169050919050565b5f614b6282614b39565b9050919050565b614b7281614b58565b8114614b7c575f80fd5b50565b5f81359050614b8d81614b69565b92915050565b5f8060408385031215614ba957614ba8614afe565b5b5f614bb685828601614b25565b9250506020614bc785828601614b7f565b9150509250929050565b5f8115159050919050565b614be581614bd1565b82525050565b5f602082019050614bfe5f830184614bdc565b92915050565b5f819050919050565b614c1681614c04565b82525050565b5f602082019050614c2f5f830184614c0d565b92915050565b5f60208284031215614c4a57614c49614afe565b5b5f614c5784828501614b25565b91505092915050565b614c6981614c04565b8114614c73575f80fd5b50565b5f81359050614c8481614c60565b92915050565b5f80fd5b5f80fd5b5f80fd5b5f8083601f840112614cab57614caa614c8a565b5b8235905067ffffffffffffffff811115614cc857614cc7614c8e565b5b602083019150836001820283011115614ce457614ce3614c92565b5b9250929050565b5f805f805f60808688031215614d0457614d03614afe565b5b5f614d1188828901614b7f565b9550506020614d2288828901614b7f565b9450506040614d3388828901614c76565b935050606086013567ffffffffffffffff811115614d5457614d53614b02565b5b614d6088828901614c96565b92509250509295509295909350565b5f7fffffffff0000000000000000000000000000000000000000000000000000000082169050919050565b614da381614d6f565b82525050565b5f602082019050614dbc5f830184614d9a565b92915050565b5f601f19601f8301169050919050565b7f4e487b71000000000000000000000000000000000000000000000000000000005f52604160045260245ffd5b614e0882614dc2565b810181811067ffffffffffffffff82111715614e2757614e26614dd2565b5b80604052505050565b5f614e39614af5565b9050614e458282614dff565b919050565b5f67ffffffffffffffff821115614e6457614e63614dd2565b5b602082029050602081019050919050565b5f614e87614e8284614e4a565b614e30565b90508083825260208201905060208402830185811115614eaa57614ea9614c92565b5b835b81811015614ed35780614ebf8882614b7f565b845260208401935050602081019050614eac565b5050509392505050565b5f82601f830112614ef157614ef0614c8a565b5b8135614f01848260208601614e75565b91505092915050565b5f8060408385031215614f2057614f1f614afe565b5b5f614f2d85828601614b25565b925050602083013567ffffffffffffffff811115614f4e57614f4d614b02565b5b614f5a85828601614edd565b9150509250929050565b5f819050919050565b5f614f87614f82614f7d84614b39565b614f64565b614b39565b9050919050565b5f614f9882614f6d565b9050919050565b5f614fa982614f8e565b9050919050565b614fb981614f9f565b82525050565b5f602082019050614fd25f830184614fb0565b92915050565b5f60208284031215614fed57614fec614afe565b5b5f614ffa84828501614b7f565b91505092915050565b5f806040838503121561501957615018614afe565b5b5f61502685828601614b25565b925050602061503785828601614c76565b9150509250929050565b5f60ff82169050919050565b61505681615041565b82525050565b5f60208201905061506f5f83018461504d565b92915050565b5f80fd5b5f67ffffffffffffffff82111561509357615092614dd2565b5b61509c82614dc2565b9050602081019050919050565b828183375f83830152505050565b5f6150c96150c484615079565b614e30565b9050828152602081018484840111156150e5576150e4615075565b5b6150f08482856150a9565b509392505050565b5f82601f83011261510c5761510b614c8a565b5b813561511c8482602086016150b7565b91505092915050565b5f805f805f805f805f805f6101608c8e03121561514557615144614afe565b5b5f6151528e828f01614b25565b9b505060206151638e828f01614c76565b9a505060406151748e828f01614c76565b99505060606151858e828f01614c76565b98505060806151968e828f01614c76565b97505060a06151a78e828f01614c76565b96505060c06151b88e828f01614c76565b95505060e06151c98e828f01614c76565b9450506101006151db8e828f01614b7f565b9350506101206151ed8e828f01614c76565b9250506101408c013567ffffffffffffffff81111561520f5761520e614b02565b5b61521b8e828f016150f8565b9150509295989b509295989b9093969950565b61523781614b58565b82525050565b5f6020820190506152505f83018461522e565b92915050565b5f81519050919050565b5f82825260208201905092915050565b8281835e5f83830152505050565b5f61528882615256565b6152928185615260565b93506152a2818560208601615270565b6152ab81614dc2565b840191505092915050565b5f6020820190508181035f8301526152ce818461527e565b905092915050565b7f4f6e6c79206f776e6572210000000000000000000000000000000000000000005f82015250565b5f61530a600b83615260565b9150615315826152d6565b602082019050919050565b5f6020820190508181035f830152615337816152fe565b9050919050565b7f5175657565206e6f7420696e69746961746564210000000000000000000000005f82015250565b5f615372601483615260565b915061537d8261533e565b602082019050919050565b5f6020820190508181035f83015261539f81615366565b9050919050565b7f4e487b71000000000000000000000000000000000000000000000000000000005f52601160045260245ffd5b5f6153dd82614c04565b91506153e883614c04565b9250828201905080821115615400576153ff6153a6565b5b92915050565b7f54696d656c6f636b65642c2077616974210000000000000000000000000000005f82015250565b5f61543a601183615260565b915061544582615406565b602082019050919050565b5f6020820190508181035f8301526154678161542e565b9050919050565b7f477261646520706572696f6420657870697265642100000000000000000000005f82015250565b5f6154a2601583615260565b91506154ad8261546e565b602082019050919050565b5f6020820190508181035f8301526154cf81615496565b9050919050565b7f4e6f7420656e6f756768207369676e61747572657321000000000000000000005f82015250565b5f61550a601683615260565b9150615515826154d6565b602082019050919050565b5f6020820190508181035f830152615537816154fe565b9050919050565b7f5369676e617475726573206861766520657870697265642100000000000000005f82015250565b5f615572601883615260565b915061557d8261553e565b602082019050919050565b5f6020820190508181035f83015261559f81615566565b9050919050565b7f41756374696f6e20646f6573206e6f74206578697374210000000000000000005f82015250565b5f6155da601783615260565b91506155e5826155a6565b602082019050919050565b5f6020820190508181035f830152615607816155ce565b9050919050565b7f50617573656421000000000000000000000000000000000000000000000000005f82015250565b5f615642600783615260565b915061564d8261560e565b602082019050919050565b5f6020820190508181035f83015261566f81615636565b9050919050565b7f41756374696f6e2069732072756e6e696e6721000000000000000000000000005f82015250565b5f6156aa601383615260565b91506156b582615676565b602082019050919050565b5f6020820190508181035f8301526156d78161569e565b9050919050565b7f4e6f742061207369676e657221000000000000000000000000000000000000005f82015250565b5f615712600d83615260565b915061571d826156de565b602082019050919050565b5f6020820190508181035f83015261573f81615706565b9050919050565b7f41756374696f6e20686173206e6f7420737461727465642100000000000000005f82015250565b5f61577a601883615260565b915061578582615746565b602082019050919050565b5f6020820190508181035f8301526157a78161576e565b9050919050565b7f41756374696f6e2068617320656e6465642100000000000000000000000000005f82015250565b5f6157e2601283615260565b91506157ed826157ae565b602082019050919050565b5f6020820190508181035f83015261580f816157d6565b9050919050565b5f61582082615041565b915060ff8203615833576158326153a6565b5b600182019050919050565b7f41756374696f6e20616c726561647920657869737473210000000000000000005f82015250565b5f615872601783615260565b915061587d8261583e565b602082019050919050565b5f6020820190508181035f83015261589f81615866565b9050919050565b5f6158b082614c04565b91506158bb83614c04565b92508282039050818111156158d3576158d26153a6565b5b92915050565b6158e281614bd1565b81146158ec575f80fd5b50565b5f815190506158fd816158d9565b92915050565b5f6020828403121561591857615917614afe565b5b5f615925848285016158ef565b91505092915050565b5f8151905061593c81614b69565b92915050565b5f6020828403121561595757615956614afe565b5b5f6159648482850161592e565b91505092915050565b7f4e487b71000000000000000000000000000000000000000000000000000000005f52602260045260245ffd5b5f60028204905060018216806159b157607f821691505b6020821081036159c4576159c361596d565b5b50919050565b5f819050815f5260205f209050919050565b5f6020601f8301049050919050565b5f82821b905092915050565b5f60088302615a267fffffffffffffffffffffffffffffffffffffffffffffffffffffffffffffffff826159eb565b615a3086836159eb565b95508019841693508086168417925050509392505050565b5f615a62615a5d615a5884614c04565b614f64565b614c04565b9050919050565b5f819050919050565b615a7b83615a48565b615a8f615a8782615a69565b8484546159f7565b825550505050565b5f90565b615aa3615a97565b615aae818484615a72565b505050565b5b81811015615ad157615ac65f82615a9b565b600181019050615ab4565b5050565b601f821115615b1657615ae7816159ca565b615af0846159dc565b81016020851015615aff578190505b615b13615b0b856159dc565b830182615ab3565b50505b505050565b5f82821c905092915050565b5f615b365f1984600802615b1b565b1980831691505092915050565b5f615b4e8383615b27565b9150826002028217905092915050565b615b6782615256565b67ffffffffffffffff811115615b8057615b7f614dd2565b5b615b8a825461599a565b615b95828285615ad5565b5f60209050601f831160018114615bc6575f8415615bb4578287015190505b615bbe8582615b43565b865550615c25565b601f198416615bd4866159ca565b5f5b82811015615bfb57848901518255600182019150602085019450602081019050615bd6565b86831015615c185784890151615c14601f891682615b27565b8355505b6001600288020188555050505b505050505050565b7f41756374696f6e2069732063616e63656c6c65642100000000000000000000005f82015250565b5f615c61601583615260565b9150615c6c82615c2d565b602082019050919050565b5f6020820190508181035f830152615c8e81615c55565b9050919050565b7f4164647265737320686173206e6f74207061696420656e7472792066656521005f82015250565b5f615cc9601f83615260565b9150615cd482615c95565b602082019050919050565b5f6020820190508181035f830152615cf681615cbd565b9050919050565b7f4164647265737320697320626c61636b6c6973746564210000000000000000005f82015250565b5f615d31601783615260565b9150615d3c82615cfd565b602082019050919050565b5f6020820190508181035f830152615d5e81615d25565b9050919050565b7f41646472657373206e6f742077686974656c69737465642100000000000000005f82015250565b5f615d99601883615260565b9150615da482615d65565b602082019050919050565b5f6020820190508181035f830152615dc681615d8d565b9050919050565b7f426964206c6f776572207468616e2073746172696e67207072696365210000005f82015250565b5f615e01601d83615260565b9150615e0c82615dcd565b602082019050919050565b5f6020820190508181035f830152615e2e81615df5565b9050919050565b7f42696420746f6f206c6f772100000000000000000000000000000000000000005f82015250565b5f615e69600c83615260565b9150615e7482615e35565b602082019050919050565b5f6020820190508181035f830152615e9681615e5d565b9050919050565b5f604082019050615eb05f83018561522e565b615ebd6020830184614c0d565b9392505050565b7f4e6f7420706175736564210000000000000000000000000000000000000000005f82015250565b5f615ef8600b83615260565b9150615f0382615ec4565b602082019050919050565b5f6020820190508181035f830152615f2581615eec565b9050919050565b5f606082019050615f3f5f83018661522e565b615f4c602083018561522e565b615f596040830184614c0d565b949350505050565b7f4e487b71000000000000000000000000000000000000000000000000000000005f52603260045260245ffdfea26469706673582212208f21b650b5aee88b065190e57de62b2e06e13c48c30e9de773f92f706c0682b564736f6c634300081a0033",
			"opcodes": "PUSH1 0x80 PUSH1 0x40 MSTORE PUSH1 0x40 MLOAD DUP1 PUSH1 0xE0 ADD PUSH1 0x40 MSTORE DUP1 PUSH20 0x5B38DA6A701C568545DCFCB03FCB875F56BEDDC4 PUSH20 0xFFFFFFFFFFFFFFFFFFFFFFFFFFFFFFFFFFFFFFFF AND PUSH20 0xFFFFFFFFFFFFFFFFFFFFFFFFFFFFFFFFFFFFFFFF AND DUP2 MSTORE PUSH1 0x20 ADD PUSH20 0xAB8483F64D9C6D1ECF9B849AE677DD3315835CB2 PUSH20 0xFFFFFFFFFFFFFFFFFFFFFFFFFFFFFFFFFFFFFFFF AND PUSH20 0xFFFFFFFFFFFFFFFFFFFFFFFFFFFFFFFFFFFFFFFF AND DUP2 MSTORE PUSH1 0x20 ADD PUSH20 0x4B20993BC481177EC7E8F571CECAE8A9E22C02DB PUSH20 0xFFFFFFFFFFFFFFFFFFFFFFFFFFFFFFFFFFFFFFFF AND PUSH20 0xFFFFFFFFFFFFFFFFFFFFFFFFFFFFFFFFFFFFFFFF AND DUP2 MSTORE PUSH1 0x20 ADD PUSH20 0x78731D3CA6B7E34AC0F824C42A7CC18A495CABAB PUSH20 0xFFFFFFFFFFFFFFFFFFFFFFFFFFFFFFFFFFFFFFFF AND PUSH20 0xFFFFFFFFFFFFFFFFFFFFFFFFFFFFFFFFFFFFFFFF AND DUP2 MSTORE PUSH1 0x20 ADD PUSH20 0x617F2E2FD72FD9D5503197092AC168C91465E7F2 PUSH20 0xFFFFFFFFFFFFFFFFFFFFFFFFFFFFFFFFFFFFFFFF AND PUSH20 0xFFFFFFFFFFFFFFFFFFFFFFFFFFFFFFFFFFFFFFFF AND DUP2 MSTORE PUSH1 0x20 ADD PUSH20 0x17F6AD8EF982297579C203069C1DBFFE4348C372 PUSH20 0xFFFFFFFFFFFFFFFFFFFFFFFFFFFFFFFFFFFFFFFF AND PUSH20 0xFFFFFFFFFFFFFFFFFFFFFFFFFFFFFFFFFFFFFFFF AND DUP2 MSTORE PUSH1 0x20 ADD PUSH20 0x5C6B0F7BF3E7CE046039BD8FABDFD3F9F5021678 PUSH20 0xFFFFFFFFFFFFFFFFFFFFFFFFFFFFFFFFFFFFFFFF AND PUSH20 0xFFFFFFFFFFFFFFFFFFFFFFFFFFFFFFFFFFFFFFFF AND DUP2 MSTORE POP PUSH1 0x5 SWAP1 PUSH1 0x7 PUSH2 0x207 SWAP3 SWAP2 SWAP1 PUSH2 0x428 JUMP JUMPDEST POP CALLVALUE DUP1 ISZERO PUSH2 0x213 JUMPI PUSH0 DUP1 REVERT JUMPDEST POP PUSH1 0x7 PUSH1 0xFF AND PUSH1 0x7 EQ PUSH2 0x224 JUMPI PUSH0 DUP1 REVERT JUMPDEST PUSH0 JUMPDEST PUSH1 0x7 PUSH1 0xFF AND DUP2 PUSH1 0xFF AND LT ISZERO PUSH2 0x33C JUMPI PUSH0 PUSH20 0xFFFFFFFFFFFFFFFFFFFFFFFFFFFFFFFFFFFFFFFF AND PUSH1 0x5 DUP3 PUSH1 0xFF AND PUSH1 0x7 DUP2 LT PUSH2 0x263 JUMPI PUSH2 0x262 PUSH2 0x4BF JUMP JUMPDEST JUMPDEST ADD PUSH0 SWAP1 SLOAD SWAP1 PUSH2 0x100 EXP SWAP1 DIV PUSH20 0xFFFFFFFFFFFFFFFFFFFFFFFFFFFFFFFFFFFFFFFF AND PUSH20 0xFFFFFFFFFFFFFFFFFFFFFFFFFFFFFFFFFFFFFFFF AND SUB PUSH2 0x2A3 JUMPI PUSH0 DUP1 REVERT JUMPDEST PUSH1 0x1 PUSH1 0x3 PUSH0 PUSH1 0x5 DUP5 PUSH1 0xFF AND PUSH1 0x7 DUP2 LT PUSH2 0x2BF JUMPI PUSH2 0x2BE PUSH2 0x4BF JUMP JUMPDEST JUMPDEST ADD PUSH0 SWAP1 SLOAD SWAP1 PUSH2 0x100 EXP SWAP1 DIV PUSH20 0xFFFFFFFFFFFFFFFFFFFFFFFFFFFFFFFFFFFFFFFF AND PUSH20 0xFFFFFFFFFFFFFFFFFFFFFFFFFFFFFFFFFFFFFFFF AND PUSH20 0xFFFFFFFFFFFFFFFFFFFFFFFFFFFFFFFFFFFFFFFF AND DUP2 MSTORE PUSH1 0x20 ADD SWAP1 DUP2 MSTORE PUSH1 0x20 ADD PUSH0 KECCAK256 PUSH0 PUSH2 0x100 EXP DUP2 SLOAD DUP2 PUSH1 0xFF MUL NOT AND SWAP1 DUP4 ISZERO ISZERO MUL OR SWAP1 SSTORE POP DUP1 DUP1 PUSH1 0x1 ADD SWAP2 POP POP PUSH2 0x226 JUMP JUMPDEST POP PUSH2 0x34C CALLER PUSH2 0x351 PUSH1 0x20 SHL PUSH1 0x20 SHR JUMP JUMPDEST PUSH2 0x4EC JUMP JUMPDEST PUSH0 PUSH2 0x360 PUSH2 0x400 PUSH1 0x20 SHL PUSH1 0x20 SHR JUMP JUMPDEST SWAP1 POP DUP2 PUSH1 0xC PUSH0 PUSH2 0x100 EXP DUP2 SLOAD DUP2 PUSH20 0xFFFFFFFFFFFFFFFFFFFFFFFFFFFFFFFFFFFFFFFF MUL NOT AND SWAP1 DUP4 PUSH20 0xFFFFFFFFFFFFFFFFFFFFFFFFFFFFFFFFFFFFFFFF AND MUL OR SWAP1 SSTORE POP DUP2 PUSH20 0xFFFFFFFFFFFFFFFFFFFFFFFFFFFFFFFFFFFFFFFF AND DUP2 PUSH20 0xFFFFFFFFFFFFFFFFFFFFFFFFFFFFFFFFFFFFFFFF AND PUSH32 0xE9A5158AC7353C7C7322ECECC080BC8E89334EFA5795B6E21E40EB266B0003D6 PUSH1 0x40 MLOAD PUSH1 0x40 MLOAD DUP1 SWAP2 SUB SWAP1 LOG3 POP POP JUMP JUMPDEST PUSH0 PUSH1 0xC PUSH0 SWAP1 SLOAD SWAP1 PUSH2 0x100 EXP SWAP1 DIV PUSH20 0xFFFFFFFFFFFFFFFFFFFFFFFFFFFFFFFFFFFFFFFF AND SWAP1 POP SWAP1 JUMP JUMPDEST DUP3 PUSH1 0x7 DUP2 ADD SWAP3 DUP3 ISZERO PUSH2 0x493 JUMPI SWAP2 PUSH1 0x20 MUL DUP3 ADD JUMPDEST DUP3 DUP2 GT ISZERO PUSH2 0x492 JUMPI DUP3 MLOAD DUP3 PUSH0 PUSH2 0x100 EXP DUP2 SLOAD DUP2 PUSH20 0xFFFFFFFFFFFFFFFFFFFFFFFFFFFFFFFFFFFFFFFF MUL NOT AND SWAP1 DUP4 PUSH20 0xFFFFFFFFFFFFFFFFFFFFFFFFFFFFFFFFFFFFFFFF AND MUL OR SWAP1 SSTORE POP SWAP2 PUSH1 0x20 ADD SWAP2 SWAP1 PUSH1 0x1 ADD SWAP1 PUSH2 0x43B JUMP JUMPDEST JUMPDEST POP SWAP1 POP PUSH2 0x4A0 SWAP2 SWAP1 PUSH2 0x4A4 JUMP JUMPDEST POP SWAP1 JUMP JUMPDEST JUMPDEST DUP1 DUP3 GT ISZERO PUSH2 0x4BB JUMPI PUSH0 DUP2 PUSH0 SWAP1 SSTORE POP PUSH1 0x1 ADD PUSH2 0x4A5 JUMP JUMPDEST POP SWAP1 JUMP JUMPDEST PUSH32 0x4E487B7100000000000000000000000000000000000000000000000000000000 PUSH0 MSTORE PUSH1 0x32 PUSH1 0x4 MSTORE PUSH1 0x24 PUSH0 REVERT JUMPDEST PUSH2 0x5FC4 DUP1 PUSH2 0x4F9 PUSH0 CODECOPY PUSH0 RETURN INVALID PUSH1 0x80 PUSH1 0x40 MSTORE PUSH1 0x4 CALLDATASIZE LT PUSH2 0x380 JUMPI PUSH0 CALLDATALOAD PUSH1 0xE0 SHR DUP1 PUSH4 0x7A5A69E3 GT PUSH2 0x1D0 JUMPI DUP1 PUSH4 0xAFBA68E3 GT PUSH2 0x101 JUMPI DUP1 PUSH4 0xC3500639 GT PUSH2 0x9F JUMPI DUP1 PUSH4 0xEA31876A GT PUSH2 0x6E JUMPI DUP1 PUSH4 0xEA31876A EQ PUSH2 0xEF4 JUMPI DUP1 PUSH4 0xF2FDE38B EQ PUSH2 0xF1E JUMPI DUP1 PUSH4 0xF4099811 EQ PUSH2 0xF5A JUMPI DUP1 PUSH4 0xF7FD24C7 EQ PUSH2 0xF96 JUMPI PUSH2 0x380 JUMP JUMPDEST DUP1 PUSH4 0xC3500639 EQ PUSH2 0xE34 JUMPI DUP1 PUSH4 0xD3F0B50E EQ PUSH2 0xE5E JUMPI DUP1 PUSH4 0xE30C3978 EQ PUSH2 0xE9A JUMPI DUP1 PUSH4 0xE6B65A22 EQ PUSH2 0xEC4 JUMPI PUSH2 0x380 JUMP JUMPDEST DUP1 PUSH4 0xB78F0478 GT PUSH2 0xDB JUMPI DUP1 PUSH4 0xB78F0478 EQ PUSH2 0xD44 JUMPI DUP1 PUSH4 0xB86052F9 EQ PUSH2 0xD80 JUMPI DUP1 PUSH4 0xBD9F86DF EQ PUSH2 0xDBC JUMPI DUP1 PUSH4 0xBF6A1413 EQ PUSH2 0xDF8 JUMPI PUSH2 0x380 JUMP JUMPDEST DUP1 PUSH4 0xAFBA68E3 EQ PUSH2 0xCA2 JUMPI DUP1 PUSH4 0xB187BD26 EQ PUSH2 0xCDE JUMPI DUP1 PUSH4 0xB6539881 EQ PUSH2 0xD08 JUMPI PUSH2 0x380 JUMP JUMPDEST DUP1 PUSH4 0x9109EA8A GT PUSH2 0x16E JUMPI DUP1 PUSH4 0x9A5D4407 GT PUSH2 0x148 JUMPI DUP1 PUSH4 0x9A5D4407 EQ PUSH2 0xBD6 JUMPI DUP1 PUSH4 0xA5875CAB EQ PUSH2 0xC12 JUMPI DUP1 PUSH4 0xA59758C0 EQ PUSH2 0xC3C JUMPI DUP1 PUSH4 0xA60AC480 EQ PUSH2 0xC78 JUMPI PUSH2 0x380 JUMP JUMPDEST DUP1 PUSH4 0x9109EA8A EQ PUSH2 0xB2E JUMPI DUP1 PUSH4 0x957BB1E0 EQ PUSH2 0xB6A JUMPI DUP1 PUSH4 0x958476D0 EQ PUSH2 0xB9A JUMPI PUSH2 0x380 JUMP JUMPDEST DUP1 PUSH4 0x88021E53 GT PUSH2 0x1AA JUMPI DUP1 PUSH4 0x88021E53 EQ PUSH2 0xA62 JUMPI DUP1 PUSH4 0x88D06AA1 EQ PUSH2 0xA9E JUMPI DUP1 PUSH4 0x8DA5CB5B EQ PUSH2 0xADA JUMPI DUP1 PUSH4 0x8E4E210C EQ PUSH2 0xB04 JUMPI PUSH2 0x380 JUMP JUMPDEST DUP1 PUSH4 0x7A5A69E3 EQ PUSH2 0x9C0 JUMPI DUP1 PUSH4 0x7DF73E27 EQ PUSH2 0x9FC JUMPI DUP1 PUSH4 0x7E9E7959 EQ PUSH2 0xA38 JUMPI PUSH2 0x380 JUMP JUMPDEST DUP1 PUSH4 0x352A939F GT PUSH2 0x2B5 JUMPI DUP1 PUSH4 0x553138D4 GT PUSH2 0x253 JUMPI DUP1 PUSH4 0x6F89B7DB GT PUSH2 0x222 JUMPI DUP1 PUSH4 0x6F89B7DB EQ PUSH2 0x906 JUMPI DUP1 PUSH4 0x715018A6 EQ PUSH2 0x942 JUMPI DUP1 PUSH4 0x75782AB6 EQ PUSH2 0x96C JUMPI DUP1 PUSH4 0x79BA5097 EQ PUSH2 0x996 JUMPI PUSH2 0x380 JUMP JUMPDEST DUP1 PUSH4 0x553138D4 EQ PUSH2 0x828 JUMPI DUP1 PUSH4 0x5B6B12A1 EQ PUSH2 0x864 JUMPI DUP1 PUSH4 0x5E5E52A4 EQ PUSH2 0x8A0 JUMPI DUP1 PUSH4 0x652A60ED EQ PUSH2 0x8DC JUMPI PUSH2 0x380 JUMP JUMPDEST DUP1 PUSH4 0x4698B5E2 GT PUSH2 0x28F JUMPI DUP1 PUSH4 0x4698B5E2 EQ PUSH2 0x74A JUMPI DUP1 PUSH4 0x4817F4C6 EQ PUSH2 0x774 JUMPI DUP1 PUSH4 0x4C224A22 EQ PUSH2 0x7B0 JUMPI DUP1 PUSH4 0x529F7FF1 EQ PUSH2 0x7EC JUMPI PUSH2 0x380 JUMP JUMPDEST DUP1 PUSH4 0x352A939F EQ PUSH2 0x696 JUMPI DUP1 PUSH4 0x3A65477F EQ PUSH2 0x6D2 JUMPI DUP1 PUSH4 0x3EF4D130 EQ PUSH2 0x70E JUMPI PUSH2 0x380 JUMP JUMPDEST DUP1 PUSH4 0x18820D53 GT PUSH2 0x322 JUMPI DUP1 PUSH4 0x2C7B7F74 GT PUSH2 0x2FC JUMPI DUP1 PUSH4 0x2C7B7F74 EQ PUSH2 0x5A6 JUMPI DUP1 PUSH4 0x2F5A3F99 EQ PUSH2 0x5E2 JUMPI DUP1 PUSH4 0x30967602 EQ PUSH2 0x61E JUMPI DUP1 PUSH4 0x32890C16 EQ PUSH2 0x65A JUMPI PUSH2 0x380 JUMP JUMPDEST DUP1 PUSH4 0x18820D53 EQ PUSH2 0x504 JUMPI DUP1 PUSH4 0x29B02663 EQ PUSH2 0x540 JUMPI DUP1 PUSH4 0x2BB401D4 EQ PUSH2 0x57C JUMPI PUSH2 0x380 JUMP JUMPDEST DUP1 PUSH4 0x11841C41 GT PUSH2 0x35E JUMPI DUP1 PUSH4 0x11841C41 EQ PUSH2 0x426 JUMPI DUP1 PUSH4 0x11C3F586 EQ PUSH2 0x450 JUMPI DUP1 PUSH4 0x150B7A02 EQ PUSH2 0x48C JUMPI DUP1 PUSH4 0x17AC6E44 EQ PUSH2 0x4C8 JUMPI PUSH2 0x380 JUMP JUMPDEST DUP1 PUSH4 0xA8874A5 EQ PUSH2 0x384 JUMPI DUP1 PUSH4 0xDA55161 EQ PUSH2 0x3C0 JUMPI DUP1 PUSH4 0xF76FA07 EQ PUSH2 0x3EA JUMPI JUMPDEST PUSH0 DUP1 REVERT JUMPDEST CALLVALUE DUP1 ISZERO PUSH2 0x38F JUMPI PUSH0 DUP1 REVERT JUMPDEST POP PUSH2 0x3AA PUSH1 0x4 DUP1 CALLDATASIZE SUB DUP2 ADD SWAP1 PUSH2 0x3A5 SWAP2 SWAP1 PUSH2 0x4B93 JUMP JUMPDEST PUSH2 0xFD2 JUMP JUMPDEST PUSH1 0x40 MLOAD PUSH2 0x3B7 SWAP2 SWAP1 PUSH2 0x4BEB JUMP JUMPDEST PUSH1 0x40 MLOAD DUP1 SWAP2 SUB SWAP1 RETURN JUMPDEST CALLVALUE DUP1 ISZERO PUSH2 0x3CB JUMPI PUSH0 DUP1 REVERT JUMPDEST POP PUSH2 0x3D4 PUSH2 0x1034 JUMP JUMPDEST PUSH1 0x40 MLOAD PUSH2 0x3E1 SWAP2 SWAP1 PUSH2 0x4BEB JUMP JUMPDEST PUSH1 0x40 MLOAD DUP1 SWAP2 SUB SWAP1 RETURN JUMPDEST CALLVALUE DUP1 ISZERO PUSH2 0x3F5 JUMPI PUSH0 DUP1 REVERT JUMPDEST POP PUSH2 0x410 PUSH1 0x4 DUP1 CALLDATASIZE SUB DUP2 ADD SWAP1 PUSH2 0x40B SWAP2 SWAP1 PUSH2 0x4B93 JUMP JUMPDEST PUSH2 0x12DB JUMP JUMPDEST PUSH1 0x40 MLOAD PUSH2 0x41D SWAP2 SWAP1 PUSH2 0x4BEB JUMP JUMPDEST PUSH1 0x40 MLOAD DUP1 SWAP2 SUB SWAP1 RETURN JUMPDEST CALLVALUE DUP1 ISZERO PUSH2 0x431 JUMPI PUSH0 DUP1 REVERT JUMPDEST POP PUSH2 0x43A PUSH2 0x133D JUMP JUMPDEST PUSH1 0x40 MLOAD PUSH2 0x447 SWAP2 SWAP1 PUSH2 0x4C1C JUMP JUMPDEST PUSH1 0x40 MLOAD DUP1 SWAP2 SUB SWAP1 RETURN JUMPDEST CALLVALUE DUP1 ISZERO PUSH2 0x45B JUMPI PUSH0 DUP1 REVERT JUMPDEST POP PUSH2 0x476 PUSH1 0x4 DUP1 CALLDATASIZE SUB DUP2 ADD SWAP1 PUSH2 0x471 SWAP2 SWAP1 PUSH2 0x4C35 JUMP JUMPDEST PUSH2 0x1344 JUMP JUMPDEST PUSH1 0x40 MLOAD PUSH2 0x483 SWAP2 SWAP1 PUSH2 0x4BEB JUMP JUMPDEST PUSH1 0x40 MLOAD DUP1 SWAP2 SUB SWAP1 RETURN JUMPDEST CALLVALUE DUP1 ISZERO PUSH2 0x497 JUMPI PUSH0 DUP1 REVERT JUMPDEST POP PUSH2 0x4B2 PUSH1 0x4 DUP1 CALLDATASIZE SUB DUP2 ADD SWAP1 PUSH2 0x4AD SWAP2 SWAP1 PUSH2 0x4CEB JUMP JUMPDEST PUSH2 0x1484 JUMP JUMPDEST PUSH1 0x40 MLOAD PUSH2 0x4BF SWAP2 SWAP1 PUSH2 0x4DA9 JUMP JUMPDEST PUSH1 0x40 MLOAD DUP1 SWAP2 SUB SWAP1 RETURN JUMPDEST CALLVALUE DUP1 ISZERO PUSH2 0x4D3 JUMPI PUSH0 DUP1 REVERT JUMPDEST POP PUSH2 0x4EE PUSH1 0x4 DUP1 CALLDATASIZE SUB DUP2 ADD SWAP1 PUSH2 0x4E9 SWAP2 SWAP1 PUSH2 0x4F0A JUMP JUMPDEST PUSH2 0x14B1 JUMP JUMPDEST PUSH1 0x40 MLOAD PUSH2 0x4FB SWAP2 SWAP1 PUSH2 0x4BEB JUMP JUMPDEST PUSH1 0x40 MLOAD DUP1 SWAP2 SUB SWAP1 RETURN JUMPDEST CALLVALUE DUP1 ISZERO PUSH2 0x50F JUMPI PUSH0 DUP1 REVERT JUMPDEST POP PUSH2 0x52A PUSH1 0x4 DUP1 CALLDATASIZE SUB DUP2 ADD SWAP1 PUSH2 0x525 SWAP2 SWAP1 PUSH2 0x4C35 JUMP JUMPDEST PUSH2 0x162A JUMP JUMPDEST PUSH1 0x40 MLOAD PUSH2 0x537 SWAP2 SWAP1 PUSH2 0x4FBF JUMP JUMPDEST PUSH1 0x40 MLOAD DUP1 SWAP2 SUB SWAP1 RETURN JUMPDEST CALLVALUE DUP1 ISZERO PUSH2 0x54B JUMPI PUSH0 DUP1 REVERT JUMPDEST POP PUSH2 0x566 PUSH1 0x4 DUP1 CALLDATASIZE SUB DUP2 ADD SWAP1 PUSH2 0x561 SWAP2 SWAP1 PUSH2 0x4C35 JUMP JUMPDEST PUSH2 0x1663 JUMP JUMPDEST PUSH1 0x40 MLOAD PUSH2 0x573 SWAP2 SWAP1 PUSH2 0x4C1C JUMP JUMPDEST PUSH1 0x40 MLOAD DUP1 SWAP2 SUB SWAP1 RETURN JUMPDEST CALLVALUE DUP1 ISZERO PUSH2 0x587 JUMPI PUSH0 DUP1 REVERT JUMPDEST POP PUSH2 0x590 PUSH2 0x167D JUMP JUMPDEST PUSH1 0x40 MLOAD PUSH2 0x59D SWAP2 SWAP1 PUSH2 0x4BEB JUMP JUMPDEST PUSH1 0x40 MLOAD DUP1 SWAP2 SUB SWAP1 RETURN JUMPDEST CALLVALUE DUP1 ISZERO PUSH2 0x5B1 JUMPI PUSH0 DUP1 REVERT JUMPDEST POP PUSH2 0x5CC PUSH1 0x4 DUP1 CALLDATASIZE SUB DUP2 ADD SWAP1 PUSH2 0x5C7 SWAP2 SWAP1 PUSH2 0x4C35 JUMP JUMPDEST PUSH2 0x1693 JUMP JUMPDEST PUSH1 0x40 MLOAD PUSH2 0x5D9 SWAP2 SWAP1 PUSH2 0x4C1C JUMP JUMPDEST PUSH1 0x40 MLOAD DUP1 SWAP2 SUB SWAP1 RETURN JUMPDEST CALLVALUE DUP1 ISZERO PUSH2 0x5ED JUMPI PUSH0 DUP1 REVERT JUMPDEST POP PUSH2 0x608 PUSH1 0x4 DUP1 CALLDATASIZE SUB DUP2 ADD SWAP1 PUSH2 0x603 SWAP2 SWAP1 PUSH2 0x4C35 JUMP JUMPDEST PUSH2 0x16AD JUMP JUMPDEST PUSH1 0x40 MLOAD PUSH2 0x615 SWAP2 SWAP1 PUSH2 0x4C1C JUMP JUMPDEST PUSH1 0x40 MLOAD DUP1 SWAP2 SUB SWAP1 RETURN JUMPDEST CALLVALUE DUP1 ISZERO PUSH2 0x629 JUMPI PUSH0 DUP1 REVERT JUMPDEST POP PUSH2 0x644 PUSH1 0x4 DUP1 CALLDATASIZE SUB DUP2 ADD SWAP1 PUSH2 0x63F SWAP2 SWAP1 PUSH2 0x4C35 JUMP JUMPDEST PUSH2 0x16C7 JUMP JUMPDEST PUSH1 0x40 MLOAD PUSH2 0x651 SWAP2 SWAP1 PUSH2 0x4BEB JUMP JUMPDEST PUSH1 0x40 MLOAD DUP1 SWAP2 SUB SWAP1 RETURN JUMPDEST CALLVALUE DUP1 ISZERO PUSH2 0x665 JUMPI PUSH0 DUP1 REVERT JUMPDEST POP PUSH2 0x680 PUSH1 0x4 DUP1 CALLDATASIZE SUB DUP2 ADD SWAP1 PUSH2 0x67B SWAP2 SWAP1 PUSH2 0x4C35 JUMP JUMPDEST PUSH2 0x16ED JUMP JUMPDEST PUSH1 0x40 MLOAD PUSH2 0x68D SWAP2 SWAP1 PUSH2 0x4C1C JUMP JUMPDEST PUSH1 0x40 MLOAD DUP1 SWAP2 SUB SWAP1 RETURN JUMPDEST CALLVALUE DUP1 ISZERO PUSH2 0x6A1 JUMPI PUSH0 DUP1 REVERT JUMPDEST POP PUSH2 0x6BC PUSH1 0x4 DUP1 CALLDATASIZE SUB DUP2 ADD SWAP1 PUSH2 0x6B7 SWAP2 SWAP1 PUSH2 0x4FD8 JUMP JUMPDEST PUSH2 0x1707 JUMP JUMPDEST PUSH1 0x40 MLOAD PUSH2 0x6C9 SWAP2 SWAP1 PUSH2 0x4BEB JUMP JUMPDEST PUSH1 0x40 MLOAD DUP1 SWAP2 SUB SWAP1 RETURN JUMPDEST CALLVALUE DUP1 ISZERO PUSH2 0x6DD JUMPI PUSH0 DUP1 REVERT JUMPDEST POP PUSH2 0x6F8 PUSH1 0x4 DUP1 CALLDATASIZE SUB DUP2 ADD SWAP1 PUSH2 0x6F3 SWAP2 SWAP1 PUSH2 0x4C35 JUMP JUMPDEST PUSH2 0x194A JUMP JUMPDEST PUSH1 0x40 MLOAD PUSH2 0x705 SWAP2 SWAP1 PUSH2 0x4BEB JUMP JUMPDEST PUSH1 0x40 MLOAD DUP1 SWAP2 SUB SWAP1 RETURN JUMPDEST CALLVALUE DUP1 ISZERO PUSH2 0x719 JUMPI PUSH0 DUP1 REVERT JUMPDEST POP PUSH2 0x734 PUSH1 0x4 DUP1 CALLDATASIZE SUB DUP2 ADD SWAP1 PUSH2 0x72F SWAP2 SWAP1 PUSH2 0x4C35 JUMP JUMPDEST PUSH2 0x1AC2 JUMP JUMPDEST PUSH1 0x40 MLOAD PUSH2 0x741 SWAP2 SWAP1 PUSH2 0x4BEB JUMP JUMPDEST PUSH1 0x40 MLOAD DUP1 SWAP2 SUB SWAP1 RETURN JUMPDEST CALLVALUE DUP1 ISZERO PUSH2 0x755 JUMPI PUSH0 DUP1 REVERT JUMPDEST POP PUSH2 0x75E PUSH2 0x1CFD JUMP JUMPDEST PUSH1 0x40 MLOAD PUSH2 0x76B SWAP2 SWAP1 PUSH2 0x4BEB JUMP JUMPDEST PUSH1 0x40 MLOAD DUP1 SWAP2 SUB SWAP1 RETURN JUMPDEST CALLVALUE DUP1 ISZERO PUSH2 0x77F JUMPI PUSH0 DUP1 REVERT JUMPDEST POP PUSH2 0x79A PUSH1 0x4 DUP1 CALLDATASIZE SUB DUP2 ADD SWAP1 PUSH2 0x795 SWAP2 SWAP1 PUSH2 0x4B93 JUMP JUMPDEST PUSH2 0x1E25 JUMP JUMPDEST PUSH1 0x40 MLOAD PUSH2 0x7A7 SWAP2 SWAP1 PUSH2 0x4C1C JUMP JUMPDEST PUSH1 0x40 MLOAD DUP1 SWAP2 SUB SWAP1 RETURN JUMPDEST CALLVALUE DUP1 ISZERO PUSH2 0x7BB JUMPI PUSH0 DUP1 REVERT JUMPDEST POP PUSH2 0x7D6 PUSH1 0x4 DUP1 CALLDATASIZE SUB DUP2 ADD SWAP1 PUSH2 0x7D1 SWAP2 SWAP1 PUSH2 0x4C35 JUMP JUMPDEST PUSH2 0x1E7B JUMP JUMPDEST PUSH1 0x40 MLOAD PUSH2 0x7E3 SWAP2 SWAP1 PUSH2 0x4C1C JUMP JUMPDEST PUSH1 0x40 MLOAD DUP1 SWAP2 SUB SWAP1 RETURN JUMPDEST CALLVALUE DUP1 ISZERO PUSH2 0x7F7 JUMPI PUSH0 DUP1 REVERT JUMPDEST POP PUSH2 0x812 PUSH1 0x4 DUP1 CALLDATASIZE SUB DUP2 ADD SWAP1 PUSH2 0x80D SWAP2 SWAP1 PUSH2 0x4C35 JUMP JUMPDEST PUSH2 0x1E95 JUMP JUMPDEST PUSH1 0x40 MLOAD PUSH2 0x81F SWAP2 SWAP1 PUSH2 0x4BEB JUMP JUMPDEST PUSH1 0x40 MLOAD DUP1 SWAP2 SUB SWAP1 RETURN JUMPDEST CALLVALUE DUP1 ISZERO PUSH2 0x833 JUMPI PUSH0 DUP1 REVERT JUMPDEST POP PUSH2 0x84E PUSH1 0x4 DUP1 CALLDATASIZE SUB DUP2 ADD SWAP1 PUSH2 0x849 SWAP2 SWAP1 PUSH2 0x4F0A JUMP JUMPDEST PUSH2 0x1EBB JUMP JUMPDEST PUSH1 0x40 MLOAD PUSH2 0x85B SWAP2 SWAP1 PUSH2 0x4BEB JUMP JUMPDEST PUSH1 0x40 MLOAD DUP1 SWAP2 SUB SWAP1 RETURN JUMPDEST CALLVALUE DUP1 ISZERO PUSH2 0x86F JUMPI PUSH0 DUP1 REVERT JUMPDEST POP PUSH2 0x88A PUSH1 0x4 DUP1 CALLDATASIZE SUB DUP2 ADD SWAP1 PUSH2 0x885 SWAP2 SWAP1 PUSH2 0x4C35 JUMP JUMPDEST PUSH2 0x2034 JUMP JUMPDEST PUSH1 0x40 MLOAD PUSH2 0x897 SWAP2 SWAP1 PUSH2 0x4BEB JUMP JUMPDEST PUSH1 0x40 MLOAD DUP1 SWAP2 SUB SWAP1 RETURN JUMPDEST CALLVALUE DUP1 ISZERO PUSH2 0x8AB JUMPI PUSH0 DUP1 REVERT JUMPDEST POP PUSH2 0x8C6 PUSH1 0x4 DUP1 CALLDATASIZE SUB DUP2 ADD SWAP1 PUSH2 0x8C1 SWAP2 SWAP1 PUSH2 0x5003 JUMP JUMPDEST PUSH2 0x21AC JUMP JUMPDEST PUSH1 0x40 MLOAD PUSH2 0x8D3 SWAP2 SWAP1 PUSH2 0x4BEB JUMP JUMPDEST PUSH1 0x40 MLOAD DUP1 SWAP2 SUB SWAP1 RETURN JUMPDEST CALLVALUE DUP1 ISZERO PUSH2 0x8E7 JUMPI PUSH0 DUP1 REVERT JUMPDEST POP PUSH2 0x8F0 PUSH2 0x231F JUMP JUMPDEST PUSH1 0x40 MLOAD PUSH2 0x8FD SWAP2 SWAP1 PUSH2 0x4C1C JUMP JUMPDEST PUSH1 0x40 MLOAD DUP1 SWAP2 SUB SWAP1 RETURN JUMPDEST CALLVALUE DUP1 ISZERO PUSH2 0x911 JUMPI PUSH0 DUP1 REVERT JUMPDEST POP PUSH2 0x92C PUSH1 0x4 DUP1 CALLDATASIZE SUB DUP2 ADD SWAP1 PUSH2 0x927 SWAP2 SWAP1 PUSH2 0x4C35 JUMP JUMPDEST PUSH2 0x2327 JUMP JUMPDEST PUSH1 0x40 MLOAD PUSH2 0x939 SWAP2 SWAP1 PUSH2 0x4C1C JUMP JUMPDEST PUSH1 0x40 MLOAD DUP1 SWAP2 SUB SWAP1 RETURN JUMPDEST CALLVALUE DUP1 ISZERO PUSH2 0x94D JUMPI PUSH0 DUP1 REVERT JUMPDEST POP PUSH2 0x956 PUSH2 0x2341 JUMP JUMPDEST PUSH1 0x40 MLOAD PUSH2 0x963 SWAP2 SWAP1 PUSH2 0x4BEB JUMP JUMPDEST PUSH1 0x40 MLOAD DUP1 SWAP2 SUB SWAP1 RETURN JUMPDEST CALLVALUE DUP1 ISZERO PUSH2 0x977 JUMPI PUSH0 DUP1 REVERT JUMPDEST POP PUSH2 0x980 PUSH2 0x23DF JUMP JUMPDEST PUSH1 0x40 MLOAD PUSH2 0x98D SWAP2 SWAP1 PUSH2 0x505C JUMP JUMPDEST PUSH1 0x40 MLOAD DUP1 SWAP2 SUB SWAP1 RETURN JUMPDEST CALLVALUE DUP1 ISZERO PUSH2 0x9A1 JUMPI PUSH0 DUP1 REVERT JUMPDEST POP PUSH2 0x9AA PUSH2 0x23F4 JUMP JUMPDEST PUSH1 0x40 MLOAD PUSH2 0x9B7 SWAP2 SWAP1 PUSH2 0x4BEB JUMP JUMPDEST PUSH1 0x40 MLOAD DUP1 SWAP2 SUB SWAP1 RETURN JUMPDEST CALLVALUE DUP1 ISZERO PUSH2 0x9CB JUMPI PUSH0 DUP1 REVERT JUMPDEST POP PUSH2 0x9E6 PUSH1 0x4 DUP1 CALLDATASIZE SUB DUP2 ADD SWAP1 PUSH2 0x9E1 SWAP2 SWAP1 PUSH2 0x4C35 JUMP JUMPDEST PUSH2 0x2450 JUMP JUMPDEST PUSH1 0x40 MLOAD PUSH2 0x9F3 SWAP2 SWAP1 PUSH2 0x4BEB JUMP JUMPDEST PUSH1 0x40 MLOAD DUP1 SWAP2 SUB SWAP1 RETURN JUMPDEST CALLVALUE DUP1 ISZERO PUSH2 0xA07 JUMPI PUSH0 DUP1 REVERT JUMPDEST POP PUSH2 0xA22 PUSH1 0x4 DUP1 CALLDATASIZE SUB DUP2 ADD SWAP1 PUSH2 0xA1D SWAP2 SWAP1 PUSH2 0x4FD8 JUMP JUMPDEST PUSH2 0x2476 JUMP JUMPDEST PUSH1 0x40 MLOAD PUSH2 0xA2F SWAP2 SWAP1 PUSH2 0x4BEB JUMP JUMPDEST PUSH1 0x40 MLOAD DUP1 SWAP2 SUB SWAP1 RETURN JUMPDEST CALLVALUE DUP1 ISZERO PUSH2 0xA43 JUMPI PUSH0 DUP1 REVERT JUMPDEST POP PUSH2 0xA4C PUSH2 0x24C8 JUMP JUMPDEST PUSH1 0x40 MLOAD PUSH2 0xA59 SWAP2 SWAP1 PUSH2 0x4BEB JUMP JUMPDEST PUSH1 0x40 MLOAD DUP1 SWAP2 SUB SWAP1 RETURN JUMPDEST CALLVALUE DUP1 ISZERO PUSH2 0xA6D JUMPI PUSH0 DUP1 REVERT JUMPDEST POP PUSH2 0xA88 PUSH1 0x4 DUP1 CALLDATASIZE SUB DUP2 ADD SWAP1 PUSH2 0xA83 SWAP2 SWAP1 PUSH2 0x5125 JUMP JUMPDEST PUSH2 0x26C3 JUMP JUMPDEST PUSH1 0x40 MLOAD PUSH2 0xA95 SWAP2 SWAP1 PUSH2 0x4BEB JUMP JUMPDEST PUSH1 0x40 MLOAD DUP1 SWAP2 SUB SWAP1 RETURN JUMPDEST CALLVALUE DUP1 ISZERO PUSH2 0xAA9 JUMPI PUSH0 DUP1 REVERT JUMPDEST POP PUSH2 0xAC4 PUSH1 0x4 DUP1 CALLDATASIZE SUB DUP2 ADD SWAP1 PUSH2 0xABF SWAP2 SWAP1 PUSH2 0x4C35 JUMP JUMPDEST PUSH2 0x2B1B JUMP JUMPDEST PUSH1 0x40 MLOAD PUSH2 0xAD1 SWAP2 SWAP1 PUSH2 0x4C1C JUMP JUMPDEST PUSH1 0x40 MLOAD DUP1 SWAP2 SUB SWAP1 RETURN JUMPDEST CALLVALUE DUP1 ISZERO PUSH2 0xAE5 JUMPI PUSH0 DUP1 REVERT JUMPDEST POP PUSH2 0xAEE PUSH2 0x2B35 JUMP JUMPDEST PUSH1 0x40 MLOAD PUSH2 0xAFB SWAP2 SWAP1 PUSH2 0x523D JUMP JUMPDEST PUSH1 0x40 MLOAD DUP1 SWAP2 SUB SWAP1 RETURN JUMPDEST CALLVALUE DUP1 ISZERO PUSH2 0xB0F JUMPI PUSH0 DUP1 REVERT JUMPDEST POP PUSH2 0xB18 PUSH2 0x2B5D JUMP JUMPDEST PUSH1 0x40 MLOAD PUSH2 0xB25 SWAP2 SWAP1 PUSH2 0x4C1C JUMP JUMPDEST PUSH1 0x40 MLOAD DUP1 SWAP2 SUB SWAP1 RETURN JUMPDEST CALLVALUE DUP1 ISZERO PUSH2 0xB39 JUMPI PUSH0 DUP1 REVERT JUMPDEST POP PUSH2 0xB54 PUSH1 0x4 DUP1 CALLDATASIZE SUB DUP2 ADD SWAP1 PUSH2 0xB4F SWAP2 SWAP1 PUSH2 0x4C35 JUMP JUMPDEST PUSH2 0x2B66 JUMP JUMPDEST PUSH1 0x40 MLOAD PUSH2 0xB61 SWAP2 SWAP1 PUSH2 0x4BEB JUMP JUMPDEST PUSH1 0x40 MLOAD DUP1 SWAP2 SUB SWAP1 RETURN JUMPDEST PUSH2 0xB84 PUSH1 0x4 DUP1 CALLDATASIZE SUB DUP2 ADD SWAP1 PUSH2 0xB7F SWAP2 SWAP1 PUSH2 0x4C35 JUMP JUMPDEST PUSH2 0x2B8C JUMP JUMPDEST PUSH1 0x40 MLOAD PUSH2 0xB91 SWAP2 SWAP1 PUSH2 0x4BEB JUMP JUMPDEST PUSH1 0x40 MLOAD DUP1 SWAP2 SUB SWAP1 RETURN JUMPDEST CALLVALUE DUP1 ISZERO PUSH2 0xBA5 JUMPI PUSH0 DUP1 REVERT JUMPDEST POP PUSH2 0xBC0 PUSH1 0x4 DUP1 CALLDATASIZE SUB DUP2 ADD SWAP1 PUSH2 0xBBB SWAP2 SWAP1 PUSH2 0x4C35 JUMP JUMPDEST PUSH2 0x310C JUMP JUMPDEST PUSH1 0x40 MLOAD PUSH2 0xBCD SWAP2 SWAP1 PUSH2 0x4BEB JUMP JUMPDEST PUSH1 0x40 MLOAD DUP1 SWAP2 SUB SWAP1 RETURN JUMPDEST CALLVALUE DUP1 ISZERO PUSH2 0xBE1 JUMPI PUSH0 DUP1 REVERT JUMPDEST POP PUSH2 0xBFC PUSH1 0x4 DUP1 CALLDATASIZE SUB DUP2 ADD SWAP1 PUSH2 0xBF7 SWAP2 SWAP1 PUSH2 0x4C35 JUMP JUMPDEST PUSH2 0x3132 JUMP JUMPDEST PUSH1 0x40 MLOAD PUSH2 0xC09 SWAP2 SWAP1 PUSH2 0x4BEB JUMP JUMPDEST PUSH1 0x40 MLOAD DUP1 SWAP2 SUB SWAP1 RETURN JUMPDEST CALLVALUE DUP1 ISZERO PUSH2 0xC1D JUMPI PUSH0 DUP1 REVERT JUMPDEST POP PUSH2 0xC26 PUSH2 0x3158 JUMP JUMPDEST PUSH1 0x40 MLOAD PUSH2 0xC33 SWAP2 SWAP1 PUSH2 0x4BEB JUMP JUMPDEST PUSH1 0x40 MLOAD DUP1 SWAP2 SUB SWAP1 RETURN JUMPDEST CALLVALUE DUP1 ISZERO PUSH2 0xC47 JUMPI PUSH0 DUP1 REVERT JUMPDEST POP PUSH2 0xC62 PUSH1 0x4 DUP1 CALLDATASIZE SUB DUP2 ADD SWAP1 PUSH2 0xC5D SWAP2 SWAP1 PUSH2 0x4C35 JUMP JUMPDEST PUSH2 0x3249 JUMP JUMPDEST PUSH1 0x40 MLOAD PUSH2 0xC6F SWAP2 SWAP1 PUSH2 0x4C1C JUMP JUMPDEST PUSH1 0x40 MLOAD DUP1 SWAP2 SUB SWAP1 RETURN JUMPDEST CALLVALUE DUP1 ISZERO PUSH2 0xC83 JUMPI PUSH0 DUP1 REVERT JUMPDEST POP PUSH2 0xC8C PUSH2 0x3263 JUMP JUMPDEST PUSH1 0x40 MLOAD PUSH2 0xC99 SWAP2 SWAP1 PUSH2 0x4BEB JUMP JUMPDEST PUSH1 0x40 MLOAD DUP1 SWAP2 SUB SWAP1 RETURN JUMPDEST CALLVALUE DUP1 ISZERO PUSH2 0xCAD JUMPI PUSH0 DUP1 REVERT JUMPDEST POP PUSH2 0xCC8 PUSH1 0x4 DUP1 CALLDATASIZE SUB DUP2 ADD SWAP1 PUSH2 0xCC3 SWAP2 SWAP1 PUSH2 0x4C35 JUMP JUMPDEST PUSH2 0x3330 JUMP JUMPDEST PUSH1 0x40 MLOAD PUSH2 0xCD5 SWAP2 SWAP1 PUSH2 0x523D JUMP JUMPDEST PUSH1 0x40 MLOAD DUP1 SWAP2 SUB SWAP1 RETURN JUMPDEST CALLVALUE DUP1 ISZERO PUSH2 0xCE9 JUMPI PUSH0 DUP1 REVERT JUMPDEST POP PUSH2 0xCF2 PUSH2 0x3369 JUMP JUMPDEST PUSH1 0x40 MLOAD PUSH2 0xCFF SWAP2 SWAP1 PUSH2 0x4BEB JUMP JUMPDEST PUSH1 0x40 MLOAD DUP1 SWAP2 SUB SWAP1 RETURN JUMPDEST CALLVALUE DUP1 ISZERO PUSH2 0xD13 JUMPI PUSH0 DUP1 REVERT JUMPDEST POP PUSH2 0xD2E PUSH1 0x4 DUP1 CALLDATASIZE SUB DUP2 ADD SWAP1 PUSH2 0xD29 SWAP2 SWAP1 PUSH2 0x4C35 JUMP JUMPDEST PUSH2 0x337E JUMP JUMPDEST PUSH1 0x40 MLOAD PUSH2 0xD3B SWAP2 SWAP1 PUSH2 0x4C1C JUMP JUMPDEST PUSH1 0x40 MLOAD DUP1 SWAP2 SUB SWAP1 RETURN JUMPDEST CALLVALUE DUP1 ISZERO PUSH2 0xD4F JUMPI PUSH0 DUP1 REVERT JUMPDEST POP PUSH2 0xD6A PUSH1 0x4 DUP1 CALLDATASIZE SUB DUP2 ADD SWAP1 PUSH2 0xD65 SWAP2 SWAP1 PUSH2 0x4B93 JUMP JUMPDEST PUSH2 0x3398 JUMP JUMPDEST PUSH1 0x40 MLOAD PUSH2 0xD77 SWAP2 SWAP1 PUSH2 0x4BEB JUMP JUMPDEST PUSH1 0x40 MLOAD DUP1 SWAP2 SUB SWAP1 RETURN JUMPDEST CALLVALUE DUP1 ISZERO PUSH2 0xD8B JUMPI PUSH0 DUP1 REVERT JUMPDEST POP PUSH2 0xDA6 PUSH1 0x4 DUP1 CALLDATASIZE SUB DUP2 ADD SWAP1 PUSH2 0xDA1 SWAP2 SWAP1 PUSH2 0x4C35 JUMP JUMPDEST PUSH2 0x33FA JUMP JUMPDEST PUSH1 0x40 MLOAD PUSH2 0xDB3 SWAP2 SWAP1 PUSH2 0x52B6 JUMP JUMPDEST PUSH1 0x40 MLOAD DUP1 SWAP2 SUB SWAP1 RETURN JUMPDEST CALLVALUE DUP1 ISZERO PUSH2 0xDC7 JUMPI PUSH0 DUP1 REVERT JUMPDEST POP PUSH2 0xDE2 PUSH1 0x4 DUP1 CALLDATASIZE SUB DUP2 ADD SWAP1 PUSH2 0xDDD SWAP2 SWAP1 PUSH2 0x4C35 JUMP JUMPDEST PUSH2 0x349B JUMP JUMPDEST PUSH1 0x40 MLOAD PUSH2 0xDEF SWAP2 SWAP1 PUSH2 0x4C1C JUMP JUMPDEST PUSH1 0x40 MLOAD DUP1 SWAP2 SUB SWAP1 RETURN JUMPDEST CALLVALUE DUP1 ISZERO PUSH2 0xE03 JUMPI PUSH0 DUP1 REVERT JUMPDEST POP PUSH2 0xE1E PUSH1 0x4 DUP1 CALLDATASIZE SUB DUP2 ADD SWAP1 PUSH2 0xE19 SWAP2 SWAP1 PUSH2 0x4FD8 JUMP JUMPDEST PUSH2 0x34B5 JUMP JUMPDEST PUSH1 0x40 MLOAD PUSH2 0xE2B SWAP2 SWAP1 PUSH2 0x4BEB JUMP JUMPDEST PUSH1 0x40 MLOAD DUP1 SWAP2 SUB SWAP1 RETURN JUMPDEST CALLVALUE DUP1 ISZERO PUSH2 0xE3F JUMPI PUSH0 DUP1 REVERT JUMPDEST POP PUSH2 0xE48 PUSH2 0x3507 JUMP JUMPDEST PUSH1 0x40 MLOAD PUSH2 0xE55 SWAP2 SWAP1 PUSH2 0x4BEB JUMP JUMPDEST PUSH1 0x40 MLOAD DUP1 SWAP2 SUB SWAP1 RETURN JUMPDEST CALLVALUE DUP1 ISZERO PUSH2 0xE69 JUMPI PUSH0 DUP1 REVERT JUMPDEST POP PUSH2 0xE84 PUSH1 0x4 DUP1 CALLDATASIZE SUB DUP2 ADD SWAP1 PUSH2 0xE7F SWAP2 SWAP1 PUSH2 0x4C35 JUMP JUMPDEST PUSH2 0x35D3 JUMP JUMPDEST PUSH1 0x40 MLOAD PUSH2 0xE91 SWAP2 SWAP1 PUSH2 0x4BEB JUMP JUMPDEST PUSH1 0x40 MLOAD DUP1 SWAP2 SUB SWAP1 RETURN JUMPDEST CALLVALUE DUP1 ISZERO PUSH2 0xEA5 JUMPI PUSH0 DUP1 REVERT JUMPDEST POP PUSH2 0xEAE PUSH2 0x374B JUMP JUMPDEST PUSH1 0x40 MLOAD PUSH2 0xEBB SWAP2 SWAP1 PUSH2 0x523D JUMP JUMPDEST PUSH1 0x40 MLOAD DUP1 SWAP2 SUB SWAP1 RETURN JUMPDEST PUSH2 0xEDE PUSH1 0x4 DUP1 CALLDATASIZE SUB DUP2 ADD SWAP1 PUSH2 0xED9 SWAP2 SWAP1 PUSH2 0x4C35 JUMP JUMPDEST PUSH2 0x3773 JUMP JUMPDEST PUSH1 0x40 MLOAD PUSH2 0xEEB SWAP2 SWAP1 PUSH2 0x4BEB JUMP JUMPDEST PUSH1 0x40 MLOAD DUP1 SWAP2 SUB SWAP1 RETURN JUMPDEST CALLVALUE DUP1 ISZERO PUSH2 0xEFF JUMPI PUSH0 DUP1 REVERT JUMPDEST POP PUSH2 0xF08 PUSH2 0x38DB JUMP JUMPDEST PUSH1 0x40 MLOAD PUSH2 0xF15 SWAP2 SWAP1 PUSH2 0x4BEB JUMP JUMPDEST PUSH1 0x40 MLOAD DUP1 SWAP2 SUB SWAP1 RETURN JUMPDEST CALLVALUE DUP1 ISZERO PUSH2 0xF29 JUMPI PUSH0 DUP1 REVERT JUMPDEST POP PUSH2 0xF44 PUSH1 0x4 DUP1 CALLDATASIZE SUB DUP2 ADD SWAP1 PUSH2 0xF3F SWAP2 SWAP1 PUSH2 0x4FD8 JUMP JUMPDEST PUSH2 0x397C JUMP JUMPDEST PUSH1 0x40 MLOAD PUSH2 0xF51 SWAP2 SWAP1 PUSH2 0x4BEB JUMP JUMPDEST PUSH1 0x40 MLOAD DUP1 SWAP2 SUB SWAP1 RETURN JUMPDEST CALLVALUE DUP1 ISZERO PUSH2 0xF65 JUMPI PUSH0 DUP1 REVERT JUMPDEST POP PUSH2 0xF80 PUSH1 0x4 DUP1 CALLDATASIZE SUB DUP2 ADD SWAP1 PUSH2 0xF7B SWAP2 SWAP1 PUSH2 0x4B93 JUMP JUMPDEST PUSH2 0x3CCC JUMP JUMPDEST PUSH1 0x40 MLOAD PUSH2 0xF8D SWAP2 SWAP1 PUSH2 0x4BEB JUMP JUMPDEST PUSH1 0x40 MLOAD DUP1 SWAP2 SUB SWAP1 RETURN JUMPDEST CALLVALUE DUP1 ISZERO PUSH2 0xFA1 JUMPI PUSH0 DUP1 REVERT JUMPDEST POP PUSH2 0xFBC PUSH1 0x4 DUP1 CALLDATASIZE SUB DUP2 ADD SWAP1 PUSH2 0xFB7 SWAP2 SWAP1 PUSH2 0x4C35 JUMP JUMPDEST PUSH2 0x3D2E JUMP JUMPDEST PUSH1 0x40 MLOAD PUSH2 0xFC9 SWAP2 SWAP1 PUSH2 0x4BEB JUMP JUMPDEST PUSH1 0x40 MLOAD DUP1 SWAP2 SUB SWAP1 RETURN JUMPDEST PUSH0 PUSH1 0x16 PUSH0 DUP5 DUP2 MSTORE PUSH1 0x20 ADD SWAP1 DUP2 MSTORE PUSH1 0x20 ADD PUSH0 KECCAK256 PUSH0 DUP4 PUSH20 0xFFFFFFFFFFFFFFFFFFFFFFFFFFFFFFFFFFFFFFFF AND PUSH20 0xFFFFFFFFFFFFFFFFFFFFFFFFFFFFFFFFFFFFFFFF AND DUP2 MSTORE PUSH1 0x20 ADD SWAP1 DUP2 MSTORE PUSH1 0x20 ADD PUSH0 KECCAK256 PUSH0 SWAP1 SLOAD SWAP1 PUSH2 0x100 EXP SWAP1 DIV PUSH1 0xFF AND SWAP1 POP SWAP3 SWAP2 POP POP JUMP JUMPDEST PUSH0 PUSH2 0x103D PUSH2 0x2B35 JUMP JUMPDEST PUSH20 0xFFFFFFFFFFFFFFFFFFFFFFFFFFFFFFFFFFFFFFFF AND CALLER PUSH20 0xFFFFFFFFFFFFFFFFFFFFFFFFFFFFFFFFFFFFFFFF AND EQ PUSH2 0x10AA JUMPI PUSH1 0x40 MLOAD PUSH32 0x8C379A000000000000000000000000000000000000000000000000000000000 DUP2 MSTORE PUSH1 0x4 ADD PUSH2 0x10A1 SWAP1 PUSH2 0x5320 JUMP JUMPDEST PUSH1 0x40 MLOAD DUP1 SWAP2 SUB SWAP1 REVERT JUMPDEST TIMESTAMP PUSH0 PUSH2 0x10B4 PUSH2 0x231F JUMP JUMPDEST GT PUSH2 0x10F4 JUMPI PUSH1 0x40 MLOAD PUSH32 0x8C379A000000000000000000000000000000000000000000000000000000000 DUP2 MSTORE PUSH1 0x4 ADD PUSH2 0x10EB SWAP1 PUSH2 0x5388 JUMP JUMPDEST PUSH1 0x40 MLOAD DUP1 SWAP2 SUB SWAP1 REVERT JUMPDEST PUSH3 0xD2F00 PUSH2 0x1100 PUSH2 0x231F JUMP JUMPDEST PUSH2 0x110A SWAP2 SWAP1 PUSH2 0x53D3 JUMP JUMPDEST DUP2 LT ISZERO PUSH2 0x114C JUMPI PUSH1 0x40 MLOAD PUSH32 0x8C379A000000000000000000000000000000000000000000000000000000000 DUP2 MSTORE PUSH1 0x4 ADD PUSH2 0x1143 SWAP1 PUSH2 0x5450 JUMP JUMPDEST PUSH1 0x40 MLOAD DUP1 SWAP2 SUB SWAP1 REVERT JUMPDEST PUSH3 0x15180 PUSH3 0xD2F00 PUSH2 0x115C PUSH2 0x231F JUMP JUMPDEST PUSH2 0x1166 SWAP2 SWAP1 PUSH2 0x53D3 JUMP JUMPDEST PUSH2 0x1170 SWAP2 SWAP1 PUSH2 0x53D3 JUMP JUMPDEST DUP2 GT ISZERO PUSH2 0x11B2 JUMPI PUSH1 0x40 MLOAD PUSH32 0x8C379A000000000000000000000000000000000000000000000000000000000 DUP2 MSTORE PUSH1 0x4 ADD PUSH2 0x11A9 SWAP1 PUSH2 0x54B8 JUMP JUMPDEST PUSH1 0x40 MLOAD DUP1 SWAP2 SUB SWAP1 REVERT JUMPDEST PUSH1 0x5 PUSH1 0xFF AND PUSH2 0x11BF PUSH2 0x23DF JUMP JUMPDEST PUSH1 0xFF AND LT ISZERO PUSH2 0x1203 JUMPI PUSH1 0x40 MLOAD PUSH32 0x8C379A000000000000000000000000000000000000000000000000000000000 DUP2 MSTORE PUSH1 0x4 ADD PUSH2 0x11FA SWAP1 PUSH2 0x5520 JUMP JUMPDEST PUSH1 0x40 MLOAD DUP1 SWAP2 SUB SWAP1 REVERT JUMPDEST PUSH2 0x120B PUSH2 0x2B5D JUMP JUMPDEST TIMESTAMP GT ISZERO PUSH2 0x124D JUMPI PUSH1 0x40 MLOAD PUSH32 0x8C379A000000000000000000000000000000000000000000000000000000000 DUP2 MSTORE PUSH1 0x4 ADD PUSH2 0x1244 SWAP1 PUSH2 0x5588 JUMP JUMPDEST PUSH1 0x40 MLOAD DUP1 SWAP2 SUB SWAP1 REVERT JUMPDEST PUSH2 0x1255 PUSH2 0x167D JUMP JUMPDEST ISZERO PUSH2 0x125E JUMPI PUSH0 DUP1 REVERT JUMPDEST PUSH1 0x1 PUSH1 0xD PUSH1 0x14 PUSH2 0x100 EXP DUP2 SLOAD DUP2 PUSH1 0xFF MUL NOT AND SWAP1 DUP4 ISZERO ISZERO MUL OR SWAP1 SSTORE POP PUSH2 0x1281 PUSH2 0x2B35 JUMP JUMPDEST PUSH20 0xFFFFFFFFFFFFFFFFFFFFFFFFFFFFFFFFFFFFFFFF AND PUSH32 0x77019A1C4957E53FA06C71F760438F9267F6840293CDDAC381CCB7931E3C4A62 PUSH1 0x40 MLOAD PUSH1 0x40 MLOAD DUP1 SWAP2 SUB SWAP1 LOG2 PUSH1 0x1 SWAP2 POP PUSH2 0x12CF PUSH2 0x42D0 JUMP JUMPDEST PUSH2 0x12D7 PUSH2 0x43B9 JUMP JUMPDEST POP SWAP1 JUMP JUMPDEST PUSH0 PUSH1 0x13 PUSH0 DUP5 DUP2 MSTORE PUSH1 0x20 ADD SWAP1 DUP2 MSTORE PUSH1 0x20 ADD PUSH0 KECCAK256 PUSH0 DUP4 PUSH20 0xFFFFFFFFFFFFFFFFFFFFFFFFFFFFFFFFFFFFFFFF AND PUSH20 0xFFFFFFFFFFFFFFFFFFFFFFFFFFFFFFFFFFFFFFFF AND DUP2 MSTORE PUSH1 0x20 ADD SWAP1 DUP2 MSTORE PUSH1 0x20 ADD PUSH0 KECCAK256 PUSH0 SWAP1 SLOAD SWAP1 PUSH2 0x100 EXP SWAP1 DIV PUSH1 0xFF AND SWAP1 POP SWAP3 SWAP2 POP POP JUMP JUMPDEST PUSH0 SELFBALANCE SWAP1 POP SWAP1 JUMP JUMPDEST PUSH0 PUSH2 0x134D PUSH2 0x2B35 JUMP JUMPDEST PUSH20 0xFFFFFFFFFFFFFFFFFFFFFFFFFFFFFFFFFFFFFFFF AND CALLER PUSH20 0xFFFFFFFFFFFFFFFFFFFFFFFFFFFFFFFFFFFFFFFF AND SUB PUSH2 0x1383 JUMPI PUSH0 DUP1 REVERT JUMPDEST DUP2 PUSH2 0x138D DUP2 PUSH2 0x2450 JUMP JUMPDEST PUSH2 0x13CC JUMPI PUSH1 0x40 MLOAD PUSH32 0x8C379A000000000000000000000000000000000000000000000000000000000 DUP2 MSTORE PUSH1 0x4 ADD PUSH2 0x13C3 SWAP1 PUSH2 0x55F0 JUMP JUMPDEST PUSH1 0x40 MLOAD DUP1 SWAP2 SUB SWAP1 REVERT JUMPDEST PUSH2 0x13D5 DUP4 PUSH2 0x3132 JUMP JUMPDEST DUP1 PUSH2 0x13E7 JUMPI POP PUSH2 0x13E4 DUP4 PUSH2 0x16AD JUMP JUMPDEST NUMBER GT JUMPDEST PUSH2 0x13EF JUMPI PUSH0 DUP1 REVERT JUMPDEST PUSH0 PUSH2 0x13F9 DUP5 PUSH2 0x16ED JUMP JUMPDEST GT PUSH2 0x1402 JUMPI PUSH0 DUP1 REVERT JUMPDEST PUSH2 0x140C DUP4 CALLER PUSH2 0x3398 JUMP JUMPDEST PUSH2 0x1414 JUMPI PUSH0 DUP1 REVERT JUMPDEST PUSH2 0x141E DUP4 CALLER PUSH2 0xFD2 JUMP JUMPDEST ISZERO PUSH2 0x1427 JUMPI PUSH0 DUP1 REVERT JUMPDEST CALLER PUSH20 0xFFFFFFFFFFFFFFFFFFFFFFFFFFFFFFFFFFFFFFFF AND PUSH2 0x8FC PUSH2 0x144A DUP6 PUSH2 0x16ED JUMP JUMPDEST SWAP1 DUP2 ISZERO MUL SWAP1 PUSH1 0x40 MLOAD PUSH0 PUSH1 0x40 MLOAD DUP1 DUP4 SUB DUP2 DUP6 DUP9 DUP9 CALL SWAP4 POP POP POP POP ISZERO PUSH2 0x147A JUMPI PUSH2 0x1471 DUP4 PUSH2 0x43EA JUMP JUMPDEST PUSH1 0x1 SWAP2 POP PUSH2 0x147E JUMP JUMPDEST PUSH0 DUP1 REVERT JUMPDEST POP SWAP2 SWAP1 POP JUMP JUMPDEST PUSH0 PUSH32 0x150B7A023D4804D13E8C85FB27262CB750CF6BA9F9DD3BB30D90F482CEEB4B1F SWAP1 POP SWAP6 SWAP5 POP POP POP POP POP JUMP JUMPDEST PUSH0 PUSH2 0x14BA PUSH2 0x2B35 JUMP JUMPDEST PUSH20 0xFFFFFFFFFFFFFFFFFFFFFFFFFFFFFFFFFFFFFFFF AND CALLER PUSH20 0xFFFFFFFFFFFFFFFFFFFFFFFFFFFFFFFFFFFFFFFF AND EQ PUSH2 0x1527 JUMPI PUSH1 0x40 MLOAD PUSH32 0x8C379A000000000000000000000000000000000000000000000000000000000 DUP2 MSTORE PUSH1 0x4 ADD PUSH2 0x151E SWAP1 PUSH2 0x5320 JUMP JUMPDEST PUSH1 0x40 MLOAD DUP1 SWAP2 SUB SWAP1 REVERT JUMPDEST PUSH2 0x152F PUSH2 0x3369 JUMP JUMPDEST ISZERO PUSH2 0x156F JUMPI PUSH1 0x40 MLOAD PUSH32 0x8C379A000000000000000000000000000000000000000000000000000000000 DUP2 MSTORE PUSH1 0x4 ADD PUSH2 0x1566 SWAP1 PUSH2 0x5658 JUMP JUMPDEST PUSH1 0x40 MLOAD DUP1 SWAP2 SUB SWAP1 REVERT JUMPDEST DUP3 PUSH2 0x1579 DUP2 PUSH2 0x2450 JUMP JUMPDEST PUSH2 0x15B8 JUMPI PUSH1 0x40 MLOAD PUSH32 0x8C379A000000000000000000000000000000000000000000000000000000000 DUP2 MSTORE PUSH1 0x4 ADD PUSH2 0x15AF SWAP1 PUSH2 0x55F0 JUMP JUMPDEST PUSH1 0x40 MLOAD DUP1 SWAP2 SUB SWAP1 REVERT JUMPDEST DUP4 PUSH2 0x15C2 DUP2 PUSH2 0x1693 JUMP JUMPDEST NUMBER LT PUSH2 0x1603 JUMPI PUSH1 0x40 MLOAD PUSH32 0x8C379A000000000000000000000000000000000000000000000000000000000 DUP2 MSTORE PUSH1 0x4 ADD PUSH2 0x15FA SWAP1 PUSH2 0x56C0 JUMP JUMPDEST PUSH1 0x40 MLOAD DUP1 SWAP2 SUB SWAP1 REVERT JUMPDEST PUSH2 0x160C DUP6 PUSH2 0x16C7 JUMP JUMPDEST PUSH2 0x1614 JUMPI PUSH0 DUP1 REVERT JUMPDEST PUSH2 0x161E DUP6 DUP6 PUSH2 0x4493 JUMP JUMPDEST PUSH1 0x1 SWAP3 POP POP POP SWAP3 SWAP2 POP POP JUMP JUMPDEST PUSH0 PUSH1 0x24 PUSH0 DUP4 DUP2 MSTORE PUSH1 0x20 ADD SWAP1 DUP2 MSTORE PUSH1 0x20 ADD PUSH0 KECCAK256 PUSH0 SWAP1 SLOAD SWAP1 PUSH2 0x100 EXP SWAP1 DIV PUSH20 0xFFFFFFFFFFFFFFFFFFFFFFFFFFFFFFFFFFFFFFFF AND SWAP1 POP SWAP2 SWAP1 POP JUMP JUMPDEST PUSH0 PUSH1 0x22 PUSH0 DUP4 DUP2 MSTORE PUSH1 0x20 ADD SWAP1 DUP2 MSTORE PUSH1 0x20 ADD PUSH0 KECCAK256 SLOAD SWAP1 POP SWAP2 SWAP1 POP JUMP JUMPDEST PUSH0 PUSH1 0xD PUSH1 0x14 SWAP1 SLOAD SWAP1 PUSH2 0x100 EXP SWAP1 DIV PUSH1 0xFF AND SWAP1 POP SWAP1 JUMP JUMPDEST PUSH0 PUSH1 0x1C PUSH0 DUP4 DUP2 MSTORE PUSH1 0x20 ADD SWAP1 DUP2 MSTORE PUSH1 0x20 ADD PUSH0 KECCAK256 SLOAD SWAP1 POP SWAP2 SWAP1 POP JUMP JUMPDEST PUSH0 PUSH1 0x1D PUSH0 DUP4 DUP2 MSTORE PUSH1 0x20 ADD SWAP1 DUP2 MSTORE PUSH1 0x20 ADD PUSH0 KECCAK256 SLOAD SWAP1 POP SWAP2 SWAP1 POP JUMP JUMPDEST PUSH0 PUSH1 0x12 PUSH0 DUP4 DUP2 MSTORE PUSH1 0x20 ADD SWAP1 DUP2 MSTORE PUSH1 0x20 ADD PUSH0 KECCAK256 PUSH0 SWAP1 SLOAD SWAP1 PUSH2 0x100 EXP SWAP1 DIV PUSH1 0xFF AND SWAP1 POP SWAP2 SWAP1 POP JUMP JUMPDEST PUSH0 PUSH1 0x14 PUSH0 DUP4 DUP2 MSTORE PUSH1 0x20 ADD SWAP1 DUP2 MSTORE PUSH1 0x20 ADD PUSH0 KECCAK256 SLOAD SWAP1 POP SWAP2 SWAP1 POP JUMP JUMPDEST PUSH0 PUSH2 0x1711 CALLER PUSH2 0x2476 JUMP JUMPDEST PUSH2 0x1750 JUMPI PUSH1 0x40 MLOAD PUSH32 0x8C379A000000000000000000000000000000000000000000000000000000000 DUP2 MSTORE PUSH1 0x4 ADD PUSH2 0x1747 SWAP1 PUSH2 0x5728 JUMP JUMPDEST PUSH1 0x40 MLOAD DUP1 SWAP2 SUB SWAP1 REVERT JUMPDEST TIMESTAMP PUSH0 PUSH2 0x175A PUSH2 0x231F JUMP JUMPDEST GT PUSH2 0x179A JUMPI PUSH1 0x40 MLOAD PUSH32 0x8C379A000000000000000000000000000000000000000000000000000000000 DUP2 MSTORE PUSH1 0x4 ADD PUSH2 0x1791 SWAP1 PUSH2 0x5388 JUMP JUMPDEST PUSH1 0x40 MLOAD DUP1 SWAP2 SUB SWAP1 REVERT JUMPDEST PUSH3 0xD2F00 PUSH2 0x17A6 PUSH2 0x231F JUMP JUMPDEST PUSH2 0x17B0 SWAP2 SWAP1 PUSH2 0x53D3 JUMP JUMPDEST DUP2 LT ISZERO PUSH2 0x17F2 JUMPI PUSH1 0x40 MLOAD PUSH32 0x8C379A000000000000000000000000000000000000000000000000000000000 DUP2 MSTORE PUSH1 0x4 ADD PUSH2 0x17E9 SWAP1 PUSH2 0x5450 JUMP JUMPDEST PUSH1 0x40 MLOAD DUP1 SWAP2 SUB SWAP1 REVERT JUMPDEST PUSH3 0x15180 PUSH3 0xD2F00 PUSH2 0x1802 PUSH2 0x231F JUMP JUMPDEST PUSH2 0x180C SWAP2 SWAP1 PUSH2 0x53D3 JUMP JUMPDEST PUSH2 0x1816 SWAP2 SWAP1 PUSH2 0x53D3 JUMP JUMPDEST DUP2 GT ISZERO PUSH2 0x1858 JUMPI PUSH1 0x40 MLOAD PUSH32 0x8C379A000000000000000000000000000000000000000000000000000000000 DUP2 MSTORE PUSH1 0x4 ADD PUSH2 0x184F SWAP1 PUSH2 0x54B8 JUMP JUMPDEST PUSH1 0x40 MLOAD DUP1 SWAP2 SUB SWAP1 REVERT JUMPDEST PUSH1 0x5 PUSH1 0xFF AND PUSH2 0x1865 PUSH2 0x23DF JUMP JUMPDEST PUSH1 0xFF AND LT ISZERO PUSH2 0x18A9 JUMPI PUSH1 0x40 MLOAD PUSH32 0x8C379A000000000000000000000000000000000000000000000000000000000 DUP2 MSTORE PUSH1 0x4 ADD PUSH2 0x18A0 SWAP1 PUSH2 0x5520 JUMP JUMPDEST PUSH1 0x40 MLOAD DUP1 SWAP2 SUB SWAP1 REVERT JUMPDEST PUSH2 0x18B1 PUSH2 0x2B5D JUMP JUMPDEST TIMESTAMP GT ISZERO PUSH2 0x18F3 JUMPI PUSH1 0x40 MLOAD PUSH32 0x8C379A000000000000000000000000000000000000000000000000000000000 DUP2 MSTORE PUSH1 0x4 ADD PUSH2 0x18EA SWAP1 PUSH2 0x5588 JUMP JUMPDEST PUSH1 0x40 MLOAD DUP1 SWAP2 SUB SWAP1 REVERT JUMPDEST PUSH2 0x18FC DUP4 PUSH2 0x455B JUMP JUMPDEST PUSH2 0x1904 PUSH2 0x4604 JUMP JUMPDEST PUSH32 0xCF1811E93419AC2D91EB469E1BD91A130AB86E4FABFB4984A940F3E1D2BD6A2 PUSH1 0x40 MLOAD PUSH1 0x40 MLOAD DUP1 SWAP2 SUB SWAP1 LOG1 PUSH1 0x1 SWAP2 POP PUSH2 0x193C PUSH2 0x42D0 JUMP JUMPDEST PUSH2 0x1944 PUSH2 0x43B9 JUMP JUMPDEST POP SWAP2 SWAP1 POP JUMP JUMPDEST PUSH0 PUSH2 0x1953 PUSH2 0x2B35 JUMP JUMPDEST PUSH20 0xFFFFFFFFFFFFFFFFFFFFFFFFFFFFFFFFFFFFFFFF AND CALLER PUSH20 0xFFFFFFFFFFFFFFFFFFFFFFFFFFFFFFFFFFFFFFFF AND EQ PUSH2 0x19C0 JUMPI PUSH1 0x40 MLOAD PUSH32 0x8C379A000000000000000000000000000000000000000000000000000000000 DUP2 MSTORE PUSH1 0x4 ADD PUSH2 0x19B7 SWAP1 PUSH2 0x5320 JUMP JUMPDEST PUSH1 0x40 MLOAD DUP1 SWAP2 SUB SWAP1 REVERT JUMPDEST PUSH2 0x19C8 PUSH2 0x3369 JUMP JUMPDEST ISZERO PUSH2 0x1A08 JUMPI PUSH1 0x40 MLOAD PUSH32 0x8C379A000000000000000000000000000000000000000000000000000000000 DUP2 MSTORE PUSH1 0x4 ADD PUSH2 0x19FF SWAP1 PUSH2 0x5658 JUMP JUMPDEST PUSH1 0x40 MLOAD DUP1 SWAP2 SUB SWAP1 REVERT JUMPDEST DUP2 PUSH2 0x1A12 DUP2 PUSH2 0x2450 JUMP JUMPDEST PUSH2 0x1A51 JUMPI PUSH1 0x40 MLOAD PUSH32 0x8C379A000000000000000000000000000000000000000000000000000000000 DUP2 MSTORE PUSH1 0x4 ADD PUSH2 0x1A48 SWAP1 PUSH2 0x55F0 JUMP JUMPDEST PUSH1 0x40 MLOAD DUP1 SWAP2 SUB SWAP1 REVERT JUMPDEST DUP3 PUSH2 0x1A5B DUP2 PUSH2 0x1693 JUMP JUMPDEST NUMBER LT PUSH2 0x1A9C JUMPI PUSH1 0x40 MLOAD PUSH32 0x8C379A000000000000000000000000000000000000000000000000000000000 DUP2 MSTORE PUSH1 0x4 ADD PUSH2 0x1A93 SWAP1 PUSH2 0x56C0 JUMP JUMPDEST PUSH1 0x40 MLOAD DUP1 SWAP2 SUB SWAP1 REVERT JUMPDEST PUSH2 0x1AA5 DUP5 PUSH2 0x1E95 JUMP JUMPDEST ISZERO PUSH2 0x1AAE JUMPI PUSH0 DUP1 REVERT JUMPDEST PUSH2 0x1AB7 DUP5 PUSH2 0x462A JUMP JUMPDEST PUSH1 0x1 SWAP3 POP POP POP SWAP2 SWAP1 POP JUMP JUMPDEST PUSH0 PUSH2 0x1ACB PUSH2 0x2B35 JUMP JUMPDEST PUSH20 0xFFFFFFFFFFFFFFFFFFFFFFFFFFFFFFFFFFFFFFFF AND CALLER PUSH20 0xFFFFFFFFFFFFFFFFFFFFFFFFFFFFFFFFFFFFFFFF AND EQ PUSH2 0x1B38 JUMPI PUSH1 0x40 MLOAD PUSH32 0x8C379A000000000000000000000000000000000000000000000000000000000 DUP2 MSTORE PUSH1 0x4 ADD PUSH2 0x1B2F SWAP1 PUSH2 0x5320 JUMP JUMPDEST PUSH1 0x40 MLOAD DUP1 SWAP2 SUB SWAP1 REVERT JUMPDEST PUSH2 0x1B40 PUSH2 0x3369 JUMP JUMPDEST ISZERO PUSH2 0x1B80 JUMPI PUSH1 0x40 MLOAD PUSH32 0x8C379A000000000000000000000000000000000000000000000000000000000 DUP2 MSTORE PUSH1 0x4 ADD PUSH2 0x1B77 SWAP1 PUSH2 0x5658 JUMP JUMPDEST PUSH1 0x40 MLOAD DUP1 SWAP2 SUB SWAP1 REVERT JUMPDEST DUP2 PUSH2 0x1B8A DUP2 PUSH2 0x2450 JUMP JUMPDEST PUSH2 0x1BC9 JUMPI PUSH1 0x40 MLOAD PUSH32 0x8C379A000000000000000000000000000000000000000000000000000000000 DUP2 MSTORE PUSH1 0x4 ADD PUSH2 0x1BC0 SWAP1 PUSH2 0x55F0 JUMP JUMPDEST PUSH1 0x40 MLOAD DUP1 SWAP2 SUB SWAP1 REVERT JUMPDEST DUP3 NUMBER PUSH2 0x1BD4 DUP3 PUSH2 0x1693 JUMP JUMPDEST GT ISZERO PUSH2 0x1C15 JUMPI PUSH1 0x40 MLOAD PUSH32 0x8C379A000000000000000000000000000000000000000000000000000000000 DUP2 MSTORE PUSH1 0x4 ADD PUSH2 0x1C0C SWAP1 PUSH2 0x5790 JUMP JUMPDEST PUSH1 0x40 MLOAD DUP1 SWAP2 SUB SWAP1 REVERT JUMPDEST DUP4 PUSH2 0x1C1F DUP2 PUSH2 0x16AD JUMP JUMPDEST NUMBER GT ISZERO PUSH2 0x1C61 JUMPI PUSH1 0x40 MLOAD PUSH32 0x8C379A000000000000000000000000000000000000000000000000000000000 DUP2 MSTORE PUSH1 0x4 ADD PUSH2 0x1C58 SWAP1 PUSH2 0x57F8 JUMP JUMPDEST PUSH1 0x40 MLOAD DUP1 SWAP2 SUB SWAP1 REVERT JUMPDEST PUSH2 0x1C6A DUP6 PUSH2 0x310C JUMP JUMPDEST PUSH2 0x1C72 JUMPI PUSH0 DUP1 REVERT JUMPDEST PUSH2 0x1C7B DUP6 PUSH2 0x4683 JUMP JUMPDEST PUSH2 0x1C84 DUP6 PUSH2 0x162A JUMP JUMPDEST PUSH20 0xFFFFFFFFFFFFFFFFFFFFFFFFFFFFFFFFFFFFFFFF AND PUSH4 0x42966C68 PUSH2 0x1CA8 DUP8 PUSH2 0x349B JUMP JUMPDEST PUSH1 0x40 MLOAD DUP3 PUSH4 0xFFFFFFFF AND PUSH1 0xE0 SHL DUP2 MSTORE PUSH1 0x4 ADD PUSH2 0x1CC4 SWAP2 SWAP1 PUSH2 0x4C1C JUMP JUMPDEST PUSH0 PUSH1 0x40 MLOAD DUP1 DUP4 SUB DUP2 PUSH0 DUP8 DUP1 EXTCODESIZE ISZERO DUP1 ISZERO PUSH2 0x1CDB JUMPI PUSH0 DUP1 REVERT JUMPDEST POP GAS CALL ISZERO DUP1 ISZERO PUSH2 0x1CED JUMPI RETURNDATASIZE PUSH0 DUP1 RETURNDATACOPY RETURNDATASIZE PUSH0 REVERT JUMPDEST POP POP POP POP PUSH1 0x1 SWAP4 POP POP POP POP SWAP2 SWAP1 POP JUMP JUMPDEST PUSH0 PUSH2 0x1D06 PUSH2 0x2B35 JUMP JUMPDEST PUSH20 0xFFFFFFFFFFFFFFFFFFFFFFFFFFFFFFFFFFFFFFFF AND CALLER PUSH20 0xFFFFFFFFFFFFFFFFFFFFFFFFFFFFFFFFFFFFFFFF AND EQ PUSH2 0x1D73 JUMPI PUSH1 0x40 MLOAD PUSH32 0x8C379A000000000000000000000000000000000000000000000000000000000 DUP2 MSTORE PUSH1 0x4 ADD PUSH2 0x1D6A SWAP1 PUSH2 0x5320 JUMP JUMPDEST PUSH1 0x40 MLOAD DUP1 SWAP2 SUB SWAP1 REVERT JUMPDEST PUSH1 0x5 PUSH1 0xFF AND PUSH2 0x1D80 PUSH2 0x23DF JUMP JUMPDEST PUSH1 0xFF AND LT ISZERO PUSH2 0x1DC4 JUMPI PUSH1 0x40 MLOAD PUSH32 0x8C379A000000000000000000000000000000000000000000000000000000000 DUP2 MSTORE PUSH1 0x4 ADD PUSH2 0x1DBB SWAP1 PUSH2 0x5520 JUMP JUMPDEST PUSH1 0x40 MLOAD DUP1 SWAP2 SUB SWAP1 REVERT JUMPDEST PUSH2 0x1DCC PUSH2 0x2B5D JUMP JUMPDEST TIMESTAMP GT ISZERO PUSH2 0x1E0E JUMPI PUSH1 0x40 MLOAD PUSH32 0x8C379A000000000000000000000000000000000000000000000000000000000 DUP2 MSTORE PUSH1 0x4 ADD PUSH2 0x1E05 SWAP1 PUSH2 0x5588 JUMP JUMPDEST PUSH1 0x40 MLOAD DUP1 SWAP2 SUB SWAP1 REVERT JUMPDEST PUSH2 0x1E16 PUSH2 0x46DC JUMP JUMPDEST PUSH1 0x1 SWAP1 POP PUSH2 0x1E22 PUSH2 0x42D0 JUMP JUMPDEST SWAP1 JUMP JUMPDEST PUSH0 PUSH1 0x19 PUSH0 DUP5 DUP2 MSTORE PUSH1 0x20 ADD SWAP1 DUP2 MSTORE PUSH1 0x20 ADD PUSH0 KECCAK256 PUSH0 DUP4 PUSH20 0xFFFFFFFFFFFFFFFFFFFFFFFFFFFFFFFFFFFFFFFF AND PUSH20 0xFFFFFFFFFFFFFFFFFFFFFFFFFFFFFFFFFFFFFFFF AND DUP2 MSTORE PUSH1 0x20 ADD SWAP1 DUP2 MSTORE PUSH1 0x20 ADD PUSH0 KECCAK256 SLOAD SWAP1 POP SWAP3 SWAP2 POP POP JUMP JUMPDEST PUSH0 PUSH1 0x1A PUSH0 DUP4 DUP2 MSTORE PUSH1 0x20 ADD SWAP1 DUP2 MSTORE PUSH1 0x20 ADD PUSH0 KECCAK256 SLOAD SWAP1 POP SWAP2 SWAP1 POP JUMP JUMPDEST PUSH0 PUSH1 0x10 PUSH0 DUP4 DUP2 MSTORE PUSH1 0x20 ADD SWAP1 DUP2 MSTORE PUSH1 0x20 ADD PUSH0 KECCAK256 PUSH0 SWAP1 SLOAD SWAP1 PUSH2 0x100 EXP SWAP1 DIV PUSH1 0xFF AND SWAP1 POP SWAP2 SWAP1 POP JUMP JUMPDEST PUSH0 PUSH2 0x1EC4 PUSH2 0x2B35 JUMP JUMPDEST PUSH20 0xFFFFFFFFFFFFFFFFFFFFFFFFFFFFFFFFFFFFFFFF AND CALLER PUSH20 0xFFFFFFFFFFFFFFFFFFFFFFFFFFFFFFFFFFFFFFFF AND EQ PUSH2 0x1F31 JUMPI PUSH1 0x40 MLOAD PUSH32 0x8C379A000000000000000000000000000000000000000000000000000000000 DUP2 MSTORE PUSH1 0x4 ADD PUSH2 0x1F28 SWAP1 PUSH2 0x5320 JUMP JUMPDEST PUSH1 0x40 MLOAD DUP1 SWAP2 SUB SWAP1 REVERT JUMPDEST PUSH2 0x1F39 PUSH2 0x3369 JUMP JUMPDEST ISZERO PUSH2 0x1F79 JUMPI PUSH1 0x40 MLOAD PUSH32 0x8C379A000000000000000000000000000000000000000000000000000000000 DUP2 MSTORE PUSH1 0x4 ADD PUSH2 0x1F70 SWAP1 PUSH2 0x5658 JUMP JUMPDEST PUSH1 0x40 MLOAD DUP1 SWAP2 SUB SWAP1 REVERT JUMPDEST DUP3 PUSH2 0x1F83 DUP2 PUSH2 0x2450 JUMP JUMPDEST PUSH2 0x1FC2 JUMPI PUSH1 0x40 MLOAD PUSH32 0x8C379A000000000000000000000000000000000000000000000000000000000 DUP2 MSTORE PUSH1 0x4 ADD PUSH2 0x1FB9 SWAP1 PUSH2 0x55F0 JUMP JUMPDEST PUSH1 0x40 MLOAD DUP1 SWAP2 SUB SWAP1 REVERT JUMPDEST DUP4 PUSH2 0x1FCC DUP2 PUSH2 0x1693 JUMP JUMPDEST NUMBER LT PUSH2 0x200D JUMPI PUSH1 0x40 MLOAD PUSH32 0x8C379A000000000000000000000000000000000000000000000000000000000 DUP2 MSTORE PUSH1 0x4 ADD PUSH2 0x2004 SWAP1 PUSH2 0x56C0 JUMP JUMPDEST PUSH1 0x40 MLOAD DUP1 SWAP2 SUB SWAP1 REVERT JUMPDEST PUSH2 0x2016 DUP6 PUSH2 0x1E95 JUMP JUMPDEST PUSH2 0x201E JUMPI PUSH0 DUP1 REVERT JUMPDEST PUSH2 0x2028 DUP6 DUP6 PUSH2 0x4710 JUMP JUMPDEST PUSH1 0x1 SWAP3 POP POP POP SWAP3 SWAP2 POP POP JUMP JUMPDEST PUSH0 PUSH2 0x203D PUSH2 0x2B35 JUMP JUMPDEST PUSH20 0xFFFFFFFFFFFFFFFFFFFFFFFFFFFFFFFFFFFFFFFF AND CALLER PUSH20 0xFFFFFFFFFFFFFFFFFFFFFFFFFFFFFFFFFFFFFFFF AND EQ PUSH2 0x20AA JUMPI PUSH1 0x40 MLOAD PUSH32 0x8C379A000000000000000000000000000000000000000000000000000000000 DUP2 MSTORE PUSH1 0x4 ADD PUSH2 0x20A1 SWAP1 PUSH2 0x5320 JUMP JUMPDEST PUSH1 0x40 MLOAD DUP1 SWAP2 SUB SWAP1 REVERT JUMPDEST PUSH2 0x20B2 PUSH2 0x3369 JUMP JUMPDEST ISZERO PUSH2 0x20F2 JUMPI PUSH1 0x40 MLOAD PUSH32 0x8C379A000000000000000000000000000000000000000000000000000000000 DUP2 MSTORE PUSH1 0x4 ADD PUSH2 0x20E9 SWAP1 PUSH2 0x5658 JUMP JUMPDEST PUSH1 0x40 MLOAD DUP1 SWAP2 SUB SWAP1 REVERT JUMPDEST DUP2 PUSH2 0x20FC DUP2 PUSH2 0x2450 JUMP JUMPDEST PUSH2 0x213B JUMPI PUSH1 0x40 MLOAD PUSH32 0x8C379A000000000000000000000000000000000000000000000000000000000 DUP2 MSTORE PUSH1 0x4 ADD PUSH2 0x2132 SWAP1 PUSH2 0x55F0 JUMP JUMPDEST PUSH1 0x40 MLOAD DUP1 SWAP2 SUB SWAP1 REVERT JUMPDEST DUP3 PUSH2 0x2145 DUP2 PUSH2 0x1693 JUMP JUMPDEST NUMBER LT PUSH2 0x2186 JUMPI PUSH1 0x40 MLOAD PUSH32 0x8C379A000000000000000000000000000000000000000000000000000000000 DUP2 MSTORE PUSH1 0x4 ADD PUSH2 0x217D SWAP1 PUSH2 0x56C0 JUMP JUMPDEST PUSH1 0x40 MLOAD DUP1 SWAP2 SUB SWAP1 REVERT JUMPDEST PUSH2 0x218F DUP5 PUSH2 0x16C7 JUMP JUMPDEST ISZERO PUSH2 0x2198 JUMPI PUSH0 DUP1 REVERT JUMPDEST PUSH2 0x21A1 DUP5 PUSH2 0x47D8 JUMP JUMPDEST PUSH1 0x1 SWAP3 POP POP POP SWAP2 SWAP1 POP JUMP JUMPDEST PUSH0 PUSH2 0x21B5 PUSH2 0x2B35 JUMP JUMPDEST PUSH20 0xFFFFFFFFFFFFFFFFFFFFFFFFFFFFFFFFFFFFFFFF AND CALLER PUSH20 0xFFFFFFFFFFFFFFFFFFFFFFFFFFFFFFFFFFFFFFFF AND EQ PUSH2 0x2222 JUMPI PUSH1 0x40 MLOAD PUSH32 0x8C379A000000000000000000000000000000000000000000000000000000000 DUP2 MSTORE PUSH1 0x4 ADD PUSH2 0x2219 SWAP1 PUSH2 0x5320 JUMP JUMPDEST PUSH1 0x40 MLOAD DUP1 SWAP2 SUB SWAP1 REVERT JUMPDEST PUSH2 0x222A PUSH2 0x3369 JUMP JUMPDEST ISZERO PUSH2 0x226A JUMPI PUSH1 0x40 MLOAD PUSH32 0x8C379A000000000000000000000000000000000000000000000000000000000 DUP2 MSTORE PUSH1 0x4 ADD PUSH2 0x2261 SWAP1 PUSH2 0x5658 JUMP JUMPDEST PUSH1 0x40 MLOAD DUP1 SWAP2 SUB SWAP1 REVERT JUMPDEST DUP3 PUSH2 0x2274 DUP2 PUSH2 0x2450 JUMP JUMPDEST PUSH2 0x22B3 JUMPI PUSH1 0x40 MLOAD PUSH32 0x8C379A000000000000000000000000000000000000000000000000000000000 DUP2 MSTORE PUSH1 0x4 ADD PUSH2 0x22AA SWAP1 PUSH2 0x55F0 JUMP JUMPDEST PUSH1 0x40 MLOAD DUP1 SWAP2 SUB SWAP1 REVERT JUMPDEST DUP4 PUSH2 0x22BD DUP2 PUSH2 0x1693 JUMP JUMPDEST NUMBER LT PUSH2 0x22FE JUMPI PUSH1 0x40 MLOAD PUSH32 0x8C379A000000000000000000000000000000000000000000000000000000000 DUP2 MSTORE PUSH1 0x4 ADD PUSH2 0x22F5 SWAP1 PUSH2 0x56C0 JUMP JUMPDEST PUSH1 0x40 MLOAD DUP1 SWAP2 SUB SWAP1 REVERT JUMPDEST PUSH0 DUP5 GT PUSH2 0x2309 JUMPI PUSH0 DUP1 REVERT JUMPDEST PUSH2 0x2313 DUP6 DUP6 PUSH2 0x4831 JUMP JUMPDEST PUSH1 0x1 SWAP3 POP POP POP SWAP3 SWAP2 POP POP JUMP JUMPDEST PUSH0 DUP1 SLOAD SWAP1 POP SWAP1 JUMP JUMPDEST PUSH0 PUSH1 0x1E PUSH0 DUP4 DUP2 MSTORE PUSH1 0x20 ADD SWAP1 DUP2 MSTORE PUSH1 0x20 ADD PUSH0 KECCAK256 SLOAD SWAP1 POP SWAP2 SWAP1 POP JUMP JUMPDEST PUSH0 PUSH2 0x234A PUSH2 0x2B35 JUMP JUMPDEST PUSH20 0xFFFFFFFFFFFFFFFFFFFFFFFFFFFFFFFFFFFFFFFF AND CALLER PUSH20 0xFFFFFFFFFFFFFFFFFFFFFFFFFFFFFFFFFFFFFFFF AND EQ PUSH2 0x23B7 JUMPI PUSH1 0x40 MLOAD PUSH32 0x8C379A000000000000000000000000000000000000000000000000000000000 DUP2 MSTORE PUSH1 0x4 ADD PUSH2 0x23AE SWAP1 PUSH2 0x5320 JUMP JUMPDEST PUSH1 0x40 MLOAD DUP1 SWAP2 SUB SWAP1 REVERT JUMPDEST PUSH2 0x23BF PUSH2 0x167D JUMP JUMPDEST PUSH2 0x23C7 JUMPI PUSH0 DUP1 REVERT JUMPDEST PUSH2 0x23D0 PUSH0 PUSH2 0x455B JUMP JUMPDEST PUSH2 0x23D8 PUSH2 0x4604 JUMP JUMPDEST PUSH1 0x1 SWAP1 POP SWAP1 JUMP JUMPDEST PUSH0 PUSH1 0x2 PUSH0 SWAP1 SLOAD SWAP1 PUSH2 0x100 EXP SWAP1 DIV PUSH1 0xFF AND SWAP1 POP SWAP1 JUMP JUMPDEST PUSH0 PUSH2 0x23FD PUSH2 0x374B JUMP JUMPDEST PUSH20 0xFFFFFFFFFFFFFFFFFFFFFFFFFFFFFFFFFFFFFFFF AND CALLER PUSH20 0xFFFFFFFFFFFFFFFFFFFFFFFFFFFFFFFFFFFFFFFF AND EQ PUSH2 0x2433 JUMPI PUSH0 DUP1 REVERT JUMPDEST PUSH0 CALLER SWAP1 POP PUSH2 0x2440 DUP2 PUSH2 0x455B JUMP JUMPDEST PUSH2 0x2448 PUSH2 0x4604 JUMP JUMPDEST PUSH1 0x1 SWAP2 POP POP SWAP1 JUMP JUMPDEST PUSH0 PUSH1 0x18 PUSH0 DUP4 DUP2 MSTORE PUSH1 0x20 ADD SWAP1 DUP2 MSTORE PUSH1 0x20 ADD PUSH0 KECCAK256 PUSH0 SWAP1 SLOAD SWAP1 PUSH2 0x100 EXP SWAP1 DIV PUSH1 0xFF AND SWAP1 POP SWAP2 SWAP1 POP JUMP JUMPDEST PUSH0 PUSH1 0x3 PUSH0 DUP4 PUSH20 0xFFFFFFFFFFFFFFFFFFFFFFFFFFFFFFFFFFFFFFFF AND PUSH20 0xFFFFFFFFFFFFFFFFFFFFFFFFFFFFFFFFFFFFFFFF AND DUP2 MSTORE PUSH1 0x20 ADD SWAP1 DUP2 MSTORE PUSH1 0x20 ADD PUSH0 KECCAK256 PUSH0 SWAP1 SLOAD SWAP1 PUSH2 0x100 EXP SWAP1 DIV PUSH1 0xFF AND SWAP1 POP SWAP2 SWAP1 POP JUMP JUMPDEST PUSH0 PUSH2 0x24D2 CALLER PUSH2 0x2476 JUMP JUMPDEST PUSH2 0x2511 JUMPI PUSH1 0x40 MLOAD PUSH32 0x8C379A000000000000000000000000000000000000000000000000000000000 DUP2 MSTORE PUSH1 0x4 ADD PUSH2 0x2508 SWAP1 PUSH2 0x5728 JUMP JUMPDEST PUSH1 0x40 MLOAD DUP1 SWAP2 SUB SWAP1 REVERT JUMPDEST PUSH0 PUSH2 0x251A PUSH2 0x23DF JUMP JUMPDEST PUSH1 0xFF AND SUB PUSH2 0x2563 JUMPI PUSH2 0x384 TIMESTAMP PUSH2 0x2530 SWAP2 SWAP1 PUSH2 0x53D3 JUMP JUMPDEST PUSH1 0x1 DUP2 SWAP1 SSTORE POP PUSH32 0x7BB44A6EFDAD870F652B2266A57E13683A9959D8F6208EC491B76F3B3E30CA85 PUSH1 0x40 MLOAD PUSH1 0x40 MLOAD DUP1 SWAP2 SUB SWAP1 LOG1 JUMPDEST PUSH2 0x256B PUSH2 0x2B5D JUMP JUMPDEST TIMESTAMP GT ISZERO PUSH2 0x25E7 JUMPI PUSH2 0x257A PUSH2 0x42D0 JUMP JUMPDEST PUSH32 0xA700EB5F46AA32BBE59BB5588095453766771B449F12098230E7711C2CC1373E PUSH1 0x40 MLOAD PUSH1 0x40 MLOAD DUP1 SWAP2 SUB SWAP1 LOG1 PUSH2 0x384 TIMESTAMP PUSH2 0x25B4 SWAP2 SWAP1 PUSH2 0x53D3 JUMP JUMPDEST PUSH1 0x1 DUP2 SWAP1 SSTORE POP PUSH32 0x7BB44A6EFDAD870F652B2266A57E13683A9959D8F6208EC491B76F3B3E30CA85 PUSH1 0x40 MLOAD PUSH1 0x40 MLOAD DUP1 SWAP2 SUB SWAP1 LOG1 JUMPDEST PUSH2 0x25F0 CALLER PUSH2 0x34B5 JUMP JUMPDEST ISZERO PUSH2 0x25F9 JUMPI PUSH0 DUP1 REVERT JUMPDEST PUSH1 0x1 PUSH1 0x4 PUSH0 CALLER PUSH20 0xFFFFFFFFFFFFFFFFFFFFFFFFFFFFFFFFFFFFFFFF AND PUSH20 0xFFFFFFFFFFFFFFFFFFFFFFFFFFFFFFFFFFFFFFFF AND DUP2 MSTORE PUSH1 0x20 ADD SWAP1 DUP2 MSTORE PUSH1 0x20 ADD PUSH0 KECCAK256 PUSH0 PUSH2 0x100 EXP DUP2 SLOAD DUP2 PUSH1 0xFF MUL NOT AND SWAP1 DUP4 ISZERO ISZERO MUL OR SWAP1 SSTORE POP PUSH1 0x2 PUSH0 DUP2 DUP2 SWAP1 SLOAD SWAP1 PUSH2 0x100 EXP SWAP1 DIV PUSH1 0xFF AND DUP1 SWAP3 SWAP2 SWAP1 PUSH2 0x266C SWAP1 PUSH2 0x5816 JUMP JUMPDEST SWAP2 SWAP1 PUSH2 0x100 EXP DUP2 SLOAD DUP2 PUSH1 0xFF MUL NOT AND SWAP1 DUP4 PUSH1 0xFF AND MUL OR SWAP1 SSTORE POP POP PUSH32 0xC803A19E7438FFF95A91E23440DC06B415144C5E9FE746580B03219ADBD15E51 CALLER PUSH1 0x40 MLOAD PUSH2 0x26B4 SWAP2 SWAP1 PUSH2 0x523D JUMP JUMPDEST PUSH1 0x40 MLOAD DUP1 SWAP2 SUB SWAP1 LOG1 PUSH1 0x1 SWAP1 POP SWAP1 JUMP JUMPDEST PUSH0 PUSH2 0x26CC PUSH2 0x2B35 JUMP JUMPDEST PUSH20 0xFFFFFFFFFFFFFFFFFFFFFFFFFFFFFFFFFFFFFFFF AND CALLER PUSH20 0xFFFFFFFFFFFFFFFFFFFFFFFFFFFFFFFFFFFFFFFF AND EQ PUSH2 0x2739 JUMPI PUSH1 0x40 MLOAD PUSH32 0x8C379A000000000000000000000000000000000000000000000000000000000 DUP2 MSTORE PUSH1 0x4 ADD PUSH2 0x2730 SWAP1 PUSH2 0x5320 JUMP JUMPDEST PUSH1 0x40 MLOAD DUP1 SWAP2 SUB SWAP1 REVERT JUMPDEST PUSH2 0x2741 PUSH2 0x3369 JUMP JUMPDEST ISZERO PUSH2 0x2781 JUMPI PUSH1 0x40 MLOAD PUSH32 0x8C379A000000000000000000000000000000000000000000000000000000000 DUP2 MSTORE PUSH1 0x4 ADD PUSH2 0x2778 SWAP1 PUSH2 0x5658 JUMP JUMPDEST PUSH1 0x40 MLOAD DUP1 SWAP2 SUB SWAP1 REVERT JUMPDEST DUP12 PUSH2 0x278B DUP2 PUSH2 0x2450 JUMP JUMPDEST ISZERO PUSH2 0x27CB JUMPI PUSH1 0x40 MLOAD PUSH32 0x8C379A000000000000000000000000000000000000000000000000000000000 DUP2 MSTORE PUSH1 0x4 ADD PUSH2 0x27C2 SWAP1 PUSH2 0x5888 JUMP JUMPDEST PUSH1 0x40 MLOAD DUP1 SWAP2 SUB SWAP1 REVERT JUMPDEST DUP11 DUP13 LT PUSH2 0x27D6 JUMPI PUSH0 DUP1 REVERT JUMPDEST NUMBER DUP13 LT ISZERO PUSH2 0x27E2 JUMPI PUSH0 DUP1 REVERT JUMPDEST PUSH0 DUP11 LT ISZERO PUSH2 0x27EE JUMPI PUSH0 DUP1 REVERT JUMPDEST PUSH0 DUP10 LT ISZERO PUSH2 0x27FA JUMPI PUSH0 DUP1 REVERT JUMPDEST PUSH0 DUP9 LT ISZERO PUSH2 0x2806 JUMPI PUSH0 DUP1 REVERT JUMPDEST PUSH0 DUP8 LT ISZERO PUSH2 0x2812 JUMPI PUSH0 DUP1 REVERT JUMPDEST DUP12 DUP12 PUSH2 0x281E SWAP2 SWAP1 PUSH2 0x58A6 JUMP JUMPDEST DUP8 LT PUSH2 0x2828 JUMPI PUSH0 DUP1 REVERT JUMPDEST PUSH0 DUP7 LT ISZERO PUSH2 0x2834 JUMPI PUSH0 DUP1 REVERT JUMPDEST PUSH2 0x283D DUP6 PUSH2 0x4883 JUMP JUMPDEST PUSH2 0x2845 JUMPI PUSH0 DUP1 REVERT JUMPDEST DUP5 PUSH20 0xFFFFFFFFFFFFFFFFFFFFFFFFFFFFFFFFFFFFFFFF AND PUSH4 0x1FFC9A7 PUSH32 0x80AC58CD00000000000000000000000000000000000000000000000000000000 PUSH1 0x40 MLOAD DUP3 PUSH4 0xFFFFFFFF AND PUSH1 0xE0 SHL DUP2 MSTORE PUSH1 0x4 ADD PUSH2 0x289E SWAP2 SWAP1 PUSH2 0x4DA9 JUMP JUMPDEST PUSH1 0x20 PUSH1 0x40 MLOAD DUP1 DUP4 SUB DUP2 DUP7 GAS STATICCALL ISZERO DUP1 ISZERO PUSH2 0x28B9 JUMPI RETURNDATASIZE PUSH0 DUP1 RETURNDATACOPY RETURNDATASIZE PUSH0 REVERT JUMPDEST POP POP POP POP PUSH1 0x40 MLOAD RETURNDATASIZE PUSH1 0x1F NOT PUSH1 0x1F DUP3 ADD AND DUP3 ADD DUP1 PUSH1 0x40 MSTORE POP DUP2 ADD SWAP1 PUSH2 0x28DD SWAP2 SWAP1 PUSH2 0x5903 JUMP JUMPDEST PUSH2 0x28E5 JUMPI PUSH0 DUP1 REVERT JUMPDEST ADDRESS PUSH20 0xFFFFFFFFFFFFFFFFFFFFFFFFFFFFFFFFFFFFFFFF AND DUP6 PUSH20 0xFFFFFFFFFFFFFFFFFFFFFFFFFFFFFFFFFFFFFFFF AND PUSH4 0x6352211E DUP7 PUSH1 0x40 MLOAD DUP3 PUSH4 0xFFFFFFFF AND PUSH1 0xE0 SHL DUP2 MSTORE PUSH1 0x4 ADD PUSH2 0x2935 SWAP2 SWAP1 PUSH2 0x4C1C JUMP JUMPDEST PUSH1 0x20 PUSH1 0x40 MLOAD DUP1 DUP4 SUB DUP2 DUP7 GAS STATICCALL ISZERO DUP1 ISZERO PUSH2 0x2950 JUMPI RETURNDATASIZE PUSH0 DUP1 RETURNDATACOPY RETURNDATASIZE PUSH0 REVERT JUMPDEST POP POP POP POP PUSH1 0x40 MLOAD RETURNDATASIZE PUSH1 0x1F NOT PUSH1 0x1F DUP3 ADD AND DUP3 ADD DUP1 PUSH1 0x40 MSTORE POP DUP2 ADD SWAP1 PUSH2 0x2974 SWAP2 SWAP1 PUSH2 0x5942 JUMP JUMPDEST PUSH20 0xFFFFFFFFFFFFFFFFFFFFFFFFFFFFFFFFFFFFFFFF AND EQ PUSH2 0x2993 JUMPI PUSH0 DUP1 REVERT JUMPDEST PUSH1 0x1 PUSH1 0x18 PUSH0 DUP16 DUP2 MSTORE PUSH1 0x20 ADD SWAP1 DUP2 MSTORE PUSH1 0x20 ADD PUSH0 KECCAK256 PUSH0 PUSH2 0x100 EXP DUP2 SLOAD DUP2 PUSH1 0xFF MUL NOT AND SWAP1 DUP4 ISZERO ISZERO MUL OR SWAP1 SSTORE POP DUP12 PUSH1 0x1C PUSH0 DUP16 DUP2 MSTORE PUSH1 0x20 ADD SWAP1 DUP2 MSTORE PUSH1 0x20 ADD PUSH0 KECCAK256 DUP2 SWAP1 SSTORE POP DUP11 PUSH1 0x1D PUSH0 DUP16 DUP2 MSTORE PUSH1 0x20 ADD SWAP1 DUP2 MSTORE PUSH1 0x20 ADD PUSH0 KECCAK256 DUP2 SWAP1 SSTORE POP DUP10 PUSH1 0x1E PUSH0 DUP16 DUP2 MSTORE PUSH1 0x20 ADD SWAP1 DUP2 MSTORE PUSH1 0x20 ADD PUSH0 KECCAK256 DUP2 SWAP1 SSTORE POP DUP9 PUSH1 0x1F PUSH0 DUP16 DUP2 MSTORE PUSH1 0x20 ADD SWAP1 DUP2 MSTORE PUSH1 0x20 ADD PUSH0 KECCAK256 DUP2 SWAP1 SSTORE POP DUP8 PUSH1 0x20 PUSH0 DUP16 DUP2 MSTORE PUSH1 0x20 ADD SWAP1 DUP2 MSTORE PUSH1 0x20 ADD PUSH0 KECCAK256 DUP2 SWAP1 SSTORE POP DUP7 PUSH1 0x22 PUSH0 DUP16 DUP2 MSTORE PUSH1 0x20 ADD SWAP1 DUP2 MSTORE PUSH1 0x20 ADD PUSH0 KECCAK256 DUP2 SWAP1 SSTORE POP DUP6 PUSH1 0x23 PUSH0 DUP16 DUP2 MSTORE PUSH1 0x20 ADD SWAP1 DUP2 MSTORE PUSH1 0x20 ADD PUSH0 KECCAK256 DUP2 SWAP1 SSTORE POP DUP5 PUSH1 0x24 PUSH0 DUP16 DUP2 MSTORE PUSH1 0x20 ADD SWAP1 DUP2 MSTORE PUSH1 0x20 ADD PUSH0 KECCAK256 PUSH0 PUSH2 0x100 EXP DUP2 SLOAD DUP2 PUSH20 0xFFFFFFFFFFFFFFFFFFFFFFFFFFFFFFFFFFFFFFFF MUL NOT AND SWAP1 DUP4 PUSH20 0xFFFFFFFFFFFFFFFFFFFFFFFFFFFFFFFFFFFFFFFF AND MUL OR SWAP1 SSTORE POP DUP4 PUSH1 0x25 PUSH0 DUP16 DUP2 MSTORE PUSH1 0x20 ADD SWAP1 DUP2 MSTORE PUSH1 0x20 ADD PUSH0 KECCAK256 DUP2 SWAP1 SSTORE POP DUP3 PUSH1 0x26 PUSH0 DUP16 DUP2 MSTORE PUSH1 0x20 ADD SWAP1 DUP2 MSTORE PUSH1 0x20 ADD PUSH0 KECCAK256 SWAP1 DUP2 PUSH2 0x2AD9 SWAP2 SWAP1 PUSH2 0x5B5E JUMP JUMPDEST POP DUP13 PUSH32 0x137CED8B5CEAEABCACBCA57CF1AF33FB4E393C4FBDDC75034233CBC43162751F PUSH1 0x40 MLOAD PUSH1 0x40 MLOAD DUP1 SWAP2 SUB SWAP1 LOG2 PUSH1 0x1 SWAP2 POP POP SWAP12 SWAP11 POP POP POP POP POP POP POP POP POP POP POP JUMP JUMPDEST PUSH0 PUSH1 0x1F PUSH0 DUP4 DUP2 MSTORE PUSH1 0x20 ADD SWAP1 DUP2 MSTORE PUSH1 0x20 ADD PUSH0 KECCAK256 SLOAD SWAP1 POP SWAP2 SWAP1 POP JUMP JUMPDEST PUSH0 PUSH1 0xC PUSH0 SWAP1 SLOAD SWAP1 PUSH2 0x100 EXP SWAP1 DIV PUSH20 0xFFFFFFFFFFFFFFFFFFFFFFFFFFFFFFFFFFFFFFFF AND SWAP1 POP SWAP1 JUMP JUMPDEST PUSH0 PUSH1 0x1 SLOAD SWAP1 POP SWAP1 JUMP JUMPDEST PUSH0 PUSH1 0x21 PUSH0 DUP4 DUP2 MSTORE PUSH1 0x20 ADD SWAP1 DUP2 MSTORE PUSH1 0x20 ADD PUSH0 KECCAK256 PUSH0 SWAP1 SLOAD SWAP1 PUSH2 0x100 EXP SWAP1 DIV PUSH1 0xFF AND SWAP1 POP SWAP2 SWAP1 POP JUMP JUMPDEST PUSH0 PUSH2 0x2B95 PUSH2 0x2B35 JUMP JUMPDEST PUSH20 0xFFFFFFFFFFFFFFFFFFFFFFFFFFFFFFFFFFFFFFFF AND CALLER PUSH20 0xFFFFFFFFFFFFFFFFFFFFFFFFFFFFFFFFFFFFFFFF AND SUB PUSH2 0x2BCB JUMPI PUSH0 DUP1 REVERT JUMPDEST PUSH2 0x2BD3 PUSH2 0x3369 JUMP JUMPDEST ISZERO PUSH2 0x2C13 JUMPI PUSH1 0x40 MLOAD PUSH32 0x8C379A000000000000000000000000000000000000000000000000000000000 DUP2 MSTORE PUSH1 0x4 ADD PUSH2 0x2C0A SWAP1 PUSH2 0x5658 JUMP JUMPDEST PUSH1 0x40 MLOAD DUP1 SWAP2 SUB SWAP1 REVERT JUMPDEST DUP2 PUSH2 0x2C1D DUP2 PUSH2 0x2450 JUMP JUMPDEST PUSH2 0x2C5C JUMPI PUSH1 0x40 MLOAD PUSH32 0x8C379A000000000000000000000000000000000000000000000000000000000 DUP2 MSTORE PUSH1 0x4 ADD PUSH2 0x2C53 SWAP1 PUSH2 0x55F0 JUMP JUMPDEST PUSH1 0x40 MLOAD DUP1 SWAP2 SUB SWAP1 REVERT JUMPDEST DUP3 PUSH2 0x2C66 DUP2 PUSH2 0x3132 JUMP JUMPDEST ISZERO PUSH2 0x2CA6 JUMPI PUSH1 0x40 MLOAD PUSH32 0x8C379A000000000000000000000000000000000000000000000000000000000 DUP2 MSTORE PUSH1 0x4 ADD PUSH2 0x2C9D SWAP1 PUSH2 0x5C77 JUMP JUMPDEST PUSH1 0x40 MLOAD DUP1 SWAP2 SUB SWAP1 REVERT JUMPDEST DUP4 NUMBER PUSH2 0x2CB1 DUP3 PUSH2 0x1693 JUMP JUMPDEST GT ISZERO PUSH2 0x2CF2 JUMPI PUSH1 0x40 MLOAD PUSH32 0x8C379A000000000000000000000000000000000000000000000000000000000 DUP2 MSTORE PUSH1 0x4 ADD PUSH2 0x2CE9 SWAP1 PUSH2 0x5790 JUMP JUMPDEST PUSH1 0x40 MLOAD DUP1 SWAP2 SUB SWAP1 REVERT JUMPDEST DUP5 PUSH2 0x2CFC DUP2 PUSH2 0x16AD JUMP JUMPDEST NUMBER GT ISZERO PUSH2 0x2D3E JUMPI PUSH1 0x40 MLOAD PUSH32 0x8C379A000000000000000000000000000000000000000000000000000000000 DUP2 MSTORE PUSH1 0x4 ADD PUSH2 0x2D35 SWAP1 PUSH2 0x57F8 JUMP JUMPDEST PUSH1 0x40 MLOAD DUP1 SWAP2 SUB SWAP1 REVERT JUMPDEST PUSH0 CALLVALUE GT PUSH2 0x2D49 JUMPI PUSH0 DUP1 REVERT JUMPDEST PUSH0 PUSH2 0x2D53 DUP8 PUSH2 0x16ED JUMP JUMPDEST EQ PUSH2 0x2DA2 JUMPI PUSH2 0x2D62 DUP7 CALLER PUSH2 0x3398 JUMP JUMPDEST PUSH2 0x2DA1 JUMPI PUSH1 0x40 MLOAD PUSH32 0x8C379A000000000000000000000000000000000000000000000000000000000 DUP2 MSTORE PUSH1 0x4 ADD PUSH2 0x2D98 SWAP1 PUSH2 0x5CDF JUMP JUMPDEST PUSH1 0x40 MLOAD DUP1 SWAP2 SUB SWAP1 REVERT JUMPDEST JUMPDEST PUSH2 0x2DAB DUP7 PUSH2 0x16C7 JUMP JUMPDEST ISZERO PUSH2 0x2DFB JUMPI PUSH2 0x2DBA DUP7 CALLER PUSH2 0x12DB JUMP JUMPDEST ISZERO PUSH2 0x2DFA JUMPI PUSH1 0x40 MLOAD PUSH32 0x8C379A000000000000000000000000000000000000000000000000000000000 DUP2 MSTORE PUSH1 0x4 ADD PUSH2 0x2DF1 SWAP1 PUSH2 0x5D47 JUMP JUMPDEST PUSH1 0x40 MLOAD DUP1 SWAP2 SUB SWAP1 REVERT JUMPDEST JUMPDEST PUSH2 0x2E04 DUP7 PUSH2 0x1E95 JUMP JUMPDEST ISZERO PUSH2 0x2E53 JUMPI PUSH2 0x2E13 DUP7 CALLER PUSH2 0x3CCC JUMP JUMPDEST PUSH2 0x2E52 JUMPI PUSH1 0x40 MLOAD PUSH32 0x8C379A000000000000000000000000000000000000000000000000000000000 DUP2 MSTORE PUSH1 0x4 ADD PUSH2 0x2E49 SWAP1 PUSH2 0x5DAF JUMP JUMPDEST PUSH1 0x40 MLOAD DUP1 SWAP2 SUB SWAP1 REVERT JUMPDEST JUMPDEST PUSH0 PUSH2 0x2E5E DUP8 CALLER PUSH2 0x1E25 JUMP JUMPDEST CALLVALUE PUSH2 0x2E69 SWAP2 SWAP1 PUSH2 0x53D3 JUMP JUMPDEST SWAP1 POP PUSH2 0x2E74 DUP8 PUSH2 0x2327 JUMP JUMPDEST DUP2 LT ISZERO PUSH2 0x2EB6 JUMPI PUSH1 0x40 MLOAD PUSH32 0x8C379A000000000000000000000000000000000000000000000000000000000 DUP2 MSTORE PUSH1 0x4 ADD PUSH2 0x2EAD SWAP1 PUSH2 0x5E17 JUMP JUMPDEST PUSH1 0x40 MLOAD DUP1 SWAP2 SUB SWAP1 REVERT JUMPDEST PUSH0 PUSH2 0x2EC0 DUP9 PUSH2 0x1E7B JUMP JUMPDEST EQ PUSH2 0x2F24 JUMPI PUSH2 0x2ECE DUP8 PUSH2 0x2B1B JUMP JUMPDEST PUSH2 0x2ED7 DUP9 PUSH2 0x1E7B JUMP JUMPDEST PUSH2 0x2EE1 SWAP2 SWAP1 PUSH2 0x53D3 JUMP JUMPDEST DUP2 LT ISZERO PUSH2 0x2F23 JUMPI PUSH1 0x40 MLOAD PUSH32 0x8C379A000000000000000000000000000000000000000000000000000000000 DUP2 MSTORE PUSH1 0x4 ADD PUSH2 0x2F1A SWAP1 PUSH2 0x5E7F JUMP JUMPDEST PUSH1 0x40 MLOAD DUP1 SWAP2 SUB SWAP1 REVERT JUMPDEST JUMPDEST DUP1 PUSH1 0x19 PUSH0 DUP10 DUP2 MSTORE PUSH1 0x20 ADD SWAP1 DUP2 MSTORE PUSH1 0x20 ADD PUSH0 KECCAK256 PUSH0 CALLER PUSH20 0xFFFFFFFFFFFFFFFFFFFFFFFFFFFFFFFFFFFFFFFF AND PUSH20 0xFFFFFFFFFFFFFFFFFFFFFFFFFFFFFFFFFFFFFFFF AND DUP2 MSTORE PUSH1 0x20 ADD SWAP1 DUP2 MSTORE PUSH1 0x20 ADD PUSH0 KECCAK256 DUP2 SWAP1 SSTORE POP DUP1 PUSH1 0x1A PUSH0 DUP10 DUP2 MSTORE PUSH1 0x20 ADD SWAP1 DUP2 MSTORE PUSH1 0x20 ADD PUSH0 KECCAK256 DUP2 SWAP1 SSTORE POP PUSH2 0x2F94 DUP8 PUSH2 0x3330 JUMP JUMPDEST PUSH20 0xFFFFFFFFFFFFFFFFFFFFFFFFFFFFFFFFFFFFFFFF AND CALLER PUSH20 0xFFFFFFFFFFFFFFFFFFFFFFFFFFFFFFFFFFFFFFFF AND EQ PUSH2 0x3016 JUMPI CALLER PUSH1 0x1B PUSH0 DUP10 DUP2 MSTORE PUSH1 0x20 ADD SWAP1 DUP2 MSTORE PUSH1 0x20 ADD PUSH0 KECCAK256 PUSH0 PUSH2 0x100 EXP DUP2 SLOAD DUP2 PUSH20 0xFFFFFFFFFFFFFFFFFFFFFFFFFFFFFFFFFFFFFFFF MUL NOT AND SWAP1 DUP4 PUSH20 0xFFFFFFFFFFFFFFFFFFFFFFFFFFFFFFFFFFFFFFFF AND MUL OR SWAP1 SSTORE POP JUMPDEST PUSH0 PUSH2 0x3020 DUP9 PUSH2 0x1663 JUMP JUMPDEST GT DUP1 ISZERO PUSH2 0x3034 JUMPI POP PUSH0 PUSH2 0x3032 DUP9 PUSH2 0x337E JUMP JUMPDEST GT JUMPDEST ISZERO PUSH2 0x30C4 JUMPI PUSH2 0x3042 DUP8 PUSH2 0x1663 JUMP JUMPDEST NUMBER PUSH2 0x304C DUP10 PUSH2 0x16AD JUMP JUMPDEST PUSH2 0x3056 SWAP2 SWAP1 PUSH2 0x58A6 JUMP JUMPDEST GT PUSH2 0x30C3 JUMPI PUSH2 0x3064 DUP8 PUSH2 0x337E JUMP JUMPDEST PUSH1 0x1D PUSH0 DUP10 DUP2 MSTORE PUSH1 0x20 ADD SWAP1 DUP2 MSTORE PUSH1 0x20 ADD PUSH0 KECCAK256 PUSH0 DUP3 DUP3 SLOAD PUSH2 0x3083 SWAP2 SWAP1 PUSH2 0x53D3 JUMP JUMPDEST SWAP3 POP POP DUP2 SWAP1 SSTORE POP DUP7 PUSH32 0xE6895F5E0E1B2EF4E40D860903D535F7E836FECEE2EB3312561C2D4753CFE354 CALLER PUSH1 0x40 MLOAD PUSH2 0x30BA SWAP2 SWAP1 PUSH2 0x523D JUMP JUMPDEST PUSH1 0x40 MLOAD DUP1 SWAP2 SUB SWAP1 LOG2 JUMPDEST JUMPDEST DUP7 PUSH32 0x96D59693CAEC7BFBD896CCF6BB677A3B2230FEC3C76D4B1B482A8670996C7C66 CALLER DUP4 PUSH1 0x40 MLOAD PUSH2 0x30F6 SWAP3 SWAP2 SWAP1 PUSH2 0x5E9D JUMP JUMPDEST PUSH1 0x40 MLOAD DUP1 SWAP2 SUB SWAP1 LOG2 PUSH1 0x1 SWAP6 POP POP POP POP POP POP SWAP2 SWAP1 POP JUMP JUMPDEST PUSH0 PUSH1 0xE PUSH0 DUP4 DUP2 MSTORE PUSH1 0x20 ADD SWAP1 DUP2 MSTORE PUSH1 0x20 ADD PUSH0 KECCAK256 PUSH0 SWAP1 SLOAD SWAP1 PUSH2 0x100 EXP SWAP1 DIV PUSH1 0xFF AND SWAP1 POP SWAP2 SWAP1 POP JUMP JUMPDEST PUSH0 PUSH1 0xF PUSH0 DUP4 DUP2 MSTORE PUSH1 0x20 ADD SWAP1 DUP2 MSTORE PUSH1 0x20 ADD PUSH0 KECCAK256 PUSH0 SWAP1 SLOAD SWAP1 PUSH2 0x100 EXP SWAP1 DIV PUSH1 0xFF AND SWAP1 POP SWAP2 SWAP1 POP JUMP JUMPDEST PUSH0 PUSH2 0x3161 PUSH2 0x2B35 JUMP JUMPDEST PUSH20 0xFFFFFFFFFFFFFFFFFFFFFFFFFFFFFFFFFFFFFFFF AND CALLER PUSH20 0xFFFFFFFFFFFFFFFFFFFFFFFFFFFFFFFFFFFFFFFF AND EQ PUSH2 0x31CE JUMPI PUSH1 0x40 MLOAD PUSH32 0x8C379A000000000000000000000000000000000000000000000000000000000 DUP2 MSTORE PUSH1 0x4 ADD PUSH2 0x31C5 SWAP1 PUSH2 0x5320 JUMP JUMPDEST PUSH1 0x40 MLOAD DUP1 SWAP2 SUB SWAP1 REVERT JUMPDEST PUSH2 0x31D6 PUSH2 0x167D JUMP JUMPDEST PUSH2 0x31DE JUMPI PUSH0 DUP1 REVERT JUMPDEST PUSH0 PUSH1 0xD PUSH1 0x14 PUSH2 0x100 EXP DUP2 SLOAD DUP2 PUSH1 0xFF MUL NOT AND SWAP1 DUP4 ISZERO ISZERO MUL OR SWAP1 SSTORE POP PUSH2 0x3200 PUSH2 0x2B35 JUMP JUMPDEST PUSH20 0xFFFFFFFFFFFFFFFFFFFFFFFFFFFFFFFFFFFFFFFF AND PUSH32 0xB189A5A6B382E921DF5A6B8A09A433564E15EC5F6625FAA18B989FA671EE6BFC PUSH1 0x40 MLOAD PUSH1 0x40 MLOAD DUP1 SWAP2 SUB SWAP1 LOG2 PUSH1 0x1 SWAP1 POP SWAP1 JUMP JUMPDEST PUSH0 PUSH1 0x20 PUSH0 DUP4 DUP2 MSTORE PUSH1 0x20 ADD SWAP1 DUP2 MSTORE PUSH1 0x20 ADD PUSH0 KECCAK256 SLOAD SWAP1 POP SWAP2 SWAP1 POP JUMP JUMPDEST PUSH0 PUSH2 0x326C PUSH2 0x2B35 JUMP JUMPDEST PUSH20 0xFFFFFFFFFFFFFFFFFFFFFFFFFFFFFFFFFFFFFFFF AND CALLER PUSH20 0xFFFFFFFFFFFFFFFFFFFFFFFFFFFFFFFFFFFFFFFF AND EQ PUSH2 0x32D9 JUMPI PUSH1 0x40 MLOAD PUSH32 0x8C379A000000000000000000000000000000000000000000000000000000000 DUP2 MSTORE PUSH1 0x4 ADD PUSH2 0x32D0 SWAP1 PUSH2 0x5320 JUMP JUMPDEST PUSH1 0x40 MLOAD DUP1 SWAP2 SUB SWAP1 REVERT JUMPDEST PUSH2 0x32E1 PUSH2 0x3369 JUMP JUMPDEST ISZERO PUSH2 0x3321 JUMPI PUSH1 0x40 MLOAD PUSH32 0x8C379A000000000000000000000000000000000000000000000000000000000 DUP2 MSTORE PUSH1 0x4 ADD PUSH2 0x3318 SWAP1 PUSH2 0x5658 JUMP JUMPDEST PUSH1 0x40 MLOAD DUP1 SWAP2 SUB SWAP1 REVERT JUMPDEST PUSH2 0x3329 PUSH2 0x489A JUMP JUMPDEST PUSH1 0x1 SWAP1 POP SWAP1 JUMP JUMPDEST PUSH0 PUSH1 0x1B PUSH0 DUP4 DUP2 MSTORE PUSH1 0x20 ADD SWAP1 DUP2 MSTORE PUSH1 0x20 ADD PUSH0 KECCAK256 PUSH0 SWAP1 SLOAD SWAP1 PUSH2 0x100 EXP SWAP1 DIV PUSH20 0xFFFFFFFFFFFFFFFFFFFFFFFFFFFFFFFFFFFFFFFF AND SWAP1 POP SWAP2 SWAP1 POP JUMP JUMPDEST PUSH0 PUSH1 0x17 PUSH0 SWAP1 SLOAD SWAP1 PUSH2 0x100 EXP SWAP1 DIV PUSH1 0xFF AND SWAP1 POP SWAP1 JUMP JUMPDEST PUSH0 PUSH1 0x23 PUSH0 DUP4 DUP2 MSTORE PUSH1 0x20 ADD SWAP1 DUP2 MSTORE PUSH1 0x20 ADD PUSH0 KECCAK256 SLOAD SWAP1 POP SWAP2 SWAP1 POP JUMP JUMPDEST PUSH0 PUSH1 0x15 PUSH0 DUP5 DUP2 MSTORE PUSH1 0x20 ADD SWAP1 DUP2 MSTORE PUSH1 0x20 ADD PUSH0 KECCAK256 PUSH0 DUP4 PUSH20 0xFFFFFFFFFFFFFFFFFFFFFFFFFFFFFFFFFFFFFFFF AND PUSH20 0xFFFFFFFFFFFFFFFFFFFFFFFFFFFFFFFFFFFFFFFF AND DUP2 MSTORE PUSH1 0x20 ADD SWAP1 DUP2 MSTORE PUSH1 0x20 ADD PUSH0 KECCAK256 PUSH0 SWAP1 SLOAD SWAP1 PUSH2 0x100 EXP SWAP1 DIV PUSH1 0xFF AND SWAP1 POP SWAP3 SWAP2 POP POP JUMP JUMPDEST PUSH1 0x60 PUSH1 0x26 PUSH0 DUP4 DUP2 MSTORE PUSH1 0x20 ADD SWAP1 DUP2 MSTORE PUSH1 0x20 ADD PUSH0 KECCAK256 DUP1 SLOAD PUSH2 0x3418 SWAP1 PUSH2 0x599A JUMP JUMPDEST DUP1 PUSH1 0x1F ADD PUSH1 0x20 DUP1 SWAP2 DIV MUL PUSH1 0x20 ADD PUSH1 0x40 MLOAD SWAP1 DUP2 ADD PUSH1 0x40 MSTORE DUP1 SWAP3 SWAP2 SWAP1 DUP2 DUP2 MSTORE PUSH1 0x20 ADD DUP3 DUP1 SLOAD PUSH2 0x3444 SWAP1 PUSH2 0x599A JUMP JUMPDEST DUP1 ISZERO PUSH2 0x348F JUMPI DUP1 PUSH1 0x1F LT PUSH2 0x3466 JUMPI PUSH2 0x100 DUP1 DUP4 SLOAD DIV MUL DUP4 MSTORE SWAP2 PUSH1 0x20 ADD SWAP2 PUSH2 0x348F JUMP JUMPDEST DUP3 ADD SWAP2 SWAP1 PUSH0 MSTORE PUSH1 0x20 PUSH0 KECCAK256 SWAP1 JUMPDEST DUP2 SLOAD DUP2 MSTORE SWAP1 PUSH1 0x1 ADD SWAP1 PUSH1 0x20 ADD DUP1 DUP4 GT PUSH2 0x3472 JUMPI DUP3 SWAP1 SUB PUSH1 0x1F AND DUP3 ADD SWAP2 JUMPDEST POP POP POP POP POP SWAP1 POP SWAP2 SWAP1 POP JUMP JUMPDEST PUSH0 PUSH1 0x25 PUSH0 DUP4 DUP2 MSTORE PUSH1 0x20 ADD SWAP1 DUP2 MSTORE PUSH1 0x20 ADD PUSH0 KECCAK256 SLOAD SWAP1 POP SWAP2 SWAP1 POP JUMP JUMPDEST PUSH0 PUSH1 0x4 PUSH0 DUP4 PUSH20 0xFFFFFFFFFFFFFFFFFFFFFFFFFFFFFFFFFFFFFFFF AND PUSH20 0xFFFFFFFFFFFFFFFFFFFFFFFFFFFFFFFFFFFFFFFF AND DUP2 MSTORE PUSH1 0x20 ADD SWAP1 DUP2 MSTORE PUSH1 0x20 ADD PUSH0 KECCAK256 PUSH0 SWAP1 SLOAD SWAP1 PUSH2 0x100 EXP SWAP1 DIV PUSH1 0xFF AND SWAP1 POP SWAP2 SWAP1 POP JUMP JUMPDEST PUSH0 PUSH2 0x3510 PUSH2 0x2B35 JUMP JUMPDEST PUSH20 0xFFFFFFFFFFFFFFFFFFFFFFFFFFFFFFFFFFFFFFFF AND CALLER PUSH20 0xFFFFFFFFFFFFFFFFFFFFFFFFFFFFFFFFFFFFFFFF AND EQ PUSH2 0x357D JUMPI PUSH1 0x40 MLOAD PUSH32 0x8C379A000000000000000000000000000000000000000000000000000000000 DUP2 MSTORE PUSH1 0x4 ADD PUSH2 0x3574 SWAP1 PUSH2 0x5320 JUMP JUMPDEST PUSH1 0x40 MLOAD DUP1 SWAP2 SUB SWAP1 REVERT JUMPDEST PUSH2 0x3585 PUSH2 0x3369 JUMP JUMPDEST PUSH2 0x35C4 JUMPI PUSH1 0x40 MLOAD PUSH32 0x8C379A000000000000000000000000000000000000000000000000000000000 DUP2 MSTORE PUSH1 0x4 ADD PUSH2 0x35BB SWAP1 PUSH2 0x5F0E JUMP JUMPDEST PUSH1 0x40 MLOAD DUP1 SWAP2 SUB SWAP1 REVERT JUMPDEST PUSH2 0x35CC PUSH2 0x492A JUMP JUMPDEST PUSH1 0x1 SWAP1 POP SWAP1 JUMP JUMPDEST PUSH0 PUSH2 0x35DC PUSH2 0x2B35 JUMP JUMPDEST PUSH20 0xFFFFFFFFFFFFFFFFFFFFFFFFFFFFFFFFFFFFFFFF AND CALLER PUSH20 0xFFFFFFFFFFFFFFFFFFFFFFFFFFFFFFFFFFFFFFFF AND EQ PUSH2 0x3649 JUMPI PUSH1 0x40 MLOAD PUSH32 0x8C379A000000000000000000000000000000000000000000000000000000000 DUP2 MSTORE PUSH1 0x4 ADD PUSH2 0x3640 SWAP1 PUSH2 0x5320 JUMP JUMPDEST PUSH1 0x40 MLOAD DUP1 SWAP2 SUB SWAP1 REVERT JUMPDEST PUSH2 0x3651 PUSH2 0x3369 JUMP JUMPDEST ISZERO PUSH2 0x3691 JUMPI PUSH1 0x40 MLOAD PUSH32 0x8C379A000000000000000000000000000000000000000000000000000000000 DUP2 MSTORE PUSH1 0x4 ADD PUSH2 0x3688 SWAP1 PUSH2 0x5658 JUMP JUMPDEST PUSH1 0x40 MLOAD DUP1 SWAP2 SUB SWAP1 REVERT JUMPDEST DUP2 PUSH2 0x369B DUP2 PUSH2 0x2450 JUMP JUMPDEST PUSH2 0x36DA JUMPI PUSH1 0x40 MLOAD PUSH32 0x8C379A000000000000000000000000000000000000000000000000000000000 DUP2 MSTORE PUSH1 0x4 ADD PUSH2 0x36D1 SWAP1 PUSH2 0x55F0 JUMP JUMPDEST PUSH1 0x40 MLOAD DUP1 SWAP2 SUB SWAP1 REVERT JUMPDEST DUP3 PUSH2 0x36E4 DUP2 PUSH2 0x1693 JUMP JUMPDEST NUMBER LT PUSH2 0x3725 JUMPI PUSH1 0x40 MLOAD PUSH32 0x8C379A000000000000000000000000000000000000000000000000000000000 DUP2 MSTORE PUSH1 0x4 ADD PUSH2 0x371C SWAP1 PUSH2 0x56C0 JUMP JUMPDEST PUSH1 0x40 MLOAD DUP1 SWAP2 SUB SWAP1 REVERT JUMPDEST PUSH2 0x372E DUP5 PUSH2 0x310C JUMP JUMPDEST ISZERO PUSH2 0x3737 JUMPI PUSH0 DUP1 REVERT JUMPDEST PUSH2 0x3740 DUP5 PUSH2 0x49B8 JUMP JUMPDEST PUSH1 0x1 SWAP3 POP POP POP SWAP2 SWAP1 POP JUMP JUMPDEST PUSH0 PUSH1 0xD PUSH0 SWAP1 SLOAD SWAP1 PUSH2 0x100 EXP SWAP1 DIV PUSH20 0xFFFFFFFFFFFFFFFFFFFFFFFFFFFFFFFFFFFFFFFF AND SWAP1 POP SWAP1 JUMP JUMPDEST PUSH0 PUSH2 0x377C PUSH2 0x2B35 JUMP JUMPDEST PUSH20 0xFFFFFFFFFFFFFFFFFFFFFFFFFFFFFFFFFFFFFFFF AND CALLER PUSH20 0xFFFFFFFFFFFFFFFFFFFFFFFFFFFFFFFFFFFFFFFF AND SUB PUSH2 0x37B2 JUMPI PUSH0 DUP1 REVERT JUMPDEST PUSH2 0x37BA PUSH2 0x3369 JUMP JUMPDEST ISZERO PUSH2 0x37FA JUMPI PUSH1 0x40 MLOAD PUSH32 0x8C379A000000000000000000000000000000000000000000000000000000000 DUP2 MSTORE PUSH1 0x4 ADD PUSH2 0x37F1 SWAP1 PUSH2 0x5658 JUMP JUMPDEST PUSH1 0x40 MLOAD DUP1 SWAP2 SUB SWAP1 REVERT JUMPDEST DUP2 PUSH2 0x3804 DUP2 PUSH2 0x2450 JUMP JUMPDEST PUSH2 0x3843 JUMPI PUSH1 0x40 MLOAD PUSH32 0x8C379A000000000000000000000000000000000000000000000000000000000 DUP2 MSTORE PUSH1 0x4 ADD PUSH2 0x383A SWAP1 PUSH2 0x55F0 JUMP JUMPDEST PUSH1 0x40 MLOAD DUP1 SWAP2 SUB SWAP1 REVERT JUMPDEST DUP3 PUSH2 0x384D DUP2 PUSH2 0x1693 JUMP JUMPDEST NUMBER LT PUSH2 0x388E JUMPI PUSH1 0x40 MLOAD PUSH32 0x8C379A000000000000000000000000000000000000000000000000000000000 DUP2 MSTORE PUSH1 0x4 ADD PUSH2 0x3885 SWAP1 PUSH2 0x56C0 JUMP JUMPDEST PUSH1 0x40 MLOAD DUP1 SWAP2 SUB SWAP1 REVERT JUMPDEST PUSH0 PUSH2 0x3898 DUP6 PUSH2 0x16ED JUMP JUMPDEST GT PUSH2 0x38A1 JUMPI PUSH0 DUP1 REVERT JUMPDEST PUSH2 0x38AA DUP5 PUSH2 0x16ED JUMP JUMPDEST CALLVALUE EQ PUSH2 0x38B4 JUMPI PUSH0 DUP1 REVERT JUMPDEST PUSH2 0x38BE DUP5 CALLER PUSH2 0x3398 JUMP JUMPDEST ISZERO PUSH2 0x38C7 JUMPI PUSH0 DUP1 REVERT JUMPDEST PUSH2 0x38D0 DUP5 PUSH2 0x4A11 JUMP JUMPDEST PUSH1 0x1 SWAP3 POP POP POP SWAP2 SWAP1 POP JUMP JUMPDEST PUSH0 PUSH2 0x38E4 PUSH2 0x2B35 JUMP JUMPDEST PUSH20 0xFFFFFFFFFFFFFFFFFFFFFFFFFFFFFFFFFFFFFFFF AND CALLER PUSH20 0xFFFFFFFFFFFFFFFFFFFFFFFFFFFFFFFFFFFFFFFF AND EQ PUSH2 0x3951 JUMPI PUSH1 0x40 MLOAD PUSH32 0x8C379A000000000000000000000000000000000000000000000000000000000 DUP2 MSTORE PUSH1 0x4 ADD PUSH2 0x3948 SWAP1 PUSH2 0x5320 JUMP JUMPDEST PUSH1 0x40 MLOAD DUP1 SWAP2 SUB SWAP1 REVERT JUMPDEST PUSH1 0xD PUSH0 PUSH2 0x100 EXP DUP2 SLOAD SWAP1 PUSH20 0xFFFFFFFFFFFFFFFFFFFFFFFFFFFFFFFFFFFFFFFF MUL NOT AND SWAP1 SSTORE PUSH1 0x1 SWAP1 POP SWAP1 JUMP JUMPDEST PUSH0 PUSH2 0x3985 PUSH2 0x2B35 JUMP JUMPDEST PUSH20 0xFFFFFFFFFFFFFFFFFFFFFFFFFFFFFFFFFFFFFFFF AND CALLER PUSH20 0xFFFFFFFFFFFFFFFFFFFFFFFFFFFFFFFFFFFFFFFF AND EQ PUSH2 0x39F2 JUMPI PUSH1 0x40 MLOAD PUSH32 0x8C379A000000000000000000000000000000000000000000000000000000000 DUP2 MSTORE PUSH1 0x4 ADD PUSH2 0x39E9 SWAP1 PUSH2 0x5320 JUMP JUMPDEST PUSH1 0x40 MLOAD DUP1 SWAP2 SUB SWAP1 REVERT JUMPDEST TIMESTAMP PUSH0 PUSH2 0x39FC PUSH2 0x231F JUMP JUMPDEST GT PUSH2 0x3A3C JUMPI PUSH1 0x40 MLOAD PUSH32 0x8C379A000000000000000000000000000000000000000000000000000000000 DUP2 MSTORE PUSH1 0x4 ADD PUSH2 0x3A33 SWAP1 PUSH2 0x5388 JUMP JUMPDEST PUSH1 0x40 MLOAD DUP1 SWAP2 SUB SWAP1 REVERT JUMPDEST PUSH3 0xD2F00 PUSH2 0x3A48 PUSH2 0x231F JUMP JUMPDEST PUSH2 0x3A52 SWAP2 SWAP1 PUSH2 0x53D3 JUMP JUMPDEST DUP2 LT ISZERO PUSH2 0x3A94 JUMPI PUSH1 0x40 MLOAD PUSH32 0x8C379A000000000000000000000000000000000000000000000000000000000 DUP2 MSTORE PUSH1 0x4 ADD PUSH2 0x3A8B SWAP1 PUSH2 0x5450 JUMP JUMPDEST PUSH1 0x40 MLOAD DUP1 SWAP2 SUB SWAP1 REVERT JUMPDEST PUSH3 0x15180 PUSH3 0xD2F00 PUSH2 0x3AA4 PUSH2 0x231F JUMP JUMPDEST PUSH2 0x3AAE SWAP2 SWAP1 PUSH2 0x53D3 JUMP JUMPDEST PUSH2 0x3AB8 SWAP2 SWAP1 PUSH2 0x53D3 JUMP JUMPDEST DUP2 GT ISZERO PUSH2 0x3AFA JUMPI PUSH1 0x40 MLOAD PUSH32 0x8C379A000000000000000000000000000000000000000000000000000000000 DUP2 MSTORE PUSH1 0x4 ADD PUSH2 0x3AF1 SWAP1 PUSH2 0x54B8 JUMP JUMPDEST PUSH1 0x40 MLOAD DUP1 SWAP2 SUB SWAP1 REVERT JUMPDEST PUSH1 0x5 PUSH1 0xFF AND PUSH2 0x3B07 PUSH2 0x23DF JUMP JUMPDEST PUSH1 0xFF AND LT ISZERO PUSH2 0x3B4B JUMPI PUSH1 0x40 MLOAD PUSH32 0x8C379A000000000000000000000000000000000000000000000000000000000 DUP2 MSTORE PUSH1 0x4 ADD PUSH2 0x3B42 SWAP1 PUSH2 0x5520 JUMP JUMPDEST PUSH1 0x40 MLOAD DUP1 SWAP2 SUB SWAP1 REVERT JUMPDEST PUSH2 0x3B53 PUSH2 0x2B5D JUMP JUMPDEST TIMESTAMP GT ISZERO PUSH2 0x3B95 JUMPI PUSH1 0x40 MLOAD PUSH32 0x8C379A000000000000000000000000000000000000000000000000000000000 DUP2 MSTORE PUSH1 0x4 ADD PUSH2 0x3B8C SWAP1 PUSH2 0x5588 JUMP JUMPDEST PUSH1 0x40 MLOAD DUP1 SWAP2 SUB SWAP1 REVERT JUMPDEST PUSH0 PUSH20 0xFFFFFFFFFFFFFFFFFFFFFFFFFFFFFFFFFFFFFFFF AND DUP4 PUSH20 0xFFFFFFFFFFFFFFFFFFFFFFFFFFFFFFFFFFFFFFFF AND SUB PUSH2 0x3BCC JUMPI PUSH0 DUP1 REVERT JUMPDEST PUSH2 0x3BD4 PUSH2 0x2B35 JUMP JUMPDEST PUSH20 0xFFFFFFFFFFFFFFFFFFFFFFFFFFFFFFFFFFFFFFFF AND DUP4 PUSH20 0xFFFFFFFFFFFFFFFFFFFFFFFFFFFFFFFFFFFFFFFF AND SUB PUSH2 0x3C0A JUMPI PUSH0 DUP1 REVERT JUMPDEST PUSH2 0x3C12 PUSH2 0x374B JUMP JUMPDEST PUSH20 0xFFFFFFFFFFFFFFFFFFFFFFFFFFFFFFFFFFFFFFFF AND DUP4 PUSH20 0xFFFFFFFFFFFFFFFFFFFFFFFFFFFFFFFFFFFFFFFF AND SUB PUSH2 0x3C48 JUMPI PUSH0 DUP1 REVERT JUMPDEST PUSH2 0x3C51 DUP4 PUSH2 0x4AB2 JUMP JUMPDEST DUP3 PUSH20 0xFFFFFFFFFFFFFFFFFFFFFFFFFFFFFFFFFFFFFFFF AND PUSH2 0x3C70 PUSH2 0x2B35 JUMP JUMPDEST PUSH20 0xFFFFFFFFFFFFFFFFFFFFFFFFFFFFFFFFFFFFFFFF AND PUSH32 0xB150023A879FD806E3599B6CA8EE3B60F0E360AB3846D128D67EBCE1A391639A PUSH1 0x40 MLOAD PUSH1 0x40 MLOAD DUP1 SWAP2 SUB SWAP1 LOG3 PUSH1 0x1 SWAP2 POP PUSH2 0x3CBE PUSH2 0x42D0 JUMP JUMPDEST PUSH2 0x3CC6 PUSH2 0x43B9 JUMP JUMPDEST POP SWAP2 SWAP1 POP JUMP JUMPDEST PUSH0 PUSH1 0x11 PUSH0 DUP5 DUP2 MSTORE PUSH1 0x20 ADD SWAP1 DUP2 MSTORE PUSH1 0x20 ADD PUSH0 KECCAK256 PUSH0 DUP4 PUSH20 0xFFFFFFFFFFFFFFFFFFFFFFFFFFFFFFFFFFFFFFFF AND PUSH20 0xFFFFFFFFFFFFFFFFFFFFFFFFFFFFFFFFFFFFFFFF AND DUP2 MSTORE PUSH1 0x20 ADD SWAP1 DUP2 MSTORE PUSH1 0x20 ADD PUSH0 KECCAK256 PUSH0 SWAP1 SLOAD SWAP1 PUSH2 0x100 EXP SWAP1 DIV PUSH1 0xFF AND SWAP1 POP SWAP3 SWAP2 POP POP JUMP JUMPDEST PUSH0 DUP2 PUSH2 0x3D39 DUP2 PUSH2 0x2450 JUMP JUMPDEST PUSH2 0x3D78 JUMPI PUSH1 0x40 MLOAD PUSH32 0x8C379A000000000000000000000000000000000000000000000000000000000 DUP2 MSTORE PUSH1 0x4 ADD PUSH2 0x3D6F SWAP1 PUSH2 0x55F0 JUMP JUMPDEST PUSH1 0x40 MLOAD DUP1 SWAP2 SUB SWAP1 REVERT JUMPDEST PUSH2 0x3D81 DUP4 PUSH2 0x3132 JUMP JUMPDEST DUP1 PUSH2 0x3D93 JUMPI POP PUSH2 0x3D90 DUP4 PUSH2 0x16AD JUMP JUMPDEST NUMBER GT JUMPDEST PUSH2 0x3DD2 JUMPI PUSH1 0x40 MLOAD PUSH32 0x8C379A000000000000000000000000000000000000000000000000000000000 DUP2 MSTORE PUSH1 0x4 ADD PUSH2 0x3DC9 SWAP1 PUSH2 0x56C0 JUMP JUMPDEST PUSH1 0x40 MLOAD DUP1 SWAP2 SUB SWAP1 REVERT JUMPDEST PUSH2 0x3DDB DUP4 PUSH2 0x3132 JUMP JUMPDEST DUP1 PUSH2 0x3DF5 JUMPI POP PUSH2 0x3DEA DUP4 PUSH2 0x3249 JUMP JUMPDEST PUSH2 0x3DF3 DUP5 PUSH2 0x1E7B JUMP JUMPDEST LT JUMPDEST ISZERO PUSH2 0x3EEA JUMPI PUSH0 PUSH2 0x3E05 DUP5 CALLER PUSH2 0x1E25 JUMP JUMPDEST SWAP1 POP DUP1 PUSH1 0x19 PUSH0 DUP7 DUP2 MSTORE PUSH1 0x20 ADD SWAP1 DUP2 MSTORE PUSH1 0x20 ADD PUSH0 KECCAK256 PUSH0 CALLER PUSH20 0xFFFFFFFFFFFFFFFFFFFFFFFFFFFFFFFFFFFFFFFF AND PUSH20 0xFFFFFFFFFFFFFFFFFFFFFFFFFFFFFFFFFFFFFFFF AND DUP2 MSTORE PUSH1 0x20 ADD SWAP1 DUP2 MSTORE PUSH1 0x20 ADD PUSH0 KECCAK256 PUSH0 DUP3 DUP3 SLOAD PUSH2 0x3E62 SWAP2 SWAP1 PUSH2 0x58A6 JUMP JUMPDEST SWAP3 POP POP DUP2 SWAP1 SSTORE POP CALLER PUSH20 0xFFFFFFFFFFFFFFFFFFFFFFFFFFFFFFFFFFFFFFFF AND PUSH2 0x8FC DUP3 SWAP1 DUP2 ISZERO MUL SWAP1 PUSH1 0x40 MLOAD PUSH0 PUSH1 0x40 MLOAD DUP1 DUP4 SUB DUP2 DUP6 DUP9 DUP9 CALL SWAP4 POP POP POP POP ISZERO PUSH2 0x3EE6 JUMPI DUP4 PUSH32 0x51B609054F8FC45F9301A4694E88581E53061F6B13C19862E81555826FA9B888 CALLER DUP4 PUSH1 0x40 MLOAD PUSH2 0x3ED4 SWAP3 SWAP2 SWAP1 PUSH2 0x5E9D JUMP JUMPDEST PUSH1 0x40 MLOAD DUP1 SWAP2 SUB SWAP1 LOG2 PUSH1 0x1 SWAP3 POP POP PUSH2 0x42CA JUMP JUMPDEST PUSH0 DUP1 REVERT JUMPDEST PUSH2 0x3EF2 PUSH2 0x2B35 JUMP JUMPDEST PUSH20 0xFFFFFFFFFFFFFFFFFFFFFFFFFFFFFFFFFFFFFFFF AND CALLER PUSH20 0xFFFFFFFFFFFFFFFFFFFFFFFFFFFFFFFFFFFFFFFF AND SUB PUSH2 0x4056 JUMPI PUSH2 0x3F2D DUP4 PUSH2 0x2B66 JUMP JUMPDEST ISZERO PUSH2 0x3F36 JUMPI PUSH0 DUP1 REVERT JUMPDEST PUSH0 PUSH2 0x3F40 DUP5 PUSH2 0x1E7B JUMP JUMPDEST SWAP1 POP DUP1 PUSH1 0x19 PUSH0 DUP7 DUP2 MSTORE PUSH1 0x20 ADD SWAP1 DUP2 MSTORE PUSH1 0x20 ADD PUSH0 KECCAK256 PUSH0 PUSH2 0x3F5E DUP8 PUSH2 0x3330 JUMP JUMPDEST PUSH20 0xFFFFFFFFFFFFFFFFFFFFFFFFFFFFFFFFFFFFFFFF AND PUSH20 0xFFFFFFFFFFFFFFFFFFFFFFFFFFFFFFFFFFFFFFFF AND DUP2 MSTORE PUSH1 0x20 ADD SWAP1 DUP2 MSTORE PUSH1 0x20 ADD PUSH0 KECCAK256 PUSH0 DUP3 DUP3 SLOAD PUSH2 0x3FA5 SWAP2 SWAP1 PUSH2 0x58A6 JUMP JUMPDEST SWAP3 POP POP DUP2 SWAP1 SSTORE POP PUSH1 0x1 PUSH1 0x21 PUSH0 DUP7 DUP2 MSTORE PUSH1 0x20 ADD SWAP1 DUP2 MSTORE PUSH1 0x20 ADD PUSH0 KECCAK256 PUSH0 PUSH2 0x100 EXP DUP2 SLOAD DUP2 PUSH1 0xFF MUL NOT AND SWAP1 DUP4 ISZERO ISZERO MUL OR SWAP1 SSTORE POP CALLER PUSH20 0xFFFFFFFFFFFFFFFFFFFFFFFFFFFFFFFFFFFFFFFF AND PUSH2 0x8FC DUP3 SWAP1 DUP2 ISZERO MUL SWAP1 PUSH1 0x40 MLOAD PUSH0 PUSH1 0x40 MLOAD DUP1 DUP4 SUB DUP2 DUP6 DUP9 DUP9 CALL SWAP4 POP POP POP POP ISZERO PUSH2 0x4052 JUMPI DUP4 PUSH32 0x51B609054F8FC45F9301A4694E88581E53061F6B13C19862E81555826FA9B888 CALLER DUP4 PUSH1 0x40 MLOAD PUSH2 0x4040 SWAP3 SWAP2 SWAP1 PUSH2 0x5E9D JUMP JUMPDEST PUSH1 0x40 MLOAD DUP1 SWAP2 SUB SWAP1 LOG2 PUSH1 0x1 SWAP3 POP POP PUSH2 0x42CA JUMP JUMPDEST PUSH0 DUP1 REVERT JUMPDEST PUSH2 0x405F DUP4 PUSH2 0x3330 JUMP JUMPDEST PUSH20 0xFFFFFFFFFFFFFFFFFFFFFFFFFFFFFFFFFFFFFFFF AND CALLER PUSH20 0xFFFFFFFFFFFFFFFFFFFFFFFFFFFFFFFFFFFFFFFF AND SUB PUSH2 0x41DA JUMPI ADDRESS PUSH20 0xFFFFFFFFFFFFFFFFFFFFFFFFFFFFFFFFFFFFFFFF AND PUSH2 0x40B1 DUP5 PUSH2 0x162A JUMP JUMPDEST PUSH20 0xFFFFFFFFFFFFFFFFFFFFFFFFFFFFFFFFFFFFFFFF AND PUSH4 0x6352211E PUSH2 0x40D5 DUP7 PUSH2 0x349B JUMP JUMPDEST PUSH1 0x40 MLOAD DUP3 PUSH4 0xFFFFFFFF AND PUSH1 0xE0 SHL DUP2 MSTORE PUSH1 0x4 ADD PUSH2 0x40F1 SWAP2 SWAP1 PUSH2 0x4C1C JUMP JUMPDEST PUSH1 0x20 PUSH1 0x40 MLOAD DUP1 DUP4 SUB DUP2 DUP7 GAS STATICCALL ISZERO DUP1 ISZERO PUSH2 0x410C JUMPI RETURNDATASIZE PUSH0 DUP1 RETURNDATACOPY RETURNDATASIZE PUSH0 REVERT JUMPDEST POP POP POP POP PUSH1 0x40 MLOAD RETURNDATASIZE PUSH1 0x1F NOT PUSH1 0x1F DUP3 ADD AND DUP3 ADD DUP1 PUSH1 0x40 MSTORE POP DUP2 ADD SWAP1 PUSH2 0x4130 SWAP2 SWAP1 PUSH2 0x5942 JUMP JUMPDEST PUSH20 0xFFFFFFFFFFFFFFFFFFFFFFFFFFFFFFFFFFFFFFFF AND EQ PUSH2 0x414F JUMPI PUSH0 DUP1 REVERT JUMPDEST PUSH2 0x4158 DUP4 PUSH2 0x162A JUMP JUMPDEST PUSH20 0xFFFFFFFFFFFFFFFFFFFFFFFFFFFFFFFFFFFFFFFF AND PUSH4 0x42842E0E ADDRESS PUSH2 0x417D DUP7 PUSH2 0x3330 JUMP JUMPDEST PUSH2 0x4186 DUP8 PUSH2 0x349B JUMP JUMPDEST PUSH1 0x40 MLOAD DUP5 PUSH4 0xFFFFFFFF AND PUSH1 0xE0 SHL DUP2 MSTORE PUSH1 0x4 ADD PUSH2 0x41A4 SWAP4 SWAP3 SWAP2 SWAP1 PUSH2 0x5F2C JUMP JUMPDEST PUSH0 PUSH1 0x40 MLOAD DUP1 DUP4 SUB DUP2 PUSH0 DUP8 DUP1 EXTCODESIZE ISZERO DUP1 ISZERO PUSH2 0x41BB JUMPI PUSH0 DUP1 REVERT JUMPDEST POP GAS CALL ISZERO DUP1 ISZERO PUSH2 0x41CD JUMPI RETURNDATASIZE PUSH0 DUP1 RETURNDATACOPY RETURNDATASIZE PUSH0 REVERT JUMPDEST POP POP POP POP PUSH1 0x1 SWAP2 POP PUSH2 0x42CA JUMP JUMPDEST PUSH0 PUSH2 0x41E5 DUP5 CALLER PUSH2 0x1E25 JUMP JUMPDEST SWAP1 POP DUP1 PUSH1 0x19 PUSH0 DUP7 DUP2 MSTORE PUSH1 0x20 ADD SWAP1 DUP2 MSTORE PUSH1 0x20 ADD PUSH0 KECCAK256 PUSH0 CALLER PUSH20 0xFFFFFFFFFFFFFFFFFFFFFFFFFFFFFFFFFFFFFFFF AND PUSH20 0xFFFFFFFFFFFFFFFFFFFFFFFFFFFFFFFFFFFFFFFF AND DUP2 MSTORE PUSH1 0x20 ADD SWAP1 DUP2 MSTORE PUSH1 0x20 ADD PUSH0 KECCAK256 PUSH0 DUP3 DUP3 SLOAD PUSH2 0x4242 SWAP2 SWAP1 PUSH2 0x58A6 JUMP JUMPDEST SWAP3 POP POP DUP2 SWAP1 SSTORE POP CALLER PUSH20 0xFFFFFFFFFFFFFFFFFFFFFFFFFFFFFFFFFFFFFFFF AND PUSH2 0x8FC DUP3 SWAP1 DUP2 ISZERO MUL SWAP1 PUSH1 0x40 MLOAD PUSH0 PUSH1 0x40 MLOAD DUP1 DUP4 SUB DUP2 DUP6 DUP9 DUP9 CALL SWAP4 POP POP POP POP ISZERO PUSH2 0x42C6 JUMPI DUP4 PUSH32 0x51B609054F8FC45F9301A4694E88581E53061F6B13C19862E81555826FA9B888 CALLER DUP4 PUSH1 0x40 MLOAD PUSH2 0x42B4 SWAP3 SWAP2 SWAP1 PUSH2 0x5E9D JUMP JUMPDEST PUSH1 0x40 MLOAD DUP1 SWAP2 SUB SWAP1 LOG2 PUSH1 0x1 SWAP3 POP POP PUSH2 0x42CA JUMP JUMPDEST PUSH0 DUP1 REVERT JUMPDEST POP SWAP2 SWAP1 POP JUMP JUMPDEST PUSH1 0x2 PUSH0 PUSH2 0x100 EXP DUP2 SLOAD SWAP1 PUSH1 0xFF MUL NOT AND SWAP1 SSTORE PUSH0 JUMPDEST PUSH1 0x7 PUSH1 0xFF AND DUP2 PUSH1 0xFF AND LT ISZERO PUSH2 0x438A JUMPI PUSH0 PUSH1 0x4 PUSH0 PUSH1 0x5 DUP5 PUSH1 0xFF AND PUSH1 0x7 DUP2 LT PUSH2 0x430D JUMPI PUSH2 0x430C PUSH2 0x5F61 JUMP JUMPDEST JUMPDEST ADD PUSH0 SWAP1 SLOAD SWAP1 PUSH2 0x100 EXP SWAP1 DIV PUSH20 0xFFFFFFFFFFFFFFFFFFFFFFFFFFFFFFFFFFFFFFFF AND PUSH20 0xFFFFFFFFFFFFFFFFFFFFFFFFFFFFFFFFFFFFFFFF AND PUSH20 0xFFFFFFFFFFFFFFFFFFFFFFFFFFFFFFFFFFFFFFFF AND DUP2 MSTORE PUSH1 0x20 ADD SWAP1 DUP2 MSTORE PUSH1 0x20 ADD PUSH0 KECCAK256 PUSH0 PUSH2 0x100 EXP DUP2 SLOAD DUP2 PUSH1 0xFF MUL NOT AND SWAP1 DUP4 ISZERO ISZERO MUL OR SWAP1 SSTORE POP DUP1 DUP1 PUSH1 0x1 ADD SWAP2 POP POP PUSH2 0x42E3 JUMP JUMPDEST POP PUSH32 0x4BD70D790E1606677E1C786E3AE5EEA8FC03F909F5D3529D068651521D0F7EB7 PUSH1 0x40 MLOAD PUSH1 0x40 MLOAD DUP1 SWAP2 SUB SWAP1 LOG1 JUMP JUMPDEST PUSH0 DUP1 SSTORE PUSH32 0xADF19D4A72F18D860D362776EF575352C10E595E76CB22F26D8527ACB3EEECAE PUSH1 0x40 MLOAD PUSH1 0x40 MLOAD DUP1 SWAP2 SUB SWAP1 LOG1 JUMP JUMPDEST PUSH1 0x1 PUSH1 0x16 PUSH0 DUP4 DUP2 MSTORE PUSH1 0x20 ADD SWAP1 DUP2 MSTORE PUSH1 0x20 ADD PUSH0 KECCAK256 PUSH0 CALLER PUSH20 0xFFFFFFFFFFFFFFFFFFFFFFFFFFFFFFFFFFFFFFFF AND PUSH20 0xFFFFFFFFFFFFFFFFFFFFFFFFFFFFFFFFFFFFFFFF AND DUP2 MSTORE PUSH1 0x20 ADD SWAP1 DUP2 MSTORE PUSH1 0x20 ADD PUSH0 KECCAK256 PUSH0 PUSH2 0x100 EXP DUP2 SLOAD DUP2 PUSH1 0xFF MUL NOT AND SWAP1 DUP4 ISZERO ISZERO MUL OR SWAP1 SSTORE POP DUP1 PUSH32 0xDD34237C6D19F446F8F5F7EB3FA5FC9A63399FB90FE93435E85812A1ADA82594 CALLER PUSH2 0x447A DUP5 PUSH2 0x16ED JUMP JUMPDEST PUSH1 0x40 MLOAD PUSH2 0x4488 SWAP3 SWAP2 SWAP1 PUSH2 0x5E9D JUMP JUMPDEST PUSH1 0x40 MLOAD DUP1 SWAP2 SUB SWAP1 LOG2 POP JUMP JUMPDEST PUSH0 JUMPDEST DUP2 MLOAD DUP2 LT ISZERO PUSH2 0x4529 JUMPI PUSH1 0x1 PUSH1 0x13 PUSH0 DUP6 DUP2 MSTORE PUSH1 0x20 ADD SWAP1 DUP2 MSTORE PUSH1 0x20 ADD PUSH0 KECCAK256 PUSH0 DUP5 DUP5 DUP2 MLOAD DUP2 LT PUSH2 0x44C5 JUMPI PUSH2 0x44C4 PUSH2 0x5F61 JUMP JUMPDEST JUMPDEST PUSH1 0x20 MUL PUSH1 0x20 ADD ADD MLOAD PUSH20 0xFFFFFFFFFFFFFFFFFFFFFFFFFFFFFFFFFFFFFFFF AND PUSH20 0xFFFFFFFFFFFFFFFFFFFFFFFFFFFFFFFFFFFFFFFF AND DUP2 MSTORE PUSH1 0x20 ADD SWAP1 DUP2 MSTORE PUSH1 0x20 ADD PUSH0 KECCAK256 PUSH0 PUSH2 0x100 EXP DUP2 SLOAD DUP2 PUSH1 0xFF MUL NOT AND SWAP1 DUP4 ISZERO ISZERO MUL OR SWAP1 SSTORE POP DUP1 DUP1 PUSH1 0x1 ADD SWAP2 POP POP PUSH2 0x4495 JUMP JUMPDEST POP DUP2 PUSH32 0x573C4D3AB22AB768D7696AA2260634575E2670B8B3D5A14F317B0B160ACACC18 PUSH1 0x40 MLOAD PUSH1 0x40 MLOAD DUP1 SWAP2 SUB SWAP1 LOG2 POP POP JUMP JUMPDEST PUSH0 PUSH2 0x4564 PUSH2 0x2B35 JUMP JUMPDEST SWAP1 POP DUP2 PUSH1 0xC PUSH0 PUSH2 0x100 EXP DUP2 SLOAD DUP2 PUSH20 0xFFFFFFFFFFFFFFFFFFFFFFFFFFFFFFFFFFFFFFFF MUL NOT AND SWAP1 DUP4 PUSH20 0xFFFFFFFFFFFFFFFFFFFFFFFFFFFFFFFFFFFFFFFF AND MUL OR SWAP1 SSTORE POP DUP2 PUSH20 0xFFFFFFFFFFFFFFFFFFFFFFFFFFFFFFFFFFFFFFFF AND DUP2 PUSH20 0xFFFFFFFFFFFFFFFFFFFFFFFFFFFFFFFFFFFFFFFF AND PUSH32 0xE9A5158AC7353C7C7322ECECC080BC8E89334EFA5795B6E21E40EB266B0003D6 PUSH1 0x40 MLOAD PUSH1 0x40 MLOAD DUP1 SWAP2 SUB SWAP1 LOG3 POP POP JUMP JUMPDEST PUSH1 0xD PUSH0 PUSH2 0x100 EXP DUP2 SLOAD SWAP1 PUSH20 0xFFFFFFFFFFFFFFFFFFFFFFFFFFFFFFFFFFFFFFFF MUL NOT AND SWAP1 SSTORE JUMP JUMPDEST PUSH1 0x1 PUSH1 0x10 PUSH0 DUP4 DUP2 MSTORE PUSH1 0x20 ADD SWAP1 DUP2 MSTORE PUSH1 0x20 ADD PUSH0 KECCAK256 PUSH0 PUSH2 0x100 EXP DUP2 SLOAD DUP2 PUSH1 0xFF MUL NOT AND SWAP1 DUP4 ISZERO ISZERO MUL OR SWAP1 SSTORE POP DUP1 PUSH32 0x52F0758BEA1AC90BC036E9DA083F2CEC9B2AB24D6AE9FAF7B06048F45F6D4574 PUSH1 0x40 MLOAD PUSH1 0x40 MLOAD DUP1 SWAP2 SUB SWAP1 LOG2 POP JUMP JUMPDEST PUSH1 0x1 PUSH1 0xF PUSH0 DUP4 DUP2 MSTORE PUSH1 0x20 ADD SWAP1 DUP2 MSTORE PUSH1 0x20 ADD PUSH0 KECCAK256 PUSH0 PUSH2 0x100 EXP DUP2 SLOAD DUP2 PUSH1 0xFF MUL NOT AND SWAP1 DUP4 ISZERO ISZERO MUL OR SWAP1 SSTORE POP DUP1 PUSH32 0xD88FAB4B08BF76F15CF2D6E03E382ACF1EDD6790AB82967E406ABAC37DB20288 PUSH1 0x40 MLOAD PUSH1 0x40 MLOAD DUP1 SWAP2 SUB SWAP1 LOG2 POP JUMP JUMPDEST TIMESTAMP PUSH0 DUP2 SWAP1 SSTORE POP PUSH32 0x43FB7DACF03276426AB20DC791B3BE8CB2100531BAC85D7C616E08AF7BF35922 PUSH1 0x40 MLOAD PUSH1 0x40 MLOAD DUP1 SWAP2 SUB SWAP1 LOG1 JUMP JUMPDEST PUSH0 JUMPDEST DUP2 MLOAD DUP2 LT ISZERO PUSH2 0x47A6 JUMPI PUSH1 0x1 PUSH1 0x11 PUSH0 DUP6 DUP2 MSTORE PUSH1 0x20 ADD SWAP1 DUP2 MSTORE PUSH1 0x20 ADD PUSH0 KECCAK256 PUSH0 DUP5 DUP5 DUP2 MLOAD DUP2 LT PUSH2 0x4742 JUMPI PUSH2 0x4741 PUSH2 0x5F61 JUMP JUMPDEST JUMPDEST PUSH1 0x20 MUL PUSH1 0x20 ADD ADD MLOAD PUSH20 0xFFFFFFFFFFFFFFFFFFFFFFFFFFFFFFFFFFFFFFFF AND PUSH20 0xFFFFFFFFFFFFFFFFFFFFFFFFFFFFFFFFFFFFFFFF AND DUP2 MSTORE PUSH1 0x20 ADD SWAP1 DUP2 MSTORE PUSH1 0x20 ADD PUSH0 KECCAK256 PUSH0 PUSH2 0x100 EXP DUP2 SLOAD DUP2 PUSH1 0xFF MUL NOT AND SWAP1 DUP4 ISZERO ISZERO MUL OR SWAP1 SSTORE POP DUP1 DUP1 PUSH1 0x1 ADD SWAP2 POP POP PUSH2 0x4712 JUMP JUMPDEST POP DUP2 PUSH32 0xB30540F764CD2A7396432457325F08F61F23BBE3D4C2CEF382BAF5F75AF540D2 PUSH1 0x40 MLOAD PUSH1 0x40 MLOAD DUP1 SWAP2 SUB SWAP1 LOG2 POP POP JUMP JUMPDEST PUSH1 0x1 PUSH1 0x12 PUSH0 DUP4 DUP2 MSTORE PUSH1 0x20 ADD SWAP1 DUP2 MSTORE PUSH1 0x20 ADD PUSH0 KECCAK256 PUSH0 PUSH2 0x100 EXP DUP2 SLOAD DUP2 PUSH1 0xFF MUL NOT AND SWAP1 DUP4 ISZERO ISZERO MUL OR SWAP1 SSTORE POP DUP1 PUSH32 0xBC7CF0291D500D4A02456F98BE9191B5DEDDBE85D572DDC5DE848905EB915410 PUSH1 0x40 MLOAD PUSH1 0x40 MLOAD DUP1 SWAP2 SUB SWAP1 LOG2 POP JUMP JUMPDEST DUP1 PUSH1 0x14 PUSH0 DUP5 DUP2 MSTORE PUSH1 0x20 ADD SWAP1 DUP2 MSTORE PUSH1 0x20 ADD PUSH0 KECCAK256 DUP2 SWAP1 SSTORE POP DUP2 PUSH32 0xADD1018E53E580702F301F34D7A13C0DF5367943D68FFE5D49389792DCE47AD3 DUP3 PUSH1 0x40 MLOAD PUSH2 0x4877 SWAP2 SWAP1 PUSH2 0x4C1C JUMP JUMPDEST PUSH1 0x40 MLOAD DUP1 SWAP2 SUB SWAP1 LOG2 POP POP JUMP JUMPDEST PUSH0 DUP1 DUP3 EXTCODESIZE SWAP1 POP PUSH0 DUP2 PUSH4 0xFFFFFFFF AND GT SWAP2 POP POP SWAP2 SWAP1 POP JUMP JUMPDEST PUSH2 0x48A2 PUSH2 0x3369 JUMP JUMPDEST ISZERO PUSH2 0x48E2 JUMPI PUSH1 0x40 MLOAD PUSH32 0x8C379A000000000000000000000000000000000000000000000000000000000 DUP2 MSTORE PUSH1 0x4 ADD PUSH2 0x48D9 SWAP1 PUSH2 0x5658 JUMP JUMPDEST PUSH1 0x40 MLOAD DUP1 SWAP2 SUB SWAP1 REVERT JUMPDEST PUSH1 0x1 PUSH1 0x17 PUSH0 PUSH2 0x100 EXP DUP2 SLOAD DUP2 PUSH1 0xFF MUL NOT AND SWAP1 DUP4 ISZERO ISZERO MUL OR SWAP1 SSTORE POP PUSH32 0xF9FC7E681C820CFD75B573974FC3FE590495CE5346B9877E696791AD9FAE81A0 PUSH1 0x40 MLOAD PUSH1 0x40 MLOAD DUP1 SWAP2 SUB SWAP1 LOG1 JUMP JUMPDEST PUSH2 0x4932 PUSH2 0x3369 JUMP JUMPDEST PUSH2 0x4971 JUMPI PUSH1 0x40 MLOAD PUSH32 0x8C379A000000000000000000000000000000000000000000000000000000000 DUP2 MSTORE PUSH1 0x4 ADD PUSH2 0x4968 SWAP1 PUSH2 0x5F0E JUMP JUMPDEST PUSH1 0x40 MLOAD DUP1 SWAP2 SUB SWAP1 REVERT JUMPDEST PUSH0 PUSH1 0x17 PUSH0 PUSH2 0x100 EXP DUP2 SLOAD DUP2 PUSH1 0xFF MUL NOT AND SWAP1 DUP4 ISZERO ISZERO MUL OR SWAP1 SSTORE POP PUSH32 0x4F29B9E8CAE9B5313EED7B2BC2E90099C915402E77E261D37DBA82EB34A16510 PUSH1 0x40 MLOAD PUSH1 0x40 MLOAD DUP1 SWAP2 SUB SWAP1 LOG1 JUMP JUMPDEST PUSH1 0x1 PUSH1 0xE PUSH0 DUP4 DUP2 MSTORE PUSH1 0x20 ADD SWAP1 DUP2 MSTORE PUSH1 0x20 ADD PUSH0 KECCAK256 PUSH0 PUSH2 0x100 EXP DUP2 SLOAD DUP2 PUSH1 0xFF MUL NOT AND SWAP1 DUP4 ISZERO ISZERO MUL OR SWAP1 SSTORE POP DUP1 PUSH32 0x833E6492E73E54A5D3BB22CC90431F9C4F0E8BA9933AB71DDEC925390A9BB03B PUSH1 0x40 MLOAD PUSH1 0x40 MLOAD DUP1 SWAP2 SUB SWAP1 LOG2 POP JUMP JUMPDEST PUSH1 0x1 PUSH1 0x15 PUSH0 DUP4 DUP2 MSTORE PUSH1 0x20 ADD SWAP1 DUP2 MSTORE PUSH1 0x20 ADD PUSH0 KECCAK256 PUSH0 CALLER PUSH20 0xFFFFFFFFFFFFFFFFFFFFFFFFFFFFFFFFFFFFFFFF AND PUSH20 0xFFFFFFFFFFFFFFFFFFFFFFFFFFFFFFFFFFFFFFFF AND DUP2 MSTORE PUSH1 0x20 ADD SWAP1 DUP2 MSTORE PUSH1 0x20 ADD PUSH0 KECCAK256 PUSH0 PUSH2 0x100 EXP DUP2 SLOAD DUP2 PUSH1 0xFF MUL NOT AND SWAP1 DUP4 ISZERO ISZERO MUL OR SWAP1 SSTORE POP DUP1 PUSH32 0xCD2088FFEB057E96F56FE608A2F8588C7C8DDDDDD6A60000D39F7B3B2527246B CALLER CALLVALUE PUSH1 0x40 MLOAD PUSH2 0x4AA7 SWAP3 SWAP2 SWAP1 PUSH2 0x5E9D JUMP JUMPDEST PUSH1 0x40 MLOAD DUP1 SWAP2 SUB SWAP1 LOG2 POP JUMP JUMPDEST DUP1 PUSH1 0xD PUSH0 PUSH2 0x100 EXP DUP2 SLOAD DUP2 PUSH20 0xFFFFFFFFFFFFFFFFFFFFFFFFFFFFFFFFFFFFFFFF MUL NOT AND SWAP1 DUP4 PUSH20 0xFFFFFFFFFFFFFFFFFFFFFFFFFFFFFFFFFFFFFFFF AND MUL OR SWAP1 SSTORE POP POP JUMP JUMPDEST PUSH0 PUSH1 0x40 MLOAD SWAP1 POP SWAP1 JUMP JUMPDEST PUSH0 DUP1 REVERT JUMPDEST PUSH0 DUP1 REVERT JUMPDEST PUSH0 DUP2 SWAP1 POP SWAP2 SWAP1 POP JUMP JUMPDEST PUSH2 0x4B18 DUP2 PUSH2 0x4B06 JUMP JUMPDEST DUP2 EQ PUSH2 0x4B22 JUMPI PUSH0 DUP1 REVERT JUMPDEST POP JUMP JUMPDEST PUSH0 DUP2 CALLDATALOAD SWAP1 POP PUSH2 0x4B33 DUP2 PUSH2 0x4B0F JUMP JUMPDEST SWAP3 SWAP2 POP POP JUMP JUMPDEST PUSH0 PUSH20 0xFFFFFFFFFFFFFFFFFFFFFFFFFFFFFFFFFFFFFFFF DUP3 AND SWAP1 POP SWAP2 SWAP1 POP JUMP JUMPDEST PUSH0 PUSH2 0x4B62 DUP3 PUSH2 0x4B39 JUMP JUMPDEST SWAP1 POP SWAP2 SWAP1 POP JUMP JUMPDEST PUSH2 0x4B72 DUP2 PUSH2 0x4B58 JUMP JUMPDEST DUP2 EQ PUSH2 0x4B7C JUMPI PUSH0 DUP1 REVERT JUMPDEST POP JUMP JUMPDEST PUSH0 DUP2 CALLDATALOAD SWAP1 POP PUSH2 0x4B8D DUP2 PUSH2 0x4B69 JUMP JUMPDEST SWAP3 SWAP2 POP POP JUMP JUMPDEST PUSH0 DUP1 PUSH1 0x40 DUP4 DUP6 SUB SLT ISZERO PUSH2 0x4BA9 JUMPI PUSH2 0x4BA8 PUSH2 0x4AFE JUMP JUMPDEST JUMPDEST PUSH0 PUSH2 0x4BB6 DUP6 DUP3 DUP7 ADD PUSH2 0x4B25 JUMP JUMPDEST SWAP3 POP POP PUSH1 0x20 PUSH2 0x4BC7 DUP6 DUP3 DUP7 ADD PUSH2 0x4B7F JUMP JUMPDEST SWAP2 POP POP SWAP3 POP SWAP3 SWAP1 POP JUMP JUMPDEST PUSH0 DUP2 ISZERO ISZERO SWAP1 POP SWAP2 SWAP1 POP JUMP JUMPDEST PUSH2 0x4BE5 DUP2 PUSH2 0x4BD1 JUMP JUMPDEST DUP3 MSTORE POP POP JUMP JUMPDEST PUSH0 PUSH1 0x20 DUP3 ADD SWAP1 POP PUSH2 0x4BFE PUSH0 DUP4 ADD DUP5 PUSH2 0x4BDC JUMP JUMPDEST SWAP3 SWAP2 POP POP JUMP JUMPDEST PUSH0 DUP2 SWAP1 POP SWAP2 SWAP1 POP JUMP JUMPDEST PUSH2 0x4C16 DUP2 PUSH2 0x4C04 JUMP JUMPDEST DUP3 MSTORE POP POP JUMP JUMPDEST PUSH0 PUSH1 0x20 DUP3 ADD SWAP1 POP PUSH2 0x4C2F PUSH0 DUP4 ADD DUP5 PUSH2 0x4C0D JUMP JUMPDEST SWAP3 SWAP2 POP POP JUMP JUMPDEST PUSH0 PUSH1 0x20 DUP3 DUP5 SUB SLT ISZERO PUSH2 0x4C4A JUMPI PUSH2 0x4C49 PUSH2 0x4AFE JUMP JUMPDEST JUMPDEST PUSH0 PUSH2 0x4C57 DUP5 DUP3 DUP6 ADD PUSH2 0x4B25 JUMP JUMPDEST SWAP2 POP POP SWAP3 SWAP2 POP POP JUMP JUMPDEST PUSH2 0x4C69 DUP2 PUSH2 0x4C04 JUMP JUMPDEST DUP2 EQ PUSH2 0x4C73 JUMPI PUSH0 DUP1 REVERT JUMPDEST POP JUMP JUMPDEST PUSH0 DUP2 CALLDATALOAD SWAP1 POP PUSH2 0x4C84 DUP2 PUSH2 0x4C60 JUMP JUMPDEST SWAP3 SWAP2 POP POP JUMP JUMPDEST PUSH0 DUP1 REVERT JUMPDEST PUSH0 DUP1 REVERT JUMPDEST PUSH0 DUP1 REVERT JUMPDEST PUSH0 DUP1 DUP4 PUSH1 0x1F DUP5 ADD SLT PUSH2 0x4CAB JUMPI PUSH2 0x4CAA PUSH2 0x4C8A JUMP JUMPDEST JUMPDEST DUP3 CALLDATALOAD SWAP1 POP PUSH8 0xFFFFFFFFFFFFFFFF DUP2 GT ISZERO PUSH2 0x4CC8 JUMPI PUSH2 0x4CC7 PUSH2 0x4C8E JUMP JUMPDEST JUMPDEST PUSH1 0x20 DUP4 ADD SWAP2 POP DUP4 PUSH1 0x1 DUP3 MUL DUP4 ADD GT ISZERO PUSH2 0x4CE4 JUMPI PUSH2 0x4CE3 PUSH2 0x4C92 JUMP JUMPDEST JUMPDEST SWAP3 POP SWAP3 SWAP1 POP JUMP JUMPDEST PUSH0 DUP1 PUSH0 DUP1 PUSH0 PUSH1 0x80 DUP7 DUP9 SUB SLT ISZERO PUSH2 0x4D04 JUMPI PUSH2 0x4D03 PUSH2 0x4AFE JUMP JUMPDEST JUMPDEST PUSH0 PUSH2 0x4D11 DUP9 DUP3 DUP10 ADD PUSH2 0x4B7F JUMP JUMPDEST SWAP6 POP POP PUSH1 0x20 PUSH2 0x4D22 DUP9 DUP3 DUP10 ADD PUSH2 0x4B7F JUMP JUMPDEST SWAP5 POP POP PUSH1 0x40 PUSH2 0x4D33 DUP9 DUP3 DUP10 ADD PUSH2 0x4C76 JUMP JUMPDEST SWAP4 POP POP PUSH1 0x60 DUP7 ADD CALLDATALOAD PUSH8 0xFFFFFFFFFFFFFFFF DUP2 GT ISZERO PUSH2 0x4D54 JUMPI PUSH2 0x4D53 PUSH2 0x4B02 JUMP JUMPDEST JUMPDEST PUSH2 0x4D60 DUP9 DUP3 DUP10 ADD PUSH2 0x4C96 JUMP JUMPDEST SWAP3 POP SWAP3 POP POP SWAP3 SWAP6 POP SWAP3 SWAP6 SWAP1 SWAP4 POP JUMP JUMPDEST PUSH0 PUSH32 0xFFFFFFFF00000000000000000000000000000000000000000000000000000000 DUP3 AND SWAP1 POP SWAP2 SWAP1 POP JUMP JUMPDEST PUSH2 0x4DA3 DUP2 PUSH2 0x4D6F JUMP JUMPDEST DUP3 MSTORE POP POP JUMP JUMPDEST PUSH0 PUSH1 0x20 DUP3 ADD SWAP1 POP PUSH2 0x4DBC PUSH0 DUP4 ADD DUP5 PUSH2 0x4D9A JUMP JUMPDEST SWAP3 SWAP2 POP POP JUMP JUMPDEST PUSH0 PUSH1 0x1F NOT PUSH1 0x1F DUP4 ADD AND SWAP1 POP SWAP2 SWAP1 POP JUMP JUMPDEST PUSH32 0x4E487B7100000000000000000000000000000000000000000000000000000000 PUSH0 MSTORE PUSH1 0x41 PUSH1 0x4 MSTORE PUSH1 0x24 PUSH0 REVERT JUMPDEST PUSH2 0x4E08 DUP3 PUSH2 0x4DC2 JUMP JUMPDEST DUP2 ADD DUP2 DUP2 LT PUSH8 0xFFFFFFFFFFFFFFFF DUP3 GT OR ISZERO PUSH2 0x4E27 JUMPI PUSH2 0x4E26 PUSH2 0x4DD2 JUMP JUMPDEST JUMPDEST DUP1 PUSH1 0x40 MSTORE POP POP POP JUMP JUMPDEST PUSH0 PUSH2 0x4E39 PUSH2 0x4AF5 JUMP JUMPDEST SWAP1 POP PUSH2 0x4E45 DUP3 DUP3 PUSH2 0x4DFF JUMP JUMPDEST SWAP2 SWAP1 POP JUMP JUMPDEST PUSH0 PUSH8 0xFFFFFFFFFFFFFFFF DUP3 GT ISZERO PUSH2 0x4E64 JUMPI PUSH2 0x4E63 PUSH2 0x4DD2 JUMP JUMPDEST JUMPDEST PUSH1 0x20 DUP3 MUL SWAP1 POP PUSH1 0x20 DUP2 ADD SWAP1 POP SWAP2 SWAP1 POP JUMP JUMPDEST PUSH0 PUSH2 0x4E87 PUSH2 0x4E82 DUP5 PUSH2 0x4E4A JUMP JUMPDEST PUSH2 0x4E30 JUMP JUMPDEST SWAP1 POP DUP1 DUP4 DUP3 MSTORE PUSH1 0x20 DUP3 ADD SWAP1 POP PUSH1 0x20 DUP5 MUL DUP4 ADD DUP6 DUP2 GT ISZERO PUSH2 0x4EAA JUMPI PUSH2 0x4EA9 PUSH2 0x4C92 JUMP JUMPDEST JUMPDEST DUP4 JUMPDEST DUP2 DUP2 LT ISZERO PUSH2 0x4ED3 JUMPI DUP1 PUSH2 0x4EBF DUP9 DUP3 PUSH2 0x4B7F JUMP JUMPDEST DUP5 MSTORE PUSH1 0x20 DUP5 ADD SWAP4 POP POP PUSH1 0x20 DUP2 ADD SWAP1 POP PUSH2 0x4EAC JUMP JUMPDEST POP POP POP SWAP4 SWAP3 POP POP POP JUMP JUMPDEST PUSH0 DUP3 PUSH1 0x1F DUP4 ADD SLT PUSH2 0x4EF1 JUMPI PUSH2 0x4EF0 PUSH2 0x4C8A JUMP JUMPDEST JUMPDEST DUP2 CALLDATALOAD PUSH2 0x4F01 DUP5 DUP3 PUSH1 0x20 DUP7 ADD PUSH2 0x4E75 JUMP JUMPDEST SWAP2 POP POP SWAP3 SWAP2 POP POP JUMP JUMPDEST PUSH0 DUP1 PUSH1 0x40 DUP4 DUP6 SUB SLT ISZERO PUSH2 0x4F20 JUMPI PUSH2 0x4F1F PUSH2 0x4AFE JUMP JUMPDEST JUMPDEST PUSH0 PUSH2 0x4F2D DUP6 DUP3 DUP7 ADD PUSH2 0x4B25 JUMP JUMPDEST SWAP3 POP POP PUSH1 0x20 DUP4 ADD CALLDATALOAD PUSH8 0xFFFFFFFFFFFFFFFF DUP2 GT ISZERO PUSH2 0x4F4E JUMPI PUSH2 0x4F4D PUSH2 0x4B02 JUMP JUMPDEST JUMPDEST PUSH2 0x4F5A DUP6 DUP3 DUP7 ADD PUSH2 0x4EDD JUMP JUMPDEST SWAP2 POP POP SWAP3 POP SWAP3 SWAP1 POP JUMP JUMPDEST PUSH0 DUP2 SWAP1 POP SWAP2 SWAP1 POP JUMP JUMPDEST PUSH0 PUSH2 0x4F87 PUSH2 0x4F82 PUSH2 0x4F7D DUP5 PUSH2 0x4B39 JUMP JUMPDEST PUSH2 0x4F64 JUMP JUMPDEST PUSH2 0x4B39 JUMP JUMPDEST SWAP1 POP SWAP2 SWAP1 POP JUMP JUMPDEST PUSH0 PUSH2 0x4F98 DUP3 PUSH2 0x4F6D JUMP JUMPDEST SWAP1 POP SWAP2 SWAP1 POP JUMP JUMPDEST PUSH0 PUSH2 0x4FA9 DUP3 PUSH2 0x4F8E JUMP JUMPDEST SWAP1 POP SWAP2 SWAP1 POP JUMP JUMPDEST PUSH2 0x4FB9 DUP2 PUSH2 0x4F9F JUMP JUMPDEST DUP3 MSTORE POP POP JUMP JUMPDEST PUSH0 PUSH1 0x20 DUP3 ADD SWAP1 POP PUSH2 0x4FD2 PUSH0 DUP4 ADD DUP5 PUSH2 0x4FB0 JUMP JUMPDEST SWAP3 SWAP2 POP POP JUMP JUMPDEST PUSH0 PUSH1 0x20 DUP3 DUP5 SUB SLT ISZERO PUSH2 0x4FED JUMPI PUSH2 0x4FEC PUSH2 0x4AFE JUMP JUMPDEST JUMPDEST PUSH0 PUSH2 0x4FFA DUP5 DUP3 DUP6 ADD PUSH2 0x4B7F JUMP JUMPDEST SWAP2 POP POP SWAP3 SWAP2 POP POP JUMP JUMPDEST PUSH0 DUP1 PUSH1 0x40 DUP4 DUP6 SUB SLT ISZERO PUSH2 0x5019 JUMPI PUSH2 0x5018 PUSH2 0x4AFE JUMP JUMPDEST JUMPDEST PUSH0 PUSH2 0x5026 DUP6 DUP3 DUP7 ADD PUSH2 0x4B25 JUMP JUMPDEST SWAP3 POP POP PUSH1 0x20 PUSH2 0x5037 DUP6 DUP3 DUP7 ADD PUSH2 0x4C76 JUMP JUMPDEST SWAP2 POP POP SWAP3 POP SWAP3 SWAP1 POP JUMP JUMPDEST PUSH0 PUSH1 0xFF DUP3 AND SWAP1 POP SWAP2 SWAP1 POP JUMP JUMPDEST PUSH2 0x5056 DUP2 PUSH2 0x5041 JUMP JUMPDEST DUP3 MSTORE POP POP JUMP JUMPDEST PUSH0 PUSH1 0x20 DUP3 ADD SWAP1 POP PUSH2 0x506F PUSH0 DUP4 ADD DUP5 PUSH2 0x504D JUMP JUMPDEST SWAP3 SWAP2 POP POP JUMP JUMPDEST PUSH0 DUP1 REVERT JUMPDEST PUSH0 PUSH8 0xFFFFFFFFFFFFFFFF DUP3 GT ISZERO PUSH2 0x5093 JUMPI PUSH2 0x5092 PUSH2 0x4DD2 JUMP JUMPDEST JUMPDEST PUSH2 0x509C DUP3 PUSH2 0x4DC2 JUMP JUMPDEST SWAP1 POP PUSH1 0x20 DUP2 ADD SWAP1 POP SWAP2 SWAP1 POP JUMP JUMPDEST DUP3 DUP2 DUP4 CALLDATACOPY PUSH0 DUP4 DUP4 ADD MSTORE POP POP POP JUMP JUMPDEST PUSH0 PUSH2 0x50C9 PUSH2 0x50C4 DUP5 PUSH2 0x5079 JUMP JUMPDEST PUSH2 0x4E30 JUMP JUMPDEST SWAP1 POP DUP3 DUP2 MSTORE PUSH1 0x20 DUP2 ADD DUP5 DUP5 DUP5 ADD GT ISZERO PUSH2 0x50E5 JUMPI PUSH2 0x50E4 PUSH2 0x5075 JUMP JUMPDEST JUMPDEST PUSH2 0x50F0 DUP5 DUP3 DUP6 PUSH2 0x50A9 JUMP JUMPDEST POP SWAP4 SWAP3 POP POP POP JUMP JUMPDEST PUSH0 DUP3 PUSH1 0x1F DUP4 ADD SLT PUSH2 0x510C JUMPI PUSH2 0x510B PUSH2 0x4C8A JUMP JUMPDEST JUMPDEST DUP2 CALLDATALOAD PUSH2 0x511C DUP5 DUP3 PUSH1 0x20 DUP7 ADD PUSH2 0x50B7 JUMP JUMPDEST SWAP2 POP POP SWAP3 SWAP2 POP POP JUMP JUMPDEST PUSH0 DUP1 PUSH0 DUP1 PUSH0 DUP1 PUSH0 DUP1 PUSH0 DUP1 PUSH0 PUSH2 0x160 DUP13 DUP15 SUB SLT ISZERO PUSH2 0x5145 JUMPI PUSH2 0x5144 PUSH2 0x4AFE JUMP JUMPDEST JUMPDEST PUSH0 PUSH2 0x5152 DUP15 DUP3 DUP16 ADD PUSH2 0x4B25 JUMP JUMPDEST SWAP12 POP POP PUSH1 0x20 PUSH2 0x5163 DUP15 DUP3 DUP16 ADD PUSH2 0x4C76 JUMP JUMPDEST SWAP11 POP POP PUSH1 0x40 PUSH2 0x5174 DUP15 DUP3 DUP16 ADD PUSH2 0x4C76 JUMP JUMPDEST SWAP10 POP POP PUSH1 0x60 PUSH2 0x5185 DUP15 DUP3 DUP16 ADD PUSH2 0x4C76 JUMP JUMPDEST SWAP9 POP POP PUSH1 0x80 PUSH2 0x5196 DUP15 DUP3 DUP16 ADD PUSH2 0x4C76 JUMP JUMPDEST SWAP8 POP POP PUSH1 0xA0 PUSH2 0x51A7 DUP15 DUP3 DUP16 ADD PUSH2 0x4C76 JUMP JUMPDEST SWAP7 POP POP PUSH1 0xC0 PUSH2 0x51B8 DUP15 DUP3 DUP16 ADD PUSH2 0x4C76 JUMP JUMPDEST SWAP6 POP POP PUSH1 0xE0 PUSH2 0x51C9 DUP15 DUP3 DUP16 ADD PUSH2 0x4C76 JUMP JUMPDEST SWAP5 POP POP PUSH2 0x100 PUSH2 0x51DB DUP15 DUP3 DUP16 ADD PUSH2 0x4B7F JUMP JUMPDEST SWAP4 POP POP PUSH2 0x120 PUSH2 0x51ED DUP15 DUP3 DUP16 ADD PUSH2 0x4C76 JUMP JUMPDEST SWAP3 POP POP PUSH2 0x140 DUP13 ADD CALLDATALOAD PUSH8 0xFFFFFFFFFFFFFFFF DUP2 GT ISZERO PUSH2 0x520F JUMPI PUSH2 0x520E PUSH2 0x4B02 JUMP JUMPDEST JUMPDEST PUSH2 0x521B DUP15 DUP3 DUP16 ADD PUSH2 0x50F8 JUMP JUMPDEST SWAP2 POP POP SWAP3 SWAP6 SWAP9 SWAP12 POP SWAP3 SWAP6 SWAP9 SWAP12 SWAP1 SWAP4 SWAP7 SWAP10 POP JUMP JUMPDEST PUSH2 0x5237 DUP2 PUSH2 0x4B58 JUMP JUMPDEST DUP3 MSTORE POP POP JUMP JUMPDEST PUSH0 PUSH1 0x20 DUP3 ADD SWAP1 POP PUSH2 0x5250 PUSH0 DUP4 ADD DUP5 PUSH2 0x522E JUMP JUMPDEST SWAP3 SWAP2 POP POP JUMP JUMPDEST PUSH0 DUP2 MLOAD SWAP1 POP SWAP2 SWAP1 POP JUMP JUMPDEST PUSH0 DUP3 DUP3 MSTORE PUSH1 0x20 DUP3 ADD SWAP1 POP SWAP3 SWAP2 POP POP JUMP JUMPDEST DUP3 DUP2 DUP4 MCOPY PUSH0 DUP4 DUP4 ADD MSTORE POP POP POP JUMP JUMPDEST PUSH0 PUSH2 0x5288 DUP3 PUSH2 0x5256 JUMP JUMPDEST PUSH2 0x5292 DUP2 DUP6 PUSH2 0x5260 JUMP JUMPDEST SWAP4 POP PUSH2 0x52A2 DUP2 DUP6 PUSH1 0x20 DUP7 ADD PUSH2 0x5270 JUMP JUMPDEST PUSH2 0x52AB DUP2 PUSH2 0x4DC2 JUMP JUMPDEST DUP5 ADD SWAP2 POP POP SWAP3 SWAP2 POP POP JUMP JUMPDEST PUSH0 PUSH1 0x20 DUP3 ADD SWAP1 POP DUP2 DUP2 SUB PUSH0 DUP4 ADD MSTORE PUSH2 0x52CE DUP2 DUP5 PUSH2 0x527E JUMP JUMPDEST SWAP1 POP SWAP3 SWAP2 POP POP JUMP JUMPDEST PUSH32 0x4F6E6C79206F776E657221000000000000000000000000000000000000000000 PUSH0 DUP3 ADD MSTORE POP JUMP JUMPDEST PUSH0 PUSH2 0x530A PUSH1 0xB DUP4 PUSH2 0x5260 JUMP JUMPDEST SWAP2 POP PUSH2 0x5315 DUP3 PUSH2 0x52D6 JUMP JUMPDEST PUSH1 0x20 DUP3 ADD SWAP1 POP SWAP2 SWAP1 POP JUMP JUMPDEST PUSH0 PUSH1 0x20 DUP3 ADD SWAP1 POP DUP2 DUP2 SUB PUSH0 DUP4 ADD MSTORE PUSH2 0x5337 DUP2 PUSH2 0x52FE JUMP JUMPDEST SWAP1 POP SWAP2 SWAP1 POP JUMP JUMPDEST PUSH32 0x5175657565206E6F7420696E6974696174656421000000000000000000000000 PUSH0 DUP3 ADD MSTORE POP JUMP JUMPDEST PUSH0 PUSH2 0x5372 PUSH1 0x14 DUP4 PUSH2 0x5260 JUMP JUMPDEST SWAP2 POP PUSH2 0x537D DUP3 PUSH2 0x533E JUMP JUMPDEST PUSH1 0x20 DUP3 ADD SWAP1 POP SWAP2 SWAP1 POP JUMP JUMPDEST PUSH0 PUSH1 0x20 DUP3 ADD SWAP1 POP DUP2 DUP2 SUB PUSH0 DUP4 ADD MSTORE PUSH2 0x539F DUP2 PUSH2 0x5366 JUMP JUMPDEST SWAP1 POP SWAP2 SWAP1 POP JUMP JUMPDEST PUSH32 0x4E487B7100000000000000000000000000000000000000000000000000000000 PUSH0 MSTORE PUSH1 0x11 PUSH1 0x4 MSTORE PUSH1 0x24 PUSH0 REVERT JUMPDEST PUSH0 PUSH2 0x53DD DUP3 PUSH2 0x4C04 JUMP JUMPDEST SWAP2 POP PUSH2 0x53E8 DUP4 PUSH2 0x4C04 JUMP JUMPDEST SWAP3 POP DUP3 DUP3 ADD SWAP1 POP DUP1 DUP3 GT ISZERO PUSH2 0x5400 JUMPI PUSH2 0x53FF PUSH2 0x53A6 JUMP JUMPDEST JUMPDEST SWAP3 SWAP2 POP POP JUMP JUMPDEST PUSH32 0x54696D656C6F636B65642C207761697421000000000000000000000000000000 PUSH0 DUP3 ADD MSTORE POP JUMP JUMPDEST PUSH0 PUSH2 0x543A PUSH1 0x11 DUP4 PUSH2 0x5260 JUMP JUMPDEST SWAP2 POP PUSH2 0x5445 DUP3 PUSH2 0x5406 JUMP JUMPDEST PUSH1 0x20 DUP3 ADD SWAP1 POP SWAP2 SWAP1 POP JUMP JUMPDEST PUSH0 PUSH1 0x20 DUP3 ADD SWAP1 POP DUP2 DUP2 SUB PUSH0 DUP4 ADD MSTORE PUSH2 0x5467 DUP2 PUSH2 0x542E JUMP JUMPDEST SWAP1 POP SWAP2 SWAP1 POP JUMP JUMPDEST PUSH32 0x477261646520706572696F642065787069726564210000000000000000000000 PUSH0 DUP3 ADD MSTORE POP JUMP JUMPDEST PUSH0 PUSH2 0x54A2 PUSH1 0x15 DUP4 PUSH2 0x5260 JUMP JUMPDEST SWAP2 POP PUSH2 0x54AD DUP3 PUSH2 0x546E JUMP JUMPDEST PUSH1 0x20 DUP3 ADD SWAP1 POP SWAP2 SWAP1 POP JUMP JUMPDEST PUSH0 PUSH1 0x20 DUP3 ADD SWAP1 POP DUP2 DUP2 SUB PUSH0 DUP4 ADD MSTORE PUSH2 0x54CF DUP2 PUSH2 0x5496 JUMP JUMPDEST SWAP1 POP SWAP2 SWAP1 POP JUMP JUMPDEST PUSH32 0x4E6F7420656E6F756768207369676E6174757265732100000000000000000000 PUSH0 DUP3 ADD MSTORE POP JUMP JUMPDEST PUSH0 PUSH2 0x550A PUSH1 0x16 DUP4 PUSH2 0x5260 JUMP JUMPDEST SWAP2 POP PUSH2 0x5515 DUP3 PUSH2 0x54D6 JUMP JUMPDEST PUSH1 0x20 DUP3 ADD SWAP1 POP SWAP2 SWAP1 POP JUMP JUMPDEST PUSH0 PUSH1 0x20 DUP3 ADD SWAP1 POP DUP2 DUP2 SUB PUSH0 DUP4 ADD MSTORE PUSH2 0x5537 DUP2 PUSH2 0x54FE JUMP JUMPDEST SWAP1 POP SWAP2 SWAP1 POP JUMP JUMPDEST PUSH32 0x5369676E61747572657320686176652065787069726564210000000000000000 PUSH0 DUP3 ADD MSTORE POP JUMP JUMPDEST PUSH0 PUSH2 0x5572 PUSH1 0x18 DUP4 PUSH2 0x5260 JUMP JUMPDEST SWAP2 POP PUSH2 0x557D DUP3 PUSH2 0x553E JUMP JUMPDEST PUSH1 0x20 DUP3 ADD SWAP1 POP SWAP2 SWAP1 POP JUMP JUMPDEST PUSH0 PUSH1 0x20 DUP3 ADD SWAP1 POP DUP2 DUP2 SUB PUSH0 DUP4 ADD MSTORE PUSH2 0x559F DUP2 PUSH2 0x5566 JUMP JUMPDEST SWAP1 POP SWAP2 SWAP1 POP JUMP JUMPDEST PUSH32 0x41756374696F6E20646F6573206E6F7420657869737421000000000000000000 PUSH0 DUP3 ADD MSTORE POP JUMP JUMPDEST PUSH0 PUSH2 0x55DA PUSH1 0x17 DUP4 PUSH2 0x5260 JUMP JUMPDEST SWAP2 POP PUSH2 0x55E5 DUP3 PUSH2 0x55A6 JUMP JUMPDEST PUSH1 0x20 DUP3 ADD SWAP1 POP SWAP2 SWAP1 POP JUMP JUMPDEST PUSH0 PUSH1 0x20 DUP3 ADD SWAP1 POP DUP2 DUP2 SUB PUSH0 DUP4 ADD MSTORE PUSH2 0x5607 DUP2 PUSH2 0x55CE JUMP JUMPDEST SWAP1 POP SWAP2 SWAP1 POP JUMP JUMPDEST PUSH32 0x5061757365642100000000000000000000000000000000000000000000000000 PUSH0 DUP3 ADD MSTORE POP JUMP JUMPDEST PUSH0 PUSH2 0x5642 PUSH1 0x7 DUP4 PUSH2 0x5260 JUMP JUMPDEST SWAP2 POP PUSH2 0x564D DUP3 PUSH2 0x560E JUMP JUMPDEST PUSH1 0x20 DUP3 ADD SWAP1 POP SWAP2 SWAP1 POP JUMP JUMPDEST PUSH0 PUSH1 0x20 DUP3 ADD SWAP1 POP DUP2 DUP2 SUB PUSH0 DUP4 ADD MSTORE PUSH2 0x566F DUP2 PUSH2 0x5636 JUMP JUMPDEST SWAP1 POP SWAP2 SWAP1 POP JUMP JUMPDEST PUSH32 0x41756374696F6E2069732072756E6E696E672100000000000000000000000000 PUSH0 DUP3 ADD MSTORE POP JUMP JUMPDEST PUSH0 PUSH2 0x56AA PUSH1 0x13 DUP4 PUSH2 0x5260 JUMP JUMPDEST SWAP2 POP PUSH2 0x56B5 DUP3 PUSH2 0x5676 JUMP JUMPDEST PUSH1 0x20 DUP3 ADD SWAP1 POP SWAP2 SWAP1 POP JUMP JUMPDEST PUSH0 PUSH1 0x20 DUP3 ADD SWAP1 POP DUP2 DUP2 SUB PUSH0 DUP4 ADD MSTORE PUSH2 0x56D7 DUP2 PUSH2 0x569E JUMP JUMPDEST SWAP1 POP SWAP2 SWAP1 POP JUMP JUMPDEST PUSH32 0x4E6F742061207369676E65722100000000000000000000000000000000000000 PUSH0 DUP3 ADD MSTORE POP JUMP JUMPDEST PUSH0 PUSH2 0x5712 PUSH1 0xD DUP4 PUSH2 0x5260 JUMP JUMPDEST SWAP2 POP PUSH2 0x571D DUP3 PUSH2 0x56DE JUMP JUMPDEST PUSH1 0x20 DUP3 ADD SWAP1 POP SWAP2 SWAP1 POP JUMP JUMPDEST PUSH0 PUSH1 0x20 DUP3 ADD SWAP1 POP DUP2 DUP2 SUB PUSH0 DUP4 ADD MSTORE PUSH2 0x573F DUP2 PUSH2 0x5706 JUMP JUMPDEST SWAP1 POP SWAP2 SWAP1 POP JUMP JUMPDEST PUSH32 0x41756374696F6E20686173206E6F742073746172746564210000000000000000 PUSH0 DUP3 ADD MSTORE POP JUMP JUMPDEST PUSH0 PUSH2 0x577A PUSH1 0x18 DUP4 PUSH2 0x5260 JUMP JUMPDEST SWAP2 POP PUSH2 0x5785 DUP3 PUSH2 0x5746 JUMP JUMPDEST PUSH1 0x20 DUP3 ADD SWAP1 POP SWAP2 SWAP1 POP JUMP JUMPDEST PUSH0 PUSH1 0x20 DUP3 ADD SWAP1 POP DUP2 DUP2 SUB PUSH0 DUP4 ADD MSTORE PUSH2 0x57A7 DUP2 PUSH2 0x576E JUMP JUMPDEST SWAP1 POP SWAP2 SWAP1 POP JUMP JUMPDEST PUSH32 0x41756374696F6E2068617320656E646564210000000000000000000000000000 PUSH0 DUP3 ADD MSTORE POP JUMP JUMPDEST PUSH0 PUSH2 0x57E2 PUSH1 0x12 DUP4 PUSH2 0x5260 JUMP JUMPDEST SWAP2 POP PUSH2 0x57ED DUP3 PUSH2 0x57AE JUMP JUMPDEST PUSH1 0x20 DUP3 ADD SWAP1 POP SWAP2 SWAP1 POP JUMP JUMPDEST PUSH0 PUSH1 0x20 DUP3 ADD SWAP1 POP DUP2 DUP2 SUB PUSH0 DUP4 ADD MSTORE PUSH2 0x580F DUP2 PUSH2 0x57D6 JUMP JUMPDEST SWAP1 POP SWAP2 SWAP1 POP JUMP JUMPDEST PUSH0 PUSH2 0x5820 DUP3 PUSH2 0x5041 JUMP JUMPDEST SWAP2 POP PUSH1 0xFF DUP3 SUB PUSH2 0x5833 JUMPI PUSH2 0x5832 PUSH2 0x53A6 JUMP JUMPDEST JUMPDEST PUSH1 0x1 DUP3 ADD SWAP1 POP SWAP2 SWAP1 POP JUMP JUMPDEST PUSH32 0x41756374696F6E20616C72656164792065786973747321000000000000000000 PUSH0 DUP3 ADD MSTORE POP JUMP JUMPDEST PUSH0 PUSH2 0x5872 PUSH1 0x17 DUP4 PUSH2 0x5260 JUMP JUMPDEST SWAP2 POP PUSH2 0x587D DUP3 PUSH2 0x583E JUMP JUMPDEST PUSH1 0x20 DUP3 ADD SWAP1 POP SWAP2 SWAP1 POP JUMP JUMPDEST PUSH0 PUSH1 0x20 DUP3 ADD SWAP1 POP DUP2 DUP2 SUB PUSH0 DUP4 ADD MSTORE PUSH2 0x589F DUP2 PUSH2 0x5866 JUMP JUMPDEST SWAP1 POP SWAP2 SWAP1 POP JUMP JUMPDEST PUSH0 PUSH2 0x58B0 DUP3 PUSH2 0x4C04 JUMP JUMPDEST SWAP2 POP PUSH2 0x58BB DUP4 PUSH2 0x4C04 JUMP JUMPDEST SWAP3 POP DUP3 DUP3 SUB SWAP1 POP DUP2 DUP2 GT ISZERO PUSH2 0x58D3 JUMPI PUSH2 0x58D2 PUSH2 0x53A6 JUMP JUMPDEST JUMPDEST SWAP3 SWAP2 POP POP JUMP JUMPDEST PUSH2 0x58E2 DUP2 PUSH2 0x4BD1 JUMP JUMPDEST DUP2 EQ PUSH2 0x58EC JUMPI PUSH0 DUP1 REVERT JUMPDEST POP JUMP JUMPDEST PUSH0 DUP2 MLOAD SWAP1 POP PUSH2 0x58FD DUP2 PUSH2 0x58D9 JUMP JUMPDEST SWAP3 SWAP2 POP POP JUMP JUMPDEST PUSH0 PUSH1 0x20 DUP3 DUP5 SUB SLT ISZERO PUSH2 0x5918 JUMPI PUSH2 0x5917 PUSH2 0x4AFE JUMP JUMPDEST JUMPDEST PUSH0 PUSH2 0x5925 DUP5 DUP3 DUP6 ADD PUSH2 0x58EF JUMP JUMPDEST SWAP2 POP POP SWAP3 SWAP2 POP POP JUMP JUMPDEST PUSH0 DUP2 MLOAD SWAP1 POP PUSH2 0x593C DUP2 PUSH2 0x4B69 JUMP JUMPDEST SWAP3 SWAP2 POP POP JUMP JUMPDEST PUSH0 PUSH1 0x20 DUP3 DUP5 SUB SLT ISZERO PUSH2 0x5957 JUMPI PUSH2 0x5956 PUSH2 0x4AFE JUMP JUMPDEST JUMPDEST PUSH0 PUSH2 0x5964 DUP5 DUP3 DUP6 ADD PUSH2 0x592E JUMP JUMPDEST SWAP2 POP POP SWAP3 SWAP2 POP POP JUMP JUMPDEST PUSH32 0x4E487B7100000000000000000000000000000000000000000000000000000000 PUSH0 MSTORE PUSH1 0x22 PUSH1 0x4 MSTORE PUSH1 0x24 PUSH0 REVERT JUMPDEST PUSH0 PUSH1 0x2 DUP3 DIV SWAP1 POP PUSH1 0x1 DUP3 AND DUP1 PUSH2 0x59B1 JUMPI PUSH1 0x7F DUP3 AND SWAP2 POP JUMPDEST PUSH1 0x20 DUP3 LT DUP2 SUB PUSH2 0x59C4 JUMPI PUSH2 0x59C3 PUSH2 0x596D JUMP JUMPDEST JUMPDEST POP SWAP2 SWAP1 POP JUMP JUMPDEST PUSH0 DUP2 SWAP1 POP DUP2 PUSH0 MSTORE PUSH1 0x20 PUSH0 KECCAK256 SWAP1 POP SWAP2 SWAP1 POP JUMP JUMPDEST PUSH0 PUSH1 0x20 PUSH1 0x1F DUP4 ADD DIV SWAP1 POP SWAP2 SWAP1 POP JUMP JUMPDEST PUSH0 DUP3 DUP3 SHL SWAP1 POP SWAP3 SWAP2 POP POP JUMP JUMPDEST PUSH0 PUSH1 0x8 DUP4 MUL PUSH2 0x5A26 PUSH32 0xFFFFFFFFFFFFFFFFFFFFFFFFFFFFFFFFFFFFFFFFFFFFFFFFFFFFFFFFFFFFFFFF DUP3 PUSH2 0x59EB JUMP JUMPDEST PUSH2 0x5A30 DUP7 DUP4 PUSH2 0x59EB JUMP JUMPDEST SWAP6 POP DUP1 NOT DUP5 AND SWAP4 POP DUP1 DUP7 AND DUP5 OR SWAP3 POP POP POP SWAP4 SWAP3 POP POP POP JUMP JUMPDEST PUSH0 PUSH2 0x5A62 PUSH2 0x5A5D PUSH2 0x5A58 DUP5 PUSH2 0x4C04 JUMP JUMPDEST PUSH2 0x4F64 JUMP JUMPDEST PUSH2 0x4C04 JUMP JUMPDEST SWAP1 POP SWAP2 SWAP1 POP JUMP JUMPDEST PUSH0 DUP2 SWAP1 POP SWAP2 SWAP1 POP JUMP JUMPDEST PUSH2 0x5A7B DUP4 PUSH2 0x5A48 JUMP JUMPDEST PUSH2 0x5A8F PUSH2 0x5A87 DUP3 PUSH2 0x5A69 JUMP JUMPDEST DUP5 DUP5 SLOAD PUSH2 0x59F7 JUMP JUMPDEST DUP3 SSTORE POP POP POP POP JUMP JUMPDEST PUSH0 SWAP1 JUMP JUMPDEST PUSH2 0x5AA3 PUSH2 0x5A97 JUMP JUMPDEST PUSH2 0x5AAE DUP2 DUP5 DUP5 PUSH2 0x5A72 JUMP JUMPDEST POP POP POP JUMP JUMPDEST JUMPDEST DUP2 DUP2 LT ISZERO PUSH2 0x5AD1 JUMPI PUSH2 0x5AC6 PUSH0 DUP3 PUSH2 0x5A9B JUMP JUMPDEST PUSH1 0x1 DUP2 ADD SWAP1 POP PUSH2 0x5AB4 JUMP JUMPDEST POP POP JUMP JUMPDEST PUSH1 0x1F DUP3 GT ISZERO PUSH2 0x5B16 JUMPI PUSH2 0x5AE7 DUP2 PUSH2 0x59CA JUMP JUMPDEST PUSH2 0x5AF0 DUP5 PUSH2 0x59DC JUMP JUMPDEST DUP2 ADD PUSH1 0x20 DUP6 LT ISZERO PUSH2 0x5AFF JUMPI DUP2 SWAP1 POP JUMPDEST PUSH2 0x5B13 PUSH2 0x5B0B DUP6 PUSH2 0x59DC JUMP JUMPDEST DUP4 ADD DUP3 PUSH2 0x5AB3 JUMP JUMPDEST POP POP JUMPDEST POP POP POP JUMP JUMPDEST PUSH0 DUP3 DUP3 SHR SWAP1 POP SWAP3 SWAP2 POP POP JUMP JUMPDEST PUSH0 PUSH2 0x5B36 PUSH0 NOT DUP5 PUSH1 0x8 MUL PUSH2 0x5B1B JUMP JUMPDEST NOT DUP1 DUP4 AND SWAP2 POP POP SWAP3 SWAP2 POP POP JUMP JUMPDEST PUSH0 PUSH2 0x5B4E DUP4 DUP4 PUSH2 0x5B27 JUMP JUMPDEST SWAP2 POP DUP3 PUSH1 0x2 MUL DUP3 OR SWAP1 POP SWAP3 SWAP2 POP POP JUMP JUMPDEST PUSH2 0x5B67 DUP3 PUSH2 0x5256 JUMP JUMPDEST PUSH8 0xFFFFFFFFFFFFFFFF DUP2 GT ISZERO PUSH2 0x5B80 JUMPI PUSH2 0x5B7F PUSH2 0x4DD2 JUMP JUMPDEST JUMPDEST PUSH2 0x5B8A DUP3 SLOAD PUSH2 0x599A JUMP JUMPDEST PUSH2 0x5B95 DUP3 DUP3 DUP6 PUSH2 0x5AD5 JUMP JUMPDEST PUSH0 PUSH1 0x20 SWAP1 POP PUSH1 0x1F DUP4 GT PUSH1 0x1 DUP2 EQ PUSH2 0x5BC6 JUMPI PUSH0 DUP5 ISZERO PUSH2 0x5BB4 JUMPI DUP3 DUP8 ADD MLOAD SWAP1 POP JUMPDEST PUSH2 0x5BBE DUP6 DUP3 PUSH2 0x5B43 JUMP JUMPDEST DUP7 SSTORE POP PUSH2 0x5C25 JUMP JUMPDEST PUSH1 0x1F NOT DUP5 AND PUSH2 0x5BD4 DUP7 PUSH2 0x59CA JUMP JUMPDEST PUSH0 JUMPDEST DUP3 DUP2 LT ISZERO PUSH2 0x5BFB JUMPI DUP5 DUP10 ADD MLOAD DUP3 SSTORE PUSH1 0x1 DUP3 ADD SWAP2 POP PUSH1 0x20 DUP6 ADD SWAP5 POP PUSH1 0x20 DUP2 ADD SWAP1 POP PUSH2 0x5BD6 JUMP JUMPDEST DUP7 DUP4 LT ISZERO PUSH2 0x5C18 JUMPI DUP5 DUP10 ADD MLOAD PUSH2 0x5C14 PUSH1 0x1F DUP10 AND DUP3 PUSH2 0x5B27 JUMP JUMPDEST DUP4 SSTORE POP JUMPDEST PUSH1 0x1 PUSH1 0x2 DUP9 MUL ADD DUP9 SSTORE POP POP POP JUMPDEST POP POP POP POP POP POP JUMP JUMPDEST PUSH32 0x41756374696F6E2069732063616E63656C6C6564210000000000000000000000 PUSH0 DUP3 ADD MSTORE POP JUMP JUMPDEST PUSH0 PUSH2 0x5C61 PUSH1 0x15 DUP4 PUSH2 0x5260 JUMP JUMPDEST SWAP2 POP PUSH2 0x5C6C DUP3 PUSH2 0x5C2D JUMP JUMPDEST PUSH1 0x20 DUP3 ADD SWAP1 POP SWAP2 SWAP1 POP JUMP JUMPDEST PUSH0 PUSH1 0x20 DUP3 ADD SWAP1 POP DUP2 DUP2 SUB PUSH0 DUP4 ADD MSTORE PUSH2 0x5C8E DUP2 PUSH2 0x5C55 JUMP JUMPDEST SWAP1 POP SWAP2 SWAP1 POP JUMP JUMPDEST PUSH32 0x4164647265737320686173206E6F74207061696420656E747279206665652100 PUSH0 DUP3 ADD MSTORE POP JUMP JUMPDEST PUSH0 PUSH2 0x5CC9 PUSH1 0x1F DUP4 PUSH2 0x5260 JUMP JUMPDEST SWAP2 POP PUSH2 0x5CD4 DUP3 PUSH2 0x5C95 JUMP JUMPDEST PUSH1 0x20 DUP3 ADD SWAP1 POP SWAP2 SWAP1 POP JUMP JUMPDEST PUSH0 PUSH1 0x20 DUP3 ADD SWAP1 POP DUP2 DUP2 SUB PUSH0 DUP4 ADD MSTORE PUSH2 0x5CF6 DUP2 PUSH2 0x5CBD JUMP JUMPDEST SWAP1 POP SWAP2 SWAP1 POP JUMP JUMPDEST PUSH32 0x4164647265737320697320626C61636B6C697374656421000000000000000000 PUSH0 DUP3 ADD MSTORE POP JUMP JUMPDEST PUSH0 PUSH2 0x5D31 PUSH1 0x17 DUP4 PUSH2 0x5260 JUMP JUMPDEST SWAP2 POP PUSH2 0x5D3C DUP3 PUSH2 0x5CFD JUMP JUMPDEST PUSH1 0x20 DUP3 ADD SWAP1 POP SWAP2 SWAP1 POP JUMP JUMPDEST PUSH0 PUSH1 0x20 DUP3 ADD SWAP1 POP DUP2 DUP2 SUB PUSH0 DUP4 ADD MSTORE PUSH2 0x5D5E DUP2 PUSH2 0x5D25 JUMP JUMPDEST SWAP1 POP SWAP2 SWAP1 POP JUMP JUMPDEST PUSH32 0x41646472657373206E6F742077686974656C6973746564210000000000000000 PUSH0 DUP3 ADD MSTORE POP JUMP JUMPDEST PUSH0 PUSH2 0x5D99 PUSH1 0x18 DUP4 PUSH2 0x5260 JUMP JUMPDEST SWAP2 POP PUSH2 0x5DA4 DUP3 PUSH2 0x5D65 JUMP JUMPDEST PUSH1 0x20 DUP3 ADD SWAP1 POP SWAP2 SWAP1 POP JUMP JUMPDEST PUSH0 PUSH1 0x20 DUP3 ADD SWAP1 POP DUP2 DUP2 SUB PUSH0 DUP4 ADD MSTORE PUSH2 0x5DC6 DUP2 PUSH2 0x5D8D JUMP JUMPDEST SWAP1 POP SWAP2 SWAP1 POP JUMP JUMPDEST PUSH32 0x426964206C6F776572207468616E2073746172696E6720707269636521000000 PUSH0 DUP3 ADD MSTORE POP JUMP JUMPDEST PUSH0 PUSH2 0x5E01 PUSH1 0x1D DUP4 PUSH2 0x5260 JUMP JUMPDEST SWAP2 POP PUSH2 0x5E0C DUP3 PUSH2 0x5DCD JUMP JUMPDEST PUSH1 0x20 DUP3 ADD SWAP1 POP SWAP2 SWAP1 POP JUMP JUMPDEST PUSH0 PUSH1 0x20 DUP3 ADD SWAP1 POP DUP2 DUP2 SUB PUSH0 DUP4 ADD MSTORE PUSH2 0x5E2E DUP2 PUSH2 0x5DF5 JUMP JUMPDEST SWAP1 POP SWAP2 SWAP1 POP JUMP JUMPDEST PUSH32 0x42696420746F6F206C6F77210000000000000000000000000000000000000000 PUSH0 DUP3 ADD MSTORE POP JUMP JUMPDEST PUSH0 PUSH2 0x5E69 PUSH1 0xC DUP4 PUSH2 0x5260 JUMP JUMPDEST SWAP2 POP PUSH2 0x5E74 DUP3 PUSH2 0x5E35 JUMP JUMPDEST PUSH1 0x20 DUP3 ADD SWAP1 POP SWAP2 SWAP1 POP JUMP JUMPDEST PUSH0 PUSH1 0x20 DUP3 ADD SWAP1 POP DUP2 DUP2 SUB PUSH0 DUP4 ADD MSTORE PUSH2 0x5E96 DUP2 PUSH2 0x5E5D JUMP JUMPDEST SWAP1 POP SWAP2 SWAP1 POP JUMP JUMPDEST PUSH0 PUSH1 0x40 DUP3 ADD SWAP1 POP PUSH2 0x5EB0 PUSH0 DUP4 ADD DUP6 PUSH2 0x522E JUMP JUMPDEST PUSH2 0x5EBD PUSH1 0x20 DUP4 ADD DUP5 PUSH2 0x4C0D JUMP JUMPDEST SWAP4 SWAP3 POP POP POP JUMP JUMPDEST PUSH32 0x4E6F742070617573656421000000000000000000000000000000000000000000 PUSH0 DUP3 ADD MSTORE POP JUMP JUMPDEST PUSH0 PUSH2 0x5EF8 PUSH1 0xB DUP4 PUSH2 0x5260 JUMP JUMPDEST SWAP2 POP PUSH2 0x5F03 DUP3 PUSH2 0x5EC4 JUMP JUMPDEST PUSH1 0x20 DUP3 ADD SWAP1 POP SWAP2 SWAP1 POP JUMP JUMPDEST PUSH0 PUSH1 0x20 DUP3 ADD SWAP1 POP DUP2 DUP2 SUB PUSH0 DUP4 ADD MSTORE PUSH2 0x5F25 DUP2 PUSH2 0x5EEC JUMP JUMPDEST SWAP1 POP SWAP2 SWAP1 POP JUMP JUMPDEST PUSH0 PUSH1 0x60 DUP3 ADD SWAP1 POP PUSH2 0x5F3F PUSH0 DUP4 ADD DUP7 PUSH2 0x522E JUMP JUMPDEST PUSH2 0x5F4C PUSH1 0x20 DUP4 ADD DUP6 PUSH2 0x522E JUMP JUMPDEST PUSH2 0x5F59 PUSH1 0x40 DUP4 ADD DUP5 PUSH2 0x4C0D JUMP JUMPDEST SWAP5 SWAP4 POP POP POP POP JUMP JUMPDEST PUSH32 0x4E487B7100000000000000000000000000000000000000000000000000000000 PUSH0 MSTORE PUSH1 0x32 PUSH1 0x4 MSTORE PUSH1 0x24 PUSH0 REVERT INVALID LOG2 PUSH5 0x6970667358 0x22 SLT KECCAK256 DUP16 0x21 0xB6 POP 0xB5 0xAE 0xE8 DUP12 MOD MLOAD SWAP1 0xE5 PUSH30 0xE62B2E06E13C48C30E9DE773F92F706C0682B564736F6C634300081A0033 "
		},
		"gasEstimates": {
			"creation": {
				"codeDepositCost": "4903200",
				"executionCost": "infinite",
				"totalCost": "infinite"
			},
			"external": {
				"acceptOwnership()": "54971",
				"auctionEndBlock(bytes32)": "2859",
				"auctionExists(bytes32)": "2879",
				"auctionHighestBidAmount(bytes32)": "2881",
				"auctionSnipeBlocks(bytes32)": "2881",
				"auctionSnipeInterval(bytes32)": "2860",
				"auctionStartBlock(bytes32)": "2837",
				"auctionWinner(bytes32)": "2920",
				"bid(bytes32)": "infinite",
				"bidIncrement(bytes32)": "2859",
				"blacklistParticipants(bytes32,address[])": "infinite",
				"cancelAuction(bytes32)": "infinite",
				"closedAuction(bytes32)": "2944",
				"configureAsBlacklistedAuction(bytes32)": "37400",
				"configureAsCancellableAuction(bytes32)": "37399",
				"configureAsClosedAuction(bytes32)": "37401",
				"contractETHBalance()": "403",
				"createNewAuction(bytes32,uint256,uint256,uint256,uint256,uint256,uint256,uint256,address,uint256,string)": "infinite",
				"currentSignatureCount()": "2584",
				"getBidAmountOfBidder(bytes32,address)": "3166",
				"getEntryFee(bytes32)": "2903",
				"getIPFS(bytes32)": "infinite",
				"getQueueTime()": "2566",
				"getSignatureExpiryTime()": "2566",
				"hasPaidEntryFee(bytes32,address)": "3184",
				"hasSigned(address)": "3003",
				"hasWithdrawnEntryFee(bytes32,address)": "3187",
				"isBlacklistAuction(bytes32)": "2922",
				"isBlacklistedParticipant(bytes32,address)": "3231",
				"isCancellable(bytes32)": "2922",
				"isCancelled(bytes32)": "2877",
				"isPaused()": "2563",
				"isSigner(address)": "2961",
				"isWhitelisted(bytes32,address)": "3227",
				"nftContractAddress(bytes32)": "infinite",
				"nftTokenID(bytes32)": "2880",
				"onERC721Received(address,address,uint256,bytes)": "infinite",
				"owner()": "2627",
				"ownerWithdrew(bytes32)": "2878",
				"payEntryFee(bytes32)": "infinite",
				"pendingOwner()": "2626",
				"registerSignature()": "infinite",
				"renounceOwnership()": "infinite",
				"renounceUnlocked()": "2637",
				"reservePrice(bytes32)": "2880",
				"resetPendingOwner()": "26848",
				"setEntryFee(bytes32,uint256)": "infinite",
				"socialGuardianRecovery(address)": "infinite",
				"startQueue()": "infinite",
				"startRenounceProcess()": "infinite",
				"startingPrice(bytes32)": "2836",
				"terminateRenounceProcess()": "infinite",
				"transferOwnership(address)": "infinite",
				"turnEmergencyPauseOff()": "infinite",
				"turnEmergencyPauseOn()": "infinite",
				"whitelistParticipants(bytes32,address[])": "infinite",
				"withdrawBid(bytes32)": "infinite",
				"withdrawEntryFee(bytes32)": "infinite"
			},
			"internal": {
				"isSmartContract(address)": "2651"
			}
		},
		"methodIdentifiers": {
			"acceptOwnership()": "79ba5097",
			"auctionEndBlock(bytes32)": "2f5a3f99",
			"auctionExists(bytes32)": "7a5a69e3",
			"auctionHighestBidAmount(bytes32)": "4c224a22",
			"auctionSnipeBlocks(bytes32)": "b6539881",
			"auctionSnipeInterval(bytes32)": "29b02663",
			"auctionStartBlock(bytes32)": "2c7b7f74",
			"auctionWinner(bytes32)": "afba68e3",
			"bid(bytes32)": "957bb1e0",
			"bidIncrement(bytes32)": "88d06aa1",
			"blacklistParticipants(bytes32,address[])": "17ac6e44",
			"cancelAuction(bytes32)": "3ef4d130",
			"closedAuction(bytes32)": "529f7ff1",
			"configureAsBlacklistedAuction(bytes32)": "5b6b12a1",
			"configureAsCancellableAuction(bytes32)": "d3f0b50e",
			"configureAsClosedAuction(bytes32)": "3a65477f",
			"contractETHBalance()": "11841c41",
			"createNewAuction(bytes32,uint256,uint256,uint256,uint256,uint256,uint256,uint256,address,uint256,string)": "88021e53",
			"currentSignatureCount()": "75782ab6",
			"getBidAmountOfBidder(bytes32,address)": "4817f4c6",
			"getEntryFee(bytes32)": "32890c16",
			"getIPFS(bytes32)": "b86052f9",
			"getQueueTime()": "652a60ed",
			"getSignatureExpiryTime()": "8e4e210c",
			"hasPaidEntryFee(bytes32,address)": "b78f0478",
			"hasSigned(address)": "bf6a1413",
			"hasWithdrawnEntryFee(bytes32,address)": "0a8874a5",
			"isBlacklistAuction(bytes32)": "30967602",
			"isBlacklistedParticipant(bytes32,address)": "0f76fa07",
			"isCancellable(bytes32)": "958476d0",
			"isCancelled(bytes32)": "9a5d4407",
			"isPaused()": "b187bd26",
			"isSigner(address)": "7df73e27",
			"isWhitelisted(bytes32,address)": "f4099811",
			"nftContractAddress(bytes32)": "18820d53",
			"nftTokenID(bytes32)": "bd9f86df",
			"onERC721Received(address,address,uint256,bytes)": "150b7a02",
			"owner()": "8da5cb5b",
			"ownerWithdrew(bytes32)": "9109ea8a",
			"payEntryFee(bytes32)": "e6b65a22",
			"pendingOwner()": "e30c3978",
			"registerSignature()": "7e9e7959",
			"renounceOwnership()": "715018a6",
			"renounceUnlocked()": "2bb401d4",
			"reservePrice(bytes32)": "a59758c0",
			"resetPendingOwner()": "ea31876a",
			"setEntryFee(bytes32,uint256)": "5e5e52a4",
			"socialGuardianRecovery(address)": "352a939f",
			"startQueue()": "4698b5e2",
			"startRenounceProcess()": "0da55161",
			"startingPrice(bytes32)": "6f89b7db",
			"terminateRenounceProcess()": "a5875cab",
			"transferOwnership(address)": "f2fde38b",
			"turnEmergencyPauseOff()": "c3500639",
			"turnEmergencyPauseOn()": "a60ac480",
			"whitelistParticipants(bytes32,address[])": "553138d4",
			"withdrawBid(bytes32)": "f7fd24c7",
			"withdrawEntryFee(bytes32)": "11c3f586"
		}
	},
	"abi": [
		{
			"anonymous": false,
			"inputs": [
				{
					"indexed": true,
					"internalType": "bytes32",
					"name": "auctionID_",
					"type": "bytes32"
				}
			],
			"name": "AddedBlacklistedParticipants",
			"type": "event"
		},
		{
			"anonymous": false,
			"inputs": [
				{
					"indexed": true,
					"internalType": "bytes32",
					"name": "auctionID_",
					"type": "bytes32"
				}
			],
			"name": "AddedWhitelistedParticipants",
			"type": "event"
		},
		{
			"anonymous": false,
			"inputs": [
				{
					"indexed": true,
					"internalType": "bytes32",
					"name": "auctionID_",
					"type": "bytes32"
				}
			],
			"name": "AuctionCancelled",
			"type": "event"
		},
		{
			"anonymous": false,
			"inputs": [
				{
					"indexed": true,
					"internalType": "bytes32",
					"name": "auctionID_",
					"type": "bytes32"
				}
			],
			"name": "AuctionConfiguredAsBlacklisted",
			"type": "event"
		},
		{
			"anonymous": false,
			"inputs": [
				{
					"indexed": true,
					"internalType": "bytes32",
					"name": "auctionID_",
					"type": "bytes32"
				}
			],
			"name": "AuctionConfiguredAsCancellable",
			"type": "event"
		},
		{
			"anonymous": false,
			"inputs": [
				{
					"indexed": true,
					"internalType": "bytes32",
					"name": "auctionID_",
					"type": "bytes32"
				}
			],
			"name": "AuctionConfiguredAsClosed",
			"type": "event"
		},
		{
			"anonymous": false,
			"inputs": [
				{
					"indexed": true,
					"internalType": "bytes32",
					"name": "auctionID_",
					"type": "bytes32"
				},
				{
					"indexed": false,
					"internalType": "address",
					"name": "bidder_",
					"type": "address"
				},
				{
					"indexed": false,
					"internalType": "uint256",
					"name": "newHighestBidAmount_",
					"type": "uint256"
				}
			],
			"name": "BidPlaced",
			"type": "event"
		},
		{
			"anonymous": false,
			"inputs": [
				{
					"indexed": true,
					"internalType": "bytes32",
					"name": "auctionID_",
					"type": "bytes32"
				},
				{
					"indexed": false,
					"internalType": "address",
					"name": "entity_",
					"type": "address"
				},
				{
					"indexed": false,
					"internalType": "uint256",
					"name": "withdrawAmount_",
					"type": "uint256"
				}
			],
			"name": "BidWithdrawn",
			"type": "event"
		},
		{
			"anonymous": false,
			"inputs": [],
			"name": "EmergencyPauseTurnedOff",
			"type": "event"
		},
		{
			"anonymous": false,
			"inputs": [],
			"name": "EmergencyPauseTurnedOn",
			"type": "event"
		},
		{
			"anonymous": false,
			"inputs": [
				{
					"indexed": true,
					"internalType": "bytes32",
					"name": "auctionID_",
					"type": "bytes32"
				},
				{
					"indexed": false,
					"internalType": "uint256",
					"name": "entryFeeValue_",
					"type": "uint256"
				}
			],
			"name": "EntryFeeConfigured",
			"type": "event"
		},
		{
			"anonymous": false,
			"inputs": [
				{
					"indexed": true,
					"internalType": "bytes32",
					"name": "auctionID_",
					"type": "bytes32"
				},
				{
					"indexed": false,
					"internalType": "address",
					"name": "entity_",
					"type": "address"
				},
				{
					"indexed": false,
					"internalType": "uint256",
					"name": "paidEntryFeeAmount_",
					"type": "uint256"
				}
			],
			"name": "EntryFeePaid",
			"type": "event"
		},
		{
			"anonymous": false,
			"inputs": [
				{
					"indexed": true,
					"internalType": "bytes32",
					"name": "auctionID_",
					"type": "bytes32"
				},
				{
					"indexed": false,
					"internalType": "address",
					"name": "entity_",
					"type": "address"
				},
				{
					"indexed": false,
					"internalType": "uint256",
					"name": "withdrawnEntryFeeAmount_",
					"type": "uint256"
				}
			],
			"name": "EntryFeeWithdrawn",
			"type": "event"
		},
		{
			"anonymous": false,
			"inputs": [
				{
					"indexed": true,
					"internalType": "bytes32",
					"name": "auctionID_",
					"type": "bytes32"
				}
			],
			"name": "NewAuctionRegistered",
			"type": "event"
		},
		{
			"anonymous": false,
			"inputs": [
				{
					"indexed": true,
					"internalType": "address",
					"name": "previousOwner_",
					"type": "address"
				},
				{
					"indexed": true,
					"internalType": "address",
					"name": "newOwner_",
					"type": "address"
				}
			],
			"name": "OwnershipTransferCompleted",
			"type": "event"
		},
		{
			"anonymous": false,
			"inputs": [
				{
					"indexed": true,
					"internalType": "address",
					"name": "owner_",
					"type": "address"
				},
				{
					"indexed": true,
					"internalType": "address",
					"name": "pendingOwner_",
					"type": "address"
				}
			],
			"name": "OwnershipTransferInitiated",
			"type": "event"
		},
		{
			"anonymous": false,
			"inputs": [
				{
					"indexed": true,
					"internalType": "address",
					"name": "owner_",
					"type": "address"
				}
			],
			"name": "RenounceProcessInitiated",
			"type": "event"
		},
		{
			"anonymous": false,
			"inputs": [
				{
					"indexed": true,
					"internalType": "address",
					"name": "owner_",
					"type": "address"
				}
			],
			"name": "RenounceProcessTerminated",
			"type": "event"
		},
		{
			"anonymous": false,
			"inputs": [
				{
					"indexed": false,
					"internalType": "address",
					"name": "signer_",
					"type": "address"
				}
			],
			"name": "SignatureRegistered",
			"type": "event"
		},
		{
			"anonymous": false,
			"inputs": [],
			"name": "SignatureValidityTimeCountdownStarted",
			"type": "event"
		},
		{
			"anonymous": false,
			"inputs": [],
			"name": "SignaturesExpiredAndReset",
			"type": "event"
		},
		{
			"anonymous": false,
			"inputs": [],
			"name": "SignaturesReset",
			"type": "event"
		},
		{
			"anonymous": false,
			"inputs": [
				{
					"indexed": true,
					"internalType": "bytes32",
					"name": "auctionID_",
					"type": "bytes32"
				},
				{
					"indexed": false,
					"internalType": "address",
					"name": "bidder_",
					"type": "address"
				}
			],
			"name": "SnipePreventionTriggered",
			"type": "event"
		},
		{
			"anonymous": false,
			"inputs": [],
			"name": "SocialGuardianRecoveryCompleted",
			"type": "event"
		},
		{
			"anonymous": false,
			"inputs": [],
			"name": "TimeLockQueueReset",
			"type": "event"
		},
		{
			"anonymous": false,
			"inputs": [],
			"name": "TimelockQueueStarted",
			"type": "event"
		},
		{
			"inputs": [],
			"name": "acceptOwnership",
			"outputs": [
				{
					"internalType": "bool",
					"name": "",
					"type": "bool"
				}
			],
			"stateMutability": "nonpayable",
			"type": "function"
		},
		{
			"inputs": [
				{
					"internalType": "bytes32",
					"name": "auctionID_",
					"type": "bytes32"
				}
			],
			"name": "auctionEndBlock",
			"outputs": [
				{
					"internalType": "uint256",
					"name": "",
					"type": "uint256"
				}
			],
			"stateMutability": "view",
			"type": "function"
		},
		{
			"inputs": [
				{
					"internalType": "bytes32",
					"name": "auctionID_",
					"type": "bytes32"
				}
			],
			"name": "auctionExists",
			"outputs": [
				{
					"internalType": "bool",
					"name": "",
					"type": "bool"
				}
			],
			"stateMutability": "view",
			"type": "function"
		},
		{
			"inputs": [
				{
					"internalType": "bytes32",
					"name": "auctionID_",
					"type": "bytes32"
				}
			],
			"name": "auctionHighestBidAmount",
			"outputs": [
				{
					"internalType": "uint256",
					"name": "",
					"type": "uint256"
				}
			],
			"stateMutability": "view",
			"type": "function"
		},
		{
			"inputs": [
				{
					"internalType": "bytes32",
					"name": "auctionID_",
					"type": "bytes32"
				}
			],
			"name": "auctionSnipeBlocks",
			"outputs": [
				{
					"internalType": "uint256",
					"name": "",
					"type": "uint256"
				}
			],
			"stateMutability": "view",
			"type": "function"
		},
		{
			"inputs": [
				{
					"internalType": "bytes32",
					"name": "auctionID_",
					"type": "bytes32"
				}
			],
			"name": "auctionSnipeInterval",
			"outputs": [
				{
					"internalType": "uint256",
					"name": "",
					"type": "uint256"
				}
			],
			"stateMutability": "view",
			"type": "function"
		},
		{
			"inputs": [
				{
					"internalType": "bytes32",
					"name": "auctionID_",
					"type": "bytes32"
				}
			],
			"name": "auctionStartBlock",
			"outputs": [
				{
					"internalType": "uint256",
					"name": "",
					"type": "uint256"
				}
			],
			"stateMutability": "view",
			"type": "function"
		},
		{
			"inputs": [
				{
					"internalType": "bytes32",
					"name": "auctionID_",
					"type": "bytes32"
				}
			],
			"name": "auctionWinner",
			"outputs": [
				{
					"internalType": "address",
					"name": "",
					"type": "address"
				}
			],
			"stateMutability": "view",
			"type": "function"
		},
		{
			"inputs": [
				{
					"internalType": "bytes32",
					"name": "auctionID_",
					"type": "bytes32"
				}
			],
			"name": "bid",
			"outputs": [
				{
					"internalType": "bool",
					"name": "",
					"type": "bool"
				}
			],
			"stateMutability": "payable",
			"type": "function"
		},
		{
			"inputs": [
				{
					"internalType": "bytes32",
					"name": "auctionID_",
					"type": "bytes32"
				}
			],
			"name": "bidIncrement",
			"outputs": [
				{
					"internalType": "uint256",
					"name": "",
					"type": "uint256"
				}
			],
			"stateMutability": "view",
			"type": "function"
		},
		{
			"inputs": [
				{
					"internalType": "bytes32",
					"name": "auctionID_",
					"type": "bytes32"
				},
				{
					"internalType": "address[]",
					"name": "participants_",
					"type": "address[]"
				}
			],
			"name": "blacklistParticipants",
			"outputs": [
				{
					"internalType": "bool",
					"name": "",
					"type": "bool"
				}
			],
			"stateMutability": "nonpayable",
			"type": "function"
		},
		{
			"inputs": [
				{
					"internalType": "bytes32",
					"name": "auctionID_",
					"type": "bytes32"
				}
			],
			"name": "cancelAuction",
			"outputs": [
				{
					"internalType": "bool",
					"name": "",
					"type": "bool"
				}
			],
			"stateMutability": "nonpayable",
			"type": "function"
		},
		{
			"inputs": [
				{
					"internalType": "bytes32",
					"name": "auctionID_",
					"type": "bytes32"
				}
			],
			"name": "closedAuction",
			"outputs": [
				{
					"internalType": "bool",
					"name": "",
					"type": "bool"
				}
			],
			"stateMutability": "view",
			"type": "function"
		},
		{
			"inputs": [
				{
					"internalType": "bytes32",
					"name": "auctionID_",
					"type": "bytes32"
				}
			],
			"name": "configureAsBlacklistedAuction",
			"outputs": [
				{
					"internalType": "bool",
					"name": "",
					"type": "bool"
				}
			],
			"stateMutability": "nonpayable",
			"type": "function"
		},
		{
			"inputs": [
				{
					"internalType": "bytes32",
					"name": "auctionID_",
					"type": "bytes32"
				}
			],
			"name": "configureAsCancellableAuction",
			"outputs": [
				{
					"internalType": "bool",
					"name": "",
					"type": "bool"
				}
			],
			"stateMutability": "nonpayable",
			"type": "function"
		},
		{
			"inputs": [
				{
					"internalType": "bytes32",
					"name": "auctionID_",
					"type": "bytes32"
				}
			],
			"name": "configureAsClosedAuction",
			"outputs": [
				{
					"internalType": "bool",
					"name": "",
					"type": "bool"
				}
			],
			"stateMutability": "nonpayable",
			"type": "function"
		},
		{
			"inputs": [],
			"name": "contractETHBalance",
			"outputs": [
				{
					"internalType": "uint256",
					"name": "",
					"type": "uint256"
				}
			],
			"stateMutability": "view",
			"type": "function"
		},
		{
			"inputs": [
				{
					"internalType": "bytes32",
					"name": "auctionID_",
					"type": "bytes32"
				},
				{
					"internalType": "uint256",
					"name": "auctionStartBlock_",
					"type": "uint256"
				},
				{
					"internalType": "uint256",
					"name": "auctionEndBlock_",
					"type": "uint256"
				},
				{
					"internalType": "uint256",
					"name": "startingPrice_",
					"type": "uint256"
				},
				{
					"internalType": "uint256",
					"name": "bidIncrement_",
					"type": "uint256"
				},
				{
					"internalType": "uint256",
					"name": "reservePrice_",
					"type": "uint256"
				},
				{
					"internalType": "uint256",
					"name": "auctionSnipeInterval_",
					"type": "uint256"
				},
				{
					"internalType": "uint256",
					"name": "auctionSnipeBlocks_",
					"type": "uint256"
				},
				{
					"internalType": "address",
					"name": "nftContractAddress_",
					"type": "address"
				},
				{
					"internalType": "uint256",
					"name": "nftTokenID_",
					"type": "uint256"
				},
				{
					"internalType": "string",
					"name": "ipfs_",
					"type": "string"
				}
			],
			"name": "createNewAuction",
			"outputs": [
				{
					"internalType": "bool",
					"name": "",
					"type": "bool"
				}
			],
			"stateMutability": "nonpayable",
			"type": "function"
		},
		{
			"inputs": [],
			"name": "currentSignatureCount",
			"outputs": [
				{
					"internalType": "uint8",
					"name": "",
					"type": "uint8"
				}
			],
			"stateMutability": "view",
			"type": "function"
		},
		{
			"inputs": [
				{
					"internalType": "bytes32",
					"name": "auctionID_",
					"type": "bytes32"
				},
				{
					"internalType": "address",
					"name": "bidder_",
					"type": "address"
				}
			],
			"name": "getBidAmountOfBidder",
			"outputs": [
				{
					"internalType": "uint256",
					"name": "",
					"type": "uint256"
				}
			],
			"stateMutability": "view",
			"type": "function"
		},
		{
			"inputs": [
				{
					"internalType": "bytes32",
					"name": "auctionID_",
					"type": "bytes32"
				}
			],
			"name": "getEntryFee",
			"outputs": [
				{
					"internalType": "uint256",
					"name": "",
					"type": "uint256"
				}
			],
			"stateMutability": "view",
			"type": "function"
		},
		{
			"inputs": [
				{
					"internalType": "bytes32",
					"name": "auctionID_",
					"type": "bytes32"
				}
			],
			"name": "getIPFS",
			"outputs": [
				{
					"internalType": "string",
					"name": "",
					"type": "string"
				}
			],
			"stateMutability": "view",
			"type": "function"
		},
		{
			"inputs": [],
			"name": "getQueueTime",
			"outputs": [
				{
					"internalType": "uint256",
					"name": "",
					"type": "uint256"
				}
			],
			"stateMutability": "view",
			"type": "function"
		},
		{
			"inputs": [],
			"name": "getSignatureExpiryTime",
			"outputs": [
				{
					"internalType": "uint256",
					"name": "",
					"type": "uint256"
				}
			],
			"stateMutability": "view",
			"type": "function"
		},
		{
			"inputs": [
				{
					"internalType": "bytes32",
					"name": "auctionID_",
					"type": "bytes32"
				},
				{
					"internalType": "address",
					"name": "participant_",
					"type": "address"
				}
			],
			"name": "hasPaidEntryFee",
			"outputs": [
				{
					"internalType": "bool",
					"name": "",
					"type": "bool"
				}
			],
			"stateMutability": "view",
			"type": "function"
		},
		{
			"inputs": [
				{
					"internalType": "address",
					"name": "signer_",
					"type": "address"
				}
			],
			"name": "hasSigned",
			"outputs": [
				{
					"internalType": "bool",
					"name": "",
					"type": "bool"
				}
			],
			"stateMutability": "view",
			"type": "function"
		},
		{
			"inputs": [
				{
					"internalType": "bytes32",
					"name": "auctionID_",
					"type": "bytes32"
				},
				{
					"internalType": "address",
					"name": "participant_",
					"type": "address"
				}
			],
			"name": "hasWithdrawnEntryFee",
			"outputs": [
				{
					"internalType": "bool",
					"name": "",
					"type": "bool"
				}
			],
			"stateMutability": "view",
			"type": "function"
		},
		{
			"inputs": [
				{
					"internalType": "bytes32",
					"name": "auctionID_",
					"type": "bytes32"
				}
			],
			"name": "isBlacklistAuction",
			"outputs": [
				{
					"internalType": "bool",
					"name": "",
					"type": "bool"
				}
			],
			"stateMutability": "view",
			"type": "function"
		},
		{
			"inputs": [
				{
					"internalType": "bytes32",
					"name": "auctionID_",
					"type": "bytes32"
				},
				{
					"internalType": "address",
					"name": "participant_",
					"type": "address"
				}
			],
			"name": "isBlacklistedParticipant",
			"outputs": [
				{
					"internalType": "bool",
					"name": "",
					"type": "bool"
				}
			],
			"stateMutability": "view",
			"type": "function"
		},
		{
			"inputs": [
				{
					"internalType": "bytes32",
					"name": "auctionID_",
					"type": "bytes32"
				}
			],
			"name": "isCancellable",
			"outputs": [
				{
					"internalType": "bool",
					"name": "",
					"type": "bool"
				}
			],
			"stateMutability": "view",
			"type": "function"
		},
		{
			"inputs": [
				{
					"internalType": "bytes32",
					"name": "auctionID_",
					"type": "bytes32"
				}
			],
			"name": "isCancelled",
			"outputs": [
				{
					"internalType": "bool",
					"name": "",
					"type": "bool"
				}
			],
			"stateMutability": "view",
			"type": "function"
		},
		{
			"inputs": [],
			"name": "isPaused",
			"outputs": [
				{
					"internalType": "bool",
					"name": "",
					"type": "bool"
				}
			],
			"stateMutability": "view",
			"type": "function"
		},
		{
			"inputs": [
				{
					"internalType": "address",
					"name": "signer_",
					"type": "address"
				}
			],
			"name": "isSigner",
			"outputs": [
				{
					"internalType": "bool",
					"name": "",
					"type": "bool"
				}
			],
			"stateMutability": "view",
			"type": "function"
		},
		{
			"inputs": [
				{
					"internalType": "bytes32",
					"name": "auctionID_",
					"type": "bytes32"
				},
				{
					"internalType": "address",
					"name": "participant_",
					"type": "address"
				}
			],
			"name": "isWhitelisted",
			"outputs": [
				{
					"internalType": "bool",
					"name": "",
					"type": "bool"
				}
			],
			"stateMutability": "view",
			"type": "function"
		},
		{
			"inputs": [
				{
					"internalType": "bytes32",
					"name": "auctionID_",
					"type": "bytes32"
				}
			],
			"name": "nftContractAddress",
			"outputs": [
				{
					"internalType": "contract AuctionERC721",
					"name": "",
					"type": "address"
				}
			],
			"stateMutability": "view",
			"type": "function"
		},
		{
			"inputs": [
				{
					"internalType": "bytes32",
					"name": "auctionID_",
					"type": "bytes32"
				}
			],
			"name": "nftTokenID",
			"outputs": [
				{
					"internalType": "uint256",
					"name": "",
					"type": "uint256"
				}
			],
			"stateMutability": "view",
			"type": "function"
		},
		{
			"inputs": [
				{
					"internalType": "address",
					"name": "",
					"type": "address"
				},
				{
					"internalType": "address",
					"name": "",
					"type": "address"
				},
				{
					"internalType": "uint256",
					"name": "",
					"type": "uint256"
				},
				{
					"internalType": "bytes",
					"name": "",
					"type": "bytes"
				}
			],
			"name": "onERC721Received",
			"outputs": [
				{
					"internalType": "bytes4",
					"name": "",
					"type": "bytes4"
				}
			],
			"stateMutability": "pure",
			"type": "function"
		},
		{
			"inputs": [],
			"name": "owner",
			"outputs": [
				{
					"internalType": "address",
					"name": "",
					"type": "address"
				}
			],
			"stateMutability": "view",
			"type": "function"
		},
		{
			"inputs": [
				{
					"internalType": "bytes32",
					"name": "auctionID_",
					"type": "bytes32"
				}
			],
			"name": "ownerWithdrew",
			"outputs": [
				{
					"internalType": "bool",
					"name": "",
					"type": "bool"
				}
			],
			"stateMutability": "view",
			"type": "function"
		},
		{
			"inputs": [
				{
					"internalType": "bytes32",
					"name": "auctionID_",
					"type": "bytes32"
				}
			],
			"name": "payEntryFee",
			"outputs": [
				{
					"internalType": "bool",
					"name": "",
					"type": "bool"
				}
			],
			"stateMutability": "payable",
			"type": "function"
		},
		{
			"inputs": [],
			"name": "pendingOwner",
			"outputs": [
				{
					"internalType": "address",
					"name": "",
					"type": "address"
				}
			],
			"stateMutability": "view",
			"type": "function"
		},
		{
			"inputs": [],
			"name": "registerSignature",
			"outputs": [
				{
					"internalType": "bool",
					"name": "",
					"type": "bool"
				}
			],
			"stateMutability": "nonpayable",
			"type": "function"
		},
		{
			"inputs": [],
			"name": "renounceOwnership",
			"outputs": [
				{
					"internalType": "bool",
					"name": "",
					"type": "bool"
				}
			],
			"stateMutability": "nonpayable",
			"type": "function"
		},
		{
			"inputs": [],
			"name": "renounceUnlocked",
			"outputs": [
				{
					"internalType": "bool",
					"name": "",
					"type": "bool"
				}
			],
			"stateMutability": "view",
			"type": "function"
		},
		{
			"inputs": [
				{
					"internalType": "bytes32",
					"name": "auctionID_",
					"type": "bytes32"
				}
			],
			"name": "reservePrice",
			"outputs": [
				{
					"internalType": "uint256",
					"name": "",
					"type": "uint256"
				}
			],
			"stateMutability": "view",
			"type": "function"
		},
		{
			"inputs": [],
			"name": "resetPendingOwner",
			"outputs": [
				{
					"internalType": "bool",
					"name": "",
					"type": "bool"
				}
			],
			"stateMutability": "nonpayable",
			"type": "function"
		},
		{
			"inputs": [
				{
					"internalType": "bytes32",
					"name": "auctionID_",
					"type": "bytes32"
				},
				{
					"internalType": "uint256",
					"name": "entryFee_",
					"type": "uint256"
				}
			],
			"name": "setEntryFee",
			"outputs": [
				{
					"internalType": "bool",
					"name": "",
					"type": "bool"
				}
			],
			"stateMutability": "nonpayable",
			"type": "function"
		},
		{
			"inputs": [
				{
					"internalType": "address",
					"name": "newOwner_",
					"type": "address"
				}
			],
			"name": "socialGuardianRecovery",
			"outputs": [
				{
					"internalType": "bool",
					"name": "",
					"type": "bool"
				}
			],
			"stateMutability": "nonpayable",
			"type": "function"
		},
		{
			"inputs": [],
			"name": "startQueue",
			"outputs": [
				{
					"internalType": "bool",
					"name": "",
					"type": "bool"
				}
			],
			"stateMutability": "nonpayable",
			"type": "function"
		},
		{
			"inputs": [],
			"name": "startRenounceProcess",
			"outputs": [
				{
					"internalType": "bool",
					"name": "",
					"type": "bool"
				}
			],
			"stateMutability": "nonpayable",
			"type": "function"
		},
		{
			"inputs": [
				{
					"internalType": "bytes32",
					"name": "auctionID_",
					"type": "bytes32"
				}
			],
			"name": "startingPrice",
			"outputs": [
				{
					"internalType": "uint256",
					"name": "",
					"type": "uint256"
				}
			],
			"stateMutability": "view",
			"type": "function"
		},
		{
			"inputs": [],
			"name": "terminateRenounceProcess",
			"outputs": [
				{
					"internalType": "bool",
					"name": "",
					"type": "bool"
				}
			],
			"stateMutability": "nonpayable",
			"type": "function"
		},
		{
			"inputs": [
				{
					"internalType": "address",
					"name": "newOwner_",
					"type": "address"
				}
			],
			"name": "transferOwnership",
			"outputs": [
				{
					"internalType": "bool",
					"name": "",
					"type": "bool"
				}
			],
			"stateMutability": "nonpayable",
			"type": "function"
		},
		{
			"inputs": [],
			"name": "turnEmergencyPauseOff",
			"outputs": [
				{
					"internalType": "bool",
					"name": "",
					"type": "bool"
				}
			],
			"stateMutability": "nonpayable",
			"type": "function"
		},
		{
			"inputs": [],
			"name": "turnEmergencyPauseOn",
			"outputs": [
				{
					"internalType": "bool",
					"name": "",
					"type": "bool"
				}
			],
			"stateMutability": "nonpayable",
			"type": "function"
		},
		{
			"inputs": [
				{
					"internalType": "bytes32",
					"name": "auctionID_",
					"type": "bytes32"
				},
				{
					"internalType": "address[]",
					"name": "participants_",
					"type": "address[]"
				}
			],
			"name": "whitelistParticipants",
			"outputs": [
				{
					"internalType": "bool",
					"name": "",
					"type": "bool"
				}
			],
			"stateMutability": "nonpayable",
			"type": "function"
		},
		{
			"inputs": [
				{
					"internalType": "bytes32",
					"name": "auctionID_",
					"type": "bytes32"
				}
			],
			"name": "withdrawBid",
			"outputs": [
				{
					"internalType": "bool",
					"name": "",
					"type": "bool"
				}
			],
			"stateMutability": "nonpayable",
			"type": "function"
		},
		{
			"inputs": [
				{
					"internalType": "bytes32",
					"name": "auctionID_",
					"type": "bytes32"
				}
			],
			"name": "withdrawEntryFee",
			"outputs": [
				{
					"internalType": "bool",
					"name": "",
					"type": "bool"
				}
			],
			"stateMutability": "nonpayable",
			"type": "function"
		}
	]
}