{
	"data": {
		"bytecode": {
			"linkReferences": {},
			"object": "6101c0604052348015610010575f80fd5b506040516165ff3803806165ff8339818101604052810190610032919061084f565b6100413361057560201b60201c565b438b1015610084576040517f08c379a000000000000000000000000000000000000000000000000000000000815260040161007b90610a2e565b60405180910390fd5b898b106100c6576040517f08c379a00000000000000000000000000000000000000000000000000000000081526004016100bd90610ae2565b60405180910390fd5b5f891015610109576040517f08c379a000000000000000000000000000000000000000000000000000000000815260040161010090610b96565b60405180910390fd5b5f88101561014c576040517f08c379a000000000000000000000000000000000000000000000000000000000815260040161014390610c4a565b60405180910390fd5b5f87101561018f576040517f08c379a000000000000000000000000000000000000000000000000000000000815260040161018690610cfe565b60405180910390fd5b5f8510156101d2576040517f08c379a00000000000000000000000000000000000000000000000000000000081526004016101c990610db2565b60405180910390fd5b8a8a6101de9190610dfd565b841061021f576040517f08c379a000000000000000000000000000000000000000000000000000000000815260040161021690610f12565b60405180910390fd5b5f841015610262576040517f08c379a000000000000000000000000000000000000000000000000000000000815260040161025990610fec565b60405180910390fd5b5f8310156102a5576040517f08c379a000000000000000000000000000000000000000000000000000000000815260040161029c906110c6565b60405180910390fd5b8173ffffffffffffffffffffffffffffffffffffffff166301ffc9a77f80ac58cd000000000000000000000000000000000000000000000000000000006040518263ffffffff1660e01b81526004016102fe919061111e565b602060405180830381865afa158015610319573d5f803e3d5ffd5b505050506040513d601f19601f8201168201806040525081019061033d9190611137565b61037c576040517f08c379a0000000000000000000000000000000000000000000000000000000008152600401610373906111f8565b60405180910390fd5b5f73ffffffffffffffffffffffffffffffffffffffff168273ffffffffffffffffffffffffffffffffffffffff16636352211e836040518263ffffffff1660e01b81526004016103cc9190611225565b602060405180830381865afa1580156103e7573d5f803e3d5ffd5b505050506040513d601f19601f8201168201806040525081019061040b919061123e565b73ffffffffffffffffffffffffffffffffffffffff160361042a575f80fd5b3073ffffffffffffffffffffffffffffffffffffffff168273ffffffffffffffffffffffffffffffffffffffff16636352211e836040518263ffffffff1660e01b815260040161047a9190611225565b602060405180830381865afa158015610495573d5f803e3d5ffd5b505050506040513d601f19601f820116820180604052508101906104b9919061123e565b73ffffffffffffffffffffffffffffffffffffffff16146104d8575f80fd5b8a60808181525050896007819055508860a081815250508760c0818152505086610100818152505085151560e0811515815250508461012081815250508361014081815250508261016081815250508173ffffffffffffffffffffffffffffffffffffffff166101808173ffffffffffffffffffffffffffffffffffffffff1681525050806101a081815250505050505050505050505050611269565b5f61058461063360201b60201c565b9050815f806101000a81548173ffffffffffffffffffffffffffffffffffffffff021916908373ffffffffffffffffffffffffffffffffffffffff1602179055506105d5818361065a60201b60201c565b8173ffffffffffffffffffffffffffffffffffffffff168173ffffffffffffffffffffffffffffffffffffffff167fe9a5158ac7353c7c7322ececc080bc8e89334efa5795b6e21e40eb266b0003d660405160405180910390a35050565b5f805f9054906101000a900473ffffffffffffffffffffffffffffffffffffffff16905090565b5f6040518060a001604052808473ffffffffffffffffffffffffffffffffffffffff1681526020018373ffffffffffffffffffffffffffffffffffffffff16815260200143815260200143408152602001468152509050600281908060018154018082558091505060019003905f5260205f2090600502015f909190919091505f820151815f015f6101000a81548173ffffffffffffffffffffffffffffffffffffffff021916908373ffffffffffffffffffffffffffffffffffffffff1602179055506020820151816001015f6101000a81548173ffffffffffffffffffffffffffffffffffffffff021916908373ffffffffffffffffffffffffffffffffffffffff1602179055506040820151816002015560608201518160030155608082015181600401555050505050565b5f80fd5b5f819050919050565b61079f8161078d565b81146107a9575f80fd5b50565b5f815190506107ba81610796565b92915050565b5f8115159050919050565b6107d4816107c0565b81146107de575f80fd5b50565b5f815190506107ef816107cb565b92915050565b5f73ffffffffffffffffffffffffffffffffffffffff82169050919050565b5f61081e826107f5565b9050919050565b61082e81610814565b8114610838575f80fd5b50565b5f8151905061084981610825565b92915050565b5f805f805f805f805f805f6101608c8e03121561086f5761086e610789565b5b5f61087c8e828f016107ac565b9b5050602061088d8e828f016107ac565b9a5050604061089e8e828f016107ac565b99505060606108af8e828f016107ac565b98505060806108c08e828f016107ac565b97505060a06108d18e828f016107e1565b96505060c06108e28e828f016107ac565b95505060e06108f38e828f016107ac565b9450506101006109058e828f016107ac565b9350506101206109178e828f0161083b565b9250506101406109298e828f016107ac565b9150509295989b509295989b9093969950565b5f82825260208201905092915050565b7f494e56414c49442041554354494f4e20434f4e545241435420494e495449414c5f8201527f495a4154494f4e3a207374617274696e6720626c6f636b206d757374206e6f7460208201527f206265206c6f776572207468616e207468652063757272656e7420626c6f636b60408201527f2120416e2061756374696f6e2063616e6e6f7420737461727420696e2074686560608201527f20706173742e0000000000000000000000000000000000000000000000000000608082015250565b5f610a1860868361093c565b9150610a238261094c565b60a082019050919050565b5f6020820190508181035f830152610a4581610a0c565b9050919050565b7f494e56414c49442041554354494f4e20434f4e545241435420494e495449414c5f8201527f495a4154494f4e3a20656e64696e6720626c6f636b206d75737420626520686960208201527f67686572207468616e207374617274696e6720626c6f636b2100000000000000604082015250565b5f610acc60598361093c565b9150610ad782610a4c565b606082019050919050565b5f6020820190508181035f830152610af981610ac0565b9050919050565b7f494e56414c49442041554354494f4e20434f4e545241435420494e495449414c5f8201527f495a4154494f4e3a207374617274696e67207072696365206d7573742062652060208201527f657175616c206f722067726561746572207468616e2030210000000000000000604082015250565b5f610b8060588361093c565b9150610b8b82610b00565b606082019050919050565b5f6020820190508181035f830152610bad81610b74565b9050919050565b7f494e56414c49442041554354494f4e20434f4e545241435420494e495449414c5f8201527f495a4154494f4e3a2062696420696e6372656d656e74206d757374206265206560208201527f7175616c206f722067726561746572207468616e203021000000000000000000604082015250565b5f610c3460578361093c565b9150610c3f82610bb4565b606082019050919050565b5f6020820190508181035f830152610c6181610c28565b9050919050565b7f494e56414c49442041554354494f4e20434f4e545241435420494e495449414c5f8201527f495a4154494f4e3a2072657365727665207072696365206d757374206265206560208201527f7175616c206f722067726561746572207468616e203021000000000000000000604082015250565b5f610ce860578361093c565b9150610cf382610c68565b606082019050919050565b5f6020820190508181035f830152610d1581610cdc565b9050919050565b7f494e56414c49442041554354494f4e20434f4e545241435420494e495449414c5f8201527f495a4154494f4e3a20656e74727920666565206d75737420626520657175616c60208201527f206f722067726561746572207468616e20302100000000000000000000000000604082015250565b5f610d9c60538361093c565b9150610da782610d1c565b606082019050919050565b5f6020820190508181035f830152610dc981610d90565b9050919050565b7f4e487b71000000000000000000000000000000000000000000000000000000005f52601160045260245ffd5b5f610e078261078d565b9150610e128361078d565b9250828203905081811115610e2a57610e29610dd0565b5b92915050565b7f494e56414c49442041554354494f4e20434f4e545241435420494e495449414c5f8201527f495a4154494f4e3a207468652061756374696f6e20736e6970652070726f746560208201527f6374696f6e20696e74657276616c206d757374206265206c657373207468616e60408201527f207468652077686f6c65206475726174696f6e206f662074686520617563746960608201527f6f6e210000000000000000000000000000000000000000000000000000000000608082015250565b5f610efc60838361093c565b9150610f0782610e30565b60a082019050919050565b5f6020820190508181035f830152610f2981610ef0565b9050919050565b7f494e56414c49442041554354494f4e20434f4e545241435420494e495449414c5f8201527f495a4154494f4e3a20736e6970652061637469766174696f6e20696e7465727660208201527f616c206d75737420626520657175616c206f722067726561746572207468616e60408201527f2030210000000000000000000000000000000000000000000000000000000000606082015250565b5f610fd660638361093c565b9150610fe182610f30565b608082019050919050565b5f6020820190508181035f83015261100381610fca565b9050919050565b7f494e56414c49442041554354494f4e20434f4e545241435420494e495449414c5f8201527f495a4154494f4e3a206e756d626572206f6620736e6970652070726f7465637460208201527f696f6e20626c6f636b73206d75737420626520657175616c206f72206772656160408201527f746572207468616e203021000000000000000000000000000000000000000000606082015250565b5f6110b0606b8361093c565b91506110bb8261100a565b608082019050919050565b5f6020820190508181035f8301526110dd816110a4565b9050919050565b5f7fffffffff0000000000000000000000000000000000000000000000000000000082169050919050565b611118816110e4565b82525050565b5f6020820190506111315f83018461110f565b92915050565b5f6020828403121561114c5761114b610789565b5b5f611159848285016107e1565b91505092915050565b7f494e56414c49442041554354494f4e20434f4e545241435420494e495449414c5f8201527f495a4154494f4e3a2074686520636f6e7472616374206d75737420737570706f60208201527f7274207468652045524337323120746f6b656e207374616e6461726421000000604082015250565b5f6111e2605d8361093c565b91506111ed82611162565b606082019050919050565b5f6020820190508181035f83015261120f816111d6565b9050919050565b61121f8161078d565b82525050565b5f6020820190506112385f830184611216565b92915050565b5f6020828403121561125357611252610789565b5b5f6112608482850161083b565b91505092915050565b60805160a05160c05160e05161010051610120516101405161016051610180516101a0516153276112d85f395f611e2b01525f611def01525f61175301525f611ebf01525f610abf01525f6122fc01525f61172c01525f61204b01525f61215f01525f61234b01526153275ff3fe608060405260043610610245575f3560e01c806386f3333e11610138578063d870e809116100b5578063e9d7010c11610079578063e9d7010c14610819578063ea31876a14610855578063ecfc7ecc1461087f578063f21577731461089d578063f2fde38b146108d9578063f851d7701461091557610245565b8063d870e8091461075b578063dabe2cc414610771578063db2e1eed1461079b578063e30c3978146107c5578063e651aca4146107ef57610245565b8063b37a8be3116100fc578063b37a8be314610677578063b3cc167a146106a1578063d12fb0a9146106cb578063d19ac77a146106f5578063d6fbf2021461073157610245565b806386f3333e146105b95780638da5cb5b146105cf578063928ca325146105f95780639a82a09a14610623578063a5875cab1461064d57610245565b80633ccfd60b116101c65780636f4cf1831161018a5780636f4cf183146104e15780637037ec6f1461050b57806371354dca14610529578063715018a61461056557806379ba50971461058f57610245565b80633ccfd60b146103fd5780634efe2d1e14610427578063518cdc0e146104515780636c4f6dc11461048d5780636cff3d2b146104b757610245565b806312bb37301161020d57806312bb373014610307578063150b7a02146103315780631de805e01461036d5780632bb401d4146103975780633af32abf146103c157610245565b8063026892fc14610249578063072ea61c1461025f57806307d52fa8146102895780630da55161146102b357806311841c41146102dd575b5f80fd5b348015610254575f80fd5b5061025d610951565b005b34801561026a575f80fd5b50610273610abc565b6040516102809190613168565b60405180910390f35b348015610294575f80fd5b5061029d610ae3565b6040516102aa9190613168565b60405180910390f35b3480156102be575f80fd5b506102c7610aec565b6040516102d4919061319b565b60405180910390f35b3480156102e8575f80fd5b506102f1610c15565b6040516102fe9190613168565b60405180910390f35b348015610312575f80fd5b5061031b610c1c565b604051610328919061319b565b60405180910390f35b34801561033c575f80fd5b50610357600480360381019061035291906132aa565b610eee565b6040516103649190613368565b60405180910390f35b348015610378575f80fd5b50610381610f1b565b60405161038e919061319b565b60405180910390f35b3480156103a2575f80fd5b506103ab610f30565b6040516103b8919061319b565b60405180910390f35b3480156103cc575f80fd5b506103e760048036038101906103e29190613381565b610f46565b6040516103f4919061319b565b60405180910390f35b348015610408575f80fd5b50610411610f98565b60405161041e919061319b565b60405180910390f35b348015610432575f80fd5b5061043b611653565b604051610448919061341c565b60405180910390f35b34801561045c575f80fd5b5061047760048036038101906104729190613381565b6116e3565b6040516104849190613168565b60405180910390f35b348015610498575f80fd5b506104a1611729565b6040516104ae919061319b565b60405180910390f35b3480156104c2575f80fd5b506104cb611750565b6040516104d89190613168565b60405180910390f35b3480156104ec575f80fd5b506104f5611777565b6040516105029190613580565b60405180910390f35b61051361189a565b604051610520919061319b565b60405180910390f35b348015610534575f80fd5b5061054f600480360381019061054a9190613381565b611adb565b60405161055c919061319b565b60405180910390f35b348015610570575f80fd5b50610579611b2d565b604051610586919061319b565b60405180910390f35b34801561059a575f80fd5b506105a3611c02565b6040516105b0919061319b565b60405180910390f35b3480156105c4575f80fd5b506105cd611c95565b005b3480156105da575f80fd5b506105e3611e95565b6040516105f091906135af565b60405180910390f35b348015610604575f80fd5b5061060d611ebc565b60405161061a9190613168565b60405180910390f35b34801561062e575f80fd5b50610637611ee3565b604051610644919061319b565b60405180910390f35b348015610658575f80fd5b50610661611ef8565b60405161066e919061319b565b60405180910390f35b348015610682575f80fd5b5061068b612020565b60405161069891906135af565b60405180910390f35b3480156106ac575f80fd5b506106b5612048565b6040516106c29190613168565b60405180910390f35b3480156106d6575f80fd5b506106df61206f565b6040516106ec919061319b565b60405180910390f35b348015610700575f80fd5b5061071b600480360381019061071691906136f0565b612084565b604051610728919061319b565b60405180910390f35b34801561073c575f80fd5b5061074561215c565b6040516107529190613168565b60405180910390f35b348015610766575f80fd5b5061076f612183565b005b34801561077c575f80fd5b506107856122f0565b6040516107929190613168565b60405180910390f35b3480156107a6575f80fd5b506107af6122f9565b6040516107bc9190613168565b60405180910390f35b3480156107d0575f80fd5b506107d9612320565b6040516107e691906135af565b60405180910390f35b3480156107fa575f80fd5b50610803612348565b6040516108109190613168565b60405180910390f35b348015610824575f80fd5b5061083f600480360381019061083a91906137f7565b61236f565b60405161084c919061319b565b60405180910390f35b348015610860575f80fd5b50610869612506565b604051610876919061319b565b60405180910390f35b6108876125a7565b604051610894919061319b565b60405180910390f35b3480156108a8575f80fd5b506108c360048036038101906108be9190613381565b612ab0565b6040516108d0919061319b565b60405180910390f35b3480156108e4575f80fd5b506108ff60048036038101906108fa9190613381565b612b02565b60405161090c919061319b565b60405180910390f35b348015610920575f80fd5b5061093b60048036038101906109369190613381565b612d43565b604051610948919061319b565b60405180910390f35b610959611e95565b73ffffffffffffffffffffffffffffffffffffffff163373ffffffffffffffffffffffffffffffffffffffff16146109c6576040517f08c379a00000000000000000000000000000000000000000000000000000000081526004016109bd906138ae565b60405180910390fd5b436109cf612348565b1115610a10576040517f08c379a0000000000000000000000000000000000000000000000000000000008152600401610a079061393c565b60405180910390fd5b610a18610ae3565b431115610a5a576040517f08c379a0000000000000000000000000000000000000000000000000000000008152600401610a51906139ca565b60405180910390fd5b610a62610f1b565b610aa1576040517f08c379a0000000000000000000000000000000000000000000000000000000008152600401610a9890613a7e565b60405180910390fd5b5f60085f6101000a81548160ff021916908315150217905550565b5f7f0000000000000000000000000000000000000000000000000000000000000000905090565b5f600754905090565b5f610af5611e95565b73ffffffffffffffffffffffffffffffffffffffff163373ffffffffffffffffffffffffffffffffffffffff1614610b62576040517f08c379a0000000000000000000000000000000000000000000000000000000008152600401610b59906138ae565b60405180910390fd5b610b6a610f30565b15610baa576040517f08c379a0000000000000000000000000000000000000000000000000000000008152600401610ba190613b0c565b60405180910390fd5b60018060146101000a81548160ff021916908315150217905550610bcc611e95565b73ffffffffffffffffffffffffffffffffffffffff167f77019a1c4957e53fa06c71f760438f9267f6840293cddac381ccb7931e3c4a6260405160405180910390a26001905090565b5f47905090565b5f610c25611e95565b73ffffffffffffffffffffffffffffffffffffffff163373ffffffffffffffffffffffffffffffffffffffff1603610c92576040517f08c379a0000000000000000000000000000000000000000000000000000000008152600401610c8990613bc0565b60405180910390fd5b610c9a611ee3565b158015610cad575043610cab610ae3565b115b15610ced576040517f08c379a0000000000000000000000000000000000000000000000000000000008152600401610ce490613c9a565b60405180910390fd5b5f610cf6610abc565b11610d36576040517f08c379a0000000000000000000000000000000000000000000000000000000008152600401610d2d90613d4e565b60405180910390fd5b610d3f33612ab0565b610d7e576040517f08c379a0000000000000000000000000000000000000000000000000000000008152600401610d7590613ddc565b60405180910390fd5b610d8733611adb565b15610dc7576040517f08c379a0000000000000000000000000000000000000000000000000000000008152600401610dbe90613e90565b60405180910390fd5b3373ffffffffffffffffffffffffffffffffffffffff166108fc610de9610abc565b90811502906040515f60405180830381858888f1935050505015610eb0576001600c5f3373ffffffffffffffffffffffffffffffffffffffff1673ffffffffffffffffffffffffffffffffffffffff1681526020019081526020015f205f6101000a81548160ff021916908315150217905550610e64610abc565b3373ffffffffffffffffffffffffffffffffffffffff167f9e5c0ea2be61ce8f047858d77b47d91a4517b8b683c8a45fc62828b4a5247b1c60405160405180910390a360019050610eeb565b6040517f08c379a0000000000000000000000000000000000000000000000000000000008152600401610ee290613f1e565b60405180910390fd5b90565b5f7f150b7a023d4804d13e8c85fb27262cb750cf6ba9f9dd3bb30d90f482ceeb4b1f905095945050505050565b5f60085f9054906101000a900460ff16905090565b5f600160149054906101000a900460ff16905090565b5f60095f8373ffffffffffffffffffffffffffffffffffffffff1673ffffffffffffffffffffffffffffffffffffffff1681526020019081526020015f205f9054906101000a900460ff169050919050565b5f610fa1611ee3565b158015610fb4575043610fb2610ae3565b115b15610ff4576040517f08c379a0000000000000000000000000000000000000000000000000000000008152600401610feb90613c9a565b60405180910390fd5b610ffc611ee3565b15611157575f60045f3373ffffffffffffffffffffffffffffffffffffffff1673ffffffffffffffffffffffffffffffffffffffff1681526020019081526020015f205490508060045f3373ffffffffffffffffffffffffffffffffffffffff1673ffffffffffffffffffffffffffffffffffffffff1681526020019081526020015f205f82825461108e9190613f69565b925050819055503373ffffffffffffffffffffffffffffffffffffffff166108fc8290811502906040515f60405180830381858888f193505050501561111c57803373ffffffffffffffffffffffffffffffffffffffff167f412d7ccf5961ef68f75e6e73f1eb58946047b233bf09c57121cf3951f9e15a0a60405160405180910390a36001915050611650565b6040517f08c379a000000000000000000000000000000000000000000000000000000000815260040161114e9061400c565b60405180910390fd5b61115f6122f9565b6111676122f0565b10156112c3575f60045f3373ffffffffffffffffffffffffffffffffffffffff1673ffffffffffffffffffffffffffffffffffffffff1681526020019081526020015f205490508060045f3373ffffffffffffffffffffffffffffffffffffffff1673ffffffffffffffffffffffffffffffffffffffff1681526020019081526020015f205f8282546111fa9190613f69565b925050819055503373ffffffffffffffffffffffffffffffffffffffff166108fc8290811502906040515f60405180830381858888f193505050501561128857803373ffffffffffffffffffffffffffffffffffffffff167f412d7ccf5961ef68f75e6e73f1eb58946047b233bf09c57121cf3951f9e15a0a60405160405180910390a36001915050611650565b6040517f08c379a00000000000000000000000000000000000000000000000000000000081526004016112ba90613f1e565b60405180910390fd5b6112cb611e95565b73ffffffffffffffffffffffffffffffffffffffff163373ffffffffffffffffffffffffffffffffffffffff16036114855761130561206f565b61144a575f6113126122f0565b90508060045f611320612020565b73ffffffffffffffffffffffffffffffffffffffff1673ffffffffffffffffffffffffffffffffffffffff1681526020019081526020015f205f8282546113679190613f69565b925050819055506001600a5f6101000a81548160ff0219169083151502179055503373ffffffffffffffffffffffffffffffffffffffff166108fc8290811502906040515f60405180830381858888f193505050501561140f57803373ffffffffffffffffffffffffffffffffffffffff167f412d7ccf5961ef68f75e6e73f1eb58946047b233bf09c57121cf3951f9e15a0a60405160405180910390a36001915050611650565b6040517f08c379a000000000000000000000000000000000000000000000000000000000815260040161144190613f1e565b60405180910390fd5b6040517f08c379a000000000000000000000000000000000000000000000000000000000815260040161147c9061409a565b60405180910390fd5b61148d612020565b73ffffffffffffffffffffffffffffffffffffffff163373ffffffffffffffffffffffffffffffffffffffff16036114fa576040517f08c379a00000000000000000000000000000000000000000000000000000000081526004016114f19061419a565b60405180910390fd5b5f60045f3373ffffffffffffffffffffffffffffffffffffffff1673ffffffffffffffffffffffffffffffffffffffff1681526020019081526020015f205490508060045f3373ffffffffffffffffffffffffffffffffffffffff1673ffffffffffffffffffffffffffffffffffffffff1681526020019081526020015f205f8282546115879190613f69565b925050819055503373ffffffffffffffffffffffffffffffffffffffff166108fc8290811502906040515f60405180830381858888f193505050501561161557803373ffffffffffffffffffffffffffffffffffffffff167f412d7ccf5961ef68f75e6e73f1eb58946047b233bf09c57121cf3951f9e15a0a60405160405180910390a36001915050611650565b6040517f08c379a00000000000000000000000000000000000000000000000000000000081526004016116479061400c565b60405180910390fd5b90565b6060600d8054611662906141e5565b80601f016020809104026020016040519081016040528092919081815260200182805461168e906141e5565b80156116d95780601f106116b0576101008083540402835291602001916116d9565b820191905f5260205f20905b8154815290600101906020018083116116bc57829003601f168201915b5050505050905090565b5f60045f8373ffffffffffffffffffffffffffffffffffffffff1673ffffffffffffffffffffffffffffffffffffffff1681526020019081526020015f20549050919050565b5f7f0000000000000000000000000000000000000000000000000000000000000000905090565b5f7f0000000000000000000000000000000000000000000000000000000000000000905090565b60606002805480602002602001604051908101604052809291908181526020015f905b82821015611891578382905f5260205f2090600502016040518060a00160405290815f82015f9054906101000a900473ffffffffffffffffffffffffffffffffffffffff1673ffffffffffffffffffffffffffffffffffffffff1673ffffffffffffffffffffffffffffffffffffffff168152602001600182015f9054906101000a900473ffffffffffffffffffffffffffffffffffffffff1673ffffffffffffffffffffffffffffffffffffffff1673ffffffffffffffffffffffffffffffffffffffff16815260200160028201548152602001600382015481526020016004820154815250508152602001906001019061179a565b50505050905090565b5f6118a3611e95565b73ffffffffffffffffffffffffffffffffffffffff163373ffffffffffffffffffffffffffffffffffffffff1603611910576040517f08c379a000000000000000000000000000000000000000000000000000000000815260040161190790613bc0565b60405180910390fd5b611918612348565b4310611959576040517f08c379a0000000000000000000000000000000000000000000000000000000008152600401611950906142ab565b60405180910390fd5b5f611962610abc565b116119a2576040517f08c379a00000000000000000000000000000000000000000000000000000000081526004016119999061435f565b60405180910390fd5b6119aa610abc565b34146119eb576040517f08c379a00000000000000000000000000000000000000000000000000000000081526004016119e290614413565b60405180910390fd5b6119f433612ab0565b15611a34576040517f08c379a0000000000000000000000000000000000000000000000000000000008152600401611a2b906144a1565b60405180910390fd5b6001600b5f3373ffffffffffffffffffffffffffffffffffffffff1673ffffffffffffffffffffffffffffffffffffffff1681526020019081526020015f205f6101000a81548160ff021916908315150217905550611a91610abc565b3373ffffffffffffffffffffffffffffffffffffffff167f17ee8de4d82de19f0e5a1c6e6a849e48a63a7336a7b6636d39e64055c1d1c72e60405160405180910390a36001905090565b5f600c5f8373ffffffffffffffffffffffffffffffffffffffff1673ffffffffffffffffffffffffffffffffffffffff1681526020019081526020015f205f9054906101000a900460ff169050919050565b5f611b36611e95565b73ffffffffffffffffffffffffffffffffffffffff163373ffffffffffffffffffffffffffffffffffffffff1614611ba3576040517f08c379a0000000000000000000000000000000000000000000000000000000008152600401611b9a906138ae565b60405180910390fd5b611bab610f30565b611bea576040517f08c379a0000000000000000000000000000000000000000000000000000000008152600401611be19061452f565b60405180910390fd5b611bf35f612ea7565b611bfb612f59565b6001905090565b5f611c0b612320565b73ffffffffffffffffffffffffffffffffffffffff163373ffffffffffffffffffffffffffffffffffffffff1614611c78576040517f08c379a0000000000000000000000000000000000000000000000000000000008152600401611c6f906145bd565b60405180910390fd5b5f339050611c8581612ea7565b611c8d612f59565b600191505090565b611c9d611e95565b73ffffffffffffffffffffffffffffffffffffffff163373ffffffffffffffffffffffffffffffffffffffff1614611d0a576040517f08c379a0000000000000000000000000000000000000000000000000000000008152600401611d01906138ae565b60405180910390fd5b43611d13612348565b1115611d54576040517f08c379a0000000000000000000000000000000000000000000000000000000008152600401611d4b9061393c565b60405180910390fd5b611d5c610ae3565b431115611d9e576040517f08c379a0000000000000000000000000000000000000000000000000000000008152600401611d95906139ca565b60405180910390fd5b611da6610f1b565b611de5576040517f08c379a0000000000000000000000000000000000000000000000000000000008152600401611ddc906146bd565b60405180910390fd5b611ded612f7f565b7f000000000000000000000000000000000000000000000000000000000000000073ffffffffffffffffffffffffffffffffffffffff166342966c687f00000000000000000000000000000000000000000000000000000000000000006040518263ffffffff1660e01b8152600401611e669190613168565b5f604051808303815f87803b158015611e7d575f80fd5b505af1158015611e8f573d5f803e3d5ffd5b50505050565b5f805f9054906101000a900473ffffffffffffffffffffffffffffffffffffffff16905090565b5f7f0000000000000000000000000000000000000000000000000000000000000000905090565b5f60035f9054906101000a900460ff16905090565b5f611f01611e95565b73ffffffffffffffffffffffffffffffffffffffff163373ffffffffffffffffffffffffffffffffffffffff1614611f6e576040517f08c379a0000000000000000000000000000000000000000000000000000000008152600401611f65906138ae565b60405180910390fd5b611f76610f30565b611fb5576040517f08c379a0000000000000000000000000000000000000000000000000000000008152600401611fac9061452f565b60405180910390fd5b5f600160146101000a81548160ff021916908315150217905550611fd7611e95565b73ffffffffffffffffffffffffffffffffffffffff167fb189a5a6b382e921df5a6b8a09a433564e15ec5f6625faa18b989fa671ee6bfc60405160405180910390a26001905090565b5f60065f9054906101000a900473ffffffffffffffffffffffffffffffffffffffff16905090565b5f7f0000000000000000000000000000000000000000000000000000000000000000905090565b5f600a5f9054906101000a900460ff16905090565b5f61208d611e95565b73ffffffffffffffffffffffffffffffffffffffff163373ffffffffffffffffffffffffffffffffffffffff16146120fa576040517f08c379a00000000000000000000000000000000000000000000000000000000081526004016120f1906138ae565b60405180910390fd5b612102612348565b4310612143576040517f08c379a000000000000000000000000000000000000000000000000000000000815260040161213a90614771565b60405180910390fd5b81600d9081612152919061492c565b5060019050919050565b5f7f0000000000000000000000000000000000000000000000000000000000000000905090565b61218b611e95565b73ffffffffffffffffffffffffffffffffffffffff163373ffffffffffffffffffffffffffffffffffffffff16146121f8576040517f08c379a00000000000000000000000000000000000000000000000000000000081526004016121ef906138ae565b60405180910390fd5b43612201612348565b1115612242576040517f08c379a00000000000000000000000000000000000000000000000000000000081526004016122399061393c565b60405180910390fd5b61224a610ae3565b43111561228c576040517f08c379a0000000000000000000000000000000000000000000000000000000008152600401612283906139ca565b60405180910390fd5b612294610f1b565b156122d4576040517f08c379a00000000000000000000000000000000000000000000000000000000081526004016122cb90614a91565b60405180910390fd5b600160085f6101000a81548160ff021916908315150217905550565b5f600554905090565b5f7f0000000000000000000000000000000000000000000000000000000000000000905090565b5f60015f9054906101000a900473ffffffffffffffffffffffffffffffffffffffff16905090565b5f7f0000000000000000000000000000000000000000000000000000000000000000905090565b5f612378611e95565b73ffffffffffffffffffffffffffffffffffffffff163373ffffffffffffffffffffffffffffffffffffffff16146123e5576040517f08c379a00000000000000000000000000000000000000000000000000000000081526004016123dc906138ae565b60405180910390fd5b6123ed611729565b61242c576040517f08c379a000000000000000000000000000000000000000000000000000000000815260040161242390614b91565b60405180910390fd5b612434612348565b4310612475576040517f08c379a000000000000000000000000000000000000000000000000000000000815260040161246c90614c6b565b60405180910390fd5b5f5b82518110156124fc57600160095f85848151811061249857612497614c89565b5b602002602001015173ffffffffffffffffffffffffffffffffffffffff1673ffffffffffffffffffffffffffffffffffffffff1681526020019081526020015f205f6101000a81548160ff0219169083151502179055508080600101915050612477565b5060019050919050565b5f61250f611e95565b73ffffffffffffffffffffffffffffffffffffffff163373ffffffffffffffffffffffffffffffffffffffff161461257c576040517f08c379a0000000000000000000000000000000000000000000000000000000008152600401612573906138ae565b60405180910390fd5b60015f6101000a81549073ffffffffffffffffffffffffffffffffffffffff02191690556001905090565b5f6125b0611e95565b73ffffffffffffffffffffffffffffffffffffffff163373ffffffffffffffffffffffffffffffffffffffff160361261d576040517f08c379a000000000000000000000000000000000000000000000000000000000815260040161261490613bc0565b60405180910390fd5b612625611ee3565b15612665576040517f08c379a000000000000000000000000000000000000000000000000000000000815260040161265c90614d26565b60405180910390fd5b4361266e612348565b11156126af576040517f08c379a00000000000000000000000000000000000000000000000000000000081526004016126a69061393c565b60405180910390fd5b6126b7610ae3565b4311156126f9576040517f08c379a00000000000000000000000000000000000000000000000000000000081526004016126f0906139ca565b60405180910390fd5b5f341161273b576040517f08c379a000000000000000000000000000000000000000000000000000000000815260040161273290614db4565b60405180910390fd5b5f612744610abc565b146127925761275233612ab0565b612791576040517f08c379a000000000000000000000000000000000000000000000000000000000815260040161278890614e42565b60405180910390fd5b5b61279a611729565b156127e8576127a833610f46565b6127e7576040517f08c379a00000000000000000000000000000000000000000000000000000000081526004016127de90614f1c565b60405180910390fd5b5b5f3460045f3373ffffffffffffffffffffffffffffffffffffffff1673ffffffffffffffffffffffffffffffffffffffff1681526020019081526020015f20546128329190614f3a565b905061283c61215c565b81101561287e576040517f08c379a000000000000000000000000000000000000000000000000000000000815260040161287590615003565b60405180910390fd5b5f806128886122f0565b146128aa57612895612048565b61289d6122f0565b6128a79190614f3a565b90505b808210156128ed576040517f08c379a00000000000000000000000000000000000000000000000000000000081526004016128e4906150dd565b60405180910390fd5b5f6128f66122f0565b9050826005819055508260045f3373ffffffffffffffffffffffffffffffffffffffff1673ffffffffffffffffffffffffffffffffffffffff1681526020019081526020015f20819055503373ffffffffffffffffffffffffffffffffffffffff16612960612020565b73ffffffffffffffffffffffffffffffffffffffff16146129bc573360065f6101000a81548173ffffffffffffffffffffffffffffffffffffffff021916908373ffffffffffffffffffffffffffffffffffffffff1602179055505b5f6129c5611ebc565b1180156129d857505f6129d6611750565b115b15612a61576129e5611ebc565b436129ee610ae3565b6129f89190613f69565b11612a6057612a05611750565b60075f828254612a159190614f3a565b925050819055503373ffffffffffffffffffffffffffffffffffffffff167f46048ff1d3574262e776d2a09614ca7dce246f47aac2d19407af8dd28e0218f460405160405180910390a25b5b82813373ffffffffffffffffffffffffffffffffffffffff167f1f14e945c6674f344d370fb31e1ed9a873410e59c9915def04d76f40d3a73e6e60405160405180910390a46001935050505090565b5f600b5f8373ffffffffffffffffffffffffffffffffffffffff1673ffffffffffffffffffffffffffffffffffffffff1681526020019081526020015f205f9054906101000a900460ff169050919050565b5f612b0b611e95565b73ffffffffffffffffffffffffffffffffffffffff163373ffffffffffffffffffffffffffffffffffffffff1614612b78576040517f08c379a0000000000000000000000000000000000000000000000000000000008152600401612b6f906138ae565b60405180910390fd5b5f73ffffffffffffffffffffffffffffffffffffffff168273ffffffffffffffffffffffffffffffffffffffff1603612be6576040517f08c379a0000000000000000000000000000000000000000000000000000000008152600401612bdd90615191565b60405180910390fd5b612bee611e95565b73ffffffffffffffffffffffffffffffffffffffff168273ffffffffffffffffffffffffffffffffffffffff1603612c5b576040517f08c379a0000000000000000000000000000000000000000000000000000000008152600401612c529061521f565b60405180910390fd5b612c63612320565b73ffffffffffffffffffffffffffffffffffffffff168273ffffffffffffffffffffffffffffffffffffffff1603612cd0576040517f08c379a0000000000000000000000000000000000000000000000000000000008152600401612cc7906152d3565b60405180910390fd5b612cd982612fde565b8173ffffffffffffffffffffffffffffffffffffffff16612cf8611e95565b73ffffffffffffffffffffffffffffffffffffffff167f725afe6e30fd0701f34531b1df7d4b5b65cef26892d82cd93658eff5e2a3c3e160405160405180910390a360019050919050565b5f612d4c611e95565b73ffffffffffffffffffffffffffffffffffffffff163373ffffffffffffffffffffffffffffffffffffffff1614612db9576040517f08c379a0000000000000000000000000000000000000000000000000000000008152600401612db0906138ae565b60405180910390fd5b612dc1611729565b612e00576040517f08c379a0000000000000000000000000000000000000000000000000000000008152600401612df790614b91565b60405180910390fd5b612e08612348565b4310612e49576040517f08c379a0000000000000000000000000000000000000000000000000000000008152600401612e4090614c6b565b60405180910390fd5b600160095f8473ffffffffffffffffffffffffffffffffffffffff1673ffffffffffffffffffffffffffffffffffffffff1681526020019081526020015f205f6101000a81548160ff02191690831515021790555060019050919050565b5f612eb0611e95565b9050815f806101000a81548173ffffffffffffffffffffffffffffffffffffffff021916908373ffffffffffffffffffffffffffffffffffffffff160217905550612efb8183613021565b8173ffffffffffffffffffffffffffffffffffffffff168173ffffffffffffffffffffffffffffffffffffffff167fe9a5158ac7353c7c7322ececc080bc8e89334efa5795b6e21e40eb266b0003d660405160405180910390a35050565b60015f6101000a81549073ffffffffffffffffffffffffffffffffffffffff0219169055565b600160035f6101000a81548160ff0219169083151502179055503373ffffffffffffffffffffffffffffffffffffffff167fc076344f4d1b12b00186954100df09db17044db6418a64c198cd093344c6591060405160405180910390a2565b8060015f6101000a81548173ffffffffffffffffffffffffffffffffffffffff021916908373ffffffffffffffffffffffffffffffffffffffff16021790555050565b5f6040518060a001604052808473ffffffffffffffffffffffffffffffffffffffff1681526020018373ffffffffffffffffffffffffffffffffffffffff16815260200143815260200143408152602001468152509050600281908060018154018082558091505060019003905f5260205f2090600502015f909190919091505f820151815f015f6101000a81548173ffffffffffffffffffffffffffffffffffffffff021916908373ffffffffffffffffffffffffffffffffffffffff1602179055506020820151816001015f6101000a81548173ffffffffffffffffffffffffffffffffffffffff021916908373ffffffffffffffffffffffffffffffffffffffff1602179055506040820151816002015560608201518160030155608082015181600401555050505050565b5f819050919050565b61316281613150565b82525050565b5f60208201905061317b5f830184613159565b92915050565b5f8115159050919050565b61319581613181565b82525050565b5f6020820190506131ae5f83018461318c565b92915050565b5f604051905090565b5f80fd5b5f80fd5b5f73ffffffffffffffffffffffffffffffffffffffff82169050919050565b5f6131ee826131c5565b9050919050565b6131fe816131e4565b8114613208575f80fd5b50565b5f81359050613219816131f5565b92915050565b61322881613150565b8114613232575f80fd5b50565b5f813590506132438161321f565b92915050565b5f80fd5b5f80fd5b5f80fd5b5f8083601f84011261326a57613269613249565b5b8235905067ffffffffffffffff8111156132875761328661324d565b5b6020830191508360018202830111156132a3576132a2613251565b5b9250929050565b5f805f805f608086880312156132c3576132c26131bd565b5b5f6132d08882890161320b565b95505060206132e18882890161320b565b94505060406132f288828901613235565b935050606086013567ffffffffffffffff811115613313576133126131c1565b5b61331f88828901613255565b92509250509295509295909350565b5f7fffffffff0000000000000000000000000000000000000000000000000000000082169050919050565b6133628161332e565b82525050565b5f60208201905061337b5f830184613359565b92915050565b5f60208284031215613396576133956131bd565b5b5f6133a38482850161320b565b91505092915050565b5f81519050919050565b5f82825260208201905092915050565b8281835e5f83830152505050565b5f601f19601f8301169050919050565b5f6133ee826133ac565b6133f881856133b6565b93506134088185602086016133c6565b613411816133d4565b840191505092915050565b5f6020820190508181035f83015261343481846133e4565b905092915050565b5f81519050919050565b5f82825260208201905092915050565b5f819050602082019050919050565b61346e816131e4565b82525050565b61347d81613150565b82525050565b5f819050919050565b61349581613483565b82525050565b60a082015f8201516134af5f850182613465565b5060208201516134c26020850182613465565b5060408201516134d56040850182613474565b5060608201516134e8606085018261348c565b5060808201516134fb6080850182613474565b50505050565b5f61350c838361349b565b60a08301905092915050565b5f602082019050919050565b5f61352e8261343c565b6135388185613446565b935061354383613456565b805f5b8381101561357357815161355a8882613501565b975061356583613518565b925050600181019050613546565b5085935050505092915050565b5f6020820190508181035f8301526135988184613524565b905092915050565b6135a9816131e4565b82525050565b5f6020820190506135c25f8301846135a0565b92915050565b5f80fd5b7f4e487b71000000000000000000000000000000000000000000000000000000005f52604160045260245ffd5b613602826133d4565b810181811067ffffffffffffffff82111715613621576136206135cc565b5b80604052505050565b5f6136336131b4565b905061363f82826135f9565b919050565b5f67ffffffffffffffff82111561365e5761365d6135cc565b5b613667826133d4565b9050602081019050919050565b828183375f83830152505050565b5f61369461368f84613644565b61362a565b9050828152602081018484840111156136b0576136af6135c8565b5b6136bb848285613674565b509392505050565b5f82601f8301126136d7576136d6613249565b5b81356136e7848260208601613682565b91505092915050565b5f60208284031215613705576137046131bd565b5b5f82013567ffffffffffffffff811115613722576137216131c1565b5b61372e848285016136c3565b91505092915050565b5f67ffffffffffffffff821115613751576137506135cc565b5b602082029050602081019050919050565b5f61377461376f84613737565b61362a565b9050808382526020820190506020840283018581111561379757613796613251565b5b835b818110156137c057806137ac888261320b565b845260208401935050602081019050613799565b5050509392505050565b5f82601f8301126137de576137dd613249565b5b81356137ee848260208601613762565b91505092915050565b5f6020828403121561380c5761380b6131bd565b5b5f82013567ffffffffffffffff811115613829576138286131c1565b5b613835848285016137ca565b91505092915050565b7f5472616e73616374696f6e204641494c45443a204f6e6c7920746865206f776e5f8201527f65722063616e2063616c6c20746869732066756e6374696f6e21000000000000602082015250565b5f613898603a836133b6565b91506138a38261383e565b604082019050919050565b5f6020820190508181035f8301526138c58161388c565b9050919050565b7f5452414e53414354494f4e204552524f523a207468652061756374696f6e20685f8201527f6173206e6f742073746172746564207965742100000000000000000000000000602082015250565b5f6139266033836133b6565b9150613931826138cc565b604082019050919050565b5f6020820190508181035f8301526139538161391a565b9050919050565b7f5452414e53414354494f4e204552524f523a207468652061756374696f6e20685f8201527f617320656e646564210000000000000000000000000000000000000000000000602082015250565b5f6139b46029836133b6565b91506139bf8261395a565b604082019050919050565b5f6020820190508181035f8301526139e1816139a8565b9050919050565b7f5452414e53414354494f4e205741524e494e473a207468652061756374696f6e5f8201527f2063616e63656c6c6174696f6e2070726f63657373206973206e6f7420696e6960208201527f7469617465642100000000000000000000000000000000000000000000000000604082015250565b5f613a686047836133b6565b9150613a73826139e8565b606082019050919050565b5f6020820190508181035f830152613a9581613a5c565b9050919050565b7f5472616e73616374696f6e204641494c45443a2052656e6f756e63652070726f5f8201527f6365737320697320616c726561647920756e6c6f636b65642100000000000000602082015250565b5f613af66039836133b6565b9150613b0182613a9c565b604082019050919050565b5f6020820190508181035f830152613b2381613aea565b9050919050565b7f5452414e53414354494f4e204552524f523a20746865206f776e6572206d75735f8201527f74206e6f7420706172746963697061746520696e207468652061756374696f6e60208201527f2100000000000000000000000000000000000000000000000000000000000000604082015250565b5f613baa6041836133b6565b9150613bb582613b2a565b606082019050919050565b5f6020820190508181035f830152613bd781613b9e565b9050919050565b7f5452414e53414354494f4e204552524f523a207769746864726177696e6720695f8201527f73206f6e6c7920616c6c6f776564206166746572207468652061756374696f6e60208201527f20656e6473206f7220696e2072617265206361736573207768656e2063616e6360408201527f656c6c6564206279207468652061756374696f6e206f776e6572210000000000606082015250565b5f613c84607b836133b6565b9150613c8f82613bde565b608082019050919050565b5f6020820190508181035f830152613cb181613c78565b9050919050565b7f5452414e53414354494f4e204552524f523a20746865726520776173206e6f205f8201527f656e74727920666565206173736f63696174656420776974682074686973206160208201527f756374696f6e2100000000000000000000000000000000000000000000000000604082015250565b5f613d386047836133b6565b9150613d4382613cb8565b606082019050919050565b5f6020820190508181035f830152613d6581613d2c565b9050919050565b7f5452414e53414354494f4e204552524f523a2054686973206163636f756e74205f8201527f686173206e6f742070617965642074686520656e747279206665652100000000602082015250565b5f613dc6603c836133b6565b9150613dd182613d6c565b604082019050919050565b5f6020820190508181035f830152613df381613dba565b9050919050565b7f5452414e53414354494f4e204552524f523a2054686973206163636f756e74205f8201527f68617320616c72656164792077697468647261776e2074686520656e7472792060208201527f6665652100000000000000000000000000000000000000000000000000000000604082015250565b5f613e7a6044836133b6565b9150613e8582613dfa565b606082019050919050565b5f6020820190508181035f830152613ea781613e6e565b9050919050565b7f5452414e53414354494f4e204552524f523a205769746864726177206661696c5f8201527f6564210000000000000000000000000000000000000000000000000000000000602082015250565b5f613f086023836133b6565b9150613f1382613eae565b604082019050919050565b5f6020820190508181035f830152613f3581613efc565b9050919050565b7f4e487b71000000000000000000000000000000000000000000000000000000005f52601160045260245ffd5b5f613f7382613150565b9150613f7e83613150565b9250828203905081811115613f9657613f95613f3c565b5b92915050565b7f5452414e53414354494f4e204552524f523a207769746864726177206661696c5f8201527f6564210000000000000000000000000000000000000000000000000000000000602082015250565b5f613ff66023836133b6565b915061400182613f9c565b604082019050919050565b5f6020820190508181035f83015261402381613fea565b9050919050565b7f5452414e53414354494f4e204552524f523a204f776e65722068617320616c725f8201527f656164792077697468647261776e210000000000000000000000000000000000602082015250565b5f614084602f836133b6565b915061408f8261402a565b604082019050919050565b5f6020820190508181035f8301526140b181614078565b9050919050565b7f5468652077696e6e6572206973206e6f742061626c6520746f207769746864725f8201527f61772066726f6d207468652061756374696f6e21205468652061756374696f6e60208201527f2077696e6e657227732066756e647320617265206c6f636b656420616e64207260408201527f6573657276656420666f7220746865206f776e6572206f66207468652061756360608201527f74696f6e21000000000000000000000000000000000000000000000000000000608082015250565b5f6141846085836133b6565b915061418f826140b8565b60a082019050919050565b5f6020820190508181035f8301526141b181614178565b9050919050565b7f4e487b71000000000000000000000000000000000000000000000000000000005f52602260045260245ffd5b5f60028204905060018216806141fc57607f821691505b60208210810361420f5761420e6141b8565b5b50919050565b7f5452414e53414354494f4e204552524f523a20706179696e672074686520656e5f8201527f74727920666565206973206f6e6c7920706f737369626c65206265666f72652060208201527f7468652061756374696f6e207374617274732100000000000000000000000000604082015250565b5f6142956053836133b6565b91506142a082614215565b606082019050919050565b5f6020820190508181035f8301526142c281614289565b9050919050565b7f5452414e53414354494f4e204552524f523a207468657265206973206e6f20655f8201527f6e74727920666565206173736f6369617465642077697468207468697320617560208201527f6374696f6e210000000000000000000000000000000000000000000000000000604082015250565b5f6143496046836133b6565b9150614354826142c9565b606082019050919050565b5f6020820190508181035f8301526143768161433d565b9050919050565b7f5452414e53414354494f4e204552524f523a2074686520656e747279206665655f8201527f206d7573742062652065786163746c792074686520616d6f756e74206f66207460208201527f68652073657420656e7472792066656521000000000000000000000000000000604082015250565b5f6143fd6051836133b6565b91506144088261437d565b606082019050919050565b5f6020820190508181035f83015261442a816143f1565b9050919050565b7f5452414e53414354494f4e204552524f523a2074686973206163636f756e74205f8201527f68617320616c726561647920706169642074686520656e747279206665652100602082015250565b5f61448b603f836133b6565b915061449682614431565b604082019050919050565b5f6020820190508181035f8301526144b88161447f565b9050919050565b7f5472616e73616374696f6e204641494c45443a2052656e6f756e63652070726f5f8201527f6365737320776173206e6f7420696e6974696174656421000000000000000000602082015250565b5f6145196037836133b6565b9150614524826144bf565b604082019050919050565b5f6020820190508181035f8301526145468161450d565b9050919050565b7f5472616e73616374696f6e204641494c45443a204f6e6c79207468652070656e5f8201527f64696e67206f776e65722063616e20616363657074206f776e65727368697021602082015250565b5f6145a76040836133b6565b91506145b28261454d565b604082019050919050565b5f6020820190508181035f8301526145d48161459b565b9050919050565b7f5452414e53414354494f4e204552524f523a207468652061756374696f6e20635f8201527f616e63656c6c6174696f6e2070726f63657373206d75737420626520696e697460208201527f6961746564206265666f7265207468652070726f636573732063616e2062652060408201527f636f6d706c6574656420746f20656e737572652074686174206e6f206163636960608201527f64656e74616c2063616e63656c6c6174696f6e20636f756c64206f6363757221608082015250565b5f6146a760a0836133b6565b91506146b2826145db565b60a082019050919050565b5f6020820190508181035f8301526146d48161469b565b9050919050565b7f5452414e53414354494f4e204552524f523a2073657474696e677320746865205f8201527f69706673206973206f6e6c7920706f737369626c65206265666f72652074686560208201527f2061756374696f6e207374617274732100000000000000000000000000000000604082015250565b5f61475b6050836133b6565b9150614766826146db565b606082019050919050565b5f6020820190508181035f8301526147888161474f565b9050919050565b5f819050815f5260205f209050919050565b5f6020601f8301049050919050565b5f82821b905092915050565b5f600883026147eb7fffffffffffffffffffffffffffffffffffffffffffffffffffffffffffffffff826147b0565b6147f586836147b0565b95508019841693508086168417925050509392505050565b5f819050919050565b5f61483061482b61482684613150565b61480d565b613150565b9050919050565b5f819050919050565b61484983614816565b61485d61485582614837565b8484546147bc565b825550505050565b5f90565b614871614865565b61487c818484614840565b505050565b5b8181101561489f576148945f82614869565b600181019050614882565b5050565b601f8211156148e4576148b58161478f565b6148be846147a1565b810160208510156148cd578190505b6148e16148d9856147a1565b830182614881565b50505b505050565b5f82821c905092915050565b5f6149045f19846008026148e9565b1980831691505092915050565b5f61491c83836148f5565b9150826002028217905092915050565b614935826133ac565b67ffffffffffffffff81111561494e5761494d6135cc565b5b61495882546141e5565b6149638282856148a3565b5f60209050601f831160018114614994575f8415614982578287015190505b61498c8582614911565b8655506149f3565b601f1984166149a28661478f565b5f5b828110156149c9578489015182556001820191506020850194506020810190506149a4565b868310156149e657848901516149e2601f8916826148f5565b8355505b6001600288020188555050505b505050505050565b7f5452414e53414354494f4e205741524e494e473a207468652061756374696f6e5f8201527f2063616e63656c6c6174696f6e2070726f636573732068617320616c7265616460208201527f7920626567756e21000000000000000000000000000000000000000000000000604082015250565b5f614a7b6048836133b6565b9150614a86826149fb565b606082019050919050565b5f6020820190508181035f830152614aa881614a6f565b9050919050565b7f5452414e53414354494f4e204552524f523a20616464696e67207061727469635f8201527f6970616e747320746f20616e2061756374696f6e206973206f6e6c792061766160208201527f696c61626c65207768656e206974206973206120636c6f73656420617563746960408201527f6f6e2c206c696d6974656420746f20612073656c656374656420616d6f756e7460608201527f206f6620756e697175652077686974656c697374656420626964646572732100608082015250565b5f614b7b609f836133b6565b9150614b8682614aaf565b60a082019050919050565b5f6020820190508181035f830152614ba881614b6f565b9050919050565b7f5452414e53414354494f4e204552524f523a20616464696e67207061727469635f8201527f6970616e747320746f206120636c6f7365642061756374696f6e206973206f6e60208201527f6c7920706f737369626c65206265666f7265207468652061756374696f6e207360408201527f74617274732e0000000000000000000000000000000000000000000000000000606082015250565b5f614c556066836133b6565b9150614c6082614baf565b608082019050919050565b5f6020820190508181035f830152614c8281614c49565b9050919050565b7f4e487b71000000000000000000000000000000000000000000000000000000005f52603260045260245ffd5b7f5452414e53414354494f4e204552524f523a207468652061756374696f6e20695f8201527f732063616e63656c6c6564210000000000000000000000000000000000000000602082015250565b5f614d10602c836133b6565b9150614d1b82614cb6565b604082019050919050565b5f6020820190508181035f830152614d3d81614d04565b9050919050565b7f5452414e53414354494f4e204552524f523a20626964206d75737420626520685f8201527f6967686572207468616e20302100000000000000000000000000000000000000602082015250565b5f614d9e602d836133b6565b9150614da982614d44565b604082019050919050565b5f6020820190508181035f830152614dcb81614d92565b9050919050565b7f5452414e53414354494f4e204552524f523a2074686520656e747279206665655f8201527f20776173206e6f74207061696420627920746865206163636f756e7421000000602082015250565b5f614e2c603d836133b6565b9150614e3782614dd2565b604082019050919050565b5f6020820190508181035f830152614e5981614e20565b9050919050565b7f5452414e53414354494f4e204552524f523a20796f75206d75737420626520615f8201527f2077686974656c6973746564207061727469636970616e7420696e206f72646560208201527f7220746f20706c61636520612062696420696e207468697320636c6f7365642060408201527f61756374696f6e21000000000000000000000000000000000000000000000000606082015250565b5f614f066068836133b6565b9150614f1182614e60565b608082019050919050565b5f6020820190508181035f830152614f3381614efa565b9050919050565b5f614f4482613150565b9150614f4f83613150565b9250828201905080821115614f6757614f66613f3c565b5b92915050565b7f5452414e53414354494f4e204552524f523a2074686520746f74616c206269645f8201527f206d75737420626520686967686572207468616e20746865207374617274696e60208201527f6720707269636521000000000000000000000000000000000000000000000000604082015250565b5f614fed6048836133b6565b9150614ff882614f6d565b606082019050919050565b5f6020820190508181035f83015261501a81614fe1565b9050919050565b7f5452414e53414354494f4e204552524f523a20626964206d75737420626520675f8201527f726561746572206f7220657175616c207468616e207468652073756d206f662060208201527f74686520686967686573742077696e6e696e672062696420616e64207468652060408201527f62696420696e6372656d656e7421000000000000000000000000000000000000606082015250565b5f6150c7606e836133b6565b91506150d282615021565b608082019050919050565b5f6020820190508181035f8301526150f4816150bb565b9050919050565b7f5472616e73616374696f6e204641494c45443a20546865206e6577206f776e655f8201527f722063616e6e6f7420626520746865207a65726f20286275726e29206164647260208201527f6573732100000000000000000000000000000000000000000000000000000000604082015250565b5f61517b6044836133b6565b9150615186826150fb565b606082019050919050565b5f6020820190508181035f8301526151a88161516f565b9050919050565b7f5472616e73616374696f6e204641494c45443a20546865206e6577206f776e655f8201527f722063616e6e6f74206265207468652063757272656e74206f776e6572210000602082015250565b5f615209603e836133b6565b9150615214826151af565b604082019050919050565b5f6020820190508181035f830152615236816151fd565b9050919050565b7f5472616e73616374696f6e204641494c45443a205468652070617373656420615f8201527f64647265737320697320616c7265616479207468652070656e64696e67206f7760208201527f6e65722100000000000000000000000000000000000000000000000000000000604082015250565b5f6152bd6044836133b6565b91506152c88261523d565b606082019050919050565b5f6020820190508181035f8301526152ea816152b1565b905091905056fea2646970667358221220eae1789013cb3612b8fe2f355cd40274ed9a12daa1bd2e9208612b73d793008a64736f6c634300081a0033",
			"opcodes": "PUSH2 0x1C0 PUSH1 0x40 MSTORE CALLVALUE DUP1 ISZERO PUSH2 0x10 JUMPI PUSH0 DUP1 REVERT JUMPDEST POP PUSH1 0x40 MLOAD PUSH2 0x65FF CODESIZE SUB DUP1 PUSH2 0x65FF DUP4 CODECOPY DUP2 DUP2 ADD PUSH1 0x40 MSTORE DUP2 ADD SWAP1 PUSH2 0x32 SWAP2 SWAP1 PUSH2 0x84F JUMP JUMPDEST PUSH2 0x41 CALLER PUSH2 0x575 PUSH1 0x20 SHL PUSH1 0x20 SHR JUMP JUMPDEST NUMBER DUP12 LT ISZERO PUSH2 0x84 JUMPI PUSH1 0x40 MLOAD PUSH32 0x8C379A000000000000000000000000000000000000000000000000000000000 DUP2 MSTORE PUSH1 0x4 ADD PUSH2 0x7B SWAP1 PUSH2 0xA2E JUMP JUMPDEST PUSH1 0x40 MLOAD DUP1 SWAP2 SUB SWAP1 REVERT JUMPDEST DUP10 DUP12 LT PUSH2 0xC6 JUMPI PUSH1 0x40 MLOAD PUSH32 0x8C379A000000000000000000000000000000000000000000000000000000000 DUP2 MSTORE PUSH1 0x4 ADD PUSH2 0xBD SWAP1 PUSH2 0xAE2 JUMP JUMPDEST PUSH1 0x40 MLOAD DUP1 SWAP2 SUB SWAP1 REVERT JUMPDEST PUSH0 DUP10 LT ISZERO PUSH2 0x109 JUMPI PUSH1 0x40 MLOAD PUSH32 0x8C379A000000000000000000000000000000000000000000000000000000000 DUP2 MSTORE PUSH1 0x4 ADD PUSH2 0x100 SWAP1 PUSH2 0xB96 JUMP JUMPDEST PUSH1 0x40 MLOAD DUP1 SWAP2 SUB SWAP1 REVERT JUMPDEST PUSH0 DUP9 LT ISZERO PUSH2 0x14C JUMPI PUSH1 0x40 MLOAD PUSH32 0x8C379A000000000000000000000000000000000000000000000000000000000 DUP2 MSTORE PUSH1 0x4 ADD PUSH2 0x143 SWAP1 PUSH2 0xC4A JUMP JUMPDEST PUSH1 0x40 MLOAD DUP1 SWAP2 SUB SWAP1 REVERT JUMPDEST PUSH0 DUP8 LT ISZERO PUSH2 0x18F JUMPI PUSH1 0x40 MLOAD PUSH32 0x8C379A000000000000000000000000000000000000000000000000000000000 DUP2 MSTORE PUSH1 0x4 ADD PUSH2 0x186 SWAP1 PUSH2 0xCFE JUMP JUMPDEST PUSH1 0x40 MLOAD DUP1 SWAP2 SUB SWAP1 REVERT JUMPDEST PUSH0 DUP6 LT ISZERO PUSH2 0x1D2 JUMPI PUSH1 0x40 MLOAD PUSH32 0x8C379A000000000000000000000000000000000000000000000000000000000 DUP2 MSTORE PUSH1 0x4 ADD PUSH2 0x1C9 SWAP1 PUSH2 0xDB2 JUMP JUMPDEST PUSH1 0x40 MLOAD DUP1 SWAP2 SUB SWAP1 REVERT JUMPDEST DUP11 DUP11 PUSH2 0x1DE SWAP2 SWAP1 PUSH2 0xDFD JUMP JUMPDEST DUP5 LT PUSH2 0x21F JUMPI PUSH1 0x40 MLOAD PUSH32 0x8C379A000000000000000000000000000000000000000000000000000000000 DUP2 MSTORE PUSH1 0x4 ADD PUSH2 0x216 SWAP1 PUSH2 0xF12 JUMP JUMPDEST PUSH1 0x40 MLOAD DUP1 SWAP2 SUB SWAP1 REVERT JUMPDEST PUSH0 DUP5 LT ISZERO PUSH2 0x262 JUMPI PUSH1 0x40 MLOAD PUSH32 0x8C379A000000000000000000000000000000000000000000000000000000000 DUP2 MSTORE PUSH1 0x4 ADD PUSH2 0x259 SWAP1 PUSH2 0xFEC JUMP JUMPDEST PUSH1 0x40 MLOAD DUP1 SWAP2 SUB SWAP1 REVERT JUMPDEST PUSH0 DUP4 LT ISZERO PUSH2 0x2A5 JUMPI PUSH1 0x40 MLOAD PUSH32 0x8C379A000000000000000000000000000000000000000000000000000000000 DUP2 MSTORE PUSH1 0x4 ADD PUSH2 0x29C SWAP1 PUSH2 0x10C6 JUMP JUMPDEST PUSH1 0x40 MLOAD DUP1 SWAP2 SUB SWAP1 REVERT JUMPDEST DUP2 PUSH20 0xFFFFFFFFFFFFFFFFFFFFFFFFFFFFFFFFFFFFFFFF AND PUSH4 0x1FFC9A7 PUSH32 0x80AC58CD00000000000000000000000000000000000000000000000000000000 PUSH1 0x40 MLOAD DUP3 PUSH4 0xFFFFFFFF AND PUSH1 0xE0 SHL DUP2 MSTORE PUSH1 0x4 ADD PUSH2 0x2FE SWAP2 SWAP1 PUSH2 0x111E JUMP JUMPDEST PUSH1 0x20 PUSH1 0x40 MLOAD DUP1 DUP4 SUB DUP2 DUP7 GAS STATICCALL ISZERO DUP1 ISZERO PUSH2 0x319 JUMPI RETURNDATASIZE PUSH0 DUP1 RETURNDATACOPY RETURNDATASIZE PUSH0 REVERT JUMPDEST POP POP POP POP PUSH1 0x40 MLOAD RETURNDATASIZE PUSH1 0x1F NOT PUSH1 0x1F DUP3 ADD AND DUP3 ADD DUP1 PUSH1 0x40 MSTORE POP DUP2 ADD SWAP1 PUSH2 0x33D SWAP2 SWAP1 PUSH2 0x1137 JUMP JUMPDEST PUSH2 0x37C JUMPI PUSH1 0x40 MLOAD PUSH32 0x8C379A000000000000000000000000000000000000000000000000000000000 DUP2 MSTORE PUSH1 0x4 ADD PUSH2 0x373 SWAP1 PUSH2 0x11F8 JUMP JUMPDEST PUSH1 0x40 MLOAD DUP1 SWAP2 SUB SWAP1 REVERT JUMPDEST PUSH0 PUSH20 0xFFFFFFFFFFFFFFFFFFFFFFFFFFFFFFFFFFFFFFFF AND DUP3 PUSH20 0xFFFFFFFFFFFFFFFFFFFFFFFFFFFFFFFFFFFFFFFF AND PUSH4 0x6352211E DUP4 PUSH1 0x40 MLOAD DUP3 PUSH4 0xFFFFFFFF AND PUSH1 0xE0 SHL DUP2 MSTORE PUSH1 0x4 ADD PUSH2 0x3CC SWAP2 SWAP1 PUSH2 0x1225 JUMP JUMPDEST PUSH1 0x20 PUSH1 0x40 MLOAD DUP1 DUP4 SUB DUP2 DUP7 GAS STATICCALL ISZERO DUP1 ISZERO PUSH2 0x3E7 JUMPI RETURNDATASIZE PUSH0 DUP1 RETURNDATACOPY RETURNDATASIZE PUSH0 REVERT JUMPDEST POP POP POP POP PUSH1 0x40 MLOAD RETURNDATASIZE PUSH1 0x1F NOT PUSH1 0x1F DUP3 ADD AND DUP3 ADD DUP1 PUSH1 0x40 MSTORE POP DUP2 ADD SWAP1 PUSH2 0x40B SWAP2 SWAP1 PUSH2 0x123E JUMP JUMPDEST PUSH20 0xFFFFFFFFFFFFFFFFFFFFFFFFFFFFFFFFFFFFFFFF AND SUB PUSH2 0x42A JUMPI PUSH0 DUP1 REVERT JUMPDEST ADDRESS PUSH20 0xFFFFFFFFFFFFFFFFFFFFFFFFFFFFFFFFFFFFFFFF AND DUP3 PUSH20 0xFFFFFFFFFFFFFFFFFFFFFFFFFFFFFFFFFFFFFFFF AND PUSH4 0x6352211E DUP4 PUSH1 0x40 MLOAD DUP3 PUSH4 0xFFFFFFFF AND PUSH1 0xE0 SHL DUP2 MSTORE PUSH1 0x4 ADD PUSH2 0x47A SWAP2 SWAP1 PUSH2 0x1225 JUMP JUMPDEST PUSH1 0x20 PUSH1 0x40 MLOAD DUP1 DUP4 SUB DUP2 DUP7 GAS STATICCALL ISZERO DUP1 ISZERO PUSH2 0x495 JUMPI RETURNDATASIZE PUSH0 DUP1 RETURNDATACOPY RETURNDATASIZE PUSH0 REVERT JUMPDEST POP POP POP POP PUSH1 0x40 MLOAD RETURNDATASIZE PUSH1 0x1F NOT PUSH1 0x1F DUP3 ADD AND DUP3 ADD DUP1 PUSH1 0x40 MSTORE POP DUP2 ADD SWAP1 PUSH2 0x4B9 SWAP2 SWAP1 PUSH2 0x123E JUMP JUMPDEST PUSH20 0xFFFFFFFFFFFFFFFFFFFFFFFFFFFFFFFFFFFFFFFF AND EQ PUSH2 0x4D8 JUMPI PUSH0 DUP1 REVERT JUMPDEST DUP11 PUSH1 0x80 DUP2 DUP2 MSTORE POP POP DUP10 PUSH1 0x7 DUP2 SWAP1 SSTORE POP DUP9 PUSH1 0xA0 DUP2 DUP2 MSTORE POP POP DUP8 PUSH1 0xC0 DUP2 DUP2 MSTORE POP POP DUP7 PUSH2 0x100 DUP2 DUP2 MSTORE POP POP DUP6 ISZERO ISZERO PUSH1 0xE0 DUP2 ISZERO ISZERO DUP2 MSTORE POP POP DUP5 PUSH2 0x120 DUP2 DUP2 MSTORE POP POP DUP4 PUSH2 0x140 DUP2 DUP2 MSTORE POP POP DUP3 PUSH2 0x160 DUP2 DUP2 MSTORE POP POP DUP2 PUSH20 0xFFFFFFFFFFFFFFFFFFFFFFFFFFFFFFFFFFFFFFFF AND PUSH2 0x180 DUP2 PUSH20 0xFFFFFFFFFFFFFFFFFFFFFFFFFFFFFFFFFFFFFFFF AND DUP2 MSTORE POP POP DUP1 PUSH2 0x1A0 DUP2 DUP2 MSTORE POP POP POP POP POP POP POP POP POP POP POP POP POP PUSH2 0x1269 JUMP JUMPDEST PUSH0 PUSH2 0x584 PUSH2 0x633 PUSH1 0x20 SHL PUSH1 0x20 SHR JUMP JUMPDEST SWAP1 POP DUP2 PUSH0 DUP1 PUSH2 0x100 EXP DUP2 SLOAD DUP2 PUSH20 0xFFFFFFFFFFFFFFFFFFFFFFFFFFFFFFFFFFFFFFFF MUL NOT AND SWAP1 DUP4 PUSH20 0xFFFFFFFFFFFFFFFFFFFFFFFFFFFFFFFFFFFFFFFF AND MUL OR SWAP1 SSTORE POP PUSH2 0x5D5 DUP2 DUP4 PUSH2 0x65A PUSH1 0x20 SHL PUSH1 0x20 SHR JUMP JUMPDEST DUP2 PUSH20 0xFFFFFFFFFFFFFFFFFFFFFFFFFFFFFFFFFFFFFFFF AND DUP2 PUSH20 0xFFFFFFFFFFFFFFFFFFFFFFFFFFFFFFFFFFFFFFFF AND PUSH32 0xE9A5158AC7353C7C7322ECECC080BC8E89334EFA5795B6E21E40EB266B0003D6 PUSH1 0x40 MLOAD PUSH1 0x40 MLOAD DUP1 SWAP2 SUB SWAP1 LOG3 POP POP JUMP JUMPDEST PUSH0 DUP1 PUSH0 SWAP1 SLOAD SWAP1 PUSH2 0x100 EXP SWAP1 DIV PUSH20 0xFFFFFFFFFFFFFFFFFFFFFFFFFFFFFFFFFFFFFFFF AND SWAP1 POP SWAP1 JUMP JUMPDEST PUSH0 PUSH1 0x40 MLOAD DUP1 PUSH1 0xA0 ADD PUSH1 0x40 MSTORE DUP1 DUP5 PUSH20 0xFFFFFFFFFFFFFFFFFFFFFFFFFFFFFFFFFFFFFFFF AND DUP2 MSTORE PUSH1 0x20 ADD DUP4 PUSH20 0xFFFFFFFFFFFFFFFFFFFFFFFFFFFFFFFFFFFFFFFF AND DUP2 MSTORE PUSH1 0x20 ADD NUMBER DUP2 MSTORE PUSH1 0x20 ADD NUMBER BLOCKHASH DUP2 MSTORE PUSH1 0x20 ADD CHAINID DUP2 MSTORE POP SWAP1 POP PUSH1 0x2 DUP2 SWAP1 DUP1 PUSH1 0x1 DUP2 SLOAD ADD DUP1 DUP3 SSTORE DUP1 SWAP2 POP POP PUSH1 0x1 SWAP1 SUB SWAP1 PUSH0 MSTORE PUSH1 0x20 PUSH0 KECCAK256 SWAP1 PUSH1 0x5 MUL ADD PUSH0 SWAP1 SWAP2 SWAP1 SWAP2 SWAP1 SWAP2 POP PUSH0 DUP3 ADD MLOAD DUP2 PUSH0 ADD PUSH0 PUSH2 0x100 EXP DUP2 SLOAD DUP2 PUSH20 0xFFFFFFFFFFFFFFFFFFFFFFFFFFFFFFFFFFFFFFFF MUL NOT AND SWAP1 DUP4 PUSH20 0xFFFFFFFFFFFFFFFFFFFFFFFFFFFFFFFFFFFFFFFF AND MUL OR SWAP1 SSTORE POP PUSH1 0x20 DUP3 ADD MLOAD DUP2 PUSH1 0x1 ADD PUSH0 PUSH2 0x100 EXP DUP2 SLOAD DUP2 PUSH20 0xFFFFFFFFFFFFFFFFFFFFFFFFFFFFFFFFFFFFFFFF MUL NOT AND SWAP1 DUP4 PUSH20 0xFFFFFFFFFFFFFFFFFFFFFFFFFFFFFFFFFFFFFFFF AND MUL OR SWAP1 SSTORE POP PUSH1 0x40 DUP3 ADD MLOAD DUP2 PUSH1 0x2 ADD SSTORE PUSH1 0x60 DUP3 ADD MLOAD DUP2 PUSH1 0x3 ADD SSTORE PUSH1 0x80 DUP3 ADD MLOAD DUP2 PUSH1 0x4 ADD SSTORE POP POP POP POP POP JUMP JUMPDEST PUSH0 DUP1 REVERT JUMPDEST PUSH0 DUP2 SWAP1 POP SWAP2 SWAP1 POP JUMP JUMPDEST PUSH2 0x79F DUP2 PUSH2 0x78D JUMP JUMPDEST DUP2 EQ PUSH2 0x7A9 JUMPI PUSH0 DUP1 REVERT JUMPDEST POP JUMP JUMPDEST PUSH0 DUP2 MLOAD SWAP1 POP PUSH2 0x7BA DUP2 PUSH2 0x796 JUMP JUMPDEST SWAP3 SWAP2 POP POP JUMP JUMPDEST PUSH0 DUP2 ISZERO ISZERO SWAP1 POP SWAP2 SWAP1 POP JUMP JUMPDEST PUSH2 0x7D4 DUP2 PUSH2 0x7C0 JUMP JUMPDEST DUP2 EQ PUSH2 0x7DE JUMPI PUSH0 DUP1 REVERT JUMPDEST POP JUMP JUMPDEST PUSH0 DUP2 MLOAD SWAP1 POP PUSH2 0x7EF DUP2 PUSH2 0x7CB JUMP JUMPDEST SWAP3 SWAP2 POP POP JUMP JUMPDEST PUSH0 PUSH20 0xFFFFFFFFFFFFFFFFFFFFFFFFFFFFFFFFFFFFFFFF DUP3 AND SWAP1 POP SWAP2 SWAP1 POP JUMP JUMPDEST PUSH0 PUSH2 0x81E DUP3 PUSH2 0x7F5 JUMP JUMPDEST SWAP1 POP SWAP2 SWAP1 POP JUMP JUMPDEST PUSH2 0x82E DUP2 PUSH2 0x814 JUMP JUMPDEST DUP2 EQ PUSH2 0x838 JUMPI PUSH0 DUP1 REVERT JUMPDEST POP JUMP JUMPDEST PUSH0 DUP2 MLOAD SWAP1 POP PUSH2 0x849 DUP2 PUSH2 0x825 JUMP JUMPDEST SWAP3 SWAP2 POP POP JUMP JUMPDEST PUSH0 DUP1 PUSH0 DUP1 PUSH0 DUP1 PUSH0 DUP1 PUSH0 DUP1 PUSH0 PUSH2 0x160 DUP13 DUP15 SUB SLT ISZERO PUSH2 0x86F JUMPI PUSH2 0x86E PUSH2 0x789 JUMP JUMPDEST JUMPDEST PUSH0 PUSH2 0x87C DUP15 DUP3 DUP16 ADD PUSH2 0x7AC JUMP JUMPDEST SWAP12 POP POP PUSH1 0x20 PUSH2 0x88D DUP15 DUP3 DUP16 ADD PUSH2 0x7AC JUMP JUMPDEST SWAP11 POP POP PUSH1 0x40 PUSH2 0x89E DUP15 DUP3 DUP16 ADD PUSH2 0x7AC JUMP JUMPDEST SWAP10 POP POP PUSH1 0x60 PUSH2 0x8AF DUP15 DUP3 DUP16 ADD PUSH2 0x7AC JUMP JUMPDEST SWAP9 POP POP PUSH1 0x80 PUSH2 0x8C0 DUP15 DUP3 DUP16 ADD PUSH2 0x7AC JUMP JUMPDEST SWAP8 POP POP PUSH1 0xA0 PUSH2 0x8D1 DUP15 DUP3 DUP16 ADD PUSH2 0x7E1 JUMP JUMPDEST SWAP7 POP POP PUSH1 0xC0 PUSH2 0x8E2 DUP15 DUP3 DUP16 ADD PUSH2 0x7AC JUMP JUMPDEST SWAP6 POP POP PUSH1 0xE0 PUSH2 0x8F3 DUP15 DUP3 DUP16 ADD PUSH2 0x7AC JUMP JUMPDEST SWAP5 POP POP PUSH2 0x100 PUSH2 0x905 DUP15 DUP3 DUP16 ADD PUSH2 0x7AC JUMP JUMPDEST SWAP4 POP POP PUSH2 0x120 PUSH2 0x917 DUP15 DUP3 DUP16 ADD PUSH2 0x83B JUMP JUMPDEST SWAP3 POP POP PUSH2 0x140 PUSH2 0x929 DUP15 DUP3 DUP16 ADD PUSH2 0x7AC JUMP JUMPDEST SWAP2 POP POP SWAP3 SWAP6 SWAP9 SWAP12 POP SWAP3 SWAP6 SWAP9 SWAP12 SWAP1 SWAP4 SWAP7 SWAP10 POP JUMP JUMPDEST PUSH0 DUP3 DUP3 MSTORE PUSH1 0x20 DUP3 ADD SWAP1 POP SWAP3 SWAP2 POP POP JUMP JUMPDEST PUSH32 0x494E56414C49442041554354494F4E20434F4E545241435420494E495449414C PUSH0 DUP3 ADD MSTORE PUSH32 0x495A4154494F4E3A207374617274696E6720626C6F636B206D757374206E6F74 PUSH1 0x20 DUP3 ADD MSTORE PUSH32 0x206265206C6F776572207468616E207468652063757272656E7420626C6F636B PUSH1 0x40 DUP3 ADD MSTORE PUSH32 0x2120416E2061756374696F6E2063616E6E6F7420737461727420696E20746865 PUSH1 0x60 DUP3 ADD MSTORE PUSH32 0x20706173742E0000000000000000000000000000000000000000000000000000 PUSH1 0x80 DUP3 ADD MSTORE POP JUMP JUMPDEST PUSH0 PUSH2 0xA18 PUSH1 0x86 DUP4 PUSH2 0x93C JUMP JUMPDEST SWAP2 POP PUSH2 0xA23 DUP3 PUSH2 0x94C JUMP JUMPDEST PUSH1 0xA0 DUP3 ADD SWAP1 POP SWAP2 SWAP1 POP JUMP JUMPDEST PUSH0 PUSH1 0x20 DUP3 ADD SWAP1 POP DUP2 DUP2 SUB PUSH0 DUP4 ADD MSTORE PUSH2 0xA45 DUP2 PUSH2 0xA0C JUMP JUMPDEST SWAP1 POP SWAP2 SWAP1 POP JUMP JUMPDEST PUSH32 0x494E56414C49442041554354494F4E20434F4E545241435420494E495449414C PUSH0 DUP3 ADD MSTORE PUSH32 0x495A4154494F4E3A20656E64696E6720626C6F636B206D757374206265206869 PUSH1 0x20 DUP3 ADD MSTORE PUSH32 0x67686572207468616E207374617274696E6720626C6F636B2100000000000000 PUSH1 0x40 DUP3 ADD MSTORE POP JUMP JUMPDEST PUSH0 PUSH2 0xACC PUSH1 0x59 DUP4 PUSH2 0x93C JUMP JUMPDEST SWAP2 POP PUSH2 0xAD7 DUP3 PUSH2 0xA4C JUMP JUMPDEST PUSH1 0x60 DUP3 ADD SWAP1 POP SWAP2 SWAP1 POP JUMP JUMPDEST PUSH0 PUSH1 0x20 DUP3 ADD SWAP1 POP DUP2 DUP2 SUB PUSH0 DUP4 ADD MSTORE PUSH2 0xAF9 DUP2 PUSH2 0xAC0 JUMP JUMPDEST SWAP1 POP SWAP2 SWAP1 POP JUMP JUMPDEST PUSH32 0x494E56414C49442041554354494F4E20434F4E545241435420494E495449414C PUSH0 DUP3 ADD MSTORE PUSH32 0x495A4154494F4E3A207374617274696E67207072696365206D75737420626520 PUSH1 0x20 DUP3 ADD MSTORE PUSH32 0x657175616C206F722067726561746572207468616E2030210000000000000000 PUSH1 0x40 DUP3 ADD MSTORE POP JUMP JUMPDEST PUSH0 PUSH2 0xB80 PUSH1 0x58 DUP4 PUSH2 0x93C JUMP JUMPDEST SWAP2 POP PUSH2 0xB8B DUP3 PUSH2 0xB00 JUMP JUMPDEST PUSH1 0x60 DUP3 ADD SWAP1 POP SWAP2 SWAP1 POP JUMP JUMPDEST PUSH0 PUSH1 0x20 DUP3 ADD SWAP1 POP DUP2 DUP2 SUB PUSH0 DUP4 ADD MSTORE PUSH2 0xBAD DUP2 PUSH2 0xB74 JUMP JUMPDEST SWAP1 POP SWAP2 SWAP1 POP JUMP JUMPDEST PUSH32 0x494E56414C49442041554354494F4E20434F4E545241435420494E495449414C PUSH0 DUP3 ADD MSTORE PUSH32 0x495A4154494F4E3A2062696420696E6372656D656E74206D7573742062652065 PUSH1 0x20 DUP3 ADD MSTORE PUSH32 0x7175616C206F722067726561746572207468616E203021000000000000000000 PUSH1 0x40 DUP3 ADD MSTORE POP JUMP JUMPDEST PUSH0 PUSH2 0xC34 PUSH1 0x57 DUP4 PUSH2 0x93C JUMP JUMPDEST SWAP2 POP PUSH2 0xC3F DUP3 PUSH2 0xBB4 JUMP JUMPDEST PUSH1 0x60 DUP3 ADD SWAP1 POP SWAP2 SWAP1 POP JUMP JUMPDEST PUSH0 PUSH1 0x20 DUP3 ADD SWAP1 POP DUP2 DUP2 SUB PUSH0 DUP4 ADD MSTORE PUSH2 0xC61 DUP2 PUSH2 0xC28 JUMP JUMPDEST SWAP1 POP SWAP2 SWAP1 POP JUMP JUMPDEST PUSH32 0x494E56414C49442041554354494F4E20434F4E545241435420494E495449414C PUSH0 DUP3 ADD MSTORE PUSH32 0x495A4154494F4E3A2072657365727665207072696365206D7573742062652065 PUSH1 0x20 DUP3 ADD MSTORE PUSH32 0x7175616C206F722067726561746572207468616E203021000000000000000000 PUSH1 0x40 DUP3 ADD MSTORE POP JUMP JUMPDEST PUSH0 PUSH2 0xCE8 PUSH1 0x57 DUP4 PUSH2 0x93C JUMP JUMPDEST SWAP2 POP PUSH2 0xCF3 DUP3 PUSH2 0xC68 JUMP JUMPDEST PUSH1 0x60 DUP3 ADD SWAP1 POP SWAP2 SWAP1 POP JUMP JUMPDEST PUSH0 PUSH1 0x20 DUP3 ADD SWAP1 POP DUP2 DUP2 SUB PUSH0 DUP4 ADD MSTORE PUSH2 0xD15 DUP2 PUSH2 0xCDC JUMP JUMPDEST SWAP1 POP SWAP2 SWAP1 POP JUMP JUMPDEST PUSH32 0x494E56414C49442041554354494F4E20434F4E545241435420494E495449414C PUSH0 DUP3 ADD MSTORE PUSH32 0x495A4154494F4E3A20656E74727920666565206D75737420626520657175616C PUSH1 0x20 DUP3 ADD MSTORE PUSH32 0x206F722067726561746572207468616E20302100000000000000000000000000 PUSH1 0x40 DUP3 ADD MSTORE POP JUMP JUMPDEST PUSH0 PUSH2 0xD9C PUSH1 0x53 DUP4 PUSH2 0x93C JUMP JUMPDEST SWAP2 POP PUSH2 0xDA7 DUP3 PUSH2 0xD1C JUMP JUMPDEST PUSH1 0x60 DUP3 ADD SWAP1 POP SWAP2 SWAP1 POP JUMP JUMPDEST PUSH0 PUSH1 0x20 DUP3 ADD SWAP1 POP DUP2 DUP2 SUB PUSH0 DUP4 ADD MSTORE PUSH2 0xDC9 DUP2 PUSH2 0xD90 JUMP JUMPDEST SWAP1 POP SWAP2 SWAP1 POP JUMP JUMPDEST PUSH32 0x4E487B7100000000000000000000000000000000000000000000000000000000 PUSH0 MSTORE PUSH1 0x11 PUSH1 0x4 MSTORE PUSH1 0x24 PUSH0 REVERT JUMPDEST PUSH0 PUSH2 0xE07 DUP3 PUSH2 0x78D JUMP JUMPDEST SWAP2 POP PUSH2 0xE12 DUP4 PUSH2 0x78D JUMP JUMPDEST SWAP3 POP DUP3 DUP3 SUB SWAP1 POP DUP2 DUP2 GT ISZERO PUSH2 0xE2A JUMPI PUSH2 0xE29 PUSH2 0xDD0 JUMP JUMPDEST JUMPDEST SWAP3 SWAP2 POP POP JUMP JUMPDEST PUSH32 0x494E56414C49442041554354494F4E20434F4E545241435420494E495449414C PUSH0 DUP3 ADD MSTORE PUSH32 0x495A4154494F4E3A207468652061756374696F6E20736E6970652070726F7465 PUSH1 0x20 DUP3 ADD MSTORE PUSH32 0x6374696F6E20696E74657276616C206D757374206265206C657373207468616E PUSH1 0x40 DUP3 ADD MSTORE PUSH32 0x207468652077686F6C65206475726174696F6E206F6620746865206175637469 PUSH1 0x60 DUP3 ADD MSTORE PUSH32 0x6F6E210000000000000000000000000000000000000000000000000000000000 PUSH1 0x80 DUP3 ADD MSTORE POP JUMP JUMPDEST PUSH0 PUSH2 0xEFC PUSH1 0x83 DUP4 PUSH2 0x93C JUMP JUMPDEST SWAP2 POP PUSH2 0xF07 DUP3 PUSH2 0xE30 JUMP JUMPDEST PUSH1 0xA0 DUP3 ADD SWAP1 POP SWAP2 SWAP1 POP JUMP JUMPDEST PUSH0 PUSH1 0x20 DUP3 ADD SWAP1 POP DUP2 DUP2 SUB PUSH0 DUP4 ADD MSTORE PUSH2 0xF29 DUP2 PUSH2 0xEF0 JUMP JUMPDEST SWAP1 POP SWAP2 SWAP1 POP JUMP JUMPDEST PUSH32 0x494E56414C49442041554354494F4E20434F4E545241435420494E495449414C PUSH0 DUP3 ADD MSTORE PUSH32 0x495A4154494F4E3A20736E6970652061637469766174696F6E20696E74657276 PUSH1 0x20 DUP3 ADD MSTORE PUSH32 0x616C206D75737420626520657175616C206F722067726561746572207468616E PUSH1 0x40 DUP3 ADD MSTORE PUSH32 0x2030210000000000000000000000000000000000000000000000000000000000 PUSH1 0x60 DUP3 ADD MSTORE POP JUMP JUMPDEST PUSH0 PUSH2 0xFD6 PUSH1 0x63 DUP4 PUSH2 0x93C JUMP JUMPDEST SWAP2 POP PUSH2 0xFE1 DUP3 PUSH2 0xF30 JUMP JUMPDEST PUSH1 0x80 DUP3 ADD SWAP1 POP SWAP2 SWAP1 POP JUMP JUMPDEST PUSH0 PUSH1 0x20 DUP3 ADD SWAP1 POP DUP2 DUP2 SUB PUSH0 DUP4 ADD MSTORE PUSH2 0x1003 DUP2 PUSH2 0xFCA JUMP JUMPDEST SWAP1 POP SWAP2 SWAP1 POP JUMP JUMPDEST PUSH32 0x494E56414C49442041554354494F4E20434F4E545241435420494E495449414C PUSH0 DUP3 ADD MSTORE PUSH32 0x495A4154494F4E3A206E756D626572206F6620736E6970652070726F74656374 PUSH1 0x20 DUP3 ADD MSTORE PUSH32 0x696F6E20626C6F636B73206D75737420626520657175616C206F722067726561 PUSH1 0x40 DUP3 ADD MSTORE PUSH32 0x746572207468616E203021000000000000000000000000000000000000000000 PUSH1 0x60 DUP3 ADD MSTORE POP JUMP JUMPDEST PUSH0 PUSH2 0x10B0 PUSH1 0x6B DUP4 PUSH2 0x93C JUMP JUMPDEST SWAP2 POP PUSH2 0x10BB DUP3 PUSH2 0x100A JUMP JUMPDEST PUSH1 0x80 DUP3 ADD SWAP1 POP SWAP2 SWAP1 POP JUMP JUMPDEST PUSH0 PUSH1 0x20 DUP3 ADD SWAP1 POP DUP2 DUP2 SUB PUSH0 DUP4 ADD MSTORE PUSH2 0x10DD DUP2 PUSH2 0x10A4 JUMP JUMPDEST SWAP1 POP SWAP2 SWAP1 POP JUMP JUMPDEST PUSH0 PUSH32 0xFFFFFFFF00000000000000000000000000000000000000000000000000000000 DUP3 AND SWAP1 POP SWAP2 SWAP1 POP JUMP JUMPDEST PUSH2 0x1118 DUP2 PUSH2 0x10E4 JUMP JUMPDEST DUP3 MSTORE POP POP JUMP JUMPDEST PUSH0 PUSH1 0x20 DUP3 ADD SWAP1 POP PUSH2 0x1131 PUSH0 DUP4 ADD DUP5 PUSH2 0x110F JUMP JUMPDEST SWAP3 SWAP2 POP POP JUMP JUMPDEST PUSH0 PUSH1 0x20 DUP3 DUP5 SUB SLT ISZERO PUSH2 0x114C JUMPI PUSH2 0x114B PUSH2 0x789 JUMP JUMPDEST JUMPDEST PUSH0 PUSH2 0x1159 DUP5 DUP3 DUP6 ADD PUSH2 0x7E1 JUMP JUMPDEST SWAP2 POP POP SWAP3 SWAP2 POP POP JUMP JUMPDEST PUSH32 0x494E56414C49442041554354494F4E20434F4E545241435420494E495449414C PUSH0 DUP3 ADD MSTORE PUSH32 0x495A4154494F4E3A2074686520636F6E7472616374206D75737420737570706F PUSH1 0x20 DUP3 ADD MSTORE PUSH32 0x7274207468652045524337323120746F6B656E207374616E6461726421000000 PUSH1 0x40 DUP3 ADD MSTORE POP JUMP JUMPDEST PUSH0 PUSH2 0x11E2 PUSH1 0x5D DUP4 PUSH2 0x93C JUMP JUMPDEST SWAP2 POP PUSH2 0x11ED DUP3 PUSH2 0x1162 JUMP JUMPDEST PUSH1 0x60 DUP3 ADD SWAP1 POP SWAP2 SWAP1 POP JUMP JUMPDEST PUSH0 PUSH1 0x20 DUP3 ADD SWAP1 POP DUP2 DUP2 SUB PUSH0 DUP4 ADD MSTORE PUSH2 0x120F DUP2 PUSH2 0x11D6 JUMP JUMPDEST SWAP1 POP SWAP2 SWAP1 POP JUMP JUMPDEST PUSH2 0x121F DUP2 PUSH2 0x78D JUMP JUMPDEST DUP3 MSTORE POP POP JUMP JUMPDEST PUSH0 PUSH1 0x20 DUP3 ADD SWAP1 POP PUSH2 0x1238 PUSH0 DUP4 ADD DUP5 PUSH2 0x1216 JUMP JUMPDEST SWAP3 SWAP2 POP POP JUMP JUMPDEST PUSH0 PUSH1 0x20 DUP3 DUP5 SUB SLT ISZERO PUSH2 0x1253 JUMPI PUSH2 0x1252 PUSH2 0x789 JUMP JUMPDEST JUMPDEST PUSH0 PUSH2 0x1260 DUP5 DUP3 DUP6 ADD PUSH2 0x83B JUMP JUMPDEST SWAP2 POP POP SWAP3 SWAP2 POP POP JUMP JUMPDEST PUSH1 0x80 MLOAD PUSH1 0xA0 MLOAD PUSH1 0xC0 MLOAD PUSH1 0xE0 MLOAD PUSH2 0x100 MLOAD PUSH2 0x120 MLOAD PUSH2 0x140 MLOAD PUSH2 0x160 MLOAD PUSH2 0x180 MLOAD PUSH2 0x1A0 MLOAD PUSH2 0x5327 PUSH2 0x12D8 PUSH0 CODECOPY PUSH0 PUSH2 0x1E2B ADD MSTORE PUSH0 PUSH2 0x1DEF ADD MSTORE PUSH0 PUSH2 0x1753 ADD MSTORE PUSH0 PUSH2 0x1EBF ADD MSTORE PUSH0 PUSH2 0xABF ADD MSTORE PUSH0 PUSH2 0x22FC ADD MSTORE PUSH0 PUSH2 0x172C ADD MSTORE PUSH0 PUSH2 0x204B ADD MSTORE PUSH0 PUSH2 0x215F ADD MSTORE PUSH0 PUSH2 0x234B ADD MSTORE PUSH2 0x5327 PUSH0 RETURN INVALID PUSH1 0x80 PUSH1 0x40 MSTORE PUSH1 0x4 CALLDATASIZE LT PUSH2 0x245 JUMPI PUSH0 CALLDATALOAD PUSH1 0xE0 SHR DUP1 PUSH4 0x86F3333E GT PUSH2 0x138 JUMPI DUP1 PUSH4 0xD870E809 GT PUSH2 0xB5 JUMPI DUP1 PUSH4 0xE9D7010C GT PUSH2 0x79 JUMPI DUP1 PUSH4 0xE9D7010C EQ PUSH2 0x819 JUMPI DUP1 PUSH4 0xEA31876A EQ PUSH2 0x855 JUMPI DUP1 PUSH4 0xECFC7ECC EQ PUSH2 0x87F JUMPI DUP1 PUSH4 0xF2157773 EQ PUSH2 0x89D JUMPI DUP1 PUSH4 0xF2FDE38B EQ PUSH2 0x8D9 JUMPI DUP1 PUSH4 0xF851D770 EQ PUSH2 0x915 JUMPI PUSH2 0x245 JUMP JUMPDEST DUP1 PUSH4 0xD870E809 EQ PUSH2 0x75B JUMPI DUP1 PUSH4 0xDABE2CC4 EQ PUSH2 0x771 JUMPI DUP1 PUSH4 0xDB2E1EED EQ PUSH2 0x79B JUMPI DUP1 PUSH4 0xE30C3978 EQ PUSH2 0x7C5 JUMPI DUP1 PUSH4 0xE651ACA4 EQ PUSH2 0x7EF JUMPI PUSH2 0x245 JUMP JUMPDEST DUP1 PUSH4 0xB37A8BE3 GT PUSH2 0xFC JUMPI DUP1 PUSH4 0xB37A8BE3 EQ PUSH2 0x677 JUMPI DUP1 PUSH4 0xB3CC167A EQ PUSH2 0x6A1 JUMPI DUP1 PUSH4 0xD12FB0A9 EQ PUSH2 0x6CB JUMPI DUP1 PUSH4 0xD19AC77A EQ PUSH2 0x6F5 JUMPI DUP1 PUSH4 0xD6FBF202 EQ PUSH2 0x731 JUMPI PUSH2 0x245 JUMP JUMPDEST DUP1 PUSH4 0x86F3333E EQ PUSH2 0x5B9 JUMPI DUP1 PUSH4 0x8DA5CB5B EQ PUSH2 0x5CF JUMPI DUP1 PUSH4 0x928CA325 EQ PUSH2 0x5F9 JUMPI DUP1 PUSH4 0x9A82A09A EQ PUSH2 0x623 JUMPI DUP1 PUSH4 0xA5875CAB EQ PUSH2 0x64D JUMPI PUSH2 0x245 JUMP JUMPDEST DUP1 PUSH4 0x3CCFD60B GT PUSH2 0x1C6 JUMPI DUP1 PUSH4 0x6F4CF183 GT PUSH2 0x18A JUMPI DUP1 PUSH4 0x6F4CF183 EQ PUSH2 0x4E1 JUMPI DUP1 PUSH4 0x7037EC6F EQ PUSH2 0x50B JUMPI DUP1 PUSH4 0x71354DCA EQ PUSH2 0x529 JUMPI DUP1 PUSH4 0x715018A6 EQ PUSH2 0x565 JUMPI DUP1 PUSH4 0x79BA5097 EQ PUSH2 0x58F JUMPI PUSH2 0x245 JUMP JUMPDEST DUP1 PUSH4 0x3CCFD60B EQ PUSH2 0x3FD JUMPI DUP1 PUSH4 0x4EFE2D1E EQ PUSH2 0x427 JUMPI DUP1 PUSH4 0x518CDC0E EQ PUSH2 0x451 JUMPI DUP1 PUSH4 0x6C4F6DC1 EQ PUSH2 0x48D JUMPI DUP1 PUSH4 0x6CFF3D2B EQ PUSH2 0x4B7 JUMPI PUSH2 0x245 JUMP JUMPDEST DUP1 PUSH4 0x12BB3730 GT PUSH2 0x20D JUMPI DUP1 PUSH4 0x12BB3730 EQ PUSH2 0x307 JUMPI DUP1 PUSH4 0x150B7A02 EQ PUSH2 0x331 JUMPI DUP1 PUSH4 0x1DE805E0 EQ PUSH2 0x36D JUMPI DUP1 PUSH4 0x2BB401D4 EQ PUSH2 0x397 JUMPI DUP1 PUSH4 0x3AF32ABF EQ PUSH2 0x3C1 JUMPI PUSH2 0x245 JUMP JUMPDEST DUP1 PUSH4 0x26892FC EQ PUSH2 0x249 JUMPI DUP1 PUSH4 0x72EA61C EQ PUSH2 0x25F JUMPI DUP1 PUSH4 0x7D52FA8 EQ PUSH2 0x289 JUMPI DUP1 PUSH4 0xDA55161 EQ PUSH2 0x2B3 JUMPI DUP1 PUSH4 0x11841C41 EQ PUSH2 0x2DD JUMPI JUMPDEST PUSH0 DUP1 REVERT JUMPDEST CALLVALUE DUP1 ISZERO PUSH2 0x254 JUMPI PUSH0 DUP1 REVERT JUMPDEST POP PUSH2 0x25D PUSH2 0x951 JUMP JUMPDEST STOP JUMPDEST CALLVALUE DUP1 ISZERO PUSH2 0x26A JUMPI PUSH0 DUP1 REVERT JUMPDEST POP PUSH2 0x273 PUSH2 0xABC JUMP JUMPDEST PUSH1 0x40 MLOAD PUSH2 0x280 SWAP2 SWAP1 PUSH2 0x3168 JUMP JUMPDEST PUSH1 0x40 MLOAD DUP1 SWAP2 SUB SWAP1 RETURN JUMPDEST CALLVALUE DUP1 ISZERO PUSH2 0x294 JUMPI PUSH0 DUP1 REVERT JUMPDEST POP PUSH2 0x29D PUSH2 0xAE3 JUMP JUMPDEST PUSH1 0x40 MLOAD PUSH2 0x2AA SWAP2 SWAP1 PUSH2 0x3168 JUMP JUMPDEST PUSH1 0x40 MLOAD DUP1 SWAP2 SUB SWAP1 RETURN JUMPDEST CALLVALUE DUP1 ISZERO PUSH2 0x2BE JUMPI PUSH0 DUP1 REVERT JUMPDEST POP PUSH2 0x2C7 PUSH2 0xAEC JUMP JUMPDEST PUSH1 0x40 MLOAD PUSH2 0x2D4 SWAP2 SWAP1 PUSH2 0x319B JUMP JUMPDEST PUSH1 0x40 MLOAD DUP1 SWAP2 SUB SWAP1 RETURN JUMPDEST CALLVALUE DUP1 ISZERO PUSH2 0x2E8 JUMPI PUSH0 DUP1 REVERT JUMPDEST POP PUSH2 0x2F1 PUSH2 0xC15 JUMP JUMPDEST PUSH1 0x40 MLOAD PUSH2 0x2FE SWAP2 SWAP1 PUSH2 0x3168 JUMP JUMPDEST PUSH1 0x40 MLOAD DUP1 SWAP2 SUB SWAP1 RETURN JUMPDEST CALLVALUE DUP1 ISZERO PUSH2 0x312 JUMPI PUSH0 DUP1 REVERT JUMPDEST POP PUSH2 0x31B PUSH2 0xC1C JUMP JUMPDEST PUSH1 0x40 MLOAD PUSH2 0x328 SWAP2 SWAP1 PUSH2 0x319B JUMP JUMPDEST PUSH1 0x40 MLOAD DUP1 SWAP2 SUB SWAP1 RETURN JUMPDEST CALLVALUE DUP1 ISZERO PUSH2 0x33C JUMPI PUSH0 DUP1 REVERT JUMPDEST POP PUSH2 0x357 PUSH1 0x4 DUP1 CALLDATASIZE SUB DUP2 ADD SWAP1 PUSH2 0x352 SWAP2 SWAP1 PUSH2 0x32AA JUMP JUMPDEST PUSH2 0xEEE JUMP JUMPDEST PUSH1 0x40 MLOAD PUSH2 0x364 SWAP2 SWAP1 PUSH2 0x3368 JUMP JUMPDEST PUSH1 0x40 MLOAD DUP1 SWAP2 SUB SWAP1 RETURN JUMPDEST CALLVALUE DUP1 ISZERO PUSH2 0x378 JUMPI PUSH0 DUP1 REVERT JUMPDEST POP PUSH2 0x381 PUSH2 0xF1B JUMP JUMPDEST PUSH1 0x40 MLOAD PUSH2 0x38E SWAP2 SWAP1 PUSH2 0x319B JUMP JUMPDEST PUSH1 0x40 MLOAD DUP1 SWAP2 SUB SWAP1 RETURN JUMPDEST CALLVALUE DUP1 ISZERO PUSH2 0x3A2 JUMPI PUSH0 DUP1 REVERT JUMPDEST POP PUSH2 0x3AB PUSH2 0xF30 JUMP JUMPDEST PUSH1 0x40 MLOAD PUSH2 0x3B8 SWAP2 SWAP1 PUSH2 0x319B JUMP JUMPDEST PUSH1 0x40 MLOAD DUP1 SWAP2 SUB SWAP1 RETURN JUMPDEST CALLVALUE DUP1 ISZERO PUSH2 0x3CC JUMPI PUSH0 DUP1 REVERT JUMPDEST POP PUSH2 0x3E7 PUSH1 0x4 DUP1 CALLDATASIZE SUB DUP2 ADD SWAP1 PUSH2 0x3E2 SWAP2 SWAP1 PUSH2 0x3381 JUMP JUMPDEST PUSH2 0xF46 JUMP JUMPDEST PUSH1 0x40 MLOAD PUSH2 0x3F4 SWAP2 SWAP1 PUSH2 0x319B JUMP JUMPDEST PUSH1 0x40 MLOAD DUP1 SWAP2 SUB SWAP1 RETURN JUMPDEST CALLVALUE DUP1 ISZERO PUSH2 0x408 JUMPI PUSH0 DUP1 REVERT JUMPDEST POP PUSH2 0x411 PUSH2 0xF98 JUMP JUMPDEST PUSH1 0x40 MLOAD PUSH2 0x41E SWAP2 SWAP1 PUSH2 0x319B JUMP JUMPDEST PUSH1 0x40 MLOAD DUP1 SWAP2 SUB SWAP1 RETURN JUMPDEST CALLVALUE DUP1 ISZERO PUSH2 0x432 JUMPI PUSH0 DUP1 REVERT JUMPDEST POP PUSH2 0x43B PUSH2 0x1653 JUMP JUMPDEST PUSH1 0x40 MLOAD PUSH2 0x448 SWAP2 SWAP1 PUSH2 0x341C JUMP JUMPDEST PUSH1 0x40 MLOAD DUP1 SWAP2 SUB SWAP1 RETURN JUMPDEST CALLVALUE DUP1 ISZERO PUSH2 0x45C JUMPI PUSH0 DUP1 REVERT JUMPDEST POP PUSH2 0x477 PUSH1 0x4 DUP1 CALLDATASIZE SUB DUP2 ADD SWAP1 PUSH2 0x472 SWAP2 SWAP1 PUSH2 0x3381 JUMP JUMPDEST PUSH2 0x16E3 JUMP JUMPDEST PUSH1 0x40 MLOAD PUSH2 0x484 SWAP2 SWAP1 PUSH2 0x3168 JUMP JUMPDEST PUSH1 0x40 MLOAD DUP1 SWAP2 SUB SWAP1 RETURN JUMPDEST CALLVALUE DUP1 ISZERO PUSH2 0x498 JUMPI PUSH0 DUP1 REVERT JUMPDEST POP PUSH2 0x4A1 PUSH2 0x1729 JUMP JUMPDEST PUSH1 0x40 MLOAD PUSH2 0x4AE SWAP2 SWAP1 PUSH2 0x319B JUMP JUMPDEST PUSH1 0x40 MLOAD DUP1 SWAP2 SUB SWAP1 RETURN JUMPDEST CALLVALUE DUP1 ISZERO PUSH2 0x4C2 JUMPI PUSH0 DUP1 REVERT JUMPDEST POP PUSH2 0x4CB PUSH2 0x1750 JUMP JUMPDEST PUSH1 0x40 MLOAD PUSH2 0x4D8 SWAP2 SWAP1 PUSH2 0x3168 JUMP JUMPDEST PUSH1 0x40 MLOAD DUP1 SWAP2 SUB SWAP1 RETURN JUMPDEST CALLVALUE DUP1 ISZERO PUSH2 0x4EC JUMPI PUSH0 DUP1 REVERT JUMPDEST POP PUSH2 0x4F5 PUSH2 0x1777 JUMP JUMPDEST PUSH1 0x40 MLOAD PUSH2 0x502 SWAP2 SWAP1 PUSH2 0x3580 JUMP JUMPDEST PUSH1 0x40 MLOAD DUP1 SWAP2 SUB SWAP1 RETURN JUMPDEST PUSH2 0x513 PUSH2 0x189A JUMP JUMPDEST PUSH1 0x40 MLOAD PUSH2 0x520 SWAP2 SWAP1 PUSH2 0x319B JUMP JUMPDEST PUSH1 0x40 MLOAD DUP1 SWAP2 SUB SWAP1 RETURN JUMPDEST CALLVALUE DUP1 ISZERO PUSH2 0x534 JUMPI PUSH0 DUP1 REVERT JUMPDEST POP PUSH2 0x54F PUSH1 0x4 DUP1 CALLDATASIZE SUB DUP2 ADD SWAP1 PUSH2 0x54A SWAP2 SWAP1 PUSH2 0x3381 JUMP JUMPDEST PUSH2 0x1ADB JUMP JUMPDEST PUSH1 0x40 MLOAD PUSH2 0x55C SWAP2 SWAP1 PUSH2 0x319B JUMP JUMPDEST PUSH1 0x40 MLOAD DUP1 SWAP2 SUB SWAP1 RETURN JUMPDEST CALLVALUE DUP1 ISZERO PUSH2 0x570 JUMPI PUSH0 DUP1 REVERT JUMPDEST POP PUSH2 0x579 PUSH2 0x1B2D JUMP JUMPDEST PUSH1 0x40 MLOAD PUSH2 0x586 SWAP2 SWAP1 PUSH2 0x319B JUMP JUMPDEST PUSH1 0x40 MLOAD DUP1 SWAP2 SUB SWAP1 RETURN JUMPDEST CALLVALUE DUP1 ISZERO PUSH2 0x59A JUMPI PUSH0 DUP1 REVERT JUMPDEST POP PUSH2 0x5A3 PUSH2 0x1C02 JUMP JUMPDEST PUSH1 0x40 MLOAD PUSH2 0x5B0 SWAP2 SWAP1 PUSH2 0x319B JUMP JUMPDEST PUSH1 0x40 MLOAD DUP1 SWAP2 SUB SWAP1 RETURN JUMPDEST CALLVALUE DUP1 ISZERO PUSH2 0x5C4 JUMPI PUSH0 DUP1 REVERT JUMPDEST POP PUSH2 0x5CD PUSH2 0x1C95 JUMP JUMPDEST STOP JUMPDEST CALLVALUE DUP1 ISZERO PUSH2 0x5DA JUMPI PUSH0 DUP1 REVERT JUMPDEST POP PUSH2 0x5E3 PUSH2 0x1E95 JUMP JUMPDEST PUSH1 0x40 MLOAD PUSH2 0x5F0 SWAP2 SWAP1 PUSH2 0x35AF JUMP JUMPDEST PUSH1 0x40 MLOAD DUP1 SWAP2 SUB SWAP1 RETURN JUMPDEST CALLVALUE DUP1 ISZERO PUSH2 0x604 JUMPI PUSH0 DUP1 REVERT JUMPDEST POP PUSH2 0x60D PUSH2 0x1EBC JUMP JUMPDEST PUSH1 0x40 MLOAD PUSH2 0x61A SWAP2 SWAP1 PUSH2 0x3168 JUMP JUMPDEST PUSH1 0x40 MLOAD DUP1 SWAP2 SUB SWAP1 RETURN JUMPDEST CALLVALUE DUP1 ISZERO PUSH2 0x62E JUMPI PUSH0 DUP1 REVERT JUMPDEST POP PUSH2 0x637 PUSH2 0x1EE3 JUMP JUMPDEST PUSH1 0x40 MLOAD PUSH2 0x644 SWAP2 SWAP1 PUSH2 0x319B JUMP JUMPDEST PUSH1 0x40 MLOAD DUP1 SWAP2 SUB SWAP1 RETURN JUMPDEST CALLVALUE DUP1 ISZERO PUSH2 0x658 JUMPI PUSH0 DUP1 REVERT JUMPDEST POP PUSH2 0x661 PUSH2 0x1EF8 JUMP JUMPDEST PUSH1 0x40 MLOAD PUSH2 0x66E SWAP2 SWAP1 PUSH2 0x319B JUMP JUMPDEST PUSH1 0x40 MLOAD DUP1 SWAP2 SUB SWAP1 RETURN JUMPDEST CALLVALUE DUP1 ISZERO PUSH2 0x682 JUMPI PUSH0 DUP1 REVERT JUMPDEST POP PUSH2 0x68B PUSH2 0x2020 JUMP JUMPDEST PUSH1 0x40 MLOAD PUSH2 0x698 SWAP2 SWAP1 PUSH2 0x35AF JUMP JUMPDEST PUSH1 0x40 MLOAD DUP1 SWAP2 SUB SWAP1 RETURN JUMPDEST CALLVALUE DUP1 ISZERO PUSH2 0x6AC JUMPI PUSH0 DUP1 REVERT JUMPDEST POP PUSH2 0x6B5 PUSH2 0x2048 JUMP JUMPDEST PUSH1 0x40 MLOAD PUSH2 0x6C2 SWAP2 SWAP1 PUSH2 0x3168 JUMP JUMPDEST PUSH1 0x40 MLOAD DUP1 SWAP2 SUB SWAP1 RETURN JUMPDEST CALLVALUE DUP1 ISZERO PUSH2 0x6D6 JUMPI PUSH0 DUP1 REVERT JUMPDEST POP PUSH2 0x6DF PUSH2 0x206F JUMP JUMPDEST PUSH1 0x40 MLOAD PUSH2 0x6EC SWAP2 SWAP1 PUSH2 0x319B JUMP JUMPDEST PUSH1 0x40 MLOAD DUP1 SWAP2 SUB SWAP1 RETURN JUMPDEST CALLVALUE DUP1 ISZERO PUSH2 0x700 JUMPI PUSH0 DUP1 REVERT JUMPDEST POP PUSH2 0x71B PUSH1 0x4 DUP1 CALLDATASIZE SUB DUP2 ADD SWAP1 PUSH2 0x716 SWAP2 SWAP1 PUSH2 0x36F0 JUMP JUMPDEST PUSH2 0x2084 JUMP JUMPDEST PUSH1 0x40 MLOAD PUSH2 0x728 SWAP2 SWAP1 PUSH2 0x319B JUMP JUMPDEST PUSH1 0x40 MLOAD DUP1 SWAP2 SUB SWAP1 RETURN JUMPDEST CALLVALUE DUP1 ISZERO PUSH2 0x73C JUMPI PUSH0 DUP1 REVERT JUMPDEST POP PUSH2 0x745 PUSH2 0x215C JUMP JUMPDEST PUSH1 0x40 MLOAD PUSH2 0x752 SWAP2 SWAP1 PUSH2 0x3168 JUMP JUMPDEST PUSH1 0x40 MLOAD DUP1 SWAP2 SUB SWAP1 RETURN JUMPDEST CALLVALUE DUP1 ISZERO PUSH2 0x766 JUMPI PUSH0 DUP1 REVERT JUMPDEST POP PUSH2 0x76F PUSH2 0x2183 JUMP JUMPDEST STOP JUMPDEST CALLVALUE DUP1 ISZERO PUSH2 0x77C JUMPI PUSH0 DUP1 REVERT JUMPDEST POP PUSH2 0x785 PUSH2 0x22F0 JUMP JUMPDEST PUSH1 0x40 MLOAD PUSH2 0x792 SWAP2 SWAP1 PUSH2 0x3168 JUMP JUMPDEST PUSH1 0x40 MLOAD DUP1 SWAP2 SUB SWAP1 RETURN JUMPDEST CALLVALUE DUP1 ISZERO PUSH2 0x7A6 JUMPI PUSH0 DUP1 REVERT JUMPDEST POP PUSH2 0x7AF PUSH2 0x22F9 JUMP JUMPDEST PUSH1 0x40 MLOAD PUSH2 0x7BC SWAP2 SWAP1 PUSH2 0x3168 JUMP JUMPDEST PUSH1 0x40 MLOAD DUP1 SWAP2 SUB SWAP1 RETURN JUMPDEST CALLVALUE DUP1 ISZERO PUSH2 0x7D0 JUMPI PUSH0 DUP1 REVERT JUMPDEST POP PUSH2 0x7D9 PUSH2 0x2320 JUMP JUMPDEST PUSH1 0x40 MLOAD PUSH2 0x7E6 SWAP2 SWAP1 PUSH2 0x35AF JUMP JUMPDEST PUSH1 0x40 MLOAD DUP1 SWAP2 SUB SWAP1 RETURN JUMPDEST CALLVALUE DUP1 ISZERO PUSH2 0x7FA JUMPI PUSH0 DUP1 REVERT JUMPDEST POP PUSH2 0x803 PUSH2 0x2348 JUMP JUMPDEST PUSH1 0x40 MLOAD PUSH2 0x810 SWAP2 SWAP1 PUSH2 0x3168 JUMP JUMPDEST PUSH1 0x40 MLOAD DUP1 SWAP2 SUB SWAP1 RETURN JUMPDEST CALLVALUE DUP1 ISZERO PUSH2 0x824 JUMPI PUSH0 DUP1 REVERT JUMPDEST POP PUSH2 0x83F PUSH1 0x4 DUP1 CALLDATASIZE SUB DUP2 ADD SWAP1 PUSH2 0x83A SWAP2 SWAP1 PUSH2 0x37F7 JUMP JUMPDEST PUSH2 0x236F JUMP JUMPDEST PUSH1 0x40 MLOAD PUSH2 0x84C SWAP2 SWAP1 PUSH2 0x319B JUMP JUMPDEST PUSH1 0x40 MLOAD DUP1 SWAP2 SUB SWAP1 RETURN JUMPDEST CALLVALUE DUP1 ISZERO PUSH2 0x860 JUMPI PUSH0 DUP1 REVERT JUMPDEST POP PUSH2 0x869 PUSH2 0x2506 JUMP JUMPDEST PUSH1 0x40 MLOAD PUSH2 0x876 SWAP2 SWAP1 PUSH2 0x319B JUMP JUMPDEST PUSH1 0x40 MLOAD DUP1 SWAP2 SUB SWAP1 RETURN JUMPDEST PUSH2 0x887 PUSH2 0x25A7 JUMP JUMPDEST PUSH1 0x40 MLOAD PUSH2 0x894 SWAP2 SWAP1 PUSH2 0x319B JUMP JUMPDEST PUSH1 0x40 MLOAD DUP1 SWAP2 SUB SWAP1 RETURN JUMPDEST CALLVALUE DUP1 ISZERO PUSH2 0x8A8 JUMPI PUSH0 DUP1 REVERT JUMPDEST POP PUSH2 0x8C3 PUSH1 0x4 DUP1 CALLDATASIZE SUB DUP2 ADD SWAP1 PUSH2 0x8BE SWAP2 SWAP1 PUSH2 0x3381 JUMP JUMPDEST PUSH2 0x2AB0 JUMP JUMPDEST PUSH1 0x40 MLOAD PUSH2 0x8D0 SWAP2 SWAP1 PUSH2 0x319B JUMP JUMPDEST PUSH1 0x40 MLOAD DUP1 SWAP2 SUB SWAP1 RETURN JUMPDEST CALLVALUE DUP1 ISZERO PUSH2 0x8E4 JUMPI PUSH0 DUP1 REVERT JUMPDEST POP PUSH2 0x8FF PUSH1 0x4 DUP1 CALLDATASIZE SUB DUP2 ADD SWAP1 PUSH2 0x8FA SWAP2 SWAP1 PUSH2 0x3381 JUMP JUMPDEST PUSH2 0x2B02 JUMP JUMPDEST PUSH1 0x40 MLOAD PUSH2 0x90C SWAP2 SWAP1 PUSH2 0x319B JUMP JUMPDEST PUSH1 0x40 MLOAD DUP1 SWAP2 SUB SWAP1 RETURN JUMPDEST CALLVALUE DUP1 ISZERO PUSH2 0x920 JUMPI PUSH0 DUP1 REVERT JUMPDEST POP PUSH2 0x93B PUSH1 0x4 DUP1 CALLDATASIZE SUB DUP2 ADD SWAP1 PUSH2 0x936 SWAP2 SWAP1 PUSH2 0x3381 JUMP JUMPDEST PUSH2 0x2D43 JUMP JUMPDEST PUSH1 0x40 MLOAD PUSH2 0x948 SWAP2 SWAP1 PUSH2 0x319B JUMP JUMPDEST PUSH1 0x40 MLOAD DUP1 SWAP2 SUB SWAP1 RETURN JUMPDEST PUSH2 0x959 PUSH2 0x1E95 JUMP JUMPDEST PUSH20 0xFFFFFFFFFFFFFFFFFFFFFFFFFFFFFFFFFFFFFFFF AND CALLER PUSH20 0xFFFFFFFFFFFFFFFFFFFFFFFFFFFFFFFFFFFFFFFF AND EQ PUSH2 0x9C6 JUMPI PUSH1 0x40 MLOAD PUSH32 0x8C379A000000000000000000000000000000000000000000000000000000000 DUP2 MSTORE PUSH1 0x4 ADD PUSH2 0x9BD SWAP1 PUSH2 0x38AE JUMP JUMPDEST PUSH1 0x40 MLOAD DUP1 SWAP2 SUB SWAP1 REVERT JUMPDEST NUMBER PUSH2 0x9CF PUSH2 0x2348 JUMP JUMPDEST GT ISZERO PUSH2 0xA10 JUMPI PUSH1 0x40 MLOAD PUSH32 0x8C379A000000000000000000000000000000000000000000000000000000000 DUP2 MSTORE PUSH1 0x4 ADD PUSH2 0xA07 SWAP1 PUSH2 0x393C JUMP JUMPDEST PUSH1 0x40 MLOAD DUP1 SWAP2 SUB SWAP1 REVERT JUMPDEST PUSH2 0xA18 PUSH2 0xAE3 JUMP JUMPDEST NUMBER GT ISZERO PUSH2 0xA5A JUMPI PUSH1 0x40 MLOAD PUSH32 0x8C379A000000000000000000000000000000000000000000000000000000000 DUP2 MSTORE PUSH1 0x4 ADD PUSH2 0xA51 SWAP1 PUSH2 0x39CA JUMP JUMPDEST PUSH1 0x40 MLOAD DUP1 SWAP2 SUB SWAP1 REVERT JUMPDEST PUSH2 0xA62 PUSH2 0xF1B JUMP JUMPDEST PUSH2 0xAA1 JUMPI PUSH1 0x40 MLOAD PUSH32 0x8C379A000000000000000000000000000000000000000000000000000000000 DUP2 MSTORE PUSH1 0x4 ADD PUSH2 0xA98 SWAP1 PUSH2 0x3A7E JUMP JUMPDEST PUSH1 0x40 MLOAD DUP1 SWAP2 SUB SWAP1 REVERT JUMPDEST PUSH0 PUSH1 0x8 PUSH0 PUSH2 0x100 EXP DUP2 SLOAD DUP2 PUSH1 0xFF MUL NOT AND SWAP1 DUP4 ISZERO ISZERO MUL OR SWAP1 SSTORE POP JUMP JUMPDEST PUSH0 PUSH32 0x0 SWAP1 POP SWAP1 JUMP JUMPDEST PUSH0 PUSH1 0x7 SLOAD SWAP1 POP SWAP1 JUMP JUMPDEST PUSH0 PUSH2 0xAF5 PUSH2 0x1E95 JUMP JUMPDEST PUSH20 0xFFFFFFFFFFFFFFFFFFFFFFFFFFFFFFFFFFFFFFFF AND CALLER PUSH20 0xFFFFFFFFFFFFFFFFFFFFFFFFFFFFFFFFFFFFFFFF AND EQ PUSH2 0xB62 JUMPI PUSH1 0x40 MLOAD PUSH32 0x8C379A000000000000000000000000000000000000000000000000000000000 DUP2 MSTORE PUSH1 0x4 ADD PUSH2 0xB59 SWAP1 PUSH2 0x38AE JUMP JUMPDEST PUSH1 0x40 MLOAD DUP1 SWAP2 SUB SWAP1 REVERT JUMPDEST PUSH2 0xB6A PUSH2 0xF30 JUMP JUMPDEST ISZERO PUSH2 0xBAA JUMPI PUSH1 0x40 MLOAD PUSH32 0x8C379A000000000000000000000000000000000000000000000000000000000 DUP2 MSTORE PUSH1 0x4 ADD PUSH2 0xBA1 SWAP1 PUSH2 0x3B0C JUMP JUMPDEST PUSH1 0x40 MLOAD DUP1 SWAP2 SUB SWAP1 REVERT JUMPDEST PUSH1 0x1 DUP1 PUSH1 0x14 PUSH2 0x100 EXP DUP2 SLOAD DUP2 PUSH1 0xFF MUL NOT AND SWAP1 DUP4 ISZERO ISZERO MUL OR SWAP1 SSTORE POP PUSH2 0xBCC PUSH2 0x1E95 JUMP JUMPDEST PUSH20 0xFFFFFFFFFFFFFFFFFFFFFFFFFFFFFFFFFFFFFFFF AND PUSH32 0x77019A1C4957E53FA06C71F760438F9267F6840293CDDAC381CCB7931E3C4A62 PUSH1 0x40 MLOAD PUSH1 0x40 MLOAD DUP1 SWAP2 SUB SWAP1 LOG2 PUSH1 0x1 SWAP1 POP SWAP1 JUMP JUMPDEST PUSH0 SELFBALANCE SWAP1 POP SWAP1 JUMP JUMPDEST PUSH0 PUSH2 0xC25 PUSH2 0x1E95 JUMP JUMPDEST PUSH20 0xFFFFFFFFFFFFFFFFFFFFFFFFFFFFFFFFFFFFFFFF AND CALLER PUSH20 0xFFFFFFFFFFFFFFFFFFFFFFFFFFFFFFFFFFFFFFFF AND SUB PUSH2 0xC92 JUMPI PUSH1 0x40 MLOAD PUSH32 0x8C379A000000000000000000000000000000000000000000000000000000000 DUP2 MSTORE PUSH1 0x4 ADD PUSH2 0xC89 SWAP1 PUSH2 0x3BC0 JUMP JUMPDEST PUSH1 0x40 MLOAD DUP1 SWAP2 SUB SWAP1 REVERT JUMPDEST PUSH2 0xC9A PUSH2 0x1EE3 JUMP JUMPDEST ISZERO DUP1 ISZERO PUSH2 0xCAD JUMPI POP NUMBER PUSH2 0xCAB PUSH2 0xAE3 JUMP JUMPDEST GT JUMPDEST ISZERO PUSH2 0xCED JUMPI PUSH1 0x40 MLOAD PUSH32 0x8C379A000000000000000000000000000000000000000000000000000000000 DUP2 MSTORE PUSH1 0x4 ADD PUSH2 0xCE4 SWAP1 PUSH2 0x3C9A JUMP JUMPDEST PUSH1 0x40 MLOAD DUP1 SWAP2 SUB SWAP1 REVERT JUMPDEST PUSH0 PUSH2 0xCF6 PUSH2 0xABC JUMP JUMPDEST GT PUSH2 0xD36 JUMPI PUSH1 0x40 MLOAD PUSH32 0x8C379A000000000000000000000000000000000000000000000000000000000 DUP2 MSTORE PUSH1 0x4 ADD PUSH2 0xD2D SWAP1 PUSH2 0x3D4E JUMP JUMPDEST PUSH1 0x40 MLOAD DUP1 SWAP2 SUB SWAP1 REVERT JUMPDEST PUSH2 0xD3F CALLER PUSH2 0x2AB0 JUMP JUMPDEST PUSH2 0xD7E JUMPI PUSH1 0x40 MLOAD PUSH32 0x8C379A000000000000000000000000000000000000000000000000000000000 DUP2 MSTORE PUSH1 0x4 ADD PUSH2 0xD75 SWAP1 PUSH2 0x3DDC JUMP JUMPDEST PUSH1 0x40 MLOAD DUP1 SWAP2 SUB SWAP1 REVERT JUMPDEST PUSH2 0xD87 CALLER PUSH2 0x1ADB JUMP JUMPDEST ISZERO PUSH2 0xDC7 JUMPI PUSH1 0x40 MLOAD PUSH32 0x8C379A000000000000000000000000000000000000000000000000000000000 DUP2 MSTORE PUSH1 0x4 ADD PUSH2 0xDBE SWAP1 PUSH2 0x3E90 JUMP JUMPDEST PUSH1 0x40 MLOAD DUP1 SWAP2 SUB SWAP1 REVERT JUMPDEST CALLER PUSH20 0xFFFFFFFFFFFFFFFFFFFFFFFFFFFFFFFFFFFFFFFF AND PUSH2 0x8FC PUSH2 0xDE9 PUSH2 0xABC JUMP JUMPDEST SWAP1 DUP2 ISZERO MUL SWAP1 PUSH1 0x40 MLOAD PUSH0 PUSH1 0x40 MLOAD DUP1 DUP4 SUB DUP2 DUP6 DUP9 DUP9 CALL SWAP4 POP POP POP POP ISZERO PUSH2 0xEB0 JUMPI PUSH1 0x1 PUSH1 0xC PUSH0 CALLER PUSH20 0xFFFFFFFFFFFFFFFFFFFFFFFFFFFFFFFFFFFFFFFF AND PUSH20 0xFFFFFFFFFFFFFFFFFFFFFFFFFFFFFFFFFFFFFFFF AND DUP2 MSTORE PUSH1 0x20 ADD SWAP1 DUP2 MSTORE PUSH1 0x20 ADD PUSH0 KECCAK256 PUSH0 PUSH2 0x100 EXP DUP2 SLOAD DUP2 PUSH1 0xFF MUL NOT AND SWAP1 DUP4 ISZERO ISZERO MUL OR SWAP1 SSTORE POP PUSH2 0xE64 PUSH2 0xABC JUMP JUMPDEST CALLER PUSH20 0xFFFFFFFFFFFFFFFFFFFFFFFFFFFFFFFFFFFFFFFF AND PUSH32 0x9E5C0EA2BE61CE8F047858D77B47D91A4517B8B683C8A45FC62828B4A5247B1C PUSH1 0x40 MLOAD PUSH1 0x40 MLOAD DUP1 SWAP2 SUB SWAP1 LOG3 PUSH1 0x1 SWAP1 POP PUSH2 0xEEB JUMP JUMPDEST PUSH1 0x40 MLOAD PUSH32 0x8C379A000000000000000000000000000000000000000000000000000000000 DUP2 MSTORE PUSH1 0x4 ADD PUSH2 0xEE2 SWAP1 PUSH2 0x3F1E JUMP JUMPDEST PUSH1 0x40 MLOAD DUP1 SWAP2 SUB SWAP1 REVERT JUMPDEST SWAP1 JUMP JUMPDEST PUSH0 PUSH32 0x150B7A023D4804D13E8C85FB27262CB750CF6BA9F9DD3BB30D90F482CEEB4B1F SWAP1 POP SWAP6 SWAP5 POP POP POP POP POP JUMP JUMPDEST PUSH0 PUSH1 0x8 PUSH0 SWAP1 SLOAD SWAP1 PUSH2 0x100 EXP SWAP1 DIV PUSH1 0xFF AND SWAP1 POP SWAP1 JUMP JUMPDEST PUSH0 PUSH1 0x1 PUSH1 0x14 SWAP1 SLOAD SWAP1 PUSH2 0x100 EXP SWAP1 DIV PUSH1 0xFF AND SWAP1 POP SWAP1 JUMP JUMPDEST PUSH0 PUSH1 0x9 PUSH0 DUP4 PUSH20 0xFFFFFFFFFFFFFFFFFFFFFFFFFFFFFFFFFFFFFFFF AND PUSH20 0xFFFFFFFFFFFFFFFFFFFFFFFFFFFFFFFFFFFFFFFF AND DUP2 MSTORE PUSH1 0x20 ADD SWAP1 DUP2 MSTORE PUSH1 0x20 ADD PUSH0 KECCAK256 PUSH0 SWAP1 SLOAD SWAP1 PUSH2 0x100 EXP SWAP1 DIV PUSH1 0xFF AND SWAP1 POP SWAP2 SWAP1 POP JUMP JUMPDEST PUSH0 PUSH2 0xFA1 PUSH2 0x1EE3 JUMP JUMPDEST ISZERO DUP1 ISZERO PUSH2 0xFB4 JUMPI POP NUMBER PUSH2 0xFB2 PUSH2 0xAE3 JUMP JUMPDEST GT JUMPDEST ISZERO PUSH2 0xFF4 JUMPI PUSH1 0x40 MLOAD PUSH32 0x8C379A000000000000000000000000000000000000000000000000000000000 DUP2 MSTORE PUSH1 0x4 ADD PUSH2 0xFEB SWAP1 PUSH2 0x3C9A JUMP JUMPDEST PUSH1 0x40 MLOAD DUP1 SWAP2 SUB SWAP1 REVERT JUMPDEST PUSH2 0xFFC PUSH2 0x1EE3 JUMP JUMPDEST ISZERO PUSH2 0x1157 JUMPI PUSH0 PUSH1 0x4 PUSH0 CALLER PUSH20 0xFFFFFFFFFFFFFFFFFFFFFFFFFFFFFFFFFFFFFFFF AND PUSH20 0xFFFFFFFFFFFFFFFFFFFFFFFFFFFFFFFFFFFFFFFF AND DUP2 MSTORE PUSH1 0x20 ADD SWAP1 DUP2 MSTORE PUSH1 0x20 ADD PUSH0 KECCAK256 SLOAD SWAP1 POP DUP1 PUSH1 0x4 PUSH0 CALLER PUSH20 0xFFFFFFFFFFFFFFFFFFFFFFFFFFFFFFFFFFFFFFFF AND PUSH20 0xFFFFFFFFFFFFFFFFFFFFFFFFFFFFFFFFFFFFFFFF AND DUP2 MSTORE PUSH1 0x20 ADD SWAP1 DUP2 MSTORE PUSH1 0x20 ADD PUSH0 KECCAK256 PUSH0 DUP3 DUP3 SLOAD PUSH2 0x108E SWAP2 SWAP1 PUSH2 0x3F69 JUMP JUMPDEST SWAP3 POP POP DUP2 SWAP1 SSTORE POP CALLER PUSH20 0xFFFFFFFFFFFFFFFFFFFFFFFFFFFFFFFFFFFFFFFF AND PUSH2 0x8FC DUP3 SWAP1 DUP2 ISZERO MUL SWAP1 PUSH1 0x40 MLOAD PUSH0 PUSH1 0x40 MLOAD DUP1 DUP4 SUB DUP2 DUP6 DUP9 DUP9 CALL SWAP4 POP POP POP POP ISZERO PUSH2 0x111C JUMPI DUP1 CALLER PUSH20 0xFFFFFFFFFFFFFFFFFFFFFFFFFFFFFFFFFFFFFFFF AND PUSH32 0x412D7CCF5961EF68F75E6E73F1EB58946047B233BF09C57121CF3951F9E15A0A PUSH1 0x40 MLOAD PUSH1 0x40 MLOAD DUP1 SWAP2 SUB SWAP1 LOG3 PUSH1 0x1 SWAP2 POP POP PUSH2 0x1650 JUMP JUMPDEST PUSH1 0x40 MLOAD PUSH32 0x8C379A000000000000000000000000000000000000000000000000000000000 DUP2 MSTORE PUSH1 0x4 ADD PUSH2 0x114E SWAP1 PUSH2 0x400C JUMP JUMPDEST PUSH1 0x40 MLOAD DUP1 SWAP2 SUB SWAP1 REVERT JUMPDEST PUSH2 0x115F PUSH2 0x22F9 JUMP JUMPDEST PUSH2 0x1167 PUSH2 0x22F0 JUMP JUMPDEST LT ISZERO PUSH2 0x12C3 JUMPI PUSH0 PUSH1 0x4 PUSH0 CALLER PUSH20 0xFFFFFFFFFFFFFFFFFFFFFFFFFFFFFFFFFFFFFFFF AND PUSH20 0xFFFFFFFFFFFFFFFFFFFFFFFFFFFFFFFFFFFFFFFF AND DUP2 MSTORE PUSH1 0x20 ADD SWAP1 DUP2 MSTORE PUSH1 0x20 ADD PUSH0 KECCAK256 SLOAD SWAP1 POP DUP1 PUSH1 0x4 PUSH0 CALLER PUSH20 0xFFFFFFFFFFFFFFFFFFFFFFFFFFFFFFFFFFFFFFFF AND PUSH20 0xFFFFFFFFFFFFFFFFFFFFFFFFFFFFFFFFFFFFFFFF AND DUP2 MSTORE PUSH1 0x20 ADD SWAP1 DUP2 MSTORE PUSH1 0x20 ADD PUSH0 KECCAK256 PUSH0 DUP3 DUP3 SLOAD PUSH2 0x11FA SWAP2 SWAP1 PUSH2 0x3F69 JUMP JUMPDEST SWAP3 POP POP DUP2 SWAP1 SSTORE POP CALLER PUSH20 0xFFFFFFFFFFFFFFFFFFFFFFFFFFFFFFFFFFFFFFFF AND PUSH2 0x8FC DUP3 SWAP1 DUP2 ISZERO MUL SWAP1 PUSH1 0x40 MLOAD PUSH0 PUSH1 0x40 MLOAD DUP1 DUP4 SUB DUP2 DUP6 DUP9 DUP9 CALL SWAP4 POP POP POP POP ISZERO PUSH2 0x1288 JUMPI DUP1 CALLER PUSH20 0xFFFFFFFFFFFFFFFFFFFFFFFFFFFFFFFFFFFFFFFF AND PUSH32 0x412D7CCF5961EF68F75E6E73F1EB58946047B233BF09C57121CF3951F9E15A0A PUSH1 0x40 MLOAD PUSH1 0x40 MLOAD DUP1 SWAP2 SUB SWAP1 LOG3 PUSH1 0x1 SWAP2 POP POP PUSH2 0x1650 JUMP JUMPDEST PUSH1 0x40 MLOAD PUSH32 0x8C379A000000000000000000000000000000000000000000000000000000000 DUP2 MSTORE PUSH1 0x4 ADD PUSH2 0x12BA SWAP1 PUSH2 0x3F1E JUMP JUMPDEST PUSH1 0x40 MLOAD DUP1 SWAP2 SUB SWAP1 REVERT JUMPDEST PUSH2 0x12CB PUSH2 0x1E95 JUMP JUMPDEST PUSH20 0xFFFFFFFFFFFFFFFFFFFFFFFFFFFFFFFFFFFFFFFF AND CALLER PUSH20 0xFFFFFFFFFFFFFFFFFFFFFFFFFFFFFFFFFFFFFFFF AND SUB PUSH2 0x1485 JUMPI PUSH2 0x1305 PUSH2 0x206F JUMP JUMPDEST PUSH2 0x144A JUMPI PUSH0 PUSH2 0x1312 PUSH2 0x22F0 JUMP JUMPDEST SWAP1 POP DUP1 PUSH1 0x4 PUSH0 PUSH2 0x1320 PUSH2 0x2020 JUMP JUMPDEST PUSH20 0xFFFFFFFFFFFFFFFFFFFFFFFFFFFFFFFFFFFFFFFF AND PUSH20 0xFFFFFFFFFFFFFFFFFFFFFFFFFFFFFFFFFFFFFFFF AND DUP2 MSTORE PUSH1 0x20 ADD SWAP1 DUP2 MSTORE PUSH1 0x20 ADD PUSH0 KECCAK256 PUSH0 DUP3 DUP3 SLOAD PUSH2 0x1367 SWAP2 SWAP1 PUSH2 0x3F69 JUMP JUMPDEST SWAP3 POP POP DUP2 SWAP1 SSTORE POP PUSH1 0x1 PUSH1 0xA PUSH0 PUSH2 0x100 EXP DUP2 SLOAD DUP2 PUSH1 0xFF MUL NOT AND SWAP1 DUP4 ISZERO ISZERO MUL OR SWAP1 SSTORE POP CALLER PUSH20 0xFFFFFFFFFFFFFFFFFFFFFFFFFFFFFFFFFFFFFFFF AND PUSH2 0x8FC DUP3 SWAP1 DUP2 ISZERO MUL SWAP1 PUSH1 0x40 MLOAD PUSH0 PUSH1 0x40 MLOAD DUP1 DUP4 SUB DUP2 DUP6 DUP9 DUP9 CALL SWAP4 POP POP POP POP ISZERO PUSH2 0x140F JUMPI DUP1 CALLER PUSH20 0xFFFFFFFFFFFFFFFFFFFFFFFFFFFFFFFFFFFFFFFF AND PUSH32 0x412D7CCF5961EF68F75E6E73F1EB58946047B233BF09C57121CF3951F9E15A0A PUSH1 0x40 MLOAD PUSH1 0x40 MLOAD DUP1 SWAP2 SUB SWAP1 LOG3 PUSH1 0x1 SWAP2 POP POP PUSH2 0x1650 JUMP JUMPDEST PUSH1 0x40 MLOAD PUSH32 0x8C379A000000000000000000000000000000000000000000000000000000000 DUP2 MSTORE PUSH1 0x4 ADD PUSH2 0x1441 SWAP1 PUSH2 0x3F1E JUMP JUMPDEST PUSH1 0x40 MLOAD DUP1 SWAP2 SUB SWAP1 REVERT JUMPDEST PUSH1 0x40 MLOAD PUSH32 0x8C379A000000000000000000000000000000000000000000000000000000000 DUP2 MSTORE PUSH1 0x4 ADD PUSH2 0x147C SWAP1 PUSH2 0x409A JUMP JUMPDEST PUSH1 0x40 MLOAD DUP1 SWAP2 SUB SWAP1 REVERT JUMPDEST PUSH2 0x148D PUSH2 0x2020 JUMP JUMPDEST PUSH20 0xFFFFFFFFFFFFFFFFFFFFFFFFFFFFFFFFFFFFFFFF AND CALLER PUSH20 0xFFFFFFFFFFFFFFFFFFFFFFFFFFFFFFFFFFFFFFFF AND SUB PUSH2 0x14FA JUMPI PUSH1 0x40 MLOAD PUSH32 0x8C379A000000000000000000000000000000000000000000000000000000000 DUP2 MSTORE PUSH1 0x4 ADD PUSH2 0x14F1 SWAP1 PUSH2 0x419A JUMP JUMPDEST PUSH1 0x40 MLOAD DUP1 SWAP2 SUB SWAP1 REVERT JUMPDEST PUSH0 PUSH1 0x4 PUSH0 CALLER PUSH20 0xFFFFFFFFFFFFFFFFFFFFFFFFFFFFFFFFFFFFFFFF AND PUSH20 0xFFFFFFFFFFFFFFFFFFFFFFFFFFFFFFFFFFFFFFFF AND DUP2 MSTORE PUSH1 0x20 ADD SWAP1 DUP2 MSTORE PUSH1 0x20 ADD PUSH0 KECCAK256 SLOAD SWAP1 POP DUP1 PUSH1 0x4 PUSH0 CALLER PUSH20 0xFFFFFFFFFFFFFFFFFFFFFFFFFFFFFFFFFFFFFFFF AND PUSH20 0xFFFFFFFFFFFFFFFFFFFFFFFFFFFFFFFFFFFFFFFF AND DUP2 MSTORE PUSH1 0x20 ADD SWAP1 DUP2 MSTORE PUSH1 0x20 ADD PUSH0 KECCAK256 PUSH0 DUP3 DUP3 SLOAD PUSH2 0x1587 SWAP2 SWAP1 PUSH2 0x3F69 JUMP JUMPDEST SWAP3 POP POP DUP2 SWAP1 SSTORE POP CALLER PUSH20 0xFFFFFFFFFFFFFFFFFFFFFFFFFFFFFFFFFFFFFFFF AND PUSH2 0x8FC DUP3 SWAP1 DUP2 ISZERO MUL SWAP1 PUSH1 0x40 MLOAD PUSH0 PUSH1 0x40 MLOAD DUP1 DUP4 SUB DUP2 DUP6 DUP9 DUP9 CALL SWAP4 POP POP POP POP ISZERO PUSH2 0x1615 JUMPI DUP1 CALLER PUSH20 0xFFFFFFFFFFFFFFFFFFFFFFFFFFFFFFFFFFFFFFFF AND PUSH32 0x412D7CCF5961EF68F75E6E73F1EB58946047B233BF09C57121CF3951F9E15A0A PUSH1 0x40 MLOAD PUSH1 0x40 MLOAD DUP1 SWAP2 SUB SWAP1 LOG3 PUSH1 0x1 SWAP2 POP POP PUSH2 0x1650 JUMP JUMPDEST PUSH1 0x40 MLOAD PUSH32 0x8C379A000000000000000000000000000000000000000000000000000000000 DUP2 MSTORE PUSH1 0x4 ADD PUSH2 0x1647 SWAP1 PUSH2 0x400C JUMP JUMPDEST PUSH1 0x40 MLOAD DUP1 SWAP2 SUB SWAP1 REVERT JUMPDEST SWAP1 JUMP JUMPDEST PUSH1 0x60 PUSH1 0xD DUP1 SLOAD PUSH2 0x1662 SWAP1 PUSH2 0x41E5 JUMP JUMPDEST DUP1 PUSH1 0x1F ADD PUSH1 0x20 DUP1 SWAP2 DIV MUL PUSH1 0x20 ADD PUSH1 0x40 MLOAD SWAP1 DUP2 ADD PUSH1 0x40 MSTORE DUP1 SWAP3 SWAP2 SWAP1 DUP2 DUP2 MSTORE PUSH1 0x20 ADD DUP3 DUP1 SLOAD PUSH2 0x168E SWAP1 PUSH2 0x41E5 JUMP JUMPDEST DUP1 ISZERO PUSH2 0x16D9 JUMPI DUP1 PUSH1 0x1F LT PUSH2 0x16B0 JUMPI PUSH2 0x100 DUP1 DUP4 SLOAD DIV MUL DUP4 MSTORE SWAP2 PUSH1 0x20 ADD SWAP2 PUSH2 0x16D9 JUMP JUMPDEST DUP3 ADD SWAP2 SWAP1 PUSH0 MSTORE PUSH1 0x20 PUSH0 KECCAK256 SWAP1 JUMPDEST DUP2 SLOAD DUP2 MSTORE SWAP1 PUSH1 0x1 ADD SWAP1 PUSH1 0x20 ADD DUP1 DUP4 GT PUSH2 0x16BC JUMPI DUP3 SWAP1 SUB PUSH1 0x1F AND DUP3 ADD SWAP2 JUMPDEST POP POP POP POP POP SWAP1 POP SWAP1 JUMP JUMPDEST PUSH0 PUSH1 0x4 PUSH0 DUP4 PUSH20 0xFFFFFFFFFFFFFFFFFFFFFFFFFFFFFFFFFFFFFFFF AND PUSH20 0xFFFFFFFFFFFFFFFFFFFFFFFFFFFFFFFFFFFFFFFF AND DUP2 MSTORE PUSH1 0x20 ADD SWAP1 DUP2 MSTORE PUSH1 0x20 ADD PUSH0 KECCAK256 SLOAD SWAP1 POP SWAP2 SWAP1 POP JUMP JUMPDEST PUSH0 PUSH32 0x0 SWAP1 POP SWAP1 JUMP JUMPDEST PUSH0 PUSH32 0x0 SWAP1 POP SWAP1 JUMP JUMPDEST PUSH1 0x60 PUSH1 0x2 DUP1 SLOAD DUP1 PUSH1 0x20 MUL PUSH1 0x20 ADD PUSH1 0x40 MLOAD SWAP1 DUP2 ADD PUSH1 0x40 MSTORE DUP1 SWAP3 SWAP2 SWAP1 DUP2 DUP2 MSTORE PUSH1 0x20 ADD PUSH0 SWAP1 JUMPDEST DUP3 DUP3 LT ISZERO PUSH2 0x1891 JUMPI DUP4 DUP3 SWAP1 PUSH0 MSTORE PUSH1 0x20 PUSH0 KECCAK256 SWAP1 PUSH1 0x5 MUL ADD PUSH1 0x40 MLOAD DUP1 PUSH1 0xA0 ADD PUSH1 0x40 MSTORE SWAP1 DUP2 PUSH0 DUP3 ADD PUSH0 SWAP1 SLOAD SWAP1 PUSH2 0x100 EXP SWAP1 DIV PUSH20 0xFFFFFFFFFFFFFFFFFFFFFFFFFFFFFFFFFFFFFFFF AND PUSH20 0xFFFFFFFFFFFFFFFFFFFFFFFFFFFFFFFFFFFFFFFF AND PUSH20 0xFFFFFFFFFFFFFFFFFFFFFFFFFFFFFFFFFFFFFFFF AND DUP2 MSTORE PUSH1 0x20 ADD PUSH1 0x1 DUP3 ADD PUSH0 SWAP1 SLOAD SWAP1 PUSH2 0x100 EXP SWAP1 DIV PUSH20 0xFFFFFFFFFFFFFFFFFFFFFFFFFFFFFFFFFFFFFFFF AND PUSH20 0xFFFFFFFFFFFFFFFFFFFFFFFFFFFFFFFFFFFFFFFF AND PUSH20 0xFFFFFFFFFFFFFFFFFFFFFFFFFFFFFFFFFFFFFFFF AND DUP2 MSTORE PUSH1 0x20 ADD PUSH1 0x2 DUP3 ADD SLOAD DUP2 MSTORE PUSH1 0x20 ADD PUSH1 0x3 DUP3 ADD SLOAD DUP2 MSTORE PUSH1 0x20 ADD PUSH1 0x4 DUP3 ADD SLOAD DUP2 MSTORE POP POP DUP2 MSTORE PUSH1 0x20 ADD SWAP1 PUSH1 0x1 ADD SWAP1 PUSH2 0x179A JUMP JUMPDEST POP POP POP POP SWAP1 POP SWAP1 JUMP JUMPDEST PUSH0 PUSH2 0x18A3 PUSH2 0x1E95 JUMP JUMPDEST PUSH20 0xFFFFFFFFFFFFFFFFFFFFFFFFFFFFFFFFFFFFFFFF AND CALLER PUSH20 0xFFFFFFFFFFFFFFFFFFFFFFFFFFFFFFFFFFFFFFFF AND SUB PUSH2 0x1910 JUMPI PUSH1 0x40 MLOAD PUSH32 0x8C379A000000000000000000000000000000000000000000000000000000000 DUP2 MSTORE PUSH1 0x4 ADD PUSH2 0x1907 SWAP1 PUSH2 0x3BC0 JUMP JUMPDEST PUSH1 0x40 MLOAD DUP1 SWAP2 SUB SWAP1 REVERT JUMPDEST PUSH2 0x1918 PUSH2 0x2348 JUMP JUMPDEST NUMBER LT PUSH2 0x1959 JUMPI PUSH1 0x40 MLOAD PUSH32 0x8C379A000000000000000000000000000000000000000000000000000000000 DUP2 MSTORE PUSH1 0x4 ADD PUSH2 0x1950 SWAP1 PUSH2 0x42AB JUMP JUMPDEST PUSH1 0x40 MLOAD DUP1 SWAP2 SUB SWAP1 REVERT JUMPDEST PUSH0 PUSH2 0x1962 PUSH2 0xABC JUMP JUMPDEST GT PUSH2 0x19A2 JUMPI PUSH1 0x40 MLOAD PUSH32 0x8C379A000000000000000000000000000000000000000000000000000000000 DUP2 MSTORE PUSH1 0x4 ADD PUSH2 0x1999 SWAP1 PUSH2 0x435F JUMP JUMPDEST PUSH1 0x40 MLOAD DUP1 SWAP2 SUB SWAP1 REVERT JUMPDEST PUSH2 0x19AA PUSH2 0xABC JUMP JUMPDEST CALLVALUE EQ PUSH2 0x19EB JUMPI PUSH1 0x40 MLOAD PUSH32 0x8C379A000000000000000000000000000000000000000000000000000000000 DUP2 MSTORE PUSH1 0x4 ADD PUSH2 0x19E2 SWAP1 PUSH2 0x4413 JUMP JUMPDEST PUSH1 0x40 MLOAD DUP1 SWAP2 SUB SWAP1 REVERT JUMPDEST PUSH2 0x19F4 CALLER PUSH2 0x2AB0 JUMP JUMPDEST ISZERO PUSH2 0x1A34 JUMPI PUSH1 0x40 MLOAD PUSH32 0x8C379A000000000000000000000000000000000000000000000000000000000 DUP2 MSTORE PUSH1 0x4 ADD PUSH2 0x1A2B SWAP1 PUSH2 0x44A1 JUMP JUMPDEST PUSH1 0x40 MLOAD DUP1 SWAP2 SUB SWAP1 REVERT JUMPDEST PUSH1 0x1 PUSH1 0xB PUSH0 CALLER PUSH20 0xFFFFFFFFFFFFFFFFFFFFFFFFFFFFFFFFFFFFFFFF AND PUSH20 0xFFFFFFFFFFFFFFFFFFFFFFFFFFFFFFFFFFFFFFFF AND DUP2 MSTORE PUSH1 0x20 ADD SWAP1 DUP2 MSTORE PUSH1 0x20 ADD PUSH0 KECCAK256 PUSH0 PUSH2 0x100 EXP DUP2 SLOAD DUP2 PUSH1 0xFF MUL NOT AND SWAP1 DUP4 ISZERO ISZERO MUL OR SWAP1 SSTORE POP PUSH2 0x1A91 PUSH2 0xABC JUMP JUMPDEST CALLER PUSH20 0xFFFFFFFFFFFFFFFFFFFFFFFFFFFFFFFFFFFFFFFF AND PUSH32 0x17EE8DE4D82DE19F0E5A1C6E6A849E48A63A7336A7B6636D39E64055C1D1C72E PUSH1 0x40 MLOAD PUSH1 0x40 MLOAD DUP1 SWAP2 SUB SWAP1 LOG3 PUSH1 0x1 SWAP1 POP SWAP1 JUMP JUMPDEST PUSH0 PUSH1 0xC PUSH0 DUP4 PUSH20 0xFFFFFFFFFFFFFFFFFFFFFFFFFFFFFFFFFFFFFFFF AND PUSH20 0xFFFFFFFFFFFFFFFFFFFFFFFFFFFFFFFFFFFFFFFF AND DUP2 MSTORE PUSH1 0x20 ADD SWAP1 DUP2 MSTORE PUSH1 0x20 ADD PUSH0 KECCAK256 PUSH0 SWAP1 SLOAD SWAP1 PUSH2 0x100 EXP SWAP1 DIV PUSH1 0xFF AND SWAP1 POP SWAP2 SWAP1 POP JUMP JUMPDEST PUSH0 PUSH2 0x1B36 PUSH2 0x1E95 JUMP JUMPDEST PUSH20 0xFFFFFFFFFFFFFFFFFFFFFFFFFFFFFFFFFFFFFFFF AND CALLER PUSH20 0xFFFFFFFFFFFFFFFFFFFFFFFFFFFFFFFFFFFFFFFF AND EQ PUSH2 0x1BA3 JUMPI PUSH1 0x40 MLOAD PUSH32 0x8C379A000000000000000000000000000000000000000000000000000000000 DUP2 MSTORE PUSH1 0x4 ADD PUSH2 0x1B9A SWAP1 PUSH2 0x38AE JUMP JUMPDEST PUSH1 0x40 MLOAD DUP1 SWAP2 SUB SWAP1 REVERT JUMPDEST PUSH2 0x1BAB PUSH2 0xF30 JUMP JUMPDEST PUSH2 0x1BEA JUMPI PUSH1 0x40 MLOAD PUSH32 0x8C379A000000000000000000000000000000000000000000000000000000000 DUP2 MSTORE PUSH1 0x4 ADD PUSH2 0x1BE1 SWAP1 PUSH2 0x452F JUMP JUMPDEST PUSH1 0x40 MLOAD DUP1 SWAP2 SUB SWAP1 REVERT JUMPDEST PUSH2 0x1BF3 PUSH0 PUSH2 0x2EA7 JUMP JUMPDEST PUSH2 0x1BFB PUSH2 0x2F59 JUMP JUMPDEST PUSH1 0x1 SWAP1 POP SWAP1 JUMP JUMPDEST PUSH0 PUSH2 0x1C0B PUSH2 0x2320 JUMP JUMPDEST PUSH20 0xFFFFFFFFFFFFFFFFFFFFFFFFFFFFFFFFFFFFFFFF AND CALLER PUSH20 0xFFFFFFFFFFFFFFFFFFFFFFFFFFFFFFFFFFFFFFFF AND EQ PUSH2 0x1C78 JUMPI PUSH1 0x40 MLOAD PUSH32 0x8C379A000000000000000000000000000000000000000000000000000000000 DUP2 MSTORE PUSH1 0x4 ADD PUSH2 0x1C6F SWAP1 PUSH2 0x45BD JUMP JUMPDEST PUSH1 0x40 MLOAD DUP1 SWAP2 SUB SWAP1 REVERT JUMPDEST PUSH0 CALLER SWAP1 POP PUSH2 0x1C85 DUP2 PUSH2 0x2EA7 JUMP JUMPDEST PUSH2 0x1C8D PUSH2 0x2F59 JUMP JUMPDEST PUSH1 0x1 SWAP2 POP POP SWAP1 JUMP JUMPDEST PUSH2 0x1C9D PUSH2 0x1E95 JUMP JUMPDEST PUSH20 0xFFFFFFFFFFFFFFFFFFFFFFFFFFFFFFFFFFFFFFFF AND CALLER PUSH20 0xFFFFFFFFFFFFFFFFFFFFFFFFFFFFFFFFFFFFFFFF AND EQ PUSH2 0x1D0A JUMPI PUSH1 0x40 MLOAD PUSH32 0x8C379A000000000000000000000000000000000000000000000000000000000 DUP2 MSTORE PUSH1 0x4 ADD PUSH2 0x1D01 SWAP1 PUSH2 0x38AE JUMP JUMPDEST PUSH1 0x40 MLOAD DUP1 SWAP2 SUB SWAP1 REVERT JUMPDEST NUMBER PUSH2 0x1D13 PUSH2 0x2348 JUMP JUMPDEST GT ISZERO PUSH2 0x1D54 JUMPI PUSH1 0x40 MLOAD PUSH32 0x8C379A000000000000000000000000000000000000000000000000000000000 DUP2 MSTORE PUSH1 0x4 ADD PUSH2 0x1D4B SWAP1 PUSH2 0x393C JUMP JUMPDEST PUSH1 0x40 MLOAD DUP1 SWAP2 SUB SWAP1 REVERT JUMPDEST PUSH2 0x1D5C PUSH2 0xAE3 JUMP JUMPDEST NUMBER GT ISZERO PUSH2 0x1D9E JUMPI PUSH1 0x40 MLOAD PUSH32 0x8C379A000000000000000000000000000000000000000000000000000000000 DUP2 MSTORE PUSH1 0x4 ADD PUSH2 0x1D95 SWAP1 PUSH2 0x39CA JUMP JUMPDEST PUSH1 0x40 MLOAD DUP1 SWAP2 SUB SWAP1 REVERT JUMPDEST PUSH2 0x1DA6 PUSH2 0xF1B JUMP JUMPDEST PUSH2 0x1DE5 JUMPI PUSH1 0x40 MLOAD PUSH32 0x8C379A000000000000000000000000000000000000000000000000000000000 DUP2 MSTORE PUSH1 0x4 ADD PUSH2 0x1DDC SWAP1 PUSH2 0x46BD JUMP JUMPDEST PUSH1 0x40 MLOAD DUP1 SWAP2 SUB SWAP1 REVERT JUMPDEST PUSH2 0x1DED PUSH2 0x2F7F JUMP JUMPDEST PUSH32 0x0 PUSH20 0xFFFFFFFFFFFFFFFFFFFFFFFFFFFFFFFFFFFFFFFF AND PUSH4 0x42966C68 PUSH32 0x0 PUSH1 0x40 MLOAD DUP3 PUSH4 0xFFFFFFFF AND PUSH1 0xE0 SHL DUP2 MSTORE PUSH1 0x4 ADD PUSH2 0x1E66 SWAP2 SWAP1 PUSH2 0x3168 JUMP JUMPDEST PUSH0 PUSH1 0x40 MLOAD DUP1 DUP4 SUB DUP2 PUSH0 DUP8 DUP1 EXTCODESIZE ISZERO DUP1 ISZERO PUSH2 0x1E7D JUMPI PUSH0 DUP1 REVERT JUMPDEST POP GAS CALL ISZERO DUP1 ISZERO PUSH2 0x1E8F JUMPI RETURNDATASIZE PUSH0 DUP1 RETURNDATACOPY RETURNDATASIZE PUSH0 REVERT JUMPDEST POP POP POP POP JUMP JUMPDEST PUSH0 DUP1 PUSH0 SWAP1 SLOAD SWAP1 PUSH2 0x100 EXP SWAP1 DIV PUSH20 0xFFFFFFFFFFFFFFFFFFFFFFFFFFFFFFFFFFFFFFFF AND SWAP1 POP SWAP1 JUMP JUMPDEST PUSH0 PUSH32 0x0 SWAP1 POP SWAP1 JUMP JUMPDEST PUSH0 PUSH1 0x3 PUSH0 SWAP1 SLOAD SWAP1 PUSH2 0x100 EXP SWAP1 DIV PUSH1 0xFF AND SWAP1 POP SWAP1 JUMP JUMPDEST PUSH0 PUSH2 0x1F01 PUSH2 0x1E95 JUMP JUMPDEST PUSH20 0xFFFFFFFFFFFFFFFFFFFFFFFFFFFFFFFFFFFFFFFF AND CALLER PUSH20 0xFFFFFFFFFFFFFFFFFFFFFFFFFFFFFFFFFFFFFFFF AND EQ PUSH2 0x1F6E JUMPI PUSH1 0x40 MLOAD PUSH32 0x8C379A000000000000000000000000000000000000000000000000000000000 DUP2 MSTORE PUSH1 0x4 ADD PUSH2 0x1F65 SWAP1 PUSH2 0x38AE JUMP JUMPDEST PUSH1 0x40 MLOAD DUP1 SWAP2 SUB SWAP1 REVERT JUMPDEST PUSH2 0x1F76 PUSH2 0xF30 JUMP JUMPDEST PUSH2 0x1FB5 JUMPI PUSH1 0x40 MLOAD PUSH32 0x8C379A000000000000000000000000000000000000000000000000000000000 DUP2 MSTORE PUSH1 0x4 ADD PUSH2 0x1FAC SWAP1 PUSH2 0x452F JUMP JUMPDEST PUSH1 0x40 MLOAD DUP1 SWAP2 SUB SWAP1 REVERT JUMPDEST PUSH0 PUSH1 0x1 PUSH1 0x14 PUSH2 0x100 EXP DUP2 SLOAD DUP2 PUSH1 0xFF MUL NOT AND SWAP1 DUP4 ISZERO ISZERO MUL OR SWAP1 SSTORE POP PUSH2 0x1FD7 PUSH2 0x1E95 JUMP JUMPDEST PUSH20 0xFFFFFFFFFFFFFFFFFFFFFFFFFFFFFFFFFFFFFFFF AND PUSH32 0xB189A5A6B382E921DF5A6B8A09A433564E15EC5F6625FAA18B989FA671EE6BFC PUSH1 0x40 MLOAD PUSH1 0x40 MLOAD DUP1 SWAP2 SUB SWAP1 LOG2 PUSH1 0x1 SWAP1 POP SWAP1 JUMP JUMPDEST PUSH0 PUSH1 0x6 PUSH0 SWAP1 SLOAD SWAP1 PUSH2 0x100 EXP SWAP1 DIV PUSH20 0xFFFFFFFFFFFFFFFFFFFFFFFFFFFFFFFFFFFFFFFF AND SWAP1 POP SWAP1 JUMP JUMPDEST PUSH0 PUSH32 0x0 SWAP1 POP SWAP1 JUMP JUMPDEST PUSH0 PUSH1 0xA PUSH0 SWAP1 SLOAD SWAP1 PUSH2 0x100 EXP SWAP1 DIV PUSH1 0xFF AND SWAP1 POP SWAP1 JUMP JUMPDEST PUSH0 PUSH2 0x208D PUSH2 0x1E95 JUMP JUMPDEST PUSH20 0xFFFFFFFFFFFFFFFFFFFFFFFFFFFFFFFFFFFFFFFF AND CALLER PUSH20 0xFFFFFFFFFFFFFFFFFFFFFFFFFFFFFFFFFFFFFFFF AND EQ PUSH2 0x20FA JUMPI PUSH1 0x40 MLOAD PUSH32 0x8C379A000000000000000000000000000000000000000000000000000000000 DUP2 MSTORE PUSH1 0x4 ADD PUSH2 0x20F1 SWAP1 PUSH2 0x38AE JUMP JUMPDEST PUSH1 0x40 MLOAD DUP1 SWAP2 SUB SWAP1 REVERT JUMPDEST PUSH2 0x2102 PUSH2 0x2348 JUMP JUMPDEST NUMBER LT PUSH2 0x2143 JUMPI PUSH1 0x40 MLOAD PUSH32 0x8C379A000000000000000000000000000000000000000000000000000000000 DUP2 MSTORE PUSH1 0x4 ADD PUSH2 0x213A SWAP1 PUSH2 0x4771 JUMP JUMPDEST PUSH1 0x40 MLOAD DUP1 SWAP2 SUB SWAP1 REVERT JUMPDEST DUP2 PUSH1 0xD SWAP1 DUP2 PUSH2 0x2152 SWAP2 SWAP1 PUSH2 0x492C JUMP JUMPDEST POP PUSH1 0x1 SWAP1 POP SWAP2 SWAP1 POP JUMP JUMPDEST PUSH0 PUSH32 0x0 SWAP1 POP SWAP1 JUMP JUMPDEST PUSH2 0x218B PUSH2 0x1E95 JUMP JUMPDEST PUSH20 0xFFFFFFFFFFFFFFFFFFFFFFFFFFFFFFFFFFFFFFFF AND CALLER PUSH20 0xFFFFFFFFFFFFFFFFFFFFFFFFFFFFFFFFFFFFFFFF AND EQ PUSH2 0x21F8 JUMPI PUSH1 0x40 MLOAD PUSH32 0x8C379A000000000000000000000000000000000000000000000000000000000 DUP2 MSTORE PUSH1 0x4 ADD PUSH2 0x21EF SWAP1 PUSH2 0x38AE JUMP JUMPDEST PUSH1 0x40 MLOAD DUP1 SWAP2 SUB SWAP1 REVERT JUMPDEST NUMBER PUSH2 0x2201 PUSH2 0x2348 JUMP JUMPDEST GT ISZERO PUSH2 0x2242 JUMPI PUSH1 0x40 MLOAD PUSH32 0x8C379A000000000000000000000000000000000000000000000000000000000 DUP2 MSTORE PUSH1 0x4 ADD PUSH2 0x2239 SWAP1 PUSH2 0x393C JUMP JUMPDEST PUSH1 0x40 MLOAD DUP1 SWAP2 SUB SWAP1 REVERT JUMPDEST PUSH2 0x224A PUSH2 0xAE3 JUMP JUMPDEST NUMBER GT ISZERO PUSH2 0x228C JUMPI PUSH1 0x40 MLOAD PUSH32 0x8C379A000000000000000000000000000000000000000000000000000000000 DUP2 MSTORE PUSH1 0x4 ADD PUSH2 0x2283 SWAP1 PUSH2 0x39CA JUMP JUMPDEST PUSH1 0x40 MLOAD DUP1 SWAP2 SUB SWAP1 REVERT JUMPDEST PUSH2 0x2294 PUSH2 0xF1B JUMP JUMPDEST ISZERO PUSH2 0x22D4 JUMPI PUSH1 0x40 MLOAD PUSH32 0x8C379A000000000000000000000000000000000000000000000000000000000 DUP2 MSTORE PUSH1 0x4 ADD PUSH2 0x22CB SWAP1 PUSH2 0x4A91 JUMP JUMPDEST PUSH1 0x40 MLOAD DUP1 SWAP2 SUB SWAP1 REVERT JUMPDEST PUSH1 0x1 PUSH1 0x8 PUSH0 PUSH2 0x100 EXP DUP2 SLOAD DUP2 PUSH1 0xFF MUL NOT AND SWAP1 DUP4 ISZERO ISZERO MUL OR SWAP1 SSTORE POP JUMP JUMPDEST PUSH0 PUSH1 0x5 SLOAD SWAP1 POP SWAP1 JUMP JUMPDEST PUSH0 PUSH32 0x0 SWAP1 POP SWAP1 JUMP JUMPDEST PUSH0 PUSH1 0x1 PUSH0 SWAP1 SLOAD SWAP1 PUSH2 0x100 EXP SWAP1 DIV PUSH20 0xFFFFFFFFFFFFFFFFFFFFFFFFFFFFFFFFFFFFFFFF AND SWAP1 POP SWAP1 JUMP JUMPDEST PUSH0 PUSH32 0x0 SWAP1 POP SWAP1 JUMP JUMPDEST PUSH0 PUSH2 0x2378 PUSH2 0x1E95 JUMP JUMPDEST PUSH20 0xFFFFFFFFFFFFFFFFFFFFFFFFFFFFFFFFFFFFFFFF AND CALLER PUSH20 0xFFFFFFFFFFFFFFFFFFFFFFFFFFFFFFFFFFFFFFFF AND EQ PUSH2 0x23E5 JUMPI PUSH1 0x40 MLOAD PUSH32 0x8C379A000000000000000000000000000000000000000000000000000000000 DUP2 MSTORE PUSH1 0x4 ADD PUSH2 0x23DC SWAP1 PUSH2 0x38AE JUMP JUMPDEST PUSH1 0x40 MLOAD DUP1 SWAP2 SUB SWAP1 REVERT JUMPDEST PUSH2 0x23ED PUSH2 0x1729 JUMP JUMPDEST PUSH2 0x242C JUMPI PUSH1 0x40 MLOAD PUSH32 0x8C379A000000000000000000000000000000000000000000000000000000000 DUP2 MSTORE PUSH1 0x4 ADD PUSH2 0x2423 SWAP1 PUSH2 0x4B91 JUMP JUMPDEST PUSH1 0x40 MLOAD DUP1 SWAP2 SUB SWAP1 REVERT JUMPDEST PUSH2 0x2434 PUSH2 0x2348 JUMP JUMPDEST NUMBER LT PUSH2 0x2475 JUMPI PUSH1 0x40 MLOAD PUSH32 0x8C379A000000000000000000000000000000000000000000000000000000000 DUP2 MSTORE PUSH1 0x4 ADD PUSH2 0x246C SWAP1 PUSH2 0x4C6B JUMP JUMPDEST PUSH1 0x40 MLOAD DUP1 SWAP2 SUB SWAP1 REVERT JUMPDEST PUSH0 JUMPDEST DUP3 MLOAD DUP2 LT ISZERO PUSH2 0x24FC JUMPI PUSH1 0x1 PUSH1 0x9 PUSH0 DUP6 DUP5 DUP2 MLOAD DUP2 LT PUSH2 0x2498 JUMPI PUSH2 0x2497 PUSH2 0x4C89 JUMP JUMPDEST JUMPDEST PUSH1 0x20 MUL PUSH1 0x20 ADD ADD MLOAD PUSH20 0xFFFFFFFFFFFFFFFFFFFFFFFFFFFFFFFFFFFFFFFF AND PUSH20 0xFFFFFFFFFFFFFFFFFFFFFFFFFFFFFFFFFFFFFFFF AND DUP2 MSTORE PUSH1 0x20 ADD SWAP1 DUP2 MSTORE PUSH1 0x20 ADD PUSH0 KECCAK256 PUSH0 PUSH2 0x100 EXP DUP2 SLOAD DUP2 PUSH1 0xFF MUL NOT AND SWAP1 DUP4 ISZERO ISZERO MUL OR SWAP1 SSTORE POP DUP1 DUP1 PUSH1 0x1 ADD SWAP2 POP POP PUSH2 0x2477 JUMP JUMPDEST POP PUSH1 0x1 SWAP1 POP SWAP2 SWAP1 POP JUMP JUMPDEST PUSH0 PUSH2 0x250F PUSH2 0x1E95 JUMP JUMPDEST PUSH20 0xFFFFFFFFFFFFFFFFFFFFFFFFFFFFFFFFFFFFFFFF AND CALLER PUSH20 0xFFFFFFFFFFFFFFFFFFFFFFFFFFFFFFFFFFFFFFFF AND EQ PUSH2 0x257C JUMPI PUSH1 0x40 MLOAD PUSH32 0x8C379A000000000000000000000000000000000000000000000000000000000 DUP2 MSTORE PUSH1 0x4 ADD PUSH2 0x2573 SWAP1 PUSH2 0x38AE JUMP JUMPDEST PUSH1 0x40 MLOAD DUP1 SWAP2 SUB SWAP1 REVERT JUMPDEST PUSH1 0x1 PUSH0 PUSH2 0x100 EXP DUP2 SLOAD SWAP1 PUSH20 0xFFFFFFFFFFFFFFFFFFFFFFFFFFFFFFFFFFFFFFFF MUL NOT AND SWAP1 SSTORE PUSH1 0x1 SWAP1 POP SWAP1 JUMP JUMPDEST PUSH0 PUSH2 0x25B0 PUSH2 0x1E95 JUMP JUMPDEST PUSH20 0xFFFFFFFFFFFFFFFFFFFFFFFFFFFFFFFFFFFFFFFF AND CALLER PUSH20 0xFFFFFFFFFFFFFFFFFFFFFFFFFFFFFFFFFFFFFFFF AND SUB PUSH2 0x261D JUMPI PUSH1 0x40 MLOAD PUSH32 0x8C379A000000000000000000000000000000000000000000000000000000000 DUP2 MSTORE PUSH1 0x4 ADD PUSH2 0x2614 SWAP1 PUSH2 0x3BC0 JUMP JUMPDEST PUSH1 0x40 MLOAD DUP1 SWAP2 SUB SWAP1 REVERT JUMPDEST PUSH2 0x2625 PUSH2 0x1EE3 JUMP JUMPDEST ISZERO PUSH2 0x2665 JUMPI PUSH1 0x40 MLOAD PUSH32 0x8C379A000000000000000000000000000000000000000000000000000000000 DUP2 MSTORE PUSH1 0x4 ADD PUSH2 0x265C SWAP1 PUSH2 0x4D26 JUMP JUMPDEST PUSH1 0x40 MLOAD DUP1 SWAP2 SUB SWAP1 REVERT JUMPDEST NUMBER PUSH2 0x266E PUSH2 0x2348 JUMP JUMPDEST GT ISZERO PUSH2 0x26AF JUMPI PUSH1 0x40 MLOAD PUSH32 0x8C379A000000000000000000000000000000000000000000000000000000000 DUP2 MSTORE PUSH1 0x4 ADD PUSH2 0x26A6 SWAP1 PUSH2 0x393C JUMP JUMPDEST PUSH1 0x40 MLOAD DUP1 SWAP2 SUB SWAP1 REVERT JUMPDEST PUSH2 0x26B7 PUSH2 0xAE3 JUMP JUMPDEST NUMBER GT ISZERO PUSH2 0x26F9 JUMPI PUSH1 0x40 MLOAD PUSH32 0x8C379A000000000000000000000000000000000000000000000000000000000 DUP2 MSTORE PUSH1 0x4 ADD PUSH2 0x26F0 SWAP1 PUSH2 0x39CA JUMP JUMPDEST PUSH1 0x40 MLOAD DUP1 SWAP2 SUB SWAP1 REVERT JUMPDEST PUSH0 CALLVALUE GT PUSH2 0x273B JUMPI PUSH1 0x40 MLOAD PUSH32 0x8C379A000000000000000000000000000000000000000000000000000000000 DUP2 MSTORE PUSH1 0x4 ADD PUSH2 0x2732 SWAP1 PUSH2 0x4DB4 JUMP JUMPDEST PUSH1 0x40 MLOAD DUP1 SWAP2 SUB SWAP1 REVERT JUMPDEST PUSH0 PUSH2 0x2744 PUSH2 0xABC JUMP JUMPDEST EQ PUSH2 0x2792 JUMPI PUSH2 0x2752 CALLER PUSH2 0x2AB0 JUMP JUMPDEST PUSH2 0x2791 JUMPI PUSH1 0x40 MLOAD PUSH32 0x8C379A000000000000000000000000000000000000000000000000000000000 DUP2 MSTORE PUSH1 0x4 ADD PUSH2 0x2788 SWAP1 PUSH2 0x4E42 JUMP JUMPDEST PUSH1 0x40 MLOAD DUP1 SWAP2 SUB SWAP1 REVERT JUMPDEST JUMPDEST PUSH2 0x279A PUSH2 0x1729 JUMP JUMPDEST ISZERO PUSH2 0x27E8 JUMPI PUSH2 0x27A8 CALLER PUSH2 0xF46 JUMP JUMPDEST PUSH2 0x27E7 JUMPI PUSH1 0x40 MLOAD PUSH32 0x8C379A000000000000000000000000000000000000000000000000000000000 DUP2 MSTORE PUSH1 0x4 ADD PUSH2 0x27DE SWAP1 PUSH2 0x4F1C JUMP JUMPDEST PUSH1 0x40 MLOAD DUP1 SWAP2 SUB SWAP1 REVERT JUMPDEST JUMPDEST PUSH0 CALLVALUE PUSH1 0x4 PUSH0 CALLER PUSH20 0xFFFFFFFFFFFFFFFFFFFFFFFFFFFFFFFFFFFFFFFF AND PUSH20 0xFFFFFFFFFFFFFFFFFFFFFFFFFFFFFFFFFFFFFFFF AND DUP2 MSTORE PUSH1 0x20 ADD SWAP1 DUP2 MSTORE PUSH1 0x20 ADD PUSH0 KECCAK256 SLOAD PUSH2 0x2832 SWAP2 SWAP1 PUSH2 0x4F3A JUMP JUMPDEST SWAP1 POP PUSH2 0x283C PUSH2 0x215C JUMP JUMPDEST DUP2 LT ISZERO PUSH2 0x287E JUMPI PUSH1 0x40 MLOAD PUSH32 0x8C379A000000000000000000000000000000000000000000000000000000000 DUP2 MSTORE PUSH1 0x4 ADD PUSH2 0x2875 SWAP1 PUSH2 0x5003 JUMP JUMPDEST PUSH1 0x40 MLOAD DUP1 SWAP2 SUB SWAP1 REVERT JUMPDEST PUSH0 DUP1 PUSH2 0x2888 PUSH2 0x22F0 JUMP JUMPDEST EQ PUSH2 0x28AA JUMPI PUSH2 0x2895 PUSH2 0x2048 JUMP JUMPDEST PUSH2 0x289D PUSH2 0x22F0 JUMP JUMPDEST PUSH2 0x28A7 SWAP2 SWAP1 PUSH2 0x4F3A JUMP JUMPDEST SWAP1 POP JUMPDEST DUP1 DUP3 LT ISZERO PUSH2 0x28ED JUMPI PUSH1 0x40 MLOAD PUSH32 0x8C379A000000000000000000000000000000000000000000000000000000000 DUP2 MSTORE PUSH1 0x4 ADD PUSH2 0x28E4 SWAP1 PUSH2 0x50DD JUMP JUMPDEST PUSH1 0x40 MLOAD DUP1 SWAP2 SUB SWAP1 REVERT JUMPDEST PUSH0 PUSH2 0x28F6 PUSH2 0x22F0 JUMP JUMPDEST SWAP1 POP DUP3 PUSH1 0x5 DUP2 SWAP1 SSTORE POP DUP3 PUSH1 0x4 PUSH0 CALLER PUSH20 0xFFFFFFFFFFFFFFFFFFFFFFFFFFFFFFFFFFFFFFFF AND PUSH20 0xFFFFFFFFFFFFFFFFFFFFFFFFFFFFFFFFFFFFFFFF AND DUP2 MSTORE PUSH1 0x20 ADD SWAP1 DUP2 MSTORE PUSH1 0x20 ADD PUSH0 KECCAK256 DUP2 SWAP1 SSTORE POP CALLER PUSH20 0xFFFFFFFFFFFFFFFFFFFFFFFFFFFFFFFFFFFFFFFF AND PUSH2 0x2960 PUSH2 0x2020 JUMP JUMPDEST PUSH20 0xFFFFFFFFFFFFFFFFFFFFFFFFFFFFFFFFFFFFFFFF AND EQ PUSH2 0x29BC JUMPI CALLER PUSH1 0x6 PUSH0 PUSH2 0x100 EXP DUP2 SLOAD DUP2 PUSH20 0xFFFFFFFFFFFFFFFFFFFFFFFFFFFFFFFFFFFFFFFF MUL NOT AND SWAP1 DUP4 PUSH20 0xFFFFFFFFFFFFFFFFFFFFFFFFFFFFFFFFFFFFFFFF AND MUL OR SWAP1 SSTORE POP JUMPDEST PUSH0 PUSH2 0x29C5 PUSH2 0x1EBC JUMP JUMPDEST GT DUP1 ISZERO PUSH2 0x29D8 JUMPI POP PUSH0 PUSH2 0x29D6 PUSH2 0x1750 JUMP JUMPDEST GT JUMPDEST ISZERO PUSH2 0x2A61 JUMPI PUSH2 0x29E5 PUSH2 0x1EBC JUMP JUMPDEST NUMBER PUSH2 0x29EE PUSH2 0xAE3 JUMP JUMPDEST PUSH2 0x29F8 SWAP2 SWAP1 PUSH2 0x3F69 JUMP JUMPDEST GT PUSH2 0x2A60 JUMPI PUSH2 0x2A05 PUSH2 0x1750 JUMP JUMPDEST PUSH1 0x7 PUSH0 DUP3 DUP3 SLOAD PUSH2 0x2A15 SWAP2 SWAP1 PUSH2 0x4F3A JUMP JUMPDEST SWAP3 POP POP DUP2 SWAP1 SSTORE POP CALLER PUSH20 0xFFFFFFFFFFFFFFFFFFFFFFFFFFFFFFFFFFFFFFFF AND PUSH32 0x46048FF1D3574262E776D2A09614CA7DCE246F47AAC2D19407AF8DD28E0218F4 PUSH1 0x40 MLOAD PUSH1 0x40 MLOAD DUP1 SWAP2 SUB SWAP1 LOG2 JUMPDEST JUMPDEST DUP3 DUP2 CALLER PUSH20 0xFFFFFFFFFFFFFFFFFFFFFFFFFFFFFFFFFFFFFFFF AND PUSH32 0x1F14E945C6674F344D370FB31E1ED9A873410E59C9915DEF04D76F40D3A73E6E PUSH1 0x40 MLOAD PUSH1 0x40 MLOAD DUP1 SWAP2 SUB SWAP1 LOG4 PUSH1 0x1 SWAP4 POP POP POP POP SWAP1 JUMP JUMPDEST PUSH0 PUSH1 0xB PUSH0 DUP4 PUSH20 0xFFFFFFFFFFFFFFFFFFFFFFFFFFFFFFFFFFFFFFFF AND PUSH20 0xFFFFFFFFFFFFFFFFFFFFFFFFFFFFFFFFFFFFFFFF AND DUP2 MSTORE PUSH1 0x20 ADD SWAP1 DUP2 MSTORE PUSH1 0x20 ADD PUSH0 KECCAK256 PUSH0 SWAP1 SLOAD SWAP1 PUSH2 0x100 EXP SWAP1 DIV PUSH1 0xFF AND SWAP1 POP SWAP2 SWAP1 POP JUMP JUMPDEST PUSH0 PUSH2 0x2B0B PUSH2 0x1E95 JUMP JUMPDEST PUSH20 0xFFFFFFFFFFFFFFFFFFFFFFFFFFFFFFFFFFFFFFFF AND CALLER PUSH20 0xFFFFFFFFFFFFFFFFFFFFFFFFFFFFFFFFFFFFFFFF AND EQ PUSH2 0x2B78 JUMPI PUSH1 0x40 MLOAD PUSH32 0x8C379A000000000000000000000000000000000000000000000000000000000 DUP2 MSTORE PUSH1 0x4 ADD PUSH2 0x2B6F SWAP1 PUSH2 0x38AE JUMP JUMPDEST PUSH1 0x40 MLOAD DUP1 SWAP2 SUB SWAP1 REVERT JUMPDEST PUSH0 PUSH20 0xFFFFFFFFFFFFFFFFFFFFFFFFFFFFFFFFFFFFFFFF AND DUP3 PUSH20 0xFFFFFFFFFFFFFFFFFFFFFFFFFFFFFFFFFFFFFFFF AND SUB PUSH2 0x2BE6 JUMPI PUSH1 0x40 MLOAD PUSH32 0x8C379A000000000000000000000000000000000000000000000000000000000 DUP2 MSTORE PUSH1 0x4 ADD PUSH2 0x2BDD SWAP1 PUSH2 0x5191 JUMP JUMPDEST PUSH1 0x40 MLOAD DUP1 SWAP2 SUB SWAP1 REVERT JUMPDEST PUSH2 0x2BEE PUSH2 0x1E95 JUMP JUMPDEST PUSH20 0xFFFFFFFFFFFFFFFFFFFFFFFFFFFFFFFFFFFFFFFF AND DUP3 PUSH20 0xFFFFFFFFFFFFFFFFFFFFFFFFFFFFFFFFFFFFFFFF AND SUB PUSH2 0x2C5B JUMPI PUSH1 0x40 MLOAD PUSH32 0x8C379A000000000000000000000000000000000000000000000000000000000 DUP2 MSTORE PUSH1 0x4 ADD PUSH2 0x2C52 SWAP1 PUSH2 0x521F JUMP JUMPDEST PUSH1 0x40 MLOAD DUP1 SWAP2 SUB SWAP1 REVERT JUMPDEST PUSH2 0x2C63 PUSH2 0x2320 JUMP JUMPDEST PUSH20 0xFFFFFFFFFFFFFFFFFFFFFFFFFFFFFFFFFFFFFFFF AND DUP3 PUSH20 0xFFFFFFFFFFFFFFFFFFFFFFFFFFFFFFFFFFFFFFFF AND SUB PUSH2 0x2CD0 JUMPI PUSH1 0x40 MLOAD PUSH32 0x8C379A000000000000000000000000000000000000000000000000000000000 DUP2 MSTORE PUSH1 0x4 ADD PUSH2 0x2CC7 SWAP1 PUSH2 0x52D3 JUMP JUMPDEST PUSH1 0x40 MLOAD DUP1 SWAP2 SUB SWAP1 REVERT JUMPDEST PUSH2 0x2CD9 DUP3 PUSH2 0x2FDE JUMP JUMPDEST DUP2 PUSH20 0xFFFFFFFFFFFFFFFFFFFFFFFFFFFFFFFFFFFFFFFF AND PUSH2 0x2CF8 PUSH2 0x1E95 JUMP JUMPDEST PUSH20 0xFFFFFFFFFFFFFFFFFFFFFFFFFFFFFFFFFFFFFFFF AND PUSH32 0x725AFE6E30FD0701F34531B1DF7D4B5B65CEF26892D82CD93658EFF5E2A3C3E1 PUSH1 0x40 MLOAD PUSH1 0x40 MLOAD DUP1 SWAP2 SUB SWAP1 LOG3 PUSH1 0x1 SWAP1 POP SWAP2 SWAP1 POP JUMP JUMPDEST PUSH0 PUSH2 0x2D4C PUSH2 0x1E95 JUMP JUMPDEST PUSH20 0xFFFFFFFFFFFFFFFFFFFFFFFFFFFFFFFFFFFFFFFF AND CALLER PUSH20 0xFFFFFFFFFFFFFFFFFFFFFFFFFFFFFFFFFFFFFFFF AND EQ PUSH2 0x2DB9 JUMPI PUSH1 0x40 MLOAD PUSH32 0x8C379A000000000000000000000000000000000000000000000000000000000 DUP2 MSTORE PUSH1 0x4 ADD PUSH2 0x2DB0 SWAP1 PUSH2 0x38AE JUMP JUMPDEST PUSH1 0x40 MLOAD DUP1 SWAP2 SUB SWAP1 REVERT JUMPDEST PUSH2 0x2DC1 PUSH2 0x1729 JUMP JUMPDEST PUSH2 0x2E00 JUMPI PUSH1 0x40 MLOAD PUSH32 0x8C379A000000000000000000000000000000000000000000000000000000000 DUP2 MSTORE PUSH1 0x4 ADD PUSH2 0x2DF7 SWAP1 PUSH2 0x4B91 JUMP JUMPDEST PUSH1 0x40 MLOAD DUP1 SWAP2 SUB SWAP1 REVERT JUMPDEST PUSH2 0x2E08 PUSH2 0x2348 JUMP JUMPDEST NUMBER LT PUSH2 0x2E49 JUMPI PUSH1 0x40 MLOAD PUSH32 0x8C379A000000000000000000000000000000000000000000000000000000000 DUP2 MSTORE PUSH1 0x4 ADD PUSH2 0x2E40 SWAP1 PUSH2 0x4C6B JUMP JUMPDEST PUSH1 0x40 MLOAD DUP1 SWAP2 SUB SWAP1 REVERT JUMPDEST PUSH1 0x1 PUSH1 0x9 PUSH0 DUP5 PUSH20 0xFFFFFFFFFFFFFFFFFFFFFFFFFFFFFFFFFFFFFFFF AND PUSH20 0xFFFFFFFFFFFFFFFFFFFFFFFFFFFFFFFFFFFFFFFF AND DUP2 MSTORE PUSH1 0x20 ADD SWAP1 DUP2 MSTORE PUSH1 0x20 ADD PUSH0 KECCAK256 PUSH0 PUSH2 0x100 EXP DUP2 SLOAD DUP2 PUSH1 0xFF MUL NOT AND SWAP1 DUP4 ISZERO ISZERO MUL OR SWAP1 SSTORE POP PUSH1 0x1 SWAP1 POP SWAP2 SWAP1 POP JUMP JUMPDEST PUSH0 PUSH2 0x2EB0 PUSH2 0x1E95 JUMP JUMPDEST SWAP1 POP DUP2 PUSH0 DUP1 PUSH2 0x100 EXP DUP2 SLOAD DUP2 PUSH20 0xFFFFFFFFFFFFFFFFFFFFFFFFFFFFFFFFFFFFFFFF MUL NOT AND SWAP1 DUP4 PUSH20 0xFFFFFFFFFFFFFFFFFFFFFFFFFFFFFFFFFFFFFFFF AND MUL OR SWAP1 SSTORE POP PUSH2 0x2EFB DUP2 DUP4 PUSH2 0x3021 JUMP JUMPDEST DUP2 PUSH20 0xFFFFFFFFFFFFFFFFFFFFFFFFFFFFFFFFFFFFFFFF AND DUP2 PUSH20 0xFFFFFFFFFFFFFFFFFFFFFFFFFFFFFFFFFFFFFFFF AND PUSH32 0xE9A5158AC7353C7C7322ECECC080BC8E89334EFA5795B6E21E40EB266B0003D6 PUSH1 0x40 MLOAD PUSH1 0x40 MLOAD DUP1 SWAP2 SUB SWAP1 LOG3 POP POP JUMP JUMPDEST PUSH1 0x1 PUSH0 PUSH2 0x100 EXP DUP2 SLOAD SWAP1 PUSH20 0xFFFFFFFFFFFFFFFFFFFFFFFFFFFFFFFFFFFFFFFF MUL NOT AND SWAP1 SSTORE JUMP JUMPDEST PUSH1 0x1 PUSH1 0x3 PUSH0 PUSH2 0x100 EXP DUP2 SLOAD DUP2 PUSH1 0xFF MUL NOT AND SWAP1 DUP4 ISZERO ISZERO MUL OR SWAP1 SSTORE POP CALLER PUSH20 0xFFFFFFFFFFFFFFFFFFFFFFFFFFFFFFFFFFFFFFFF AND PUSH32 0xC076344F4D1B12B00186954100DF09DB17044DB6418A64C198CD093344C65910 PUSH1 0x40 MLOAD PUSH1 0x40 MLOAD DUP1 SWAP2 SUB SWAP1 LOG2 JUMP JUMPDEST DUP1 PUSH1 0x1 PUSH0 PUSH2 0x100 EXP DUP2 SLOAD DUP2 PUSH20 0xFFFFFFFFFFFFFFFFFFFFFFFFFFFFFFFFFFFFFFFF MUL NOT AND SWAP1 DUP4 PUSH20 0xFFFFFFFFFFFFFFFFFFFFFFFFFFFFFFFFFFFFFFFF AND MUL OR SWAP1 SSTORE POP POP JUMP JUMPDEST PUSH0 PUSH1 0x40 MLOAD DUP1 PUSH1 0xA0 ADD PUSH1 0x40 MSTORE DUP1 DUP5 PUSH20 0xFFFFFFFFFFFFFFFFFFFFFFFFFFFFFFFFFFFFFFFF AND DUP2 MSTORE PUSH1 0x20 ADD DUP4 PUSH20 0xFFFFFFFFFFFFFFFFFFFFFFFFFFFFFFFFFFFFFFFF AND DUP2 MSTORE PUSH1 0x20 ADD NUMBER DUP2 MSTORE PUSH1 0x20 ADD NUMBER BLOCKHASH DUP2 MSTORE PUSH1 0x20 ADD CHAINID DUP2 MSTORE POP SWAP1 POP PUSH1 0x2 DUP2 SWAP1 DUP1 PUSH1 0x1 DUP2 SLOAD ADD DUP1 DUP3 SSTORE DUP1 SWAP2 POP POP PUSH1 0x1 SWAP1 SUB SWAP1 PUSH0 MSTORE PUSH1 0x20 PUSH0 KECCAK256 SWAP1 PUSH1 0x5 MUL ADD PUSH0 SWAP1 SWAP2 SWAP1 SWAP2 SWAP1 SWAP2 POP PUSH0 DUP3 ADD MLOAD DUP2 PUSH0 ADD PUSH0 PUSH2 0x100 EXP DUP2 SLOAD DUP2 PUSH20 0xFFFFFFFFFFFFFFFFFFFFFFFFFFFFFFFFFFFFFFFF MUL NOT AND SWAP1 DUP4 PUSH20 0xFFFFFFFFFFFFFFFFFFFFFFFFFFFFFFFFFFFFFFFF AND MUL OR SWAP1 SSTORE POP PUSH1 0x20 DUP3 ADD MLOAD DUP2 PUSH1 0x1 ADD PUSH0 PUSH2 0x100 EXP DUP2 SLOAD DUP2 PUSH20 0xFFFFFFFFFFFFFFFFFFFFFFFFFFFFFFFFFFFFFFFF MUL NOT AND SWAP1 DUP4 PUSH20 0xFFFFFFFFFFFFFFFFFFFFFFFFFFFFFFFFFFFFFFFF AND MUL OR SWAP1 SSTORE POP PUSH1 0x40 DUP3 ADD MLOAD DUP2 PUSH1 0x2 ADD SSTORE PUSH1 0x60 DUP3 ADD MLOAD DUP2 PUSH1 0x3 ADD SSTORE PUSH1 0x80 DUP3 ADD MLOAD DUP2 PUSH1 0x4 ADD SSTORE POP POP POP POP POP JUMP JUMPDEST PUSH0 DUP2 SWAP1 POP SWAP2 SWAP1 POP JUMP JUMPDEST PUSH2 0x3162 DUP2 PUSH2 0x3150 JUMP JUMPDEST DUP3 MSTORE POP POP JUMP JUMPDEST PUSH0 PUSH1 0x20 DUP3 ADD SWAP1 POP PUSH2 0x317B PUSH0 DUP4 ADD DUP5 PUSH2 0x3159 JUMP JUMPDEST SWAP3 SWAP2 POP POP JUMP JUMPDEST PUSH0 DUP2 ISZERO ISZERO SWAP1 POP SWAP2 SWAP1 POP JUMP JUMPDEST PUSH2 0x3195 DUP2 PUSH2 0x3181 JUMP JUMPDEST DUP3 MSTORE POP POP JUMP JUMPDEST PUSH0 PUSH1 0x20 DUP3 ADD SWAP1 POP PUSH2 0x31AE PUSH0 DUP4 ADD DUP5 PUSH2 0x318C JUMP JUMPDEST SWAP3 SWAP2 POP POP JUMP JUMPDEST PUSH0 PUSH1 0x40 MLOAD SWAP1 POP SWAP1 JUMP JUMPDEST PUSH0 DUP1 REVERT JUMPDEST PUSH0 DUP1 REVERT JUMPDEST PUSH0 PUSH20 0xFFFFFFFFFFFFFFFFFFFFFFFFFFFFFFFFFFFFFFFF DUP3 AND SWAP1 POP SWAP2 SWAP1 POP JUMP JUMPDEST PUSH0 PUSH2 0x31EE DUP3 PUSH2 0x31C5 JUMP JUMPDEST SWAP1 POP SWAP2 SWAP1 POP JUMP JUMPDEST PUSH2 0x31FE DUP2 PUSH2 0x31E4 JUMP JUMPDEST DUP2 EQ PUSH2 0x3208 JUMPI PUSH0 DUP1 REVERT JUMPDEST POP JUMP JUMPDEST PUSH0 DUP2 CALLDATALOAD SWAP1 POP PUSH2 0x3219 DUP2 PUSH2 0x31F5 JUMP JUMPDEST SWAP3 SWAP2 POP POP JUMP JUMPDEST PUSH2 0x3228 DUP2 PUSH2 0x3150 JUMP JUMPDEST DUP2 EQ PUSH2 0x3232 JUMPI PUSH0 DUP1 REVERT JUMPDEST POP JUMP JUMPDEST PUSH0 DUP2 CALLDATALOAD SWAP1 POP PUSH2 0x3243 DUP2 PUSH2 0x321F JUMP JUMPDEST SWAP3 SWAP2 POP POP JUMP JUMPDEST PUSH0 DUP1 REVERT JUMPDEST PUSH0 DUP1 REVERT JUMPDEST PUSH0 DUP1 REVERT JUMPDEST PUSH0 DUP1 DUP4 PUSH1 0x1F DUP5 ADD SLT PUSH2 0x326A JUMPI PUSH2 0x3269 PUSH2 0x3249 JUMP JUMPDEST JUMPDEST DUP3 CALLDATALOAD SWAP1 POP PUSH8 0xFFFFFFFFFFFFFFFF DUP2 GT ISZERO PUSH2 0x3287 JUMPI PUSH2 0x3286 PUSH2 0x324D JUMP JUMPDEST JUMPDEST PUSH1 0x20 DUP4 ADD SWAP2 POP DUP4 PUSH1 0x1 DUP3 MUL DUP4 ADD GT ISZERO PUSH2 0x32A3 JUMPI PUSH2 0x32A2 PUSH2 0x3251 JUMP JUMPDEST JUMPDEST SWAP3 POP SWAP3 SWAP1 POP JUMP JUMPDEST PUSH0 DUP1 PUSH0 DUP1 PUSH0 PUSH1 0x80 DUP7 DUP9 SUB SLT ISZERO PUSH2 0x32C3 JUMPI PUSH2 0x32C2 PUSH2 0x31BD JUMP JUMPDEST JUMPDEST PUSH0 PUSH2 0x32D0 DUP9 DUP3 DUP10 ADD PUSH2 0x320B JUMP JUMPDEST SWAP6 POP POP PUSH1 0x20 PUSH2 0x32E1 DUP9 DUP3 DUP10 ADD PUSH2 0x320B JUMP JUMPDEST SWAP5 POP POP PUSH1 0x40 PUSH2 0x32F2 DUP9 DUP3 DUP10 ADD PUSH2 0x3235 JUMP JUMPDEST SWAP4 POP POP PUSH1 0x60 DUP7 ADD CALLDATALOAD PUSH8 0xFFFFFFFFFFFFFFFF DUP2 GT ISZERO PUSH2 0x3313 JUMPI PUSH2 0x3312 PUSH2 0x31C1 JUMP JUMPDEST JUMPDEST PUSH2 0x331F DUP9 DUP3 DUP10 ADD PUSH2 0x3255 JUMP JUMPDEST SWAP3 POP SWAP3 POP POP SWAP3 SWAP6 POP SWAP3 SWAP6 SWAP1 SWAP4 POP JUMP JUMPDEST PUSH0 PUSH32 0xFFFFFFFF00000000000000000000000000000000000000000000000000000000 DUP3 AND SWAP1 POP SWAP2 SWAP1 POP JUMP JUMPDEST PUSH2 0x3362 DUP2 PUSH2 0x332E JUMP JUMPDEST DUP3 MSTORE POP POP JUMP JUMPDEST PUSH0 PUSH1 0x20 DUP3 ADD SWAP1 POP PUSH2 0x337B PUSH0 DUP4 ADD DUP5 PUSH2 0x3359 JUMP JUMPDEST SWAP3 SWAP2 POP POP JUMP JUMPDEST PUSH0 PUSH1 0x20 DUP3 DUP5 SUB SLT ISZERO PUSH2 0x3396 JUMPI PUSH2 0x3395 PUSH2 0x31BD JUMP JUMPDEST JUMPDEST PUSH0 PUSH2 0x33A3 DUP5 DUP3 DUP6 ADD PUSH2 0x320B JUMP JUMPDEST SWAP2 POP POP SWAP3 SWAP2 POP POP JUMP JUMPDEST PUSH0 DUP2 MLOAD SWAP1 POP SWAP2 SWAP1 POP JUMP JUMPDEST PUSH0 DUP3 DUP3 MSTORE PUSH1 0x20 DUP3 ADD SWAP1 POP SWAP3 SWAP2 POP POP JUMP JUMPDEST DUP3 DUP2 DUP4 MCOPY PUSH0 DUP4 DUP4 ADD MSTORE POP POP POP JUMP JUMPDEST PUSH0 PUSH1 0x1F NOT PUSH1 0x1F DUP4 ADD AND SWAP1 POP SWAP2 SWAP1 POP JUMP JUMPDEST PUSH0 PUSH2 0x33EE DUP3 PUSH2 0x33AC JUMP JUMPDEST PUSH2 0x33F8 DUP2 DUP6 PUSH2 0x33B6 JUMP JUMPDEST SWAP4 POP PUSH2 0x3408 DUP2 DUP6 PUSH1 0x20 DUP7 ADD PUSH2 0x33C6 JUMP JUMPDEST PUSH2 0x3411 DUP2 PUSH2 0x33D4 JUMP JUMPDEST DUP5 ADD SWAP2 POP POP SWAP3 SWAP2 POP POP JUMP JUMPDEST PUSH0 PUSH1 0x20 DUP3 ADD SWAP1 POP DUP2 DUP2 SUB PUSH0 DUP4 ADD MSTORE PUSH2 0x3434 DUP2 DUP5 PUSH2 0x33E4 JUMP JUMPDEST SWAP1 POP SWAP3 SWAP2 POP POP JUMP JUMPDEST PUSH0 DUP2 MLOAD SWAP1 POP SWAP2 SWAP1 POP JUMP JUMPDEST PUSH0 DUP3 DUP3 MSTORE PUSH1 0x20 DUP3 ADD SWAP1 POP SWAP3 SWAP2 POP POP JUMP JUMPDEST PUSH0 DUP2 SWAP1 POP PUSH1 0x20 DUP3 ADD SWAP1 POP SWAP2 SWAP1 POP JUMP JUMPDEST PUSH2 0x346E DUP2 PUSH2 0x31E4 JUMP JUMPDEST DUP3 MSTORE POP POP JUMP JUMPDEST PUSH2 0x347D DUP2 PUSH2 0x3150 JUMP JUMPDEST DUP3 MSTORE POP POP JUMP JUMPDEST PUSH0 DUP2 SWAP1 POP SWAP2 SWAP1 POP JUMP JUMPDEST PUSH2 0x3495 DUP2 PUSH2 0x3483 JUMP JUMPDEST DUP3 MSTORE POP POP JUMP JUMPDEST PUSH1 0xA0 DUP3 ADD PUSH0 DUP3 ADD MLOAD PUSH2 0x34AF PUSH0 DUP6 ADD DUP3 PUSH2 0x3465 JUMP JUMPDEST POP PUSH1 0x20 DUP3 ADD MLOAD PUSH2 0x34C2 PUSH1 0x20 DUP6 ADD DUP3 PUSH2 0x3465 JUMP JUMPDEST POP PUSH1 0x40 DUP3 ADD MLOAD PUSH2 0x34D5 PUSH1 0x40 DUP6 ADD DUP3 PUSH2 0x3474 JUMP JUMPDEST POP PUSH1 0x60 DUP3 ADD MLOAD PUSH2 0x34E8 PUSH1 0x60 DUP6 ADD DUP3 PUSH2 0x348C JUMP JUMPDEST POP PUSH1 0x80 DUP3 ADD MLOAD PUSH2 0x34FB PUSH1 0x80 DUP6 ADD DUP3 PUSH2 0x3474 JUMP JUMPDEST POP POP POP POP JUMP JUMPDEST PUSH0 PUSH2 0x350C DUP4 DUP4 PUSH2 0x349B JUMP JUMPDEST PUSH1 0xA0 DUP4 ADD SWAP1 POP SWAP3 SWAP2 POP POP JUMP JUMPDEST PUSH0 PUSH1 0x20 DUP3 ADD SWAP1 POP SWAP2 SWAP1 POP JUMP JUMPDEST PUSH0 PUSH2 0x352E DUP3 PUSH2 0x343C JUMP JUMPDEST PUSH2 0x3538 DUP2 DUP6 PUSH2 0x3446 JUMP JUMPDEST SWAP4 POP PUSH2 0x3543 DUP4 PUSH2 0x3456 JUMP JUMPDEST DUP1 PUSH0 JUMPDEST DUP4 DUP2 LT ISZERO PUSH2 0x3573 JUMPI DUP2 MLOAD PUSH2 0x355A DUP9 DUP3 PUSH2 0x3501 JUMP JUMPDEST SWAP8 POP PUSH2 0x3565 DUP4 PUSH2 0x3518 JUMP JUMPDEST SWAP3 POP POP PUSH1 0x1 DUP2 ADD SWAP1 POP PUSH2 0x3546 JUMP JUMPDEST POP DUP6 SWAP4 POP POP POP POP SWAP3 SWAP2 POP POP JUMP JUMPDEST PUSH0 PUSH1 0x20 DUP3 ADD SWAP1 POP DUP2 DUP2 SUB PUSH0 DUP4 ADD MSTORE PUSH2 0x3598 DUP2 DUP5 PUSH2 0x3524 JUMP JUMPDEST SWAP1 POP SWAP3 SWAP2 POP POP JUMP JUMPDEST PUSH2 0x35A9 DUP2 PUSH2 0x31E4 JUMP JUMPDEST DUP3 MSTORE POP POP JUMP JUMPDEST PUSH0 PUSH1 0x20 DUP3 ADD SWAP1 POP PUSH2 0x35C2 PUSH0 DUP4 ADD DUP5 PUSH2 0x35A0 JUMP JUMPDEST SWAP3 SWAP2 POP POP JUMP JUMPDEST PUSH0 DUP1 REVERT JUMPDEST PUSH32 0x4E487B7100000000000000000000000000000000000000000000000000000000 PUSH0 MSTORE PUSH1 0x41 PUSH1 0x4 MSTORE PUSH1 0x24 PUSH0 REVERT JUMPDEST PUSH2 0x3602 DUP3 PUSH2 0x33D4 JUMP JUMPDEST DUP2 ADD DUP2 DUP2 LT PUSH8 0xFFFFFFFFFFFFFFFF DUP3 GT OR ISZERO PUSH2 0x3621 JUMPI PUSH2 0x3620 PUSH2 0x35CC JUMP JUMPDEST JUMPDEST DUP1 PUSH1 0x40 MSTORE POP POP POP JUMP JUMPDEST PUSH0 PUSH2 0x3633 PUSH2 0x31B4 JUMP JUMPDEST SWAP1 POP PUSH2 0x363F DUP3 DUP3 PUSH2 0x35F9 JUMP JUMPDEST SWAP2 SWAP1 POP JUMP JUMPDEST PUSH0 PUSH8 0xFFFFFFFFFFFFFFFF DUP3 GT ISZERO PUSH2 0x365E JUMPI PUSH2 0x365D PUSH2 0x35CC JUMP JUMPDEST JUMPDEST PUSH2 0x3667 DUP3 PUSH2 0x33D4 JUMP JUMPDEST SWAP1 POP PUSH1 0x20 DUP2 ADD SWAP1 POP SWAP2 SWAP1 POP JUMP JUMPDEST DUP3 DUP2 DUP4 CALLDATACOPY PUSH0 DUP4 DUP4 ADD MSTORE POP POP POP JUMP JUMPDEST PUSH0 PUSH2 0x3694 PUSH2 0x368F DUP5 PUSH2 0x3644 JUMP JUMPDEST PUSH2 0x362A JUMP JUMPDEST SWAP1 POP DUP3 DUP2 MSTORE PUSH1 0x20 DUP2 ADD DUP5 DUP5 DUP5 ADD GT ISZERO PUSH2 0x36B0 JUMPI PUSH2 0x36AF PUSH2 0x35C8 JUMP JUMPDEST JUMPDEST PUSH2 0x36BB DUP5 DUP3 DUP6 PUSH2 0x3674 JUMP JUMPDEST POP SWAP4 SWAP3 POP POP POP JUMP JUMPDEST PUSH0 DUP3 PUSH1 0x1F DUP4 ADD SLT PUSH2 0x36D7 JUMPI PUSH2 0x36D6 PUSH2 0x3249 JUMP JUMPDEST JUMPDEST DUP2 CALLDATALOAD PUSH2 0x36E7 DUP5 DUP3 PUSH1 0x20 DUP7 ADD PUSH2 0x3682 JUMP JUMPDEST SWAP2 POP POP SWAP3 SWAP2 POP POP JUMP JUMPDEST PUSH0 PUSH1 0x20 DUP3 DUP5 SUB SLT ISZERO PUSH2 0x3705 JUMPI PUSH2 0x3704 PUSH2 0x31BD JUMP JUMPDEST JUMPDEST PUSH0 DUP3 ADD CALLDATALOAD PUSH8 0xFFFFFFFFFFFFFFFF DUP2 GT ISZERO PUSH2 0x3722 JUMPI PUSH2 0x3721 PUSH2 0x31C1 JUMP JUMPDEST JUMPDEST PUSH2 0x372E DUP5 DUP3 DUP6 ADD PUSH2 0x36C3 JUMP JUMPDEST SWAP2 POP POP SWAP3 SWAP2 POP POP JUMP JUMPDEST PUSH0 PUSH8 0xFFFFFFFFFFFFFFFF DUP3 GT ISZERO PUSH2 0x3751 JUMPI PUSH2 0x3750 PUSH2 0x35CC JUMP JUMPDEST JUMPDEST PUSH1 0x20 DUP3 MUL SWAP1 POP PUSH1 0x20 DUP2 ADD SWAP1 POP SWAP2 SWAP1 POP JUMP JUMPDEST PUSH0 PUSH2 0x3774 PUSH2 0x376F DUP5 PUSH2 0x3737 JUMP JUMPDEST PUSH2 0x362A JUMP JUMPDEST SWAP1 POP DUP1 DUP4 DUP3 MSTORE PUSH1 0x20 DUP3 ADD SWAP1 POP PUSH1 0x20 DUP5 MUL DUP4 ADD DUP6 DUP2 GT ISZERO PUSH2 0x3797 JUMPI PUSH2 0x3796 PUSH2 0x3251 JUMP JUMPDEST JUMPDEST DUP4 JUMPDEST DUP2 DUP2 LT ISZERO PUSH2 0x37C0 JUMPI DUP1 PUSH2 0x37AC DUP9 DUP3 PUSH2 0x320B JUMP JUMPDEST DUP5 MSTORE PUSH1 0x20 DUP5 ADD SWAP4 POP POP PUSH1 0x20 DUP2 ADD SWAP1 POP PUSH2 0x3799 JUMP JUMPDEST POP POP POP SWAP4 SWAP3 POP POP POP JUMP JUMPDEST PUSH0 DUP3 PUSH1 0x1F DUP4 ADD SLT PUSH2 0x37DE JUMPI PUSH2 0x37DD PUSH2 0x3249 JUMP JUMPDEST JUMPDEST DUP2 CALLDATALOAD PUSH2 0x37EE DUP5 DUP3 PUSH1 0x20 DUP7 ADD PUSH2 0x3762 JUMP JUMPDEST SWAP2 POP POP SWAP3 SWAP2 POP POP JUMP JUMPDEST PUSH0 PUSH1 0x20 DUP3 DUP5 SUB SLT ISZERO PUSH2 0x380C JUMPI PUSH2 0x380B PUSH2 0x31BD JUMP JUMPDEST JUMPDEST PUSH0 DUP3 ADD CALLDATALOAD PUSH8 0xFFFFFFFFFFFFFFFF DUP2 GT ISZERO PUSH2 0x3829 JUMPI PUSH2 0x3828 PUSH2 0x31C1 JUMP JUMPDEST JUMPDEST PUSH2 0x3835 DUP5 DUP3 DUP6 ADD PUSH2 0x37CA JUMP JUMPDEST SWAP2 POP POP SWAP3 SWAP2 POP POP JUMP JUMPDEST PUSH32 0x5472616E73616374696F6E204641494C45443A204F6E6C7920746865206F776E PUSH0 DUP3 ADD MSTORE PUSH32 0x65722063616E2063616C6C20746869732066756E6374696F6E21000000000000 PUSH1 0x20 DUP3 ADD MSTORE POP JUMP JUMPDEST PUSH0 PUSH2 0x3898 PUSH1 0x3A DUP4 PUSH2 0x33B6 JUMP JUMPDEST SWAP2 POP PUSH2 0x38A3 DUP3 PUSH2 0x383E JUMP JUMPDEST PUSH1 0x40 DUP3 ADD SWAP1 POP SWAP2 SWAP1 POP JUMP JUMPDEST PUSH0 PUSH1 0x20 DUP3 ADD SWAP1 POP DUP2 DUP2 SUB PUSH0 DUP4 ADD MSTORE PUSH2 0x38C5 DUP2 PUSH2 0x388C JUMP JUMPDEST SWAP1 POP SWAP2 SWAP1 POP JUMP JUMPDEST PUSH32 0x5452414E53414354494F4E204552524F523A207468652061756374696F6E2068 PUSH0 DUP3 ADD MSTORE PUSH32 0x6173206E6F742073746172746564207965742100000000000000000000000000 PUSH1 0x20 DUP3 ADD MSTORE POP JUMP JUMPDEST PUSH0 PUSH2 0x3926 PUSH1 0x33 DUP4 PUSH2 0x33B6 JUMP JUMPDEST SWAP2 POP PUSH2 0x3931 DUP3 PUSH2 0x38CC JUMP JUMPDEST PUSH1 0x40 DUP3 ADD SWAP1 POP SWAP2 SWAP1 POP JUMP JUMPDEST PUSH0 PUSH1 0x20 DUP3 ADD SWAP1 POP DUP2 DUP2 SUB PUSH0 DUP4 ADD MSTORE PUSH2 0x3953 DUP2 PUSH2 0x391A JUMP JUMPDEST SWAP1 POP SWAP2 SWAP1 POP JUMP JUMPDEST PUSH32 0x5452414E53414354494F4E204552524F523A207468652061756374696F6E2068 PUSH0 DUP3 ADD MSTORE PUSH32 0x617320656E646564210000000000000000000000000000000000000000000000 PUSH1 0x20 DUP3 ADD MSTORE POP JUMP JUMPDEST PUSH0 PUSH2 0x39B4 PUSH1 0x29 DUP4 PUSH2 0x33B6 JUMP JUMPDEST SWAP2 POP PUSH2 0x39BF DUP3 PUSH2 0x395A JUMP JUMPDEST PUSH1 0x40 DUP3 ADD SWAP1 POP SWAP2 SWAP1 POP JUMP JUMPDEST PUSH0 PUSH1 0x20 DUP3 ADD SWAP1 POP DUP2 DUP2 SUB PUSH0 DUP4 ADD MSTORE PUSH2 0x39E1 DUP2 PUSH2 0x39A8 JUMP JUMPDEST SWAP1 POP SWAP2 SWAP1 POP JUMP JUMPDEST PUSH32 0x5452414E53414354494F4E205741524E494E473A207468652061756374696F6E PUSH0 DUP3 ADD MSTORE PUSH32 0x2063616E63656C6C6174696F6E2070726F63657373206973206E6F7420696E69 PUSH1 0x20 DUP3 ADD MSTORE PUSH32 0x7469617465642100000000000000000000000000000000000000000000000000 PUSH1 0x40 DUP3 ADD MSTORE POP JUMP JUMPDEST PUSH0 PUSH2 0x3A68 PUSH1 0x47 DUP4 PUSH2 0x33B6 JUMP JUMPDEST SWAP2 POP PUSH2 0x3A73 DUP3 PUSH2 0x39E8 JUMP JUMPDEST PUSH1 0x60 DUP3 ADD SWAP1 POP SWAP2 SWAP1 POP JUMP JUMPDEST PUSH0 PUSH1 0x20 DUP3 ADD SWAP1 POP DUP2 DUP2 SUB PUSH0 DUP4 ADD MSTORE PUSH2 0x3A95 DUP2 PUSH2 0x3A5C JUMP JUMPDEST SWAP1 POP SWAP2 SWAP1 POP JUMP JUMPDEST PUSH32 0x5472616E73616374696F6E204641494C45443A2052656E6F756E63652070726F PUSH0 DUP3 ADD MSTORE PUSH32 0x6365737320697320616C726561647920756E6C6F636B65642100000000000000 PUSH1 0x20 DUP3 ADD MSTORE POP JUMP JUMPDEST PUSH0 PUSH2 0x3AF6 PUSH1 0x39 DUP4 PUSH2 0x33B6 JUMP JUMPDEST SWAP2 POP PUSH2 0x3B01 DUP3 PUSH2 0x3A9C JUMP JUMPDEST PUSH1 0x40 DUP3 ADD SWAP1 POP SWAP2 SWAP1 POP JUMP JUMPDEST PUSH0 PUSH1 0x20 DUP3 ADD SWAP1 POP DUP2 DUP2 SUB PUSH0 DUP4 ADD MSTORE PUSH2 0x3B23 DUP2 PUSH2 0x3AEA JUMP JUMPDEST SWAP1 POP SWAP2 SWAP1 POP JUMP JUMPDEST PUSH32 0x5452414E53414354494F4E204552524F523A20746865206F776E6572206D7573 PUSH0 DUP3 ADD MSTORE PUSH32 0x74206E6F7420706172746963697061746520696E207468652061756374696F6E PUSH1 0x20 DUP3 ADD MSTORE PUSH32 0x2100000000000000000000000000000000000000000000000000000000000000 PUSH1 0x40 DUP3 ADD MSTORE POP JUMP JUMPDEST PUSH0 PUSH2 0x3BAA PUSH1 0x41 DUP4 PUSH2 0x33B6 JUMP JUMPDEST SWAP2 POP PUSH2 0x3BB5 DUP3 PUSH2 0x3B2A JUMP JUMPDEST PUSH1 0x60 DUP3 ADD SWAP1 POP SWAP2 SWAP1 POP JUMP JUMPDEST PUSH0 PUSH1 0x20 DUP3 ADD SWAP1 POP DUP2 DUP2 SUB PUSH0 DUP4 ADD MSTORE PUSH2 0x3BD7 DUP2 PUSH2 0x3B9E JUMP JUMPDEST SWAP1 POP SWAP2 SWAP1 POP JUMP JUMPDEST PUSH32 0x5452414E53414354494F4E204552524F523A207769746864726177696E672069 PUSH0 DUP3 ADD MSTORE PUSH32 0x73206F6E6C7920616C6C6F776564206166746572207468652061756374696F6E PUSH1 0x20 DUP3 ADD MSTORE PUSH32 0x20656E6473206F7220696E2072617265206361736573207768656E2063616E63 PUSH1 0x40 DUP3 ADD MSTORE PUSH32 0x656C6C6564206279207468652061756374696F6E206F776E6572210000000000 PUSH1 0x60 DUP3 ADD MSTORE POP JUMP JUMPDEST PUSH0 PUSH2 0x3C84 PUSH1 0x7B DUP4 PUSH2 0x33B6 JUMP JUMPDEST SWAP2 POP PUSH2 0x3C8F DUP3 PUSH2 0x3BDE JUMP JUMPDEST PUSH1 0x80 DUP3 ADD SWAP1 POP SWAP2 SWAP1 POP JUMP JUMPDEST PUSH0 PUSH1 0x20 DUP3 ADD SWAP1 POP DUP2 DUP2 SUB PUSH0 DUP4 ADD MSTORE PUSH2 0x3CB1 DUP2 PUSH2 0x3C78 JUMP JUMPDEST SWAP1 POP SWAP2 SWAP1 POP JUMP JUMPDEST PUSH32 0x5452414E53414354494F4E204552524F523A20746865726520776173206E6F20 PUSH0 DUP3 ADD MSTORE PUSH32 0x656E74727920666565206173736F636961746564207769746820746869732061 PUSH1 0x20 DUP3 ADD MSTORE PUSH32 0x756374696F6E2100000000000000000000000000000000000000000000000000 PUSH1 0x40 DUP3 ADD MSTORE POP JUMP JUMPDEST PUSH0 PUSH2 0x3D38 PUSH1 0x47 DUP4 PUSH2 0x33B6 JUMP JUMPDEST SWAP2 POP PUSH2 0x3D43 DUP3 PUSH2 0x3CB8 JUMP JUMPDEST PUSH1 0x60 DUP3 ADD SWAP1 POP SWAP2 SWAP1 POP JUMP JUMPDEST PUSH0 PUSH1 0x20 DUP3 ADD SWAP1 POP DUP2 DUP2 SUB PUSH0 DUP4 ADD MSTORE PUSH2 0x3D65 DUP2 PUSH2 0x3D2C JUMP JUMPDEST SWAP1 POP SWAP2 SWAP1 POP JUMP JUMPDEST PUSH32 0x5452414E53414354494F4E204552524F523A2054686973206163636F756E7420 PUSH0 DUP3 ADD MSTORE PUSH32 0x686173206E6F742070617965642074686520656E747279206665652100000000 PUSH1 0x20 DUP3 ADD MSTORE POP JUMP JUMPDEST PUSH0 PUSH2 0x3DC6 PUSH1 0x3C DUP4 PUSH2 0x33B6 JUMP JUMPDEST SWAP2 POP PUSH2 0x3DD1 DUP3 PUSH2 0x3D6C JUMP JUMPDEST PUSH1 0x40 DUP3 ADD SWAP1 POP SWAP2 SWAP1 POP JUMP JUMPDEST PUSH0 PUSH1 0x20 DUP3 ADD SWAP1 POP DUP2 DUP2 SUB PUSH0 DUP4 ADD MSTORE PUSH2 0x3DF3 DUP2 PUSH2 0x3DBA JUMP JUMPDEST SWAP1 POP SWAP2 SWAP1 POP JUMP JUMPDEST PUSH32 0x5452414E53414354494F4E204552524F523A2054686973206163636F756E7420 PUSH0 DUP3 ADD MSTORE PUSH32 0x68617320616C72656164792077697468647261776E2074686520656E74727920 PUSH1 0x20 DUP3 ADD MSTORE PUSH32 0x6665652100000000000000000000000000000000000000000000000000000000 PUSH1 0x40 DUP3 ADD MSTORE POP JUMP JUMPDEST PUSH0 PUSH2 0x3E7A PUSH1 0x44 DUP4 PUSH2 0x33B6 JUMP JUMPDEST SWAP2 POP PUSH2 0x3E85 DUP3 PUSH2 0x3DFA JUMP JUMPDEST PUSH1 0x60 DUP3 ADD SWAP1 POP SWAP2 SWAP1 POP JUMP JUMPDEST PUSH0 PUSH1 0x20 DUP3 ADD SWAP1 POP DUP2 DUP2 SUB PUSH0 DUP4 ADD MSTORE PUSH2 0x3EA7 DUP2 PUSH2 0x3E6E JUMP JUMPDEST SWAP1 POP SWAP2 SWAP1 POP JUMP JUMPDEST PUSH32 0x5452414E53414354494F4E204552524F523A205769746864726177206661696C PUSH0 DUP3 ADD MSTORE PUSH32 0x6564210000000000000000000000000000000000000000000000000000000000 PUSH1 0x20 DUP3 ADD MSTORE POP JUMP JUMPDEST PUSH0 PUSH2 0x3F08 PUSH1 0x23 DUP4 PUSH2 0x33B6 JUMP JUMPDEST SWAP2 POP PUSH2 0x3F13 DUP3 PUSH2 0x3EAE JUMP JUMPDEST PUSH1 0x40 DUP3 ADD SWAP1 POP SWAP2 SWAP1 POP JUMP JUMPDEST PUSH0 PUSH1 0x20 DUP3 ADD SWAP1 POP DUP2 DUP2 SUB PUSH0 DUP4 ADD MSTORE PUSH2 0x3F35 DUP2 PUSH2 0x3EFC JUMP JUMPDEST SWAP1 POP SWAP2 SWAP1 POP JUMP JUMPDEST PUSH32 0x4E487B7100000000000000000000000000000000000000000000000000000000 PUSH0 MSTORE PUSH1 0x11 PUSH1 0x4 MSTORE PUSH1 0x24 PUSH0 REVERT JUMPDEST PUSH0 PUSH2 0x3F73 DUP3 PUSH2 0x3150 JUMP JUMPDEST SWAP2 POP PUSH2 0x3F7E DUP4 PUSH2 0x3150 JUMP JUMPDEST SWAP3 POP DUP3 DUP3 SUB SWAP1 POP DUP2 DUP2 GT ISZERO PUSH2 0x3F96 JUMPI PUSH2 0x3F95 PUSH2 0x3F3C JUMP JUMPDEST JUMPDEST SWAP3 SWAP2 POP POP JUMP JUMPDEST PUSH32 0x5452414E53414354494F4E204552524F523A207769746864726177206661696C PUSH0 DUP3 ADD MSTORE PUSH32 0x6564210000000000000000000000000000000000000000000000000000000000 PUSH1 0x20 DUP3 ADD MSTORE POP JUMP JUMPDEST PUSH0 PUSH2 0x3FF6 PUSH1 0x23 DUP4 PUSH2 0x33B6 JUMP JUMPDEST SWAP2 POP PUSH2 0x4001 DUP3 PUSH2 0x3F9C JUMP JUMPDEST PUSH1 0x40 DUP3 ADD SWAP1 POP SWAP2 SWAP1 POP JUMP JUMPDEST PUSH0 PUSH1 0x20 DUP3 ADD SWAP1 POP DUP2 DUP2 SUB PUSH0 DUP4 ADD MSTORE PUSH2 0x4023 DUP2 PUSH2 0x3FEA JUMP JUMPDEST SWAP1 POP SWAP2 SWAP1 POP JUMP JUMPDEST PUSH32 0x5452414E53414354494F4E204552524F523A204F776E65722068617320616C72 PUSH0 DUP3 ADD MSTORE PUSH32 0x656164792077697468647261776E210000000000000000000000000000000000 PUSH1 0x20 DUP3 ADD MSTORE POP JUMP JUMPDEST PUSH0 PUSH2 0x4084 PUSH1 0x2F DUP4 PUSH2 0x33B6 JUMP JUMPDEST SWAP2 POP PUSH2 0x408F DUP3 PUSH2 0x402A JUMP JUMPDEST PUSH1 0x40 DUP3 ADD SWAP1 POP SWAP2 SWAP1 POP JUMP JUMPDEST PUSH0 PUSH1 0x20 DUP3 ADD SWAP1 POP DUP2 DUP2 SUB PUSH0 DUP4 ADD MSTORE PUSH2 0x40B1 DUP2 PUSH2 0x4078 JUMP JUMPDEST SWAP1 POP SWAP2 SWAP1 POP JUMP JUMPDEST PUSH32 0x5468652077696E6E6572206973206E6F742061626C6520746F20776974686472 PUSH0 DUP3 ADD MSTORE PUSH32 0x61772066726F6D207468652061756374696F6E21205468652061756374696F6E PUSH1 0x20 DUP3 ADD MSTORE PUSH32 0x2077696E6E657227732066756E647320617265206C6F636B656420616E642072 PUSH1 0x40 DUP3 ADD MSTORE PUSH32 0x6573657276656420666F7220746865206F776E6572206F662074686520617563 PUSH1 0x60 DUP3 ADD MSTORE PUSH32 0x74696F6E21000000000000000000000000000000000000000000000000000000 PUSH1 0x80 DUP3 ADD MSTORE POP JUMP JUMPDEST PUSH0 PUSH2 0x4184 PUSH1 0x85 DUP4 PUSH2 0x33B6 JUMP JUMPDEST SWAP2 POP PUSH2 0x418F DUP3 PUSH2 0x40B8 JUMP JUMPDEST PUSH1 0xA0 DUP3 ADD SWAP1 POP SWAP2 SWAP1 POP JUMP JUMPDEST PUSH0 PUSH1 0x20 DUP3 ADD SWAP1 POP DUP2 DUP2 SUB PUSH0 DUP4 ADD MSTORE PUSH2 0x41B1 DUP2 PUSH2 0x4178 JUMP JUMPDEST SWAP1 POP SWAP2 SWAP1 POP JUMP JUMPDEST PUSH32 0x4E487B7100000000000000000000000000000000000000000000000000000000 PUSH0 MSTORE PUSH1 0x22 PUSH1 0x4 MSTORE PUSH1 0x24 PUSH0 REVERT JUMPDEST PUSH0 PUSH1 0x2 DUP3 DIV SWAP1 POP PUSH1 0x1 DUP3 AND DUP1 PUSH2 0x41FC JUMPI PUSH1 0x7F DUP3 AND SWAP2 POP JUMPDEST PUSH1 0x20 DUP3 LT DUP2 SUB PUSH2 0x420F JUMPI PUSH2 0x420E PUSH2 0x41B8 JUMP JUMPDEST JUMPDEST POP SWAP2 SWAP1 POP JUMP JUMPDEST PUSH32 0x5452414E53414354494F4E204552524F523A20706179696E672074686520656E PUSH0 DUP3 ADD MSTORE PUSH32 0x74727920666565206973206F6E6C7920706F737369626C65206265666F726520 PUSH1 0x20 DUP3 ADD MSTORE PUSH32 0x7468652061756374696F6E207374617274732100000000000000000000000000 PUSH1 0x40 DUP3 ADD MSTORE POP JUMP JUMPDEST PUSH0 PUSH2 0x4295 PUSH1 0x53 DUP4 PUSH2 0x33B6 JUMP JUMPDEST SWAP2 POP PUSH2 0x42A0 DUP3 PUSH2 0x4215 JUMP JUMPDEST PUSH1 0x60 DUP3 ADD SWAP1 POP SWAP2 SWAP1 POP JUMP JUMPDEST PUSH0 PUSH1 0x20 DUP3 ADD SWAP1 POP DUP2 DUP2 SUB PUSH0 DUP4 ADD MSTORE PUSH2 0x42C2 DUP2 PUSH2 0x4289 JUMP JUMPDEST SWAP1 POP SWAP2 SWAP1 POP JUMP JUMPDEST PUSH32 0x5452414E53414354494F4E204552524F523A207468657265206973206E6F2065 PUSH0 DUP3 ADD MSTORE PUSH32 0x6E74727920666565206173736F63696174656420776974682074686973206175 PUSH1 0x20 DUP3 ADD MSTORE PUSH32 0x6374696F6E210000000000000000000000000000000000000000000000000000 PUSH1 0x40 DUP3 ADD MSTORE POP JUMP JUMPDEST PUSH0 PUSH2 0x4349 PUSH1 0x46 DUP4 PUSH2 0x33B6 JUMP JUMPDEST SWAP2 POP PUSH2 0x4354 DUP3 PUSH2 0x42C9 JUMP JUMPDEST PUSH1 0x60 DUP3 ADD SWAP1 POP SWAP2 SWAP1 POP JUMP JUMPDEST PUSH0 PUSH1 0x20 DUP3 ADD SWAP1 POP DUP2 DUP2 SUB PUSH0 DUP4 ADD MSTORE PUSH2 0x4376 DUP2 PUSH2 0x433D JUMP JUMPDEST SWAP1 POP SWAP2 SWAP1 POP JUMP JUMPDEST PUSH32 0x5452414E53414354494F4E204552524F523A2074686520656E74727920666565 PUSH0 DUP3 ADD MSTORE PUSH32 0x206D7573742062652065786163746C792074686520616D6F756E74206F662074 PUSH1 0x20 DUP3 ADD MSTORE PUSH32 0x68652073657420656E7472792066656521000000000000000000000000000000 PUSH1 0x40 DUP3 ADD MSTORE POP JUMP JUMPDEST PUSH0 PUSH2 0x43FD PUSH1 0x51 DUP4 PUSH2 0x33B6 JUMP JUMPDEST SWAP2 POP PUSH2 0x4408 DUP3 PUSH2 0x437D JUMP JUMPDEST PUSH1 0x60 DUP3 ADD SWAP1 POP SWAP2 SWAP1 POP JUMP JUMPDEST PUSH0 PUSH1 0x20 DUP3 ADD SWAP1 POP DUP2 DUP2 SUB PUSH0 DUP4 ADD MSTORE PUSH2 0x442A DUP2 PUSH2 0x43F1 JUMP JUMPDEST SWAP1 POP SWAP2 SWAP1 POP JUMP JUMPDEST PUSH32 0x5452414E53414354494F4E204552524F523A2074686973206163636F756E7420 PUSH0 DUP3 ADD MSTORE PUSH32 0x68617320616C726561647920706169642074686520656E747279206665652100 PUSH1 0x20 DUP3 ADD MSTORE POP JUMP JUMPDEST PUSH0 PUSH2 0x448B PUSH1 0x3F DUP4 PUSH2 0x33B6 JUMP JUMPDEST SWAP2 POP PUSH2 0x4496 DUP3 PUSH2 0x4431 JUMP JUMPDEST PUSH1 0x40 DUP3 ADD SWAP1 POP SWAP2 SWAP1 POP JUMP JUMPDEST PUSH0 PUSH1 0x20 DUP3 ADD SWAP1 POP DUP2 DUP2 SUB PUSH0 DUP4 ADD MSTORE PUSH2 0x44B8 DUP2 PUSH2 0x447F JUMP JUMPDEST SWAP1 POP SWAP2 SWAP1 POP JUMP JUMPDEST PUSH32 0x5472616E73616374696F6E204641494C45443A2052656E6F756E63652070726F PUSH0 DUP3 ADD MSTORE PUSH32 0x6365737320776173206E6F7420696E6974696174656421000000000000000000 PUSH1 0x20 DUP3 ADD MSTORE POP JUMP JUMPDEST PUSH0 PUSH2 0x4519 PUSH1 0x37 DUP4 PUSH2 0x33B6 JUMP JUMPDEST SWAP2 POP PUSH2 0x4524 DUP3 PUSH2 0x44BF JUMP JUMPDEST PUSH1 0x40 DUP3 ADD SWAP1 POP SWAP2 SWAP1 POP JUMP JUMPDEST PUSH0 PUSH1 0x20 DUP3 ADD SWAP1 POP DUP2 DUP2 SUB PUSH0 DUP4 ADD MSTORE PUSH2 0x4546 DUP2 PUSH2 0x450D JUMP JUMPDEST SWAP1 POP SWAP2 SWAP1 POP JUMP JUMPDEST PUSH32 0x5472616E73616374696F6E204641494C45443A204F6E6C79207468652070656E PUSH0 DUP3 ADD MSTORE PUSH32 0x64696E67206F776E65722063616E20616363657074206F776E65727368697021 PUSH1 0x20 DUP3 ADD MSTORE POP JUMP JUMPDEST PUSH0 PUSH2 0x45A7 PUSH1 0x40 DUP4 PUSH2 0x33B6 JUMP JUMPDEST SWAP2 POP PUSH2 0x45B2 DUP3 PUSH2 0x454D JUMP JUMPDEST PUSH1 0x40 DUP3 ADD SWAP1 POP SWAP2 SWAP1 POP JUMP JUMPDEST PUSH0 PUSH1 0x20 DUP3 ADD SWAP1 POP DUP2 DUP2 SUB PUSH0 DUP4 ADD MSTORE PUSH2 0x45D4 DUP2 PUSH2 0x459B JUMP JUMPDEST SWAP1 POP SWAP2 SWAP1 POP JUMP JUMPDEST PUSH32 0x5452414E53414354494F4E204552524F523A207468652061756374696F6E2063 PUSH0 DUP3 ADD MSTORE PUSH32 0x616E63656C6C6174696F6E2070726F63657373206D75737420626520696E6974 PUSH1 0x20 DUP3 ADD MSTORE PUSH32 0x6961746564206265666F7265207468652070726F636573732063616E20626520 PUSH1 0x40 DUP3 ADD MSTORE PUSH32 0x636F6D706C6574656420746F20656E737572652074686174206E6F2061636369 PUSH1 0x60 DUP3 ADD MSTORE PUSH32 0x64656E74616C2063616E63656C6C6174696F6E20636F756C64206F6363757221 PUSH1 0x80 DUP3 ADD MSTORE POP JUMP JUMPDEST PUSH0 PUSH2 0x46A7 PUSH1 0xA0 DUP4 PUSH2 0x33B6 JUMP JUMPDEST SWAP2 POP PUSH2 0x46B2 DUP3 PUSH2 0x45DB JUMP JUMPDEST PUSH1 0xA0 DUP3 ADD SWAP1 POP SWAP2 SWAP1 POP JUMP JUMPDEST PUSH0 PUSH1 0x20 DUP3 ADD SWAP1 POP DUP2 DUP2 SUB PUSH0 DUP4 ADD MSTORE PUSH2 0x46D4 DUP2 PUSH2 0x469B JUMP JUMPDEST SWAP1 POP SWAP2 SWAP1 POP JUMP JUMPDEST PUSH32 0x5452414E53414354494F4E204552524F523A2073657474696E67732074686520 PUSH0 DUP3 ADD MSTORE PUSH32 0x69706673206973206F6E6C7920706F737369626C65206265666F726520746865 PUSH1 0x20 DUP3 ADD MSTORE PUSH32 0x2061756374696F6E207374617274732100000000000000000000000000000000 PUSH1 0x40 DUP3 ADD MSTORE POP JUMP JUMPDEST PUSH0 PUSH2 0x475B PUSH1 0x50 DUP4 PUSH2 0x33B6 JUMP JUMPDEST SWAP2 POP PUSH2 0x4766 DUP3 PUSH2 0x46DB JUMP JUMPDEST PUSH1 0x60 DUP3 ADD SWAP1 POP SWAP2 SWAP1 POP JUMP JUMPDEST PUSH0 PUSH1 0x20 DUP3 ADD SWAP1 POP DUP2 DUP2 SUB PUSH0 DUP4 ADD MSTORE PUSH2 0x4788 DUP2 PUSH2 0x474F JUMP JUMPDEST SWAP1 POP SWAP2 SWAP1 POP JUMP JUMPDEST PUSH0 DUP2 SWAP1 POP DUP2 PUSH0 MSTORE PUSH1 0x20 PUSH0 KECCAK256 SWAP1 POP SWAP2 SWAP1 POP JUMP JUMPDEST PUSH0 PUSH1 0x20 PUSH1 0x1F DUP4 ADD DIV SWAP1 POP SWAP2 SWAP1 POP JUMP JUMPDEST PUSH0 DUP3 DUP3 SHL SWAP1 POP SWAP3 SWAP2 POP POP JUMP JUMPDEST PUSH0 PUSH1 0x8 DUP4 MUL PUSH2 0x47EB PUSH32 0xFFFFFFFFFFFFFFFFFFFFFFFFFFFFFFFFFFFFFFFFFFFFFFFFFFFFFFFFFFFFFFFF DUP3 PUSH2 0x47B0 JUMP JUMPDEST PUSH2 0x47F5 DUP7 DUP4 PUSH2 0x47B0 JUMP JUMPDEST SWAP6 POP DUP1 NOT DUP5 AND SWAP4 POP DUP1 DUP7 AND DUP5 OR SWAP3 POP POP POP SWAP4 SWAP3 POP POP POP JUMP JUMPDEST PUSH0 DUP2 SWAP1 POP SWAP2 SWAP1 POP JUMP JUMPDEST PUSH0 PUSH2 0x4830 PUSH2 0x482B PUSH2 0x4826 DUP5 PUSH2 0x3150 JUMP JUMPDEST PUSH2 0x480D JUMP JUMPDEST PUSH2 0x3150 JUMP JUMPDEST SWAP1 POP SWAP2 SWAP1 POP JUMP JUMPDEST PUSH0 DUP2 SWAP1 POP SWAP2 SWAP1 POP JUMP JUMPDEST PUSH2 0x4849 DUP4 PUSH2 0x4816 JUMP JUMPDEST PUSH2 0x485D PUSH2 0x4855 DUP3 PUSH2 0x4837 JUMP JUMPDEST DUP5 DUP5 SLOAD PUSH2 0x47BC JUMP JUMPDEST DUP3 SSTORE POP POP POP POP JUMP JUMPDEST PUSH0 SWAP1 JUMP JUMPDEST PUSH2 0x4871 PUSH2 0x4865 JUMP JUMPDEST PUSH2 0x487C DUP2 DUP5 DUP5 PUSH2 0x4840 JUMP JUMPDEST POP POP POP JUMP JUMPDEST JUMPDEST DUP2 DUP2 LT ISZERO PUSH2 0x489F JUMPI PUSH2 0x4894 PUSH0 DUP3 PUSH2 0x4869 JUMP JUMPDEST PUSH1 0x1 DUP2 ADD SWAP1 POP PUSH2 0x4882 JUMP JUMPDEST POP POP JUMP JUMPDEST PUSH1 0x1F DUP3 GT ISZERO PUSH2 0x48E4 JUMPI PUSH2 0x48B5 DUP2 PUSH2 0x478F JUMP JUMPDEST PUSH2 0x48BE DUP5 PUSH2 0x47A1 JUMP JUMPDEST DUP2 ADD PUSH1 0x20 DUP6 LT ISZERO PUSH2 0x48CD JUMPI DUP2 SWAP1 POP JUMPDEST PUSH2 0x48E1 PUSH2 0x48D9 DUP6 PUSH2 0x47A1 JUMP JUMPDEST DUP4 ADD DUP3 PUSH2 0x4881 JUMP JUMPDEST POP POP JUMPDEST POP POP POP JUMP JUMPDEST PUSH0 DUP3 DUP3 SHR SWAP1 POP SWAP3 SWAP2 POP POP JUMP JUMPDEST PUSH0 PUSH2 0x4904 PUSH0 NOT DUP5 PUSH1 0x8 MUL PUSH2 0x48E9 JUMP JUMPDEST NOT DUP1 DUP4 AND SWAP2 POP POP SWAP3 SWAP2 POP POP JUMP JUMPDEST PUSH0 PUSH2 0x491C DUP4 DUP4 PUSH2 0x48F5 JUMP JUMPDEST SWAP2 POP DUP3 PUSH1 0x2 MUL DUP3 OR SWAP1 POP SWAP3 SWAP2 POP POP JUMP JUMPDEST PUSH2 0x4935 DUP3 PUSH2 0x33AC JUMP JUMPDEST PUSH8 0xFFFFFFFFFFFFFFFF DUP2 GT ISZERO PUSH2 0x494E JUMPI PUSH2 0x494D PUSH2 0x35CC JUMP JUMPDEST JUMPDEST PUSH2 0x4958 DUP3 SLOAD PUSH2 0x41E5 JUMP JUMPDEST PUSH2 0x4963 DUP3 DUP3 DUP6 PUSH2 0x48A3 JUMP JUMPDEST PUSH0 PUSH1 0x20 SWAP1 POP PUSH1 0x1F DUP4 GT PUSH1 0x1 DUP2 EQ PUSH2 0x4994 JUMPI PUSH0 DUP5 ISZERO PUSH2 0x4982 JUMPI DUP3 DUP8 ADD MLOAD SWAP1 POP JUMPDEST PUSH2 0x498C DUP6 DUP3 PUSH2 0x4911 JUMP JUMPDEST DUP7 SSTORE POP PUSH2 0x49F3 JUMP JUMPDEST PUSH1 0x1F NOT DUP5 AND PUSH2 0x49A2 DUP7 PUSH2 0x478F JUMP JUMPDEST PUSH0 JUMPDEST DUP3 DUP2 LT ISZERO PUSH2 0x49C9 JUMPI DUP5 DUP10 ADD MLOAD DUP3 SSTORE PUSH1 0x1 DUP3 ADD SWAP2 POP PUSH1 0x20 DUP6 ADD SWAP5 POP PUSH1 0x20 DUP2 ADD SWAP1 POP PUSH2 0x49A4 JUMP JUMPDEST DUP7 DUP4 LT ISZERO PUSH2 0x49E6 JUMPI DUP5 DUP10 ADD MLOAD PUSH2 0x49E2 PUSH1 0x1F DUP10 AND DUP3 PUSH2 0x48F5 JUMP JUMPDEST DUP4 SSTORE POP JUMPDEST PUSH1 0x1 PUSH1 0x2 DUP9 MUL ADD DUP9 SSTORE POP POP POP JUMPDEST POP POP POP POP POP POP JUMP JUMPDEST PUSH32 0x5452414E53414354494F4E205741524E494E473A207468652061756374696F6E PUSH0 DUP3 ADD MSTORE PUSH32 0x2063616E63656C6C6174696F6E2070726F636573732068617320616C72656164 PUSH1 0x20 DUP3 ADD MSTORE PUSH32 0x7920626567756E21000000000000000000000000000000000000000000000000 PUSH1 0x40 DUP3 ADD MSTORE POP JUMP JUMPDEST PUSH0 PUSH2 0x4A7B PUSH1 0x48 DUP4 PUSH2 0x33B6 JUMP JUMPDEST SWAP2 POP PUSH2 0x4A86 DUP3 PUSH2 0x49FB JUMP JUMPDEST PUSH1 0x60 DUP3 ADD SWAP1 POP SWAP2 SWAP1 POP JUMP JUMPDEST PUSH0 PUSH1 0x20 DUP3 ADD SWAP1 POP DUP2 DUP2 SUB PUSH0 DUP4 ADD MSTORE PUSH2 0x4AA8 DUP2 PUSH2 0x4A6F JUMP JUMPDEST SWAP1 POP SWAP2 SWAP1 POP JUMP JUMPDEST PUSH32 0x5452414E53414354494F4E204552524F523A20616464696E6720706172746963 PUSH0 DUP3 ADD MSTORE PUSH32 0x6970616E747320746F20616E2061756374696F6E206973206F6E6C7920617661 PUSH1 0x20 DUP3 ADD MSTORE PUSH32 0x696C61626C65207768656E206974206973206120636C6F736564206175637469 PUSH1 0x40 DUP3 ADD MSTORE PUSH32 0x6F6E2C206C696D6974656420746F20612073656C656374656420616D6F756E74 PUSH1 0x60 DUP3 ADD MSTORE PUSH32 0x206F6620756E697175652077686974656C697374656420626964646572732100 PUSH1 0x80 DUP3 ADD MSTORE POP JUMP JUMPDEST PUSH0 PUSH2 0x4B7B PUSH1 0x9F DUP4 PUSH2 0x33B6 JUMP JUMPDEST SWAP2 POP PUSH2 0x4B86 DUP3 PUSH2 0x4AAF JUMP JUMPDEST PUSH1 0xA0 DUP3 ADD SWAP1 POP SWAP2 SWAP1 POP JUMP JUMPDEST PUSH0 PUSH1 0x20 DUP3 ADD SWAP1 POP DUP2 DUP2 SUB PUSH0 DUP4 ADD MSTORE PUSH2 0x4BA8 DUP2 PUSH2 0x4B6F JUMP JUMPDEST SWAP1 POP SWAP2 SWAP1 POP JUMP JUMPDEST PUSH32 0x5452414E53414354494F4E204552524F523A20616464696E6720706172746963 PUSH0 DUP3 ADD MSTORE PUSH32 0x6970616E747320746F206120636C6F7365642061756374696F6E206973206F6E PUSH1 0x20 DUP3 ADD MSTORE PUSH32 0x6C7920706F737369626C65206265666F7265207468652061756374696F6E2073 PUSH1 0x40 DUP3 ADD MSTORE PUSH32 0x74617274732E0000000000000000000000000000000000000000000000000000 PUSH1 0x60 DUP3 ADD MSTORE POP JUMP JUMPDEST PUSH0 PUSH2 0x4C55 PUSH1 0x66 DUP4 PUSH2 0x33B6 JUMP JUMPDEST SWAP2 POP PUSH2 0x4C60 DUP3 PUSH2 0x4BAF JUMP JUMPDEST PUSH1 0x80 DUP3 ADD SWAP1 POP SWAP2 SWAP1 POP JUMP JUMPDEST PUSH0 PUSH1 0x20 DUP3 ADD SWAP1 POP DUP2 DUP2 SUB PUSH0 DUP4 ADD MSTORE PUSH2 0x4C82 DUP2 PUSH2 0x4C49 JUMP JUMPDEST SWAP1 POP SWAP2 SWAP1 POP JUMP JUMPDEST PUSH32 0x4E487B7100000000000000000000000000000000000000000000000000000000 PUSH0 MSTORE PUSH1 0x32 PUSH1 0x4 MSTORE PUSH1 0x24 PUSH0 REVERT JUMPDEST PUSH32 0x5452414E53414354494F4E204552524F523A207468652061756374696F6E2069 PUSH0 DUP3 ADD MSTORE PUSH32 0x732063616E63656C6C6564210000000000000000000000000000000000000000 PUSH1 0x20 DUP3 ADD MSTORE POP JUMP JUMPDEST PUSH0 PUSH2 0x4D10 PUSH1 0x2C DUP4 PUSH2 0x33B6 JUMP JUMPDEST SWAP2 POP PUSH2 0x4D1B DUP3 PUSH2 0x4CB6 JUMP JUMPDEST PUSH1 0x40 DUP3 ADD SWAP1 POP SWAP2 SWAP1 POP JUMP JUMPDEST PUSH0 PUSH1 0x20 DUP3 ADD SWAP1 POP DUP2 DUP2 SUB PUSH0 DUP4 ADD MSTORE PUSH2 0x4D3D DUP2 PUSH2 0x4D04 JUMP JUMPDEST SWAP1 POP SWAP2 SWAP1 POP JUMP JUMPDEST PUSH32 0x5452414E53414354494F4E204552524F523A20626964206D7573742062652068 PUSH0 DUP3 ADD MSTORE PUSH32 0x6967686572207468616E20302100000000000000000000000000000000000000 PUSH1 0x20 DUP3 ADD MSTORE POP JUMP JUMPDEST PUSH0 PUSH2 0x4D9E PUSH1 0x2D DUP4 PUSH2 0x33B6 JUMP JUMPDEST SWAP2 POP PUSH2 0x4DA9 DUP3 PUSH2 0x4D44 JUMP JUMPDEST PUSH1 0x40 DUP3 ADD SWAP1 POP SWAP2 SWAP1 POP JUMP JUMPDEST PUSH0 PUSH1 0x20 DUP3 ADD SWAP1 POP DUP2 DUP2 SUB PUSH0 DUP4 ADD MSTORE PUSH2 0x4DCB DUP2 PUSH2 0x4D92 JUMP JUMPDEST SWAP1 POP SWAP2 SWAP1 POP JUMP JUMPDEST PUSH32 0x5452414E53414354494F4E204552524F523A2074686520656E74727920666565 PUSH0 DUP3 ADD MSTORE PUSH32 0x20776173206E6F74207061696420627920746865206163636F756E7421000000 PUSH1 0x20 DUP3 ADD MSTORE POP JUMP JUMPDEST PUSH0 PUSH2 0x4E2C PUSH1 0x3D DUP4 PUSH2 0x33B6 JUMP JUMPDEST SWAP2 POP PUSH2 0x4E37 DUP3 PUSH2 0x4DD2 JUMP JUMPDEST PUSH1 0x40 DUP3 ADD SWAP1 POP SWAP2 SWAP1 POP JUMP JUMPDEST PUSH0 PUSH1 0x20 DUP3 ADD SWAP1 POP DUP2 DUP2 SUB PUSH0 DUP4 ADD MSTORE PUSH2 0x4E59 DUP2 PUSH2 0x4E20 JUMP JUMPDEST SWAP1 POP SWAP2 SWAP1 POP JUMP JUMPDEST PUSH32 0x5452414E53414354494F4E204552524F523A20796F75206D7573742062652061 PUSH0 DUP3 ADD MSTORE PUSH32 0x2077686974656C6973746564207061727469636970616E7420696E206F726465 PUSH1 0x20 DUP3 ADD MSTORE PUSH32 0x7220746F20706C61636520612062696420696E207468697320636C6F73656420 PUSH1 0x40 DUP3 ADD MSTORE PUSH32 0x61756374696F6E21000000000000000000000000000000000000000000000000 PUSH1 0x60 DUP3 ADD MSTORE POP JUMP JUMPDEST PUSH0 PUSH2 0x4F06 PUSH1 0x68 DUP4 PUSH2 0x33B6 JUMP JUMPDEST SWAP2 POP PUSH2 0x4F11 DUP3 PUSH2 0x4E60 JUMP JUMPDEST PUSH1 0x80 DUP3 ADD SWAP1 POP SWAP2 SWAP1 POP JUMP JUMPDEST PUSH0 PUSH1 0x20 DUP3 ADD SWAP1 POP DUP2 DUP2 SUB PUSH0 DUP4 ADD MSTORE PUSH2 0x4F33 DUP2 PUSH2 0x4EFA JUMP JUMPDEST SWAP1 POP SWAP2 SWAP1 POP JUMP JUMPDEST PUSH0 PUSH2 0x4F44 DUP3 PUSH2 0x3150 JUMP JUMPDEST SWAP2 POP PUSH2 0x4F4F DUP4 PUSH2 0x3150 JUMP JUMPDEST SWAP3 POP DUP3 DUP3 ADD SWAP1 POP DUP1 DUP3 GT ISZERO PUSH2 0x4F67 JUMPI PUSH2 0x4F66 PUSH2 0x3F3C JUMP JUMPDEST JUMPDEST SWAP3 SWAP2 POP POP JUMP JUMPDEST PUSH32 0x5452414E53414354494F4E204552524F523A2074686520746F74616C20626964 PUSH0 DUP3 ADD MSTORE PUSH32 0x206D75737420626520686967686572207468616E20746865207374617274696E PUSH1 0x20 DUP3 ADD MSTORE PUSH32 0x6720707269636521000000000000000000000000000000000000000000000000 PUSH1 0x40 DUP3 ADD MSTORE POP JUMP JUMPDEST PUSH0 PUSH2 0x4FED PUSH1 0x48 DUP4 PUSH2 0x33B6 JUMP JUMPDEST SWAP2 POP PUSH2 0x4FF8 DUP3 PUSH2 0x4F6D JUMP JUMPDEST PUSH1 0x60 DUP3 ADD SWAP1 POP SWAP2 SWAP1 POP JUMP JUMPDEST PUSH0 PUSH1 0x20 DUP3 ADD SWAP1 POP DUP2 DUP2 SUB PUSH0 DUP4 ADD MSTORE PUSH2 0x501A DUP2 PUSH2 0x4FE1 JUMP JUMPDEST SWAP1 POP SWAP2 SWAP1 POP JUMP JUMPDEST PUSH32 0x5452414E53414354494F4E204552524F523A20626964206D7573742062652067 PUSH0 DUP3 ADD MSTORE PUSH32 0x726561746572206F7220657175616C207468616E207468652073756D206F6620 PUSH1 0x20 DUP3 ADD MSTORE PUSH32 0x74686520686967686573742077696E6E696E672062696420616E642074686520 PUSH1 0x40 DUP3 ADD MSTORE PUSH32 0x62696420696E6372656D656E7421000000000000000000000000000000000000 PUSH1 0x60 DUP3 ADD MSTORE POP JUMP JUMPDEST PUSH0 PUSH2 0x50C7 PUSH1 0x6E DUP4 PUSH2 0x33B6 JUMP JUMPDEST SWAP2 POP PUSH2 0x50D2 DUP3 PUSH2 0x5021 JUMP JUMPDEST PUSH1 0x80 DUP3 ADD SWAP1 POP SWAP2 SWAP1 POP JUMP JUMPDEST PUSH0 PUSH1 0x20 DUP3 ADD SWAP1 POP DUP2 DUP2 SUB PUSH0 DUP4 ADD MSTORE PUSH2 0x50F4 DUP2 PUSH2 0x50BB JUMP JUMPDEST SWAP1 POP SWAP2 SWAP1 POP JUMP JUMPDEST PUSH32 0x5472616E73616374696F6E204641494C45443A20546865206E6577206F776E65 PUSH0 DUP3 ADD MSTORE PUSH32 0x722063616E6E6F7420626520746865207A65726F20286275726E292061646472 PUSH1 0x20 DUP3 ADD MSTORE PUSH32 0x6573732100000000000000000000000000000000000000000000000000000000 PUSH1 0x40 DUP3 ADD MSTORE POP JUMP JUMPDEST PUSH0 PUSH2 0x517B PUSH1 0x44 DUP4 PUSH2 0x33B6 JUMP JUMPDEST SWAP2 POP PUSH2 0x5186 DUP3 PUSH2 0x50FB JUMP JUMPDEST PUSH1 0x60 DUP3 ADD SWAP1 POP SWAP2 SWAP1 POP JUMP JUMPDEST PUSH0 PUSH1 0x20 DUP3 ADD SWAP1 POP DUP2 DUP2 SUB PUSH0 DUP4 ADD MSTORE PUSH2 0x51A8 DUP2 PUSH2 0x516F JUMP JUMPDEST SWAP1 POP SWAP2 SWAP1 POP JUMP JUMPDEST PUSH32 0x5472616E73616374696F6E204641494C45443A20546865206E6577206F776E65 PUSH0 DUP3 ADD MSTORE PUSH32 0x722063616E6E6F74206265207468652063757272656E74206F776E6572210000 PUSH1 0x20 DUP3 ADD MSTORE POP JUMP JUMPDEST PUSH0 PUSH2 0x5209 PUSH1 0x3E DUP4 PUSH2 0x33B6 JUMP JUMPDEST SWAP2 POP PUSH2 0x5214 DUP3 PUSH2 0x51AF JUMP JUMPDEST PUSH1 0x40 DUP3 ADD SWAP1 POP SWAP2 SWAP1 POP JUMP JUMPDEST PUSH0 PUSH1 0x20 DUP3 ADD SWAP1 POP DUP2 DUP2 SUB PUSH0 DUP4 ADD MSTORE PUSH2 0x5236 DUP2 PUSH2 0x51FD JUMP JUMPDEST SWAP1 POP SWAP2 SWAP1 POP JUMP JUMPDEST PUSH32 0x5472616E73616374696F6E204641494C45443A20546865207061737365642061 PUSH0 DUP3 ADD MSTORE PUSH32 0x64647265737320697320616C7265616479207468652070656E64696E67206F77 PUSH1 0x20 DUP3 ADD MSTORE PUSH32 0x6E65722100000000000000000000000000000000000000000000000000000000 PUSH1 0x40 DUP3 ADD MSTORE POP JUMP JUMPDEST PUSH0 PUSH2 0x52BD PUSH1 0x44 DUP4 PUSH2 0x33B6 JUMP JUMPDEST SWAP2 POP PUSH2 0x52C8 DUP3 PUSH2 0x523D JUMP JUMPDEST PUSH1 0x60 DUP3 ADD SWAP1 POP SWAP2 SWAP1 POP JUMP JUMPDEST PUSH0 PUSH1 0x20 DUP3 ADD SWAP1 POP DUP2 DUP2 SUB PUSH0 DUP4 ADD MSTORE PUSH2 0x52EA DUP2 PUSH2 0x52B1 JUMP JUMPDEST SWAP1 POP SWAP2 SWAP1 POP JUMP INVALID LOG2 PUSH5 0x6970667358 0x22 SLT KECCAK256 0xEA 0xE1 PUSH25 0x9013CB3612B8FE2F355CD40274ED9A12DAA1BD2E9208612B73 0xD7 SWAP4 STOP DUP11 PUSH5 0x736F6C6343 STOP ADDMOD BYTE STOP CALLER "
		},
		"gasEstimates": {
			"creation": {
				"codeDepositCost": "4257400",
				"executionCost": "infinite",
				"totalCost": "infinite"
			},
			"external": {
				"acceptOwnership()": "194411",
				"addMultipleParticipantsToWhitelist(address[])": "infinite",
				"addParticipantToWhitelist(address)": "infinite",
				"auctionEndBlock()": "2523",
				"auctionHighestBidAmount()": "2499",
				"auctionSnipeProtectionActivationInterval()": "infinite",
				"auctionSnipeProtectionNumOfBlocks()": "infinite",
				"auctionStartBlock()": "infinite",
				"auctionWinner()": "2560",
				"bidIncrement()": "infinite",
				"cancelAuction2Step()": "infinite",
				"cancellationProcessAccepted()": "2563",
				"cancelled()": "2585",
				"closedAuction()": "infinite",
				"contractETHBalance()": "469",
				"entryFee()": "infinite",
				"getBidAmountOfBidder(address)": "2919",
				"getIPFS()": "infinite",
				"getOwnershipHistory()": "infinite",
				"hasPaidEntryFee(address)": "2980",
				"hasWithdrawnEntryFee(address)": "2959",
				"isWhitelisted(address)": "3004",
				"onERC721Received(address,address,uint256,bytes)": "infinite",
				"owner()": "2583",
				"ownerWithdrew()": "2562",
				"payEntryFee()": "infinite",
				"pendingOwner()": "2626",
				"placeBid()": "infinite",
				"renounceOwnership()": "infinite",
				"renounceUnlocked()": "2636",
				"reservePrice()": "infinite",
				"resetAuctionCancellationProcess()": "infinite",
				"resetPendingOwner()": "26848",
				"setIPFS(string)": "infinite",
				"startAuctionCancellationProcess()": "infinite",
				"startRenounceProcess()": "infinite",
				"startingPrice()": "infinite",
				"terminateRenounceProcess()": "infinite",
				"transferOwnership(address)": "infinite",
				"withdraw()": "infinite",
				"withdrawEntryFee()": "infinite"
			},
			"internal": {
				"isContract(address)": "infinite",
				"nftTransferToAuctionWinner()": "infinite"
			}
		},
		"methodIdentifiers": {
			"acceptOwnership()": "79ba5097",
			"addMultipleParticipantsToWhitelist(address[])": "e9d7010c",
			"addParticipantToWhitelist(address)": "f851d770",
			"auctionEndBlock()": "07d52fa8",
			"auctionHighestBidAmount()": "dabe2cc4",
			"auctionSnipeProtectionActivationInterval()": "928ca325",
			"auctionSnipeProtectionNumOfBlocks()": "6cff3d2b",
			"auctionStartBlock()": "e651aca4",
			"auctionWinner()": "b37a8be3",
			"bidIncrement()": "b3cc167a",
			"cancelAuction2Step()": "86f3333e",
			"cancellationProcessAccepted()": "1de805e0",
			"cancelled()": "9a82a09a",
			"closedAuction()": "6c4f6dc1",
			"contractETHBalance()": "11841c41",
			"entryFee()": "072ea61c",
			"getBidAmountOfBidder(address)": "518cdc0e",
			"getIPFS()": "4efe2d1e",
			"getOwnershipHistory()": "6f4cf183",
			"hasPaidEntryFee(address)": "f2157773",
			"hasWithdrawnEntryFee(address)": "71354dca",
			"isWhitelisted(address)": "3af32abf",
			"onERC721Received(address,address,uint256,bytes)": "150b7a02",
			"owner()": "8da5cb5b",
			"ownerWithdrew()": "d12fb0a9",
			"payEntryFee()": "7037ec6f",
			"pendingOwner()": "e30c3978",
			"placeBid()": "ecfc7ecc",
			"renounceOwnership()": "715018a6",
			"renounceUnlocked()": "2bb401d4",
			"reservePrice()": "db2e1eed",
			"resetAuctionCancellationProcess()": "026892fc",
			"resetPendingOwner()": "ea31876a",
			"setIPFS(string)": "d19ac77a",
			"startAuctionCancellationProcess()": "d870e809",
			"startRenounceProcess()": "0da55161",
			"startingPrice()": "d6fbf202",
			"terminateRenounceProcess()": "a5875cab",
			"transferOwnership(address)": "f2fde38b",
			"withdraw()": "3ccfd60b",
			"withdrawEntryFee()": "12bb3730"
		}
	},
	"abi": [
		{
			"inputs": [
				{
					"internalType": "uint256",
					"name": "auctionStartBlock_",
					"type": "uint256"
				},
				{
					"internalType": "uint256",
					"name": "auctionEndBlock_",
					"type": "uint256"
				},
				{
					"internalType": "uint256",
					"name": "startingPrice_",
					"type": "uint256"
				},
				{
					"internalType": "uint256",
					"name": "bidIncrement_",
					"type": "uint256"
				},
				{
					"internalType": "uint256",
					"name": "reservePrice_",
					"type": "uint256"
				},
				{
					"internalType": "bool",
					"name": "closedAuction_",
					"type": "bool"
				},
				{
					"internalType": "uint256",
					"name": "entryFee_",
					"type": "uint256"
				},
				{
					"internalType": "uint256",
					"name": "auctionSnipeProtectionActivationInterval_",
					"type": "uint256"
				},
				{
					"internalType": "uint256",
					"name": "auctionSnipeProtectionNumOfBlocks_",
					"type": "uint256"
				},
				{
					"internalType": "address",
					"name": "nftContractAddress_",
					"type": "address"
				},
				{
					"internalType": "uint256",
					"name": "nftTokenID_",
					"type": "uint256"
				}
			],
			"stateMutability": "nonpayable",
			"type": "constructor"
		},
		{
			"anonymous": false,
			"inputs": [
				{
					"indexed": true,
					"internalType": "address",
					"name": "owner_",
					"type": "address"
				}
			],
			"name": "AuctionCancelled",
			"type": "event"
		},
		{
			"anonymous": false,
			"inputs": [
				{
					"indexed": true,
					"internalType": "address",
					"name": "bidder_",
					"type": "address"
				}
			],
			"name": "AuctionSnipePreventionMechanismTriggered",
			"type": "event"
		},
		{
			"anonymous": false,
			"inputs": [
				{
					"indexed": true,
					"internalType": "address",
					"name": "bidder_",
					"type": "address"
				},
				{
					"indexed": true,
					"internalType": "uint256",
					"name": "previousHighestBidAmount_",
					"type": "uint256"
				},
				{
					"indexed": true,
					"internalType": "uint256",
					"name": "newHighestBidAmount_",
					"type": "uint256"
				}
			],
			"name": "BidPlacedSuccessfully",
			"type": "event"
		},
		{
			"anonymous": false,
			"inputs": [
				{
					"indexed": true,
					"internalType": "address",
					"name": "previousOwner_",
					"type": "address"
				},
				{
					"indexed": true,
					"internalType": "address",
					"name": "newOwner_",
					"type": "address"
				}
			],
			"name": "OwnershipTransferCompleted",
			"type": "event"
		},
		{
			"anonymous": false,
			"inputs": [
				{
					"indexed": true,
					"internalType": "address",
					"name": "entity_",
					"type": "address"
				},
				{
					"indexed": true,
					"internalType": "uint256",
					"name": "paidEntryFeeAmount_",
					"type": "uint256"
				}
			],
			"name": "PaidEntryFeeSuccessfully",
			"type": "event"
		},
		{
			"anonymous": false,
			"inputs": [
				{
					"indexed": true,
					"internalType": "address",
					"name": "owner_",
					"type": "address"
				}
			],
			"name": "RenounceProcessInitiated",
			"type": "event"
		},
		{
			"anonymous": false,
			"inputs": [
				{
					"indexed": true,
					"internalType": "address",
					"name": "owner_",
					"type": "address"
				}
			],
			"name": "RenounceProcessTerminated",
			"type": "event"
		},
		{
			"anonymous": false,
			"inputs": [
				{
					"indexed": true,
					"internalType": "address",
					"name": "owner_",
					"type": "address"
				},
				{
					"indexed": true,
					"internalType": "address",
					"name": "pendingOwner_",
					"type": "address"
				}
			],
			"name": "TransferOwnershipInitiated",
			"type": "event"
		},
		{
			"anonymous": false,
			"inputs": [
				{
					"indexed": true,
					"internalType": "address",
					"name": "entity_",
					"type": "address"
				},
				{
					"indexed": true,
					"internalType": "uint256",
					"name": "withdrawnEntryFeeAmount_",
					"type": "uint256"
				}
			],
			"name": "WithdrewEntryFeeSuccessfully",
			"type": "event"
		},
		{
			"anonymous": false,
			"inputs": [
				{
					"indexed": true,
					"internalType": "address",
					"name": "entity_",
					"type": "address"
				},
				{
					"indexed": true,
					"internalType": "uint256",
					"name": "withdrawAmount_",
					"type": "uint256"
				}
			],
			"name": "WithdrewSuccessfully",
			"type": "event"
		},
		{
			"inputs": [],
			"name": "acceptOwnership",
			"outputs": [
				{
					"internalType": "bool",
					"name": "",
					"type": "bool"
				}
			],
			"stateMutability": "nonpayable",
			"type": "function"
		},
		{
			"inputs": [
				{
					"internalType": "address[]",
					"name": "participants_",
					"type": "address[]"
				}
			],
			"name": "addMultipleParticipantsToWhitelist",
			"outputs": [
				{
					"internalType": "bool",
					"name": "",
					"type": "bool"
				}
			],
			"stateMutability": "nonpayable",
			"type": "function"
		},
		{
			"inputs": [
				{
					"internalType": "address",
					"name": "participant_",
					"type": "address"
				}
			],
			"name": "addParticipantToWhitelist",
			"outputs": [
				{
					"internalType": "bool",
					"name": "",
					"type": "bool"
				}
			],
			"stateMutability": "nonpayable",
			"type": "function"
		},
		{
			"inputs": [],
			"name": "auctionEndBlock",
			"outputs": [
				{
					"internalType": "uint256",
					"name": "",
					"type": "uint256"
				}
			],
			"stateMutability": "view",
			"type": "function"
		},
		{
			"inputs": [],
			"name": "auctionHighestBidAmount",
			"outputs": [
				{
					"internalType": "uint256",
					"name": "",
					"type": "uint256"
				}
			],
			"stateMutability": "view",
			"type": "function"
		},
		{
			"inputs": [],
			"name": "auctionSnipeProtectionActivationInterval",
			"outputs": [
				{
					"internalType": "uint256",
					"name": "",
					"type": "uint256"
				}
			],
			"stateMutability": "view",
			"type": "function"
		},
		{
			"inputs": [],
			"name": "auctionSnipeProtectionNumOfBlocks",
			"outputs": [
				{
					"internalType": "uint256",
					"name": "",
					"type": "uint256"
				}
			],
			"stateMutability": "view",
			"type": "function"
		},
		{
			"inputs": [],
			"name": "auctionStartBlock",
			"outputs": [
				{
					"internalType": "uint256",
					"name": "",
					"type": "uint256"
				}
			],
			"stateMutability": "view",
			"type": "function"
		},
		{
			"inputs": [],
			"name": "auctionWinner",
			"outputs": [
				{
					"internalType": "address",
					"name": "",
					"type": "address"
				}
			],
			"stateMutability": "view",
			"type": "function"
		},
		{
			"inputs": [],
			"name": "bidIncrement",
			"outputs": [
				{
					"internalType": "uint256",
					"name": "",
					"type": "uint256"
				}
			],
			"stateMutability": "view",
			"type": "function"
		},
		{
			"inputs": [],
			"name": "cancelAuction2Step",
			"outputs": [],
			"stateMutability": "nonpayable",
			"type": "function"
		},
		{
			"inputs": [],
			"name": "cancellationProcessAccepted",
			"outputs": [
				{
					"internalType": "bool",
					"name": "",
					"type": "bool"
				}
			],
			"stateMutability": "view",
			"type": "function"
		},
		{
			"inputs": [],
			"name": "cancelled",
			"outputs": [
				{
					"internalType": "bool",
					"name": "",
					"type": "bool"
				}
			],
			"stateMutability": "view",
			"type": "function"
		},
		{
			"inputs": [],
			"name": "closedAuction",
			"outputs": [
				{
					"internalType": "bool",
					"name": "",
					"type": "bool"
				}
			],
			"stateMutability": "view",
			"type": "function"
		},
		{
			"inputs": [],
			"name": "contractETHBalance",
			"outputs": [
				{
					"internalType": "uint256",
					"name": "",
					"type": "uint256"
				}
			],
			"stateMutability": "view",
			"type": "function"
		},
		{
			"inputs": [],
			"name": "entryFee",
			"outputs": [
				{
					"internalType": "uint256",
					"name": "",
					"type": "uint256"
				}
			],
			"stateMutability": "view",
			"type": "function"
		},
		{
			"inputs": [
				{
					"internalType": "address",
					"name": "bidder_",
					"type": "address"
				}
			],
			"name": "getBidAmountOfBidder",
			"outputs": [
				{
					"internalType": "uint256",
					"name": "",
					"type": "uint256"
				}
			],
			"stateMutability": "view",
			"type": "function"
		},
		{
			"inputs": [],
			"name": "getIPFS",
			"outputs": [
				{
					"internalType": "string",
					"name": "",
					"type": "string"
				}
			],
			"stateMutability": "view",
			"type": "function"
		},
		{
			"inputs": [],
			"name": "getOwnershipHistory",
			"outputs": [
				{
					"components": [
						{
							"internalType": "address",
							"name": "previousOwner",
							"type": "address"
						},
						{
							"internalType": "address",
							"name": "newOwner",
							"type": "address"
						},
						{
							"internalType": "uint256",
							"name": "blockNumber",
							"type": "uint256"
						},
						{
							"internalType": "bytes32",
							"name": "blockHash",
							"type": "bytes32"
						},
						{
							"internalType": "uint256",
							"name": "chainID",
							"type": "uint256"
						}
					],
					"internalType": "struct OwnershipControl.OwnershipChange[]",
					"name": "",
					"type": "tuple[]"
				}
			],
			"stateMutability": "view",
			"type": "function"
		},
		{
			"inputs": [
				{
					"internalType": "address",
					"name": "participant_",
					"type": "address"
				}
			],
			"name": "hasPaidEntryFee",
			"outputs": [
				{
					"internalType": "bool",
					"name": "",
					"type": "bool"
				}
			],
			"stateMutability": "view",
			"type": "function"
		},
		{
			"inputs": [
				{
					"internalType": "address",
					"name": "participant_",
					"type": "address"
				}
			],
			"name": "hasWithdrawnEntryFee",
			"outputs": [
				{
					"internalType": "bool",
					"name": "",
					"type": "bool"
				}
			],
			"stateMutability": "view",
			"type": "function"
		},
		{
			"inputs": [
				{
					"internalType": "address",
					"name": "participant_",
					"type": "address"
				}
			],
			"name": "isWhitelisted",
			"outputs": [
				{
					"internalType": "bool",
					"name": "",
					"type": "bool"
				}
			],
			"stateMutability": "view",
			"type": "function"
		},
		{
			"inputs": [
				{
					"internalType": "address",
					"name": "",
					"type": "address"
				},
				{
					"internalType": "address",
					"name": "",
					"type": "address"
				},
				{
					"internalType": "uint256",
					"name": "",
					"type": "uint256"
				},
				{
					"internalType": "bytes",
					"name": "",
					"type": "bytes"
				}
			],
			"name": "onERC721Received",
			"outputs": [
				{
					"internalType": "bytes4",
					"name": "",
					"type": "bytes4"
				}
			],
			"stateMutability": "pure",
			"type": "function"
		},
		{
			"inputs": [],
			"name": "owner",
			"outputs": [
				{
					"internalType": "address",
					"name": "",
					"type": "address"
				}
			],
			"stateMutability": "view",
			"type": "function"
		},
		{
			"inputs": [],
			"name": "ownerWithdrew",
			"outputs": [
				{
					"internalType": "bool",
					"name": "",
					"type": "bool"
				}
			],
			"stateMutability": "view",
			"type": "function"
		},
		{
			"inputs": [],
			"name": "payEntryFee",
			"outputs": [
				{
					"internalType": "bool",
					"name": "",
					"type": "bool"
				}
			],
			"stateMutability": "payable",
			"type": "function"
		},
		{
			"inputs": [],
			"name": "pendingOwner",
			"outputs": [
				{
					"internalType": "address",
					"name": "",
					"type": "address"
				}
			],
			"stateMutability": "view",
			"type": "function"
		},
		{
			"inputs": [],
			"name": "placeBid",
			"outputs": [
				{
					"internalType": "bool",
					"name": "",
					"type": "bool"
				}
			],
			"stateMutability": "payable",
			"type": "function"
		},
		{
			"inputs": [],
			"name": "renounceOwnership",
			"outputs": [
				{
					"internalType": "bool",
					"name": "",
					"type": "bool"
				}
			],
			"stateMutability": "nonpayable",
			"type": "function"
		},
		{
			"inputs": [],
			"name": "renounceUnlocked",
			"outputs": [
				{
					"internalType": "bool",
					"name": "",
					"type": "bool"
				}
			],
			"stateMutability": "view",
			"type": "function"
		},
		{
			"inputs": [],
			"name": "reservePrice",
			"outputs": [
				{
					"internalType": "uint256",
					"name": "",
					"type": "uint256"
				}
			],
			"stateMutability": "view",
			"type": "function"
		},
		{
			"inputs": [],
			"name": "resetAuctionCancellationProcess",
			"outputs": [],
			"stateMutability": "nonpayable",
			"type": "function"
		},
		{
			"inputs": [],
			"name": "resetPendingOwner",
			"outputs": [
				{
					"internalType": "bool",
					"name": "",
					"type": "bool"
				}
			],
			"stateMutability": "nonpayable",
			"type": "function"
		},
		{
			"inputs": [
				{
					"internalType": "string",
					"name": "ipfs_",
					"type": "string"
				}
			],
			"name": "setIPFS",
			"outputs": [
				{
					"internalType": "bool",
					"name": "",
					"type": "bool"
				}
			],
			"stateMutability": "nonpayable",
			"type": "function"
		},
		{
			"inputs": [],
			"name": "startAuctionCancellationProcess",
			"outputs": [],
			"stateMutability": "nonpayable",
			"type": "function"
		},
		{
			"inputs": [],
			"name": "startRenounceProcess",
			"outputs": [
				{
					"internalType": "bool",
					"name": "",
					"type": "bool"
				}
			],
			"stateMutability": "nonpayable",
			"type": "function"
		},
		{
			"inputs": [],
			"name": "startingPrice",
			"outputs": [
				{
					"internalType": "uint256",
					"name": "",
					"type": "uint256"
				}
			],
			"stateMutability": "view",
			"type": "function"
		},
		{
			"inputs": [],
			"name": "terminateRenounceProcess",
			"outputs": [
				{
					"internalType": "bool",
					"name": "",
					"type": "bool"
				}
			],
			"stateMutability": "nonpayable",
			"type": "function"
		},
		{
			"inputs": [
				{
					"internalType": "address",
					"name": "newOwner_",
					"type": "address"
				}
			],
			"name": "transferOwnership",
			"outputs": [
				{
					"internalType": "bool",
					"name": "",
					"type": "bool"
				}
			],
			"stateMutability": "nonpayable",
			"type": "function"
		},
		{
			"inputs": [],
			"name": "withdraw",
			"outputs": [
				{
					"internalType": "bool",
					"name": "",
					"type": "bool"
				}
			],
			"stateMutability": "nonpayable",
			"type": "function"
		},
		{
			"inputs": [],
			"name": "withdrawEntryFee",
			"outputs": [
				{
					"internalType": "bool",
					"name": "",
					"type": "bool"
				}
			],
			"stateMutability": "nonpayable",
			"type": "function"
		}
	]
}